{
  "address": "0x916227FA705a2a279Bf3e04D2D8579E654ba2BC2",
  "abi": [
    {
      "inputs": [
        {
          "internalType": "address",
          "name": "_oracle",
          "type": "address"
        }
      ],
      "stateMutability": "nonpayable",
      "type": "constructor"
    },
    {
      "inputs": [],
      "name": "getGasPrice",
      "outputs": [
        {
          "internalType": "uint256",
          "name": "",
          "type": "uint256"
        }
      ],
      "stateMutability": "view",
      "type": "function"
    },
    {
      "inputs": [],
      "name": "oracle",
      "outputs": [
        {
          "internalType": "contract AggregatorInterface",
          "name": "",
          "type": "address"
        }
      ],
      "stateMutability": "view",
      "type": "function"
    }
  ],
  "transactionHash": "0x96a4b0d59b5f6bf8824c8426d9e2c5e7909878145d2bddac1a2009985d11b617",
  "args": [
    "0xb1344A1c32eAD3042280FD1999efbA9F7c207431"
  ],
  "solcInputHash": "ac03ae9350d4f3d80c630fd0d6553f12",
  "bytecode": "0x60a060405234801561001057600080fd5b5060405161021338038061021383398101604081905261002f91610044565b60601b6001600160601b031916608052610074565b60006020828403121561005657600080fd5b81516001600160a01b038116811461006d57600080fd5b9392505050565b60805160601c61017c61009760003960008181605b01526099015261017c6000f3fe608060405234801561001057600080fd5b50600436106100365760003560e01c8063455259cb1461003b5780637dc0d1d014610056575b600080fd5b610043610095565b6040519081526020015b60405180910390f35b61007d7f000000000000000000000000000000000000000000000000000000000000000081565b6040516001600160a01b03909116815260200161004d565b60007f00000000000000000000000000000000000000000000000000000000000000006001600160a01b03166350d25bcd6040518163ffffffff1660e01b815260040160206040518083038186803b1580156100f057600080fd5b505afa158015610104573d6000803e3d6000fd5b505050506040513d601f19601f82011682018060405250810190610128919061012d565b905090565b60006020828403121561013f57600080fd5b505191905056fea2646970667358221220b96e823d95d789fea4e2f671641f56645e690eac03f5f0b74ebed080c357eac164736f6c63430008060033",
  "devdoc": {
    "kind": "dev",
    "methods": {
      "getGasPrice()": {
        "returns": {
          "_0": "value of gas price"
        }
      }
    },
    "version": 1
  },
  "userdoc": {
    "kind": "user",
    "methods": {
      "getGasPrice()": {
        "notice": "Returns current network gas price"
      }
    },
    "version": 1
  },
  "storageLayout": {
    "storage": [],
    "types": null
  }
}