{
  "address": "0x5501622b2b4d28d533fB6F9693797b1405BccCBb",
  "abi": [
    {
      "inputs": [
        {
          "internalType": "address",
          "name": "_referencePool",
          "type": "address"
        },
        {
          "internalType": "address",
          "name": "_chainlinkOracle",
          "type": "address"
        },
        {
          "internalType": "address",
          "name": "_uniswapOracle",
          "type": "address"
        }
      ],
      "stateMutability": "nonpayable",
      "type": "constructor"
    },
    {
      "anonymous": false,
      "inputs": [
        {
          "indexed": true,
          "internalType": "address",
          "name": "pool",
          "type": "address"
        },
        {
          "indexed": false,
          "internalType": "address",
          "name": "fee",
          "type": "address"
        }
      ],
      "name": "NewFlatRateCommissionStakingPool",
      "type": "event"
    },
    {
      "anonymous": false,
      "inputs": [
        {
          "indexed": true,
          "internalType": "address",
          "name": "pool",
          "type": "address"
        },
        {
          "indexed": false,
          "internalType": "address",
          "name": "fee",
          "type": "address"
        }
      ],
      "name": "NewGasTaxCommissionStakingPool",
      "type": "event"
    },
    {
      "anonymous": false,
      "inputs": [
        {
          "indexed": true,
          "internalType": "address",
          "name": "previousOwner",
          "type": "address"
        },
        {
          "indexed": true,
          "internalType": "address",
          "name": "newOwner",
          "type": "address"
        }
      ],
      "name": "OwnershipTransferred",
      "type": "event"
    },
    {
      "anonymous": false,
      "inputs": [
        {
          "indexed": false,
          "internalType": "address",
          "name": "account",
          "type": "address"
        }
      ],
      "name": "Paused",
      "type": "event"
    },
    {
      "anonymous": false,
      "inputs": [
        {
          "indexed": false,
          "internalType": "address",
          "name": "account",
          "type": "address"
        }
      ],
      "name": "Unpaused",
      "type": "event"
    },
    {
      "inputs": [],
      "name": "chainlinkOracle",
      "outputs": [
        {
          "internalType": "address",
          "name": "",
          "type": "address"
        }
      ],
      "stateMutability": "view",
      "type": "function"
    },
    {
      "inputs": [
        {
          "internalType": "uint256",
          "name": "commission",
          "type": "uint256"
        }
      ],
      "name": "createFlatRateCommission",
      "outputs": [
        {
          "internalType": "address",
          "name": "",
          "type": "address"
        }
      ],
      "stateMutability": "payable",
      "type": "function"
    },
    {
      "inputs": [
        {
          "internalType": "uint256",
          "name": "gas",
          "type": "uint256"
        }
      ],
      "name": "createGasTaxCommission",
      "outputs": [
        {
          "internalType": "address",
          "name": "",
          "type": "address"
        }
      ],
      "stateMutability": "payable",
      "type": "function"
    },
    {
      "inputs": [],
      "name": "owner",
      "outputs": [
        {
          "internalType": "address",
          "name": "",
          "type": "address"
        }
      ],
      "stateMutability": "view",
      "type": "function"
    },
    {
      "inputs": [],
      "name": "pause",
      "outputs": [],
      "stateMutability": "nonpayable",
      "type": "function"
    },
    {
      "inputs": [],
      "name": "paused",
      "outputs": [
        {
          "internalType": "bool",
          "name": "",
          "type": "bool"
        }
      ],
      "stateMutability": "view",
      "type": "function"
    },
    {
      "inputs": [],
      "name": "poolImplementationReference",
      "outputs": [
        {
          "internalType": "address",
          "name": "",
          "type": "address"
        }
      ],
      "stateMutability": "view",
      "type": "function"
    },
    {
      "inputs": [],
      "name": "renounceOwnership",
      "outputs": [],
      "stateMutability": "nonpayable",
      "type": "function"
    },
    {
      "inputs": [
        {
          "internalType": "address",
          "name": "newOwner",
          "type": "address"
        }
      ],
      "name": "transferOwnership",
      "outputs": [],
      "stateMutability": "nonpayable",
      "type": "function"
    },
    {
      "inputs": [],
      "name": "uniswapOracle",
      "outputs": [
        {
          "internalType": "address",
          "name": "",
          "type": "address"
        }
      ],
      "stateMutability": "view",
      "type": "function"
    },
    {
      "inputs": [],
      "name": "unpause",
      "outputs": [],
      "stateMutability": "nonpayable",
      "type": "function"
    }
  ],
  "transactionHash": "0x21a681e74465fa607c14446d7d20d2373975b742046c6a7dba88c40f5169407d",
  "args": [
    "0x349d7A84CEA379479dfE34D1a40E2B4B73C02D58",
    "0xb1344A1c32eAD3042280FD1999efbA9F7c207431",
    "0xE9672a1b38E28b2c6BC8E2539F8BbE15cCff505C"
  ],
  "solcInputHash": "a2db77ccf663f13c899232604d70a49b",
  "bytecode": "0x60e060405234801561001057600080fd5b50604051611b57380380611b5783398101604081905261002f916101b2565b600080546001600160a01b031916339081178255604051909182917f8be0079c531659141344cd1fd0a4f28419497f9722a3daafe3b4186f6b6457e0908290a3506000805460ff60a01b191690556001600160a01b0383166100d15760405162461bcd60e51b81526020600482015260226024820152600080516020611b37833981519152604482015261399760f11b60648201526084015b60405180910390fd5b6001600160a01b0382166101205760405162461bcd60e51b81526020600482015260226024820152600080516020611b37833981519152604482015261399760f11b60648201526084016100c8565b6001600160a01b03811661016f5760405162461bcd60e51b81526020600482015260226024820152600080516020611b37833981519152604482015261399760f11b60648201526084016100c8565b6001600160601b0319606093841b811660805291831b821660a05290911b1660c0526101f5565b80516001600160a01b03811681146101ad57600080fd5b919050565b6000806000606084860312156101c757600080fd5b6101d084610196565b92506101de60208501610196565b91506101ec60408501610196565b90509250925092565b60805160601c60a05160601c60c05160601c6118ef6102486000396000818160b301526105bb0152600081816101b3015261059a015260008181610207015281816103e8015261062b01526118ef6000f3fe60806040526004361061009c5760003560e01c806386f1a7171161006457806386f1a7171461015d5780638da5cb5b14610170578063964658b61461018e578063ef06e72c146101a1578063f2fde38b146101d5578063fcda974d146101f557600080fd5b8063120c6c5b146100a15780633f4ba83a146100f25780635c975abb14610109578063715018a6146101335780638456cb5914610148575b600080fd5b3480156100ad57600080fd5b506100d57f000000000000000000000000000000000000000000000000000000000000000081565b6040516001600160a01b0390911681526020015b60405180910390f35b3480156100fe57600080fd5b50610107610229565b005b34801561011557600080fd5b50600054600160a01b900460ff1660405190151581526020016100e9565b34801561013f57600080fd5b506101076102b2565b34801561015457600080fd5b50610107610326565b6100d561016b366004610a6e565b610382565b34801561017c57600080fd5b506000546001600160a01b03166100d5565b6100d561019c366004610a6e565b61056b565b3480156101ad57600080fd5b506100d57f000000000000000000000000000000000000000000000000000000000000000081565b3480156101e157600080fd5b506101076101f0366004610a3e565b6107a0565b34801561020157600080fd5b506100d57f000000000000000000000000000000000000000000000000000000000000000081565b600054600160a01b900460ff1661027e5760405162461bcd60e51b815260206004820152601460248201527314185d5cd8589b194e881b9bdd081c185d5cd95960621b60448201526064015b60405180910390fd5b6000546001600160a01b031633146102a85760405162461bcd60e51b815260040161027590610ab1565b6102b061088a565b565b6000546001600160a01b031633146102dc5760405162461bcd60e51b815260040161027590610ab1565b600080546040516001600160a01b03909116907f8be0079c531659141344cd1fd0a4f28419497f9722a3daafe3b4186f6b6457e0908390a3600080546001600160a01b0319169055565b600054600160a01b900460ff16156103505760405162461bcd60e51b815260040161027590610a87565b6000546001600160a01b0316331461037a5760405162461bcd60e51b815260040161027590610ab1565b6102b0610927565b60008054600160a01b900460ff16156103ad5760405162461bcd60e51b815260040161027590610a87565b6000826040516103bc90610a24565b908152602001604051809103906000f0801580156103de573d6000803e3d6000fd5b509050600061040c7f000000000000000000000000000000000000000000000000000000000000000061098c565b60405163485cc95560e01b81526001600160a01b038481166004830152336024830152919250829182169063485cc95590604401600060405180830381600087803b15801561045a57600080fd5b505af115801561046e573d6000803e3d6000fd5b505060405163f2fde38b60e01b81523360048201526001600160a01b038616925063f2fde38b9150602401600060405180830381600087803b1580156104b357600080fd5b505af11580156104c7573d6000803e3d6000fd5b50505050806001600160a01b0316636ff46a6c346040518263ffffffff1660e01b81526004016000604051808303818588803b15801561050657600080fd5b505af115801561051a573d6000803e3d6000fd5b50506040516001600160a01b038781168252851693507fdca0276ad17c3c65434ae45a0754677f87ae465de69763ebe79ceaeff2805bc7925060200190505b60405180910390a2925050505b919050565b60008054600160a01b900460ff16156105965760405162461bcd60e51b815260040161027590610a87565b60007f00000000000000000000000000000000000000000000000000000000000000007f0000000000000000000000000000000000000000000000000000000000000000846040516105e790610a31565b6001600160a01b0393841681529290911660208301526040820152606001604051809103906000f080158015610621573d6000803e3d6000fd5b509050600061064f7f000000000000000000000000000000000000000000000000000000000000000061098c565b60405163485cc95560e01b81526001600160a01b038481166004830152336024830152919250829182169063485cc95590604401600060405180830381600087803b15801561069d57600080fd5b505af11580156106b1573d6000803e3d6000fd5b505060405163f2fde38b60e01b81523360048201526001600160a01b038616925063f2fde38b9150602401600060405180830381600087803b1580156106f657600080fd5b505af115801561070a573d6000803e3d6000fd5b50505050806001600160a01b0316636ff46a6c346040518263ffffffff1660e01b81526004016000604051808303818588803b15801561074957600080fd5b505af115801561075d573d6000803e3d6000fd5b50506040516001600160a01b038781168252851693507f93b9326c0865b177ab4a6131c8e6806a0edc9f3585dbaeb773542d3582d0457192506020019050610559565b6000546001600160a01b031633146107ca5760405162461bcd60e51b815260040161027590610ab1565b6001600160a01b03811661082f5760405162461bcd60e51b815260206004820152602660248201527f4f776e61626c653a206e6577206f776e657220697320746865207a65726f206160448201526564647265737360d01b6064820152608401610275565b600080546040516001600160a01b03808516939216917f8be0079c531659141344cd1fd0a4f28419497f9722a3daafe3b4186f6b6457e091a3600080546001600160a01b0319166001600160a01b0392909216919091179055565b600054600160a01b900460ff166108da5760405162461bcd60e51b815260206004820152601460248201527314185d5cd8589b194e881b9bdd081c185d5cd95960621b6044820152606401610275565b6000805460ff60a01b191690557f5db9ee0a495bf2e6ff9c91a7834c1ba4fdd244a5e8aa4e537bd38aeae4b073aa335b6040516001600160a01b03909116815260200160405180910390a1565b600054600160a01b900460ff16156109515760405162461bcd60e51b815260040161027590610a87565b6000805460ff60a01b1916600160a01b1790557f62e78cea01bee320cd4e420270b5ea74000d11b0c9f74754ebdbfc544b05a25861090a3390565b6000604051733d602d80600a3d3981f3363d3d373d3d3d363d7360601b81528260601b60148201526e5af43d82803e903d91602b57fd5bf360881b60288201526037816000f09150506001600160a01b0381166105665760405162461bcd60e51b8152602060048201526016602482015275115490cc4c4d8dce8818dc99585d194819985a5b195960521b6044820152606401610275565b61056680610ae783390190565b61086d8061104d83390190565b600060208284031215610a5057600080fd5b81356001600160a01b0381168114610a6757600080fd5b9392505050565b600060208284031215610a8057600080fd5b5035919050565b60208082526010908201526f14185d5cd8589b194e881c185d5cd95960821b604082015260600190565b6020808252818101527f4f776e61626c653a2063616c6c6572206973206e6f7420746865206f776e657260408201526060019056fe608060405261271060015534801561001657600080fd5b50604051610566380380610566833981016040819052610035916100b4565b600080546001600160a01b031916339081178255604051909182917f8be0079c531659141344cd1fd0a4f28419497f9722a3daafe3b4186f6b6457e0908290a35060028190556040518181527f7c077544e22d8a88c7724ade64ffb2e31f1dce5369f26a3754b8e04aa87bdb669060200160405180910390a1506100cd565b6000602082840312156100c657600080fd5b5051919050565b61048a806100dc6000396000f3fe608060405234801561001057600080fd5b506004361061007d5760003560e01c80638da5cb5b1161005b5780638da5cb5b146100bb578063b1fc8ad4146100d6578063ec342ad0146100e9578063f2fde38b146100f257600080fd5b80632c4e722e1461008257806334fcf4371461009e578063715018a6146100b3575b600080fd5b61008b60025481565b6040519081526020015b60405180910390f35b6100b16100ac366004610395565b610105565b005b6100b16101ea565b6000546040516001600160a01b039091168152602001610095565b61008b6100e43660046103ae565b61025e565b61008b60015481565b6100b161010036600461036c565b610282565b6000546001600160a01b031633146101385760405162461bcd60e51b815260040161012f906103d0565b60405180910390fd5b60025481106101af5760405162461bcd60e51b815260206004820152603760248201527f6e657752617465206e6565647320746f206265207374726963746c7920736d6160448201527f6c6c6572207468616e2063757272656e7420726174652e000000000000000000606482015260840161012f565b60028190556040518181527f7c077544e22d8a88c7724ade64ffb2e31f1dce5369f26a3754b8e04aa87bdb669060200160405180910390a150565b6000546001600160a01b031633146102145760405162461bcd60e51b815260040161012f906103d0565b600080546040516001600160a01b03909116907f8be0079c531659141344cd1fd0a4f28419497f9722a3daafe3b4186f6b6457e0908390a3600080546001600160a01b0319169055565b6000600154600254836102719190610427565b61027b9190610405565b9392505050565b6000546001600160a01b031633146102ac5760405162461bcd60e51b815260040161012f906103d0565b6001600160a01b0381166103115760405162461bcd60e51b815260206004820152602660248201527f4f776e61626c653a206e6577206f776e657220697320746865207a65726f206160448201526564647265737360d01b606482015260840161012f565b600080546040516001600160a01b03808516939216917f8be0079c531659141344cd1fd0a4f28419497f9722a3daafe3b4186f6b6457e091a3600080546001600160a01b0319166001600160a01b0392909216919091179055565b60006020828403121561037e57600080fd5b81356001600160a01b038116811461027b57600080fd5b6000602082840312156103a757600080fd5b5035919050565b600080604083850312156103c157600080fd5b50508035926020909101359150565b6020808252818101527f4f776e61626c653a2063616c6c6572206973206e6f7420746865206f776e6572604082015260600190565b60008261042257634e487b7160e01b600052601260045260246000fd5b500490565b600081600019048311821515161561044f57634e487b7160e01b600052601160045260246000fd5b50029056fea26469706673582212200734019a238d7859f017d97a1389722d2d196b0dddfd21bee1130d1e0baef2a864736f6c6343000806003360c060405234801561001057600080fd5b5060405161086d38038061086d83398101604081905261002f916100ed565b600080546001600160a01b031916339081178255604051909182917f8be0079c531659141344cd1fd0a4f28419497f9722a3daafe3b4186f6b6457e0908290a3506001600160601b0319606084811b821660805283901b1660a05260018190556040517fd8120d6ff65f04a7663a7fa333122bcf1630c76e6198691647b8b952fd6427f7906100c19083815260200190565b60405180910390a1505050610129565b80516001600160a01b03811681146100e857600080fd5b919050565b60008060006060848603121561010257600080fd5b61010b846100d1565b9250610119602085016100d1565b9150604084015190509250925092565b60805160601c60a05160601c61070d610160600039600081816092015261028f01526000818160d601526101e5015261070d6000f3fe608060405234801561001057600080fd5b50600436106100885760003560e01c80638da5cb5b1161005b5780638da5cb5b14610119578063b1fc8ad41461012a578063dd51faa21461013d578063f2fde38b1461015057600080fd5b80632630c12f1461008d5780635d62a8dd146100d15780636ca7c216146100f8578063715018a61461010f575b600080fd5b6100b47f000000000000000000000000000000000000000000000000000000000000000081565b6040516001600160a01b0390911681526020015b60405180910390f35b6100b47f000000000000000000000000000000000000000000000000000000000000000081565b61010160015481565b6040519081526020016100c8565b610117610163565b005b6000546001600160a01b03166100b4565b610101610138366004610631565b6101e0565b61011761014b366004610618565b61038f565b61011761015e36600461057f565b610479565b6000546001600160a01b031633146101965760405162461bcd60e51b815260040161018d90610653565b60405180910390fd5b600080546040516001600160a01b03909116907f8be0079c531659141344cd1fd0a4f28419497f9722a3daafe3b4186f6b6457e0908390a3600080546001600160a01b0319169055565b6000807f00000000000000000000000000000000000000000000000000000000000000006001600160a01b03166350d25bcd6040518163ffffffff1660e01b815260040160206040518083038186803b15801561023c57600080fd5b505afa158015610250573d6000803e3d6000fd5b505050506040513d601f19601f8201168201806040525081019061027491906105af565b905060006001548261028691906106aa565b905060008060007f00000000000000000000000000000000000000000000000000000000000000006001600160a01b0316630902f1ac6040518163ffffffff1660e01b815260040160606040518083038186803b1580156102e657600080fd5b505afa1580156102fa573d6000803e3d6000fd5b505050506040513d601f19601f8201168201806040525081019061031e91906105c8565b925092509250816001600160701b03166000141561034457600095505050505050610389565b6000826001600160701b0316846001600160701b03168661036591906106aa565b61036f9190610688565b905087811161037e5780610380565b875b96505050505050505b92915050565b6000546001600160a01b031633146103b95760405162461bcd60e51b815260040161018d90610653565b600154811061043e5760405162461bcd60e51b815260206004820152604560248201527f6e6577476173436f6d6d697373696f6e206e6565647320746f2062652073747260448201527f6963746c7920736d616c6c6572207468616e207468652063757272656e74207660648201526430b63ab29760d91b608482015260a40161018d565b60018190556040518181527fd8120d6ff65f04a7663a7fa333122bcf1630c76e6198691647b8b952fd6427f79060200160405180910390a150565b6000546001600160a01b031633146104a35760405162461bcd60e51b815260040161018d90610653565b6001600160a01b0381166105085760405162461bcd60e51b815260206004820152602660248201527f4f776e61626c653a206e6577206f776e657220697320746865207a65726f206160448201526564647265737360d01b606482015260840161018d565b600080546040516001600160a01b03808516939216917f8be0079c531659141344cd1fd0a4f28419497f9722a3daafe3b4186f6b6457e091a3600080546001600160a01b0319166001600160a01b0392909216919091179055565b80516001600160701b038116811461057a57600080fd5b919050565b60006020828403121561059157600080fd5b81356001600160a01b03811681146105a857600080fd5b9392505050565b6000602082840312156105c157600080fd5b5051919050565b6000806000606084860312156105dd57600080fd5b6105e684610563565b92506105f460208501610563565b9150604084015163ffffffff8116811461060d57600080fd5b809150509250925092565b60006020828403121561062a57600080fd5b5035919050565b6000806040838503121561064457600080fd5b50508035926020909101359150565b6020808252818101527f4f776e61626c653a2063616c6c6572206973206e6f7420746865206f776e6572604082015260600190565b6000826106a557634e487b7160e01b600052601260045260246000fd5b500490565b60008160001904831182151516156106d257634e487b7160e01b600052601160045260246000fd5b50029056fea26469706673582212201c11844a8adabefc7e05d4e4589318807c9e0f2df58705ef271f488a712707e464736f6c63430008060033a2646970667358221220d76ad7bbabb8e6b1e744843008d8deb7c3f3c1b66ba14217a85f6979d647dcfa64736f6c63430008060033706172616d657465722063616e206e6f74206265207a65726f20616464726573",
  "devdoc": {
    "kind": "dev",
    "methods": {
      "createFlatRateCommission(uint256)": {
        "returns": {
          "_0": "new pool address"
        }
      },
      "createGasTaxCommission(uint256)": {
        "returns": {
          "_0": "new pool address"
        }
      },
      "owner()": {
        "details": "Returns the address of the current owner."
      },
      "paused()": {
        "details": "Returns true if the contract is paused, and false otherwise."
      },
      "renounceOwnership()": {
        "details": "Leaves the contract without owner. It will not be possible to call `onlyOwner` functions anymore. Can only be called by the current owner. NOTE: Renouncing ownership will leave the contract without an owner, thereby removing any functionality that is only available to the owner."
      },
      "transferOwnership(address)": {
        "details": "Transfers ownership of the contract to a new account (`newOwner`). Can only be called by the current owner."
      }
    },
    "version": 1
  },
  "userdoc": {
    "events": {
      "NewFlatRateCommissionStakingPool(address,address)": {
        "notice": "Event emmited when a pool is created"
      },
      "NewGasTaxCommissionStakingPool(address,address)": {
        "notice": "Event emmited when a pool is created"
      }
    },
    "kind": "user",
    "methods": {
      "createFlatRateCommission(uint256)": {
        "notice": "Creates a new staking pool emits NewStakingPool with the parameters of the new pool"
      },
      "createGasTaxCommission(uint256)": {
        "notice": "Creates a new staking pool using a gas tax commission model emits NewGasTaxCommissionStakingPool with the parameters of the new pool"
      }
    },
    "version": 1
  },
  "storageLayout": {
    "storage": [
      {
        "astId": 647,
        "contract": "contracts/StakingPoolFactoryImpl.sol:StakingPoolFactoryImpl",
        "label": "_owner",
        "offset": 0,
        "slot": "0",
        "type": "t_address"
      },
      {
        "astId": 893,
        "contract": "contracts/StakingPoolFactoryImpl.sol:StakingPoolFactoryImpl",
        "label": "_paused",
        "offset": 20,
        "slot": "0",
        "type": "t_bool"
      }
    ],
    "types": {
      "t_address": {
        "encoding": "inplace",
        "label": "address",
        "numberOfBytes": "20"
      },
      "t_bool": {
        "encoding": "inplace",
        "label": "bool",
        "numberOfBytes": "1"
      }
    }
  }
}