{
  "address": "0xA08aA8D274ee28AF5eA107116a3c4A41d8D18af9",
  "abi": [
    {
      "inputs": [
        {
          "internalType": "address",
          "name": "_factory",
          "type": "address"
        },
        {
          "internalType": "address",
          "name": "_ctsi",
          "type": "address"
        },
        {
          "internalType": "address",
          "name": "_weth",
          "type": "address"
        }
      ],
      "stateMutability": "nonpayable",
      "type": "constructor"
    },
    {
      "inputs": [],
      "name": "ctsi",
      "outputs": [
        {
          "internalType": "address",
          "name": "",
          "type": "address"
        }
      ],
      "stateMutability": "view",
      "type": "function"
    },
    {
      "inputs": [],
      "name": "getPrice",
      "outputs": [
        {
          "internalType": "uint256",
          "name": "",
          "type": "uint256"
        }
      ],
      "stateMutability": "view",
      "type": "function"
    },
    {
      "inputs": [],
      "name": "pool",
      "outputs": [
        {
          "internalType": "address",
          "name": "",
          "type": "address"
        }
      ],
      "stateMutability": "view",
      "type": "function"
    },
    {
      "inputs": [],
      "name": "weth",
      "outputs": [
        {
          "internalType": "address",
          "name": "",
          "type": "address"
        }
      ],
      "stateMutability": "view",
      "type": "function"
    }
  ],
  "transactionHash": "0xea7941cae7a27de718641529cd5d71b1404e03b8ef1a61f709115c843e6e44e2",
  "args": [
    "0x1F98431c8aD98523631AE4a59f267346ea31F984",
    "0x20d9Fe4FbE713500EeE487B828576A8c7A0522B9",
    "0xc778417E063141139Fce010982780140Aa0cD5Ab"
  ],
  "solcInputHash": "6a95341bb08f5aff277c4f5642b78b71",
  "bytecode": "0x60e060405234801561001057600080fd5b50604051610b77380380610b778339818101604052606081101561003357600080fd5b5080516020808301516040938401518451630b4c774160e11b81526001600160a01b0380841660048301528083166024830152610bb8604483018190529651959693959294879360009392851692631698ee82926064808301939192829003018186803b1580156100a357600080fd5b505afa1580156100b7573d6000803e3d6000fd5b505050506040513d60208110156100cd57600080fd5b505190506001600160a01b03811661016d576040805163a167129560e01b81526001600160a01b038781166004830152868116602483015262ffffff8616604483015291519184169163a1671295916064808201926020929091908290030181600087803b15801561013e57600080fd5b505af1158015610152573d6000803e3d6000fd5b505050506040513d602081101561016857600080fd5b505190505b6001600160601b0319606091821b811660805293811b841660a0529390931b90911660c05250505060805160601c60a05160601c60c05160601c6109a16101d66000398060e9528061016752508060c5528061014652508060a1528061011352506109a16000f3fe608060405234801561001057600080fd5b506004361061004c5760003560e01c806316f0115b146100515780633fc8cef31461007557806364ffc3f41461007d57806398d5fdca14610085575b600080fd5b61005961009f565b604080516001600160a01b039092168252519081900360200190f35b6100596100c3565b6100596100e7565b61008d61010b565b60408051918252519081900360200190f35b7f000000000000000000000000000000000000000000000000000000000000000081565b7f000000000000000000000000000000000000000000000000000000000000000081565b7f000000000000000000000000000000000000000000000000000000000000000081565b60008061013a7f0000000000000000000000000000000000000000000000000000000000000000610708610192565b9050600061018b8260017f00000000000000000000000000000000000000000000000000000000000000007f0000000000000000000000000000000000000000000000000000000000000000610492565b9250505090565b600063ffffffff82166101d1576040805162461bcd60e51b8152602060048201526002602482015261042560f41b604482015290519081900360640190fd5b604080516002808252606080830184529260208301908036833701905050905082816000815181106101ff57fe5b602002602001019063ffffffff16908163ffffffff168152505060008160018151811061022857fe5b63ffffffff90921660209283029190910182015260405163883bdbfd60e01b8152600481018281528351602483015283516060936001600160a01b0389169363883bdbfd9387939092839260440191858201910280838360005b8381101561029a578181015183820152602001610282565b505050509050019250505060006040518083038186803b1580156102bd57600080fd5b505afa1580156102d1573d6000803e3d6000fd5b505050506040513d6000823e601f3d908101601f1916820160409081528110156102fa57600080fd5b810190808051604051939291908464010000000082111561031a57600080fd5b90830190602082018581111561032f57600080fd5b825186602082028301116401000000008211171561034c57600080fd5b82525081516020918201928201910280838360005b83811015610379578181015183820152602001610361565b50505050905001604052602001805160405193929190846401000000008211156103a257600080fd5b9083019060208201858111156103b757600080fd5b82518660208202830111640100000000821117156103d457600080fd5b82525081516020918201928201910280838360005b838110156104015781810151838201526020016103e9565b5050505090500160405250505050905060008160008151811061042057fe5b60200260200101518260018151811061043557fe5b60200260200101510390508463ffffffff168160060b8161045257fe5b05935060008160060b12801561047c57508463ffffffff168160060b8161047557fe5b0760060b15155b1561048957600019909301925b50505092915050565b60008061049e86610589565b90506001600160801b036001600160a01b0382161161050d576001600160a01b03808216800290848116908616106104ed576104e8600160c01b876001600160801b0316836108bb565b610505565b61050581876001600160801b0316600160c01b6108bb565b925050610580565b600061052c6001600160a01b03831680680100000000000000006108bb565b9050836001600160a01b0316856001600160a01b0316106105645761055f600160801b876001600160801b0316836108bb565b61057c565b61057c81876001600160801b0316600160801b6108bb565b9250505b50949350505050565b60008060008360020b126105a0578260020b6105a8565b8260020b6000035b9050620d89e88111156105e6576040805162461bcd60e51b81526020600482015260016024820152601560fa1b604482015290519081900360640190fd5b6000600182166105fa57600160801b61060c565b6ffffcb933bd6fad37aa2d162d1a5940015b70ffffffffffffffffffffffffffffffffff1690506002821615610640576ffff97272373d413259a46990580e213a0260801c5b600482161561065f576ffff2e50f5f656932ef12357cf3c7fdcc0260801c5b600882161561067e576fffe5caca7e10e4e61c3624eaa0941cd00260801c5b601082161561069d576fffcb9843d60f6159c9db58835c9266440260801c5b60208216156106bc576fff973b41fa98c081472e6896dfb254c00260801c5b60408216156106db576fff2ea16466c96a3843ec78b326b528610260801c5b60808216156106fa576ffe5dee046a99a2a811c461f1969c30530260801c5b61010082161561071a576ffcbe86c7900a88aedcffc83b479aa3a40260801c5b61020082161561073a576ff987a7253ac413176f2b074cf7815e540260801c5b61040082161561075a576ff3392b0822b70005940c7a398e4b70f30260801c5b61080082161561077a576fe7159475a2c29b7443b29c7fa6e889d90260801c5b61100082161561079a576fd097f3bdfd2022b8845ad8f792aa58250260801c5b6120008216156107ba576fa9f746462d870fdf8a65dc1f90e061e50260801c5b6140008216156107da576f70d869a156d2a1b890bb3df62baf32f70260801c5b6180008216156107fa576f31be135f97d08fd981231505542fcfa60260801c5b6201000082161561081b576f09aa508b5b7a84e1c677de54f3e99bc90260801c5b6202000082161561083b576e5d6af8dedb81196699c329225ee6040260801c5b6204000082161561085a576d2216e584f5fa1ea926041bedfe980260801c5b62080000821615610877576b048a170391f7dc42444e8fa20260801c5b60008460020b131561089257806000198161088e57fe5b0490505b6401000000008106156108a65760016108a9565b60005b60ff16602082901c0192505050919050565b60008080600019858709868602925082811090839003039050806108f157600084116108e657600080fd5b508290049050610964565b8084116108fd57600080fd5b6000848688096000868103871696879004966002600389028118808a02820302808a02820302808a02820302808a02820302808a02820302808a02909103029181900381900460010186841190950394909402919094039290920491909117919091029150505b939250505056fea2646970667358221220f41df16751b911c8425bd8250aa032f9c46658b28c641b7216c591c615e0db0764736f6c63430007040033"
}