{
  "contractName": "FlatRateCommission",
  "sourceName": "contracts/FlatRateCommission.sol",
  "abi": [
    {
      "inputs": [
        {
          "internalType": "uint256",
          "name": "_rate",
          "type": "uint256"
        },
        {
          "internalType": "uint256",
          "name": "_feeRaiseTimeout",
          "type": "uint256"
        },
        {
          "internalType": "uint256",
          "name": "_maxRaise",
          "type": "uint256"
        }
      ],
      "stateMutability": "nonpayable",
      "type": "constructor"
    },
    {
      "anonymous": false,
      "inputs": [
        {
          "indexed": false,
          "internalType": "uint256",
          "name": "newRate",
          "type": "uint256"
        },
        {
          "indexed": false,
          "internalType": "uint256",
          "name": "timeout",
          "type": "uint256"
        }
      ],
      "name": "FlatRateChanged",
      "type": "event"
    },
    {
      "anonymous": false,
      "inputs": [
        {
          "indexed": false,
          "internalType": "uint256",
          "name": "commission",
          "type": "uint256"
        }
      ],
      "name": "FlatRateCommissionCreated",
      "type": "event"
    },
    {
      "anonymous": false,
      "inputs": [
        {
          "indexed": true,
          "internalType": "address",
          "name": "previousOwner",
          "type": "address"
        },
        {
          "indexed": true,
          "internalType": "address",
          "name": "newOwner",
          "type": "address"
        }
      ],
      "name": "OwnershipTransferred",
      "type": "event"
    },
    {
      "inputs": [],
      "name": "BASE",
      "outputs": [
        {
          "internalType": "uint256",
          "name": "",
          "type": "uint256"
        }
      ],
      "stateMutability": "view",
      "type": "function"
    },
    {
      "inputs": [],
      "name": "feeRaiseTimeout",
      "outputs": [
        {
          "internalType": "uint256",
          "name": "",
          "type": "uint256"
        }
      ],
      "stateMutability": "view",
      "type": "function"
    },
    {
      "inputs": [
        {
          "internalType": "uint256",
          "name": "",
          "type": "uint256"
        },
        {
          "internalType": "uint256",
          "name": "rewardAmount",
          "type": "uint256"
        }
      ],
      "name": "getCommission",
      "outputs": [
        {
          "internalType": "uint256",
          "name": "",
          "type": "uint256"
        }
      ],
      "stateMutability": "view",
      "type": "function"
    },
    {
      "inputs": [],
      "name": "maxRaise",
      "outputs": [
        {
          "internalType": "uint256",
          "name": "",
          "type": "uint256"
        }
      ],
      "stateMutability": "view",
      "type": "function"
    },
    {
      "inputs": [],
      "name": "owner",
      "outputs": [
        {
          "internalType": "address",
          "name": "",
          "type": "address"
        }
      ],
      "stateMutability": "view",
      "type": "function"
    },
    {
      "inputs": [],
      "name": "rate",
      "outputs": [
        {
          "internalType": "uint256",
          "name": "",
          "type": "uint256"
        }
      ],
      "stateMutability": "view",
      "type": "function"
    },
    {
      "inputs": [],
      "name": "renounceOwnership",
      "outputs": [],
      "stateMutability": "nonpayable",
      "type": "function"
    },
    {
      "inputs": [
        {
          "internalType": "uint256",
          "name": "newRate",
          "type": "uint256"
        }
      ],
      "name": "setRate",
      "outputs": [],
      "stateMutability": "nonpayable",
      "type": "function"
    },
    {
      "inputs": [],
      "name": "timeoutTimestamp",
      "outputs": [
        {
          "internalType": "uint256",
          "name": "",
          "type": "uint256"
        }
      ],
      "stateMutability": "view",
      "type": "function"
    },
    {
      "inputs": [
        {
          "internalType": "address",
          "name": "newOwner",
          "type": "address"
        }
      ],
      "name": "transferOwnership",
      "outputs": [],
      "stateMutability": "nonpayable",
      "type": "function"
    }
  ],
  "bytecode": "0x60c060405261271060015534801561001657600080fd5b5060405161073b38038061073b833981016040819052610035916100e2565b61003e33610092565b6002839055608082905260a08190526003546040805185815260208101929092527f8a36c5a730a168f010484976acd9da00019dde58dcdaa557ec1035ade3805c92910160405180910390a1505050610110565b600080546001600160a01b038381166001600160a01b0319831681178455604051919092169283917f8be0079c531659141344cd1fd0a4f28419497f9722a3daafe3b4186f6b6457e09190a35050565b6000806000606084860312156100f757600080fd5b8351925060208401519150604084015190509250925092565b60805160a0516105f961014260003960008181610108015261023401526000818160a801526102f101526105f96000f3fe608060405234801561001057600080fd5b506004361061009e5760003560e01c80638da5cb5b116100665780638da5cb5b1461012a578063b1fc8ad414610145578063c2ce5e8614610158578063ec342ad014610161578063f2fde38b1461016a57600080fd5b8063112cde6a146100a35780632c4e722e146100dd57806334fcf437146100e6578063715018a6146100fb578063719ec6b114610103575b600080fd5b6100ca7f000000000000000000000000000000000000000000000000000000000000000081565b6040519081526020015b60405180910390f35b6100ca60025481565b6100f96100f43660046104cd565b61017d565b005b6100f961035f565b6100ca7f000000000000000000000000000000000000000000000000000000000000000081565b6000546040516001600160a01b0390911681526020016100d4565b6100ca6101533660046104e6565b610395565b6100ca60035481565b6100ca60015481565b6100f96101783660046104a4565b6103b9565b6000546001600160a01b031633146101b05760405162461bcd60e51b81526004016101a790610508565b60405180910390fd5b60025481111561031a574260035411156102325760405162461bcd60e51b815260206004820152603b60248201527f466c617452617465436f6d6d697373696f6e3a2074686520666565207261697360448201527f652074696d6f7574206973206e6f74206578706972656420796574000000000060648201526084016101a7565b7f0000000000000000000000000000000000000000000000000000000000000000600254826102619190610596565b11156102ec5760405162461bcd60e51b815260206004820152604e60248201527f466c617452617465436f6d6d697373696f6e3a2074686520666565207261697360448201527f65206973206f76657220746865206d6178696d756d20616c6c6f77656420706560648201526d7263656e746167652076616c756560901b608482015260a4016101a7565b6103167f00000000000000000000000000000000000000000000000000000000000000004261053d565b6003555b60028190556003546040805183815260208101929092527f8a36c5a730a168f010484976acd9da00019dde58dcdaa557ec1035ade3805c92910160405180910390a150565b6000546001600160a01b031633146103895760405162461bcd60e51b81526004016101a790610508565b6103936000610454565b565b6000600154600254836103a89190610577565b6103b29190610555565b9392505050565b6000546001600160a01b031633146103e35760405162461bcd60e51b81526004016101a790610508565b6001600160a01b0381166104485760405162461bcd60e51b815260206004820152602660248201527f4f776e61626c653a206e6577206f776e657220697320746865207a65726f206160448201526564647265737360d01b60648201526084016101a7565b61045181610454565b50565b600080546001600160a01b038381166001600160a01b0319831681178455604051919092169283917f8be0079c531659141344cd1fd0a4f28419497f9722a3daafe3b4186f6b6457e09190a35050565b6000602082840312156104b657600080fd5b81356001600160a01b03811681146103b257600080fd5b6000602082840312156104df57600080fd5b5035919050565b600080604083850312156104f957600080fd5b50508035926020909101359150565b6020808252818101527f4f776e61626c653a2063616c6c6572206973206e6f7420746865206f776e6572604082015260600190565b60008219821115610550576105506105ad565b500190565b60008261057257634e487b7160e01b600052601260045260246000fd5b500490565b6000816000190483118215151615610591576105916105ad565b500290565b6000828210156105a8576105a86105ad565b500390565b634e487b7160e01b600052601160045260246000fdfea2646970667358221220ffd6a04814198ba91364249c9ec95343dcabbda593c391e6f00a11a8c184686964736f6c63430008060033",
  "linkReferences": {},
  "deployedLinkReferences": {},
  "devdoc": {
    "events": {
      "FlatRateChanged(uint256,uint256)": {
        "params": {
          "newRate": "commission charged by the pool effective immediatly",
          "timeout": "timestamp for a new change if raising the fee"
        }
      },
      "FlatRateCommissionCreated(uint256)": {
        "params": {
          "commission": "commission charged by the pool"
        }
      }
    },
    "kind": "dev",
    "methods": {
      "getCommission(uint256,uint256)": {
        "returns": {
          "_0": "commissionTotal is the amount subtracted from the rewardAmount"
        }
      },
      "owner()": {
        "details": "Returns the address of the current owner."
      },
      "renounceOwnership()": {
        "details": "Leaves the contract without owner. It will not be possible to call `onlyOwner` functions anymore. Can only be called by the current owner. NOTE: Renouncing ownership will leave the contract without an owner, thereby removing any functionality that is only available to the owner."
      },
      "transferOwnership(address)": {
        "details": "Transfers ownership of the contract to a new account (`newOwner`). Can only be called by the current owner."
      }
    },
    "version": 1
  },
  "evm": {
    "bytecode": {
      "linkReferences": {},
      "opcodes": "PUSH1 0xC0 PUSH1 0x40 MSTORE PUSH2 0x2710 PUSH1 0x1 SSTORE CALLVALUE DUP1 ISZERO PUSH2 0x16 JUMPI PUSH1 0x0 DUP1 REVERT JUMPDEST POP PUSH1 0x40 MLOAD PUSH2 0x73B CODESIZE SUB DUP1 PUSH2 0x73B DUP4 CODECOPY DUP2 ADD PUSH1 0x40 DUP2 SWAP1 MSTORE PUSH2 0x35 SWAP2 PUSH2 0xE2 JUMP JUMPDEST PUSH2 0x3E CALLER PUSH2 0x92 JUMP JUMPDEST PUSH1 0x2 DUP4 SWAP1 SSTORE PUSH1 0x80 DUP3 SWAP1 MSTORE PUSH1 0xA0 DUP2 SWAP1 MSTORE PUSH1 0x3 SLOAD PUSH1 0x40 DUP1 MLOAD DUP6 DUP2 MSTORE PUSH1 0x20 DUP2 ADD SWAP3 SWAP1 SWAP3 MSTORE PUSH32 0x8A36C5A730A168F010484976ACD9DA00019DDE58DCDAA557EC1035ADE3805C92 SWAP2 ADD PUSH1 0x40 MLOAD DUP1 SWAP2 SUB SWAP1 LOG1 POP POP POP PUSH2 0x110 JUMP JUMPDEST PUSH1 0x0 DUP1 SLOAD PUSH1 0x1 PUSH1 0x1 PUSH1 0xA0 SHL SUB DUP4 DUP2 AND PUSH1 0x1 PUSH1 0x1 PUSH1 0xA0 SHL SUB NOT DUP4 AND DUP2 OR DUP5 SSTORE PUSH1 0x40 MLOAD SWAP2 SWAP1 SWAP3 AND SWAP3 DUP4 SWAP2 PUSH32 0x8BE0079C531659141344CD1FD0A4F28419497F9722A3DAAFE3B4186F6B6457E0 SWAP2 SWAP1 LOG3 POP POP JUMP JUMPDEST PUSH1 0x0 DUP1 PUSH1 0x0 PUSH1 0x60 DUP5 DUP7 SUB SLT ISZERO PUSH2 0xF7 JUMPI PUSH1 0x0 DUP1 REVERT JUMPDEST DUP4 MLOAD SWAP3 POP PUSH1 0x20 DUP5 ADD MLOAD SWAP2 POP PUSH1 0x40 DUP5 ADD MLOAD SWAP1 POP SWAP3 POP SWAP3 POP SWAP3 JUMP JUMPDEST PUSH1 0x80 MLOAD PUSH1 0xA0 MLOAD PUSH2 0x5F9 PUSH2 0x142 PUSH1 0x0 CODECOPY PUSH1 0x0 DUP2 DUP2 PUSH2 0x108 ADD MSTORE PUSH2 0x234 ADD MSTORE PUSH1 0x0 DUP2 DUP2 PUSH1 0xA8 ADD MSTORE PUSH2 0x2F1 ADD MSTORE PUSH2 0x5F9 PUSH1 0x0 RETURN INVALID PUSH1 0x80 PUSH1 0x40 MSTORE CALLVALUE DUP1 ISZERO PUSH2 0x10 JUMPI PUSH1 0x0 DUP1 REVERT JUMPDEST POP PUSH1 0x4 CALLDATASIZE LT PUSH2 0x9E JUMPI PUSH1 0x0 CALLDATALOAD PUSH1 0xE0 SHR DUP1 PUSH4 0x8DA5CB5B GT PUSH2 0x66 JUMPI DUP1 PUSH4 0x8DA5CB5B EQ PUSH2 0x12A JUMPI DUP1 PUSH4 0xB1FC8AD4 EQ PUSH2 0x145 JUMPI DUP1 PUSH4 0xC2CE5E86 EQ PUSH2 0x158 JUMPI DUP1 PUSH4 0xEC342AD0 EQ PUSH2 0x161 JUMPI DUP1 PUSH4 0xF2FDE38B EQ PUSH2 0x16A JUMPI PUSH1 0x0 DUP1 REVERT JUMPDEST DUP1 PUSH4 0x112CDE6A EQ PUSH2 0xA3 JUMPI DUP1 PUSH4 0x2C4E722E EQ PUSH2 0xDD JUMPI DUP1 PUSH4 0x34FCF437 EQ PUSH2 0xE6 JUMPI DUP1 PUSH4 0x715018A6 EQ PUSH2 0xFB JUMPI DUP1 PUSH4 0x719EC6B1 EQ PUSH2 0x103 JUMPI JUMPDEST PUSH1 0x0 DUP1 REVERT JUMPDEST PUSH2 0xCA PUSH32 0x0 DUP2 JUMP JUMPDEST PUSH1 0x40 MLOAD SWAP1 DUP2 MSTORE PUSH1 0x20 ADD JUMPDEST PUSH1 0x40 MLOAD DUP1 SWAP2 SUB SWAP1 RETURN JUMPDEST PUSH2 0xCA PUSH1 0x2 SLOAD DUP2 JUMP JUMPDEST PUSH2 0xF9 PUSH2 0xF4 CALLDATASIZE PUSH1 0x4 PUSH2 0x4CD JUMP JUMPDEST PUSH2 0x17D JUMP JUMPDEST STOP JUMPDEST PUSH2 0xF9 PUSH2 0x35F JUMP JUMPDEST PUSH2 0xCA PUSH32 0x0 DUP2 JUMP JUMPDEST PUSH1 0x0 SLOAD PUSH1 0x40 MLOAD PUSH1 0x1 PUSH1 0x1 PUSH1 0xA0 SHL SUB SWAP1 SWAP2 AND DUP2 MSTORE PUSH1 0x20 ADD PUSH2 0xD4 JUMP JUMPDEST PUSH2 0xCA PUSH2 0x153 CALLDATASIZE PUSH1 0x4 PUSH2 0x4E6 JUMP JUMPDEST PUSH2 0x395 JUMP JUMPDEST PUSH2 0xCA PUSH1 0x3 SLOAD DUP2 JUMP JUMPDEST PUSH2 0xCA PUSH1 0x1 SLOAD DUP2 JUMP JUMPDEST PUSH2 0xF9 PUSH2 0x178 CALLDATASIZE PUSH1 0x4 PUSH2 0x4A4 JUMP JUMPDEST PUSH2 0x3B9 JUMP JUMPDEST PUSH1 0x0 SLOAD PUSH1 0x1 PUSH1 0x1 PUSH1 0xA0 SHL SUB AND CALLER EQ PUSH2 0x1B0 JUMPI PUSH1 0x40 MLOAD PUSH3 0x461BCD PUSH1 0xE5 SHL DUP2 MSTORE PUSH1 0x4 ADD PUSH2 0x1A7 SWAP1 PUSH2 0x508 JUMP JUMPDEST PUSH1 0x40 MLOAD DUP1 SWAP2 SUB SWAP1 REVERT JUMPDEST PUSH1 0x2 SLOAD DUP2 GT ISZERO PUSH2 0x31A JUMPI TIMESTAMP PUSH1 0x3 SLOAD GT ISZERO PUSH2 0x232 JUMPI PUSH1 0x40 MLOAD PUSH3 0x461BCD PUSH1 0xE5 SHL DUP2 MSTORE PUSH1 0x20 PUSH1 0x4 DUP3 ADD MSTORE PUSH1 0x3B PUSH1 0x24 DUP3 ADD MSTORE PUSH32 0x466C617452617465436F6D6D697373696F6E3A20746865206665652072616973 PUSH1 0x44 DUP3 ADD MSTORE PUSH32 0x652074696D6F7574206973206E6F742065787069726564207965740000000000 PUSH1 0x64 DUP3 ADD MSTORE PUSH1 0x84 ADD PUSH2 0x1A7 JUMP JUMPDEST PUSH32 0x0 PUSH1 0x2 SLOAD DUP3 PUSH2 0x261 SWAP2 SWAP1 PUSH2 0x596 JUMP JUMPDEST GT ISZERO PUSH2 0x2EC JUMPI PUSH1 0x40 MLOAD PUSH3 0x461BCD PUSH1 0xE5 SHL DUP2 MSTORE PUSH1 0x20 PUSH1 0x4 DUP3 ADD MSTORE PUSH1 0x4E PUSH1 0x24 DUP3 ADD MSTORE PUSH32 0x466C617452617465436F6D6D697373696F6E3A20746865206665652072616973 PUSH1 0x44 DUP3 ADD MSTORE PUSH32 0x65206973206F76657220746865206D6178696D756D20616C6C6F776564207065 PUSH1 0x64 DUP3 ADD MSTORE PUSH14 0x7263656E746167652076616C7565 PUSH1 0x90 SHL PUSH1 0x84 DUP3 ADD MSTORE PUSH1 0xA4 ADD PUSH2 0x1A7 JUMP JUMPDEST PUSH2 0x316 PUSH32 0x0 TIMESTAMP PUSH2 0x53D JUMP JUMPDEST PUSH1 0x3 SSTORE JUMPDEST PUSH1 0x2 DUP2 SWAP1 SSTORE PUSH1 0x3 SLOAD PUSH1 0x40 DUP1 MLOAD DUP4 DUP2 MSTORE PUSH1 0x20 DUP2 ADD SWAP3 SWAP1 SWAP3 MSTORE PUSH32 0x8A36C5A730A168F010484976ACD9DA00019DDE58DCDAA557EC1035ADE3805C92 SWAP2 ADD PUSH1 0x40 MLOAD DUP1 SWAP2 SUB SWAP1 LOG1 POP JUMP JUMPDEST PUSH1 0x0 SLOAD PUSH1 0x1 PUSH1 0x1 PUSH1 0xA0 SHL SUB AND CALLER EQ PUSH2 0x389 JUMPI PUSH1 0x40 MLOAD PUSH3 0x461BCD PUSH1 0xE5 SHL DUP2 MSTORE PUSH1 0x4 ADD PUSH2 0x1A7 SWAP1 PUSH2 0x508 JUMP JUMPDEST PUSH2 0x393 PUSH1 0x0 PUSH2 0x454 JUMP JUMPDEST JUMP JUMPDEST PUSH1 0x0 PUSH1 0x1 SLOAD PUSH1 0x2 SLOAD DUP4 PUSH2 0x3A8 SWAP2 SWAP1 PUSH2 0x577 JUMP JUMPDEST PUSH2 0x3B2 SWAP2 SWAP1 PUSH2 0x555 JUMP JUMPDEST SWAP4 SWAP3 POP POP POP JUMP JUMPDEST PUSH1 0x0 SLOAD PUSH1 0x1 PUSH1 0x1 PUSH1 0xA0 SHL SUB AND CALLER EQ PUSH2 0x3E3 JUMPI PUSH1 0x40 MLOAD PUSH3 0x461BCD PUSH1 0xE5 SHL DUP2 MSTORE PUSH1 0x4 ADD PUSH2 0x1A7 SWAP1 PUSH2 0x508 JUMP JUMPDEST PUSH1 0x1 PUSH1 0x1 PUSH1 0xA0 SHL SUB DUP2 AND PUSH2 0x448 JUMPI PUSH1 0x40 MLOAD PUSH3 0x461BCD PUSH1 0xE5 SHL DUP2 MSTORE PUSH1 0x20 PUSH1 0x4 DUP3 ADD MSTORE PUSH1 0x26 PUSH1 0x24 DUP3 ADD MSTORE PUSH32 0x4F776E61626C653A206E6577206F776E657220697320746865207A65726F2061 PUSH1 0x44 DUP3 ADD MSTORE PUSH6 0x646472657373 PUSH1 0xD0 SHL PUSH1 0x64 DUP3 ADD MSTORE PUSH1 0x84 ADD PUSH2 0x1A7 JUMP JUMPDEST PUSH2 0x451 DUP2 PUSH2 0x454 JUMP JUMPDEST POP JUMP JUMPDEST PUSH1 0x0 DUP1 SLOAD PUSH1 0x1 PUSH1 0x1 PUSH1 0xA0 SHL SUB DUP4 DUP2 AND PUSH1 0x1 PUSH1 0x1 PUSH1 0xA0 SHL SUB NOT DUP4 AND DUP2 OR DUP5 SSTORE PUSH1 0x40 MLOAD SWAP2 SWAP1 SWAP3 AND SWAP3 DUP4 SWAP2 PUSH32 0x8BE0079C531659141344CD1FD0A4F28419497F9722A3DAAFE3B4186F6B6457E0 SWAP2 SWAP1 LOG3 POP POP JUMP JUMPDEST PUSH1 0x0 PUSH1 0x20 DUP3 DUP5 SUB SLT ISZERO PUSH2 0x4B6 JUMPI PUSH1 0x0 DUP1 REVERT JUMPDEST DUP2 CALLDATALOAD PUSH1 0x1 PUSH1 0x1 PUSH1 0xA0 SHL SUB DUP2 AND DUP2 EQ PUSH2 0x3B2 JUMPI PUSH1 0x0 DUP1 REVERT JUMPDEST PUSH1 0x0 PUSH1 0x20 DUP3 DUP5 SUB SLT ISZERO PUSH2 0x4DF JUMPI PUSH1 0x0 DUP1 REVERT JUMPDEST POP CALLDATALOAD SWAP2 SWAP1 POP JUMP JUMPDEST PUSH1 0x0 DUP1 PUSH1 0x40 DUP4 DUP6 SUB SLT ISZERO PUSH2 0x4F9 JUMPI PUSH1 0x0 DUP1 REVERT JUMPDEST POP POP DUP1 CALLDATALOAD SWAP3 PUSH1 0x20 SWAP1 SWAP2 ADD CALLDATALOAD SWAP2 POP JUMP JUMPDEST PUSH1 0x20 DUP1 DUP3 MSTORE DUP2 DUP2 ADD MSTORE PUSH32 0x4F776E61626C653A2063616C6C6572206973206E6F7420746865206F776E6572 PUSH1 0x40 DUP3 ADD MSTORE PUSH1 0x60 ADD SWAP1 JUMP JUMPDEST PUSH1 0x0 DUP3 NOT DUP3 GT ISZERO PUSH2 0x550 JUMPI PUSH2 0x550 PUSH2 0x5AD JUMP JUMPDEST POP ADD SWAP1 JUMP JUMPDEST PUSH1 0x0 DUP3 PUSH2 0x572 JUMPI PUSH4 0x4E487B71 PUSH1 0xE0 SHL PUSH1 0x0 MSTORE PUSH1 0x12 PUSH1 0x4 MSTORE PUSH1 0x24 PUSH1 0x0 REVERT JUMPDEST POP DIV SWAP1 JUMP JUMPDEST PUSH1 0x0 DUP2 PUSH1 0x0 NOT DIV DUP4 GT DUP3 ISZERO ISZERO AND ISZERO PUSH2 0x591 JUMPI PUSH2 0x591 PUSH2 0x5AD JUMP JUMPDEST POP MUL SWAP1 JUMP JUMPDEST PUSH1 0x0 DUP3 DUP3 LT ISZERO PUSH2 0x5A8 JUMPI PUSH2 0x5A8 PUSH2 0x5AD JUMP JUMPDEST POP SUB SWAP1 JUMP JUMPDEST PUSH4 0x4E487B71 PUSH1 0xE0 SHL PUSH1 0x0 MSTORE PUSH1 0x11 PUSH1 0x4 MSTORE PUSH1 0x24 PUSH1 0x0 REVERT INVALID LOG2 PUSH5 0x6970667358 0x22 SLT KECCAK256 SELFDESTRUCT 0xD6 LOG0 0x48 EQ NOT DUP12 0xA9 SGT PUSH5 0x249C9EC953 NUMBER 0xDC 0xAB 0xBD 0xA5 SWAP4 0xC3 SWAP2 0xE6 CREATE EXP GT 0xA8 0xC1 DUP5 PUSH9 0x6964736F6C63430008 MOD STOP CALLER "
    },
    "gasEstimates": {
      "creation": {
        "codeDepositCost": "305800",
        "executionCost": "infinite",
        "totalCost": "infinite"
      },
      "external": {
        "BASE()": "2350",
        "feeRaiseTimeout()": "infinite",
        "getCommission(uint256,uint256)": "4688",
        "maxRaise()": "infinite",
        "owner()": "2301",
        "rate()": "2307",
        "renounceOwnership()": "28181",
        "setRate(uint256)": "infinite",
        "timeoutTimestamp()": "2328",
        "transferOwnership(address)": "28362"
      }
    },
    "methodIdentifiers": {
      "BASE()": "ec342ad0",
      "feeRaiseTimeout()": "112cde6a",
      "getCommission(uint256,uint256)": "b1fc8ad4",
      "maxRaise()": "719ec6b1",
      "owner()": "8da5cb5b",
      "rate()": "2c4e722e",
      "renounceOwnership()": "715018a6",
      "setRate(uint256)": "34fcf437",
      "timeoutTimestamp()": "c2ce5e86",
      "transferOwnership(address)": "f2fde38b"
    }
  },
  "storageLayout": {
    "storage": [
      {
        "astId": 1184,
        "contract": "contracts/FlatRateCommission.sol:FlatRateCommission",
        "label": "_owner",
        "offset": 0,
        "slot": "0",
        "type": "t_address"
      },
      {
        "astId": 2222,
        "contract": "contracts/FlatRateCommission.sol:FlatRateCommission",
        "label": "BASE",
        "offset": 0,
        "slot": "1",
        "type": "t_uint256"
      },
      {
        "astId": 2224,
        "contract": "contracts/FlatRateCommission.sol:FlatRateCommission",
        "label": "rate",
        "offset": 0,
        "slot": "2",
        "type": "t_uint256"
      },
      {
        "astId": 2226,
        "contract": "contracts/FlatRateCommission.sol:FlatRateCommission",
        "label": "timeoutTimestamp",
        "offset": 0,
        "slot": "3",
        "type": "t_uint256"
      }
    ],
    "types": {
      "t_address": {
        "encoding": "inplace",
        "label": "address",
        "numberOfBytes": "20"
      },
      "t_uint256": {
        "encoding": "inplace",
        "label": "uint256",
        "numberOfBytes": "32"
      }
    }
  },
  "userdoc": {
    "events": {
      "FlatRateChanged(uint256,uint256)": {
        "notice": "event fired when setRate function is called and successful"
      },
      "FlatRateCommissionCreated(uint256)": {
        "notice": "Event emmited when a contract is created"
      }
    },
    "kind": "user",
    "methods": {
      "getCommission(uint256,uint256)": {
        "notice": "calculates the total amount of the reward that will be directed to the PoolManager"
      },
      "setRate(uint256)": {
        "notice": "allows for the poolManager to reduce how much they want to charge for the block production tx"
      }
    },
    "version": 1
  }
}