{
  "contractName": "FlatRateCommission",
  "sourceName": "contracts/FlatRateCommission.sol",
  "abi": [
    {
      "inputs": [
        {
          "internalType": "uint256",
          "name": "_rate",
          "type": "uint256"
        },
        {
          "internalType": "uint256",
          "name": "_feeRaiseTimeout",
          "type": "uint256"
        },
        {
          "internalType": "uint256",
          "name": "_maxRaise",
          "type": "uint256"
        }
      ],
      "stateMutability": "nonpayable",
      "type": "constructor"
    },
    {
      "anonymous": false,
      "inputs": [
        {
          "indexed": false,
          "internalType": "uint256",
          "name": "newRate",
          "type": "uint256"
        },
        {
          "indexed": false,
          "internalType": "uint256",
          "name": "timeout",
          "type": "uint256"
        }
      ],
      "name": "FlatRateChanged",
      "type": "event"
    },
    {
      "anonymous": false,
      "inputs": [
        {
          "indexed": false,
          "internalType": "uint256",
          "name": "commission",
          "type": "uint256"
        }
      ],
      "name": "FlatRateCommissionCreated",
      "type": "event"
    },
    {
      "anonymous": false,
      "inputs": [
        {
          "indexed": true,
          "internalType": "address",
          "name": "previousOwner",
          "type": "address"
        },
        {
          "indexed": true,
          "internalType": "address",
          "name": "newOwner",
          "type": "address"
        }
      ],
      "name": "OwnershipTransferred",
      "type": "event"
    },
    {
      "inputs": [],
      "name": "BASE",
      "outputs": [
        {
          "internalType": "uint256",
          "name": "",
          "type": "uint256"
        }
      ],
      "stateMutability": "view",
      "type": "function"
    },
    {
      "inputs": [],
      "name": "feeRaiseTimeout",
      "outputs": [
        {
          "internalType": "uint256",
          "name": "",
          "type": "uint256"
        }
      ],
      "stateMutability": "view",
      "type": "function"
    },
    {
      "inputs": [
        {
          "internalType": "uint256",
          "name": "",
          "type": "uint256"
        },
        {
          "internalType": "uint256",
          "name": "rewardAmount",
          "type": "uint256"
        }
      ],
      "name": "getCommission",
      "outputs": [
        {
          "internalType": "uint256",
          "name": "",
          "type": "uint256"
        }
      ],
      "stateMutability": "view",
      "type": "function"
    },
    {
      "inputs": [],
      "name": "maxRaise",
      "outputs": [
        {
          "internalType": "uint256",
          "name": "",
          "type": "uint256"
        }
      ],
      "stateMutability": "view",
      "type": "function"
    },
    {
      "inputs": [],
      "name": "owner",
      "outputs": [
        {
          "internalType": "address",
          "name": "",
          "type": "address"
        }
      ],
      "stateMutability": "view",
      "type": "function"
    },
    {
      "inputs": [],
      "name": "rate",
      "outputs": [
        {
          "internalType": "uint256",
          "name": "",
          "type": "uint256"
        }
      ],
      "stateMutability": "view",
      "type": "function"
    },
    {
      "inputs": [],
      "name": "renounceOwnership",
      "outputs": [],
      "stateMutability": "nonpayable",
      "type": "function"
    },
    {
      "inputs": [
        {
          "internalType": "uint256",
          "name": "newRate",
          "type": "uint256"
        }
      ],
      "name": "setRate",
      "outputs": [],
      "stateMutability": "nonpayable",
      "type": "function"
    },
    {
      "inputs": [],
      "name": "timeoutTimestamp",
      "outputs": [
        {
          "internalType": "uint256",
          "name": "",
          "type": "uint256"
        }
      ],
      "stateMutability": "view",
      "type": "function"
    },
    {
      "inputs": [
        {
          "internalType": "address",
          "name": "newOwner",
          "type": "address"
        }
      ],
      "name": "transferOwnership",
      "outputs": [],
      "stateMutability": "nonpayable",
      "type": "function"
    }
  ],
  "bytecode": "0x60c060405234801561001057600080fd5b5060405161074f38038061074f83398101604081905261002f916100dc565b6100383361008c565b6001839055608082905260a08190526002546040805185815260208101929092527f8a36c5a730a168f010484976acd9da00019dde58dcdaa557ec1035ade3805c92910160405180910390a150505061010a565b600080546001600160a01b038381166001600160a01b0319831681178455604051919092169283917f8be0079c531659141344cd1fd0a4f28419497f9722a3daafe3b4186f6b6457e09190a35050565b6000806000606084860312156100f157600080fd5b8351925060208401519150604084015190509250925092565b60805160a05161061361013c60003960008181610108015261023401526000818160a801526102f101526106136000f3fe608060405234801561001057600080fd5b506004361061009e5760003560e01c80638da5cb5b116100665780638da5cb5b1461012a578063b1fc8ad414610145578063c2ce5e8614610158578063ec342ad014610161578063f2fde38b1461016a57600080fd5b8063112cde6a146100a35780632c4e722e146100dd57806334fcf437146100e6578063715018a6146100fb578063719ec6b114610103575b600080fd5b6100ca7f000000000000000000000000000000000000000000000000000000000000000081565b6040519081526020015b60405180910390f35b6100ca60015481565b6100f96100f43660046104e7565b61017d565b005b6100f961035f565b6100ca7f000000000000000000000000000000000000000000000000000000000000000081565b6000546040516001600160a01b0390911681526020016100d4565b6100ca610153366004610500565b610395565b6100ca60025481565b6100ca61271081565b6100f96101783660046104b7565b6103cc565b6000546001600160a01b031633146101b05760405162461bcd60e51b81526004016101a790610522565b60405180910390fd5b60015481111561031a574260025411156102325760405162461bcd60e51b815260206004820152603c60248201527f466c617452617465436f6d6d697373696f6e3a2074686520666565207261697360448201527f652074696d656f7574206973206e6f742065787069726564207965740000000060648201526084016101a7565b7f00000000000000000000000000000000000000000000000000000000000000006001548261026191906105b0565b11156102ec5760405162461bcd60e51b815260206004820152604e60248201527f466c617452617465436f6d6d697373696f6e3a2074686520666565207261697360448201527f65206973206f76657220746865206d6178696d756d20616c6c6f77656420706560648201526d7263656e746167652076616c756560901b608482015260a4016101a7565b6103167f000000000000000000000000000000000000000000000000000000000000000042610557565b6002555b60018190556002546040805183815260208101929092527f8a36c5a730a168f010484976acd9da00019dde58dcdaa557ec1035ade3805c92910160405180910390a150565b6000546001600160a01b031633146103895760405162461bcd60e51b81526004016101a790610522565b6103936000610467565b565b600080612710600154846103a99190610591565b6103b3919061056f565b90508281116103c257806103c4565b825b949350505050565b6000546001600160a01b031633146103f65760405162461bcd60e51b81526004016101a790610522565b6001600160a01b03811661045b5760405162461bcd60e51b815260206004820152602660248201527f4f776e61626c653a206e6577206f776e657220697320746865207a65726f206160448201526564647265737360d01b60648201526084016101a7565b61046481610467565b50565b600080546001600160a01b038381166001600160a01b0319831681178455604051919092169283917f8be0079c531659141344cd1fd0a4f28419497f9722a3daafe3b4186f6b6457e09190a35050565b6000602082840312156104c957600080fd5b81356001600160a01b03811681146104e057600080fd5b9392505050565b6000602082840312156104f957600080fd5b5035919050565b6000806040838503121561051357600080fd5b50508035926020909101359150565b6020808252818101527f4f776e61626c653a2063616c6c6572206973206e6f7420746865206f776e6572604082015260600190565b6000821982111561056a5761056a6105c7565b500190565b60008261058c57634e487b7160e01b600052601260045260246000fd5b500490565b60008160001904831182151516156105ab576105ab6105c7565b500290565b6000828210156105c2576105c26105c7565b500390565b634e487b7160e01b600052601160045260246000fdfea264697066735822122085d5e30b0c1c3dd32e67b134dcbea33c284a9d2d18b3b24dc7185d78620b356664736f6c63430008070033",
  "linkReferences": {},
  "deployedLinkReferences": {},
  "devdoc": {
    "events": {
      "FlatRateChanged(uint256,uint256)": {
        "params": {
          "newRate": "commission charged by the pool effective immediatly",
          "timeout": "timestamp for a new change if raising the fee"
        }
      },
      "FlatRateCommissionCreated(uint256)": {
        "params": {
          "commission": "commission charged by the pool"
        }
      }
    },
    "kind": "dev",
    "methods": {
      "getCommission(uint256,uint256)": {
        "returns": {
          "_0": "commissionTotal is the amount subtracted from the rewardAmount"
        }
      },
      "owner()": {
        "details": "Returns the address of the current owner."
      },
      "renounceOwnership()": {
        "details": "Leaves the contract without owner. It will not be possible to call `onlyOwner` functions anymore. Can only be called by the current owner. NOTE: Renouncing ownership will leave the contract without an owner, thereby removing any functionality that is only available to the owner."
      },
      "transferOwnership(address)": {
        "details": "Transfers ownership of the contract to a new account (`newOwner`). Can only be called by the current owner."
      }
    },
    "version": 1
  },
  "evm": {
    "bytecode": {
      "linkReferences": {},
      "opcodes": "PUSH1 0xC0 PUSH1 0x40 MSTORE CALLVALUE DUP1 ISZERO PUSH2 0x10 JUMPI PUSH1 0x0 DUP1 REVERT JUMPDEST POP PUSH1 0x40 MLOAD PUSH2 0x74F CODESIZE SUB DUP1 PUSH2 0x74F DUP4 CODECOPY DUP2 ADD PUSH1 0x40 DUP2 SWAP1 MSTORE PUSH2 0x2F SWAP2 PUSH2 0xDC JUMP JUMPDEST PUSH2 0x38 CALLER PUSH2 0x8C JUMP JUMPDEST PUSH1 0x1 DUP4 SWAP1 SSTORE PUSH1 0x80 DUP3 SWAP1 MSTORE PUSH1 0xA0 DUP2 SWAP1 MSTORE PUSH1 0x2 SLOAD PUSH1 0x40 DUP1 MLOAD DUP6 DUP2 MSTORE PUSH1 0x20 DUP2 ADD SWAP3 SWAP1 SWAP3 MSTORE PUSH32 0x8A36C5A730A168F010484976ACD9DA00019DDE58DCDAA557EC1035ADE3805C92 SWAP2 ADD PUSH1 0x40 MLOAD DUP1 SWAP2 SUB SWAP1 LOG1 POP POP POP PUSH2 0x10A JUMP JUMPDEST PUSH1 0x0 DUP1 SLOAD PUSH1 0x1 PUSH1 0x1 PUSH1 0xA0 SHL SUB DUP4 DUP2 AND PUSH1 0x1 PUSH1 0x1 PUSH1 0xA0 SHL SUB NOT DUP4 AND DUP2 OR DUP5 SSTORE PUSH1 0x40 MLOAD SWAP2 SWAP1 SWAP3 AND SWAP3 DUP4 SWAP2 PUSH32 0x8BE0079C531659141344CD1FD0A4F28419497F9722A3DAAFE3B4186F6B6457E0 SWAP2 SWAP1 LOG3 POP POP JUMP JUMPDEST PUSH1 0x0 DUP1 PUSH1 0x0 PUSH1 0x60 DUP5 DUP7 SUB SLT ISZERO PUSH2 0xF1 JUMPI PUSH1 0x0 DUP1 REVERT JUMPDEST DUP4 MLOAD SWAP3 POP PUSH1 0x20 DUP5 ADD MLOAD SWAP2 POP PUSH1 0x40 DUP5 ADD MLOAD SWAP1 POP SWAP3 POP SWAP3 POP SWAP3 JUMP JUMPDEST PUSH1 0x80 MLOAD PUSH1 0xA0 MLOAD PUSH2 0x613 PUSH2 0x13C PUSH1 0x0 CODECOPY PUSH1 0x0 DUP2 DUP2 PUSH2 0x108 ADD MSTORE PUSH2 0x234 ADD MSTORE PUSH1 0x0 DUP2 DUP2 PUSH1 0xA8 ADD MSTORE PUSH2 0x2F1 ADD MSTORE PUSH2 0x613 PUSH1 0x0 RETURN INVALID PUSH1 0x80 PUSH1 0x40 MSTORE CALLVALUE DUP1 ISZERO PUSH2 0x10 JUMPI PUSH1 0x0 DUP1 REVERT JUMPDEST POP PUSH1 0x4 CALLDATASIZE LT PUSH2 0x9E JUMPI PUSH1 0x0 CALLDATALOAD PUSH1 0xE0 SHR DUP1 PUSH4 0x8DA5CB5B GT PUSH2 0x66 JUMPI DUP1 PUSH4 0x8DA5CB5B EQ PUSH2 0x12A JUMPI DUP1 PUSH4 0xB1FC8AD4 EQ PUSH2 0x145 JUMPI DUP1 PUSH4 0xC2CE5E86 EQ PUSH2 0x158 JUMPI DUP1 PUSH4 0xEC342AD0 EQ PUSH2 0x161 JUMPI DUP1 PUSH4 0xF2FDE38B EQ PUSH2 0x16A JUMPI PUSH1 0x0 DUP1 REVERT JUMPDEST DUP1 PUSH4 0x112CDE6A EQ PUSH2 0xA3 JUMPI DUP1 PUSH4 0x2C4E722E EQ PUSH2 0xDD JUMPI DUP1 PUSH4 0x34FCF437 EQ PUSH2 0xE6 JUMPI DUP1 PUSH4 0x715018A6 EQ PUSH2 0xFB JUMPI DUP1 PUSH4 0x719EC6B1 EQ PUSH2 0x103 JUMPI JUMPDEST PUSH1 0x0 DUP1 REVERT JUMPDEST PUSH2 0xCA PUSH32 0x0 DUP2 JUMP JUMPDEST PUSH1 0x40 MLOAD SWAP1 DUP2 MSTORE PUSH1 0x20 ADD JUMPDEST PUSH1 0x40 MLOAD DUP1 SWAP2 SUB SWAP1 RETURN JUMPDEST PUSH2 0xCA PUSH1 0x1 SLOAD DUP2 JUMP JUMPDEST PUSH2 0xF9 PUSH2 0xF4 CALLDATASIZE PUSH1 0x4 PUSH2 0x4E7 JUMP JUMPDEST PUSH2 0x17D JUMP JUMPDEST STOP JUMPDEST PUSH2 0xF9 PUSH2 0x35F JUMP JUMPDEST PUSH2 0xCA PUSH32 0x0 DUP2 JUMP JUMPDEST PUSH1 0x0 SLOAD PUSH1 0x40 MLOAD PUSH1 0x1 PUSH1 0x1 PUSH1 0xA0 SHL SUB SWAP1 SWAP2 AND DUP2 MSTORE PUSH1 0x20 ADD PUSH2 0xD4 JUMP JUMPDEST PUSH2 0xCA PUSH2 0x153 CALLDATASIZE PUSH1 0x4 PUSH2 0x500 JUMP JUMPDEST PUSH2 0x395 JUMP JUMPDEST PUSH2 0xCA PUSH1 0x2 SLOAD DUP2 JUMP JUMPDEST PUSH2 0xCA PUSH2 0x2710 DUP2 JUMP JUMPDEST PUSH2 0xF9 PUSH2 0x178 CALLDATASIZE PUSH1 0x4 PUSH2 0x4B7 JUMP JUMPDEST PUSH2 0x3CC JUMP JUMPDEST PUSH1 0x0 SLOAD PUSH1 0x1 PUSH1 0x1 PUSH1 0xA0 SHL SUB AND CALLER EQ PUSH2 0x1B0 JUMPI PUSH1 0x40 MLOAD PUSH3 0x461BCD PUSH1 0xE5 SHL DUP2 MSTORE PUSH1 0x4 ADD PUSH2 0x1A7 SWAP1 PUSH2 0x522 JUMP JUMPDEST PUSH1 0x40 MLOAD DUP1 SWAP2 SUB SWAP1 REVERT JUMPDEST PUSH1 0x1 SLOAD DUP2 GT ISZERO PUSH2 0x31A JUMPI TIMESTAMP PUSH1 0x2 SLOAD GT ISZERO PUSH2 0x232 JUMPI PUSH1 0x40 MLOAD PUSH3 0x461BCD PUSH1 0xE5 SHL DUP2 MSTORE PUSH1 0x20 PUSH1 0x4 DUP3 ADD MSTORE PUSH1 0x3C PUSH1 0x24 DUP3 ADD MSTORE PUSH32 0x466C617452617465436F6D6D697373696F6E3A20746865206665652072616973 PUSH1 0x44 DUP3 ADD MSTORE PUSH32 0x652074696D656F7574206973206E6F7420657870697265642079657400000000 PUSH1 0x64 DUP3 ADD MSTORE PUSH1 0x84 ADD PUSH2 0x1A7 JUMP JUMPDEST PUSH32 0x0 PUSH1 0x1 SLOAD DUP3 PUSH2 0x261 SWAP2 SWAP1 PUSH2 0x5B0 JUMP JUMPDEST GT ISZERO PUSH2 0x2EC JUMPI PUSH1 0x40 MLOAD PUSH3 0x461BCD PUSH1 0xE5 SHL DUP2 MSTORE PUSH1 0x20 PUSH1 0x4 DUP3 ADD MSTORE PUSH1 0x4E PUSH1 0x24 DUP3 ADD MSTORE PUSH32 0x466C617452617465436F6D6D697373696F6E3A20746865206665652072616973 PUSH1 0x44 DUP3 ADD MSTORE PUSH32 0x65206973206F76657220746865206D6178696D756D20616C6C6F776564207065 PUSH1 0x64 DUP3 ADD MSTORE PUSH14 0x7263656E746167652076616C7565 PUSH1 0x90 SHL PUSH1 0x84 DUP3 ADD MSTORE PUSH1 0xA4 ADD PUSH2 0x1A7 JUMP JUMPDEST PUSH2 0x316 PUSH32 0x0 TIMESTAMP PUSH2 0x557 JUMP JUMPDEST PUSH1 0x2 SSTORE JUMPDEST PUSH1 0x1 DUP2 SWAP1 SSTORE PUSH1 0x2 SLOAD PUSH1 0x40 DUP1 MLOAD DUP4 DUP2 MSTORE PUSH1 0x20 DUP2 ADD SWAP3 SWAP1 SWAP3 MSTORE PUSH32 0x8A36C5A730A168F010484976ACD9DA00019DDE58DCDAA557EC1035ADE3805C92 SWAP2 ADD PUSH1 0x40 MLOAD DUP1 SWAP2 SUB SWAP1 LOG1 POP JUMP JUMPDEST PUSH1 0x0 SLOAD PUSH1 0x1 PUSH1 0x1 PUSH1 0xA0 SHL SUB AND CALLER EQ PUSH2 0x389 JUMPI PUSH1 0x40 MLOAD PUSH3 0x461BCD PUSH1 0xE5 SHL DUP2 MSTORE PUSH1 0x4 ADD PUSH2 0x1A7 SWAP1 PUSH2 0x522 JUMP JUMPDEST PUSH2 0x393 PUSH1 0x0 PUSH2 0x467 JUMP JUMPDEST JUMP JUMPDEST PUSH1 0x0 DUP1 PUSH2 0x2710 PUSH1 0x1 SLOAD DUP5 PUSH2 0x3A9 SWAP2 SWAP1 PUSH2 0x591 JUMP JUMPDEST PUSH2 0x3B3 SWAP2 SWAP1 PUSH2 0x56F JUMP JUMPDEST SWAP1 POP DUP3 DUP2 GT PUSH2 0x3C2 JUMPI DUP1 PUSH2 0x3C4 JUMP JUMPDEST DUP3 JUMPDEST SWAP5 SWAP4 POP POP POP POP JUMP JUMPDEST PUSH1 0x0 SLOAD PUSH1 0x1 PUSH1 0x1 PUSH1 0xA0 SHL SUB AND CALLER EQ PUSH2 0x3F6 JUMPI PUSH1 0x40 MLOAD PUSH3 0x461BCD PUSH1 0xE5 SHL DUP2 MSTORE PUSH1 0x4 ADD PUSH2 0x1A7 SWAP1 PUSH2 0x522 JUMP JUMPDEST PUSH1 0x1 PUSH1 0x1 PUSH1 0xA0 SHL SUB DUP2 AND PUSH2 0x45B JUMPI PUSH1 0x40 MLOAD PUSH3 0x461BCD PUSH1 0xE5 SHL DUP2 MSTORE PUSH1 0x20 PUSH1 0x4 DUP3 ADD MSTORE PUSH1 0x26 PUSH1 0x24 DUP3 ADD MSTORE PUSH32 0x4F776E61626C653A206E6577206F776E657220697320746865207A65726F2061 PUSH1 0x44 DUP3 ADD MSTORE PUSH6 0x646472657373 PUSH1 0xD0 SHL PUSH1 0x64 DUP3 ADD MSTORE PUSH1 0x84 ADD PUSH2 0x1A7 JUMP JUMPDEST PUSH2 0x464 DUP2 PUSH2 0x467 JUMP JUMPDEST POP JUMP JUMPDEST PUSH1 0x0 DUP1 SLOAD PUSH1 0x1 PUSH1 0x1 PUSH1 0xA0 SHL SUB DUP4 DUP2 AND PUSH1 0x1 PUSH1 0x1 PUSH1 0xA0 SHL SUB NOT DUP4 AND DUP2 OR DUP5 SSTORE PUSH1 0x40 MLOAD SWAP2 SWAP1 SWAP3 AND SWAP3 DUP4 SWAP2 PUSH32 0x8BE0079C531659141344CD1FD0A4F28419497F9722A3DAAFE3B4186F6B6457E0 SWAP2 SWAP1 LOG3 POP POP JUMP JUMPDEST PUSH1 0x0 PUSH1 0x20 DUP3 DUP5 SUB SLT ISZERO PUSH2 0x4C9 JUMPI PUSH1 0x0 DUP1 REVERT JUMPDEST DUP2 CALLDATALOAD PUSH1 0x1 PUSH1 0x1 PUSH1 0xA0 SHL SUB DUP2 AND DUP2 EQ PUSH2 0x4E0 JUMPI PUSH1 0x0 DUP1 REVERT JUMPDEST SWAP4 SWAP3 POP POP POP JUMP JUMPDEST PUSH1 0x0 PUSH1 0x20 DUP3 DUP5 SUB SLT ISZERO PUSH2 0x4F9 JUMPI PUSH1 0x0 DUP1 REVERT JUMPDEST POP CALLDATALOAD SWAP2 SWAP1 POP JUMP JUMPDEST PUSH1 0x0 DUP1 PUSH1 0x40 DUP4 DUP6 SUB SLT ISZERO PUSH2 0x513 JUMPI PUSH1 0x0 DUP1 REVERT JUMPDEST POP POP DUP1 CALLDATALOAD SWAP3 PUSH1 0x20 SWAP1 SWAP2 ADD CALLDATALOAD SWAP2 POP JUMP JUMPDEST PUSH1 0x20 DUP1 DUP3 MSTORE DUP2 DUP2 ADD MSTORE PUSH32 0x4F776E61626C653A2063616C6C6572206973206E6F7420746865206F776E6572 PUSH1 0x40 DUP3 ADD MSTORE PUSH1 0x60 ADD SWAP1 JUMP JUMPDEST PUSH1 0x0 DUP3 NOT DUP3 GT ISZERO PUSH2 0x56A JUMPI PUSH2 0x56A PUSH2 0x5C7 JUMP JUMPDEST POP ADD SWAP1 JUMP JUMPDEST PUSH1 0x0 DUP3 PUSH2 0x58C JUMPI PUSH4 0x4E487B71 PUSH1 0xE0 SHL PUSH1 0x0 MSTORE PUSH1 0x12 PUSH1 0x4 MSTORE PUSH1 0x24 PUSH1 0x0 REVERT JUMPDEST POP DIV SWAP1 JUMP JUMPDEST PUSH1 0x0 DUP2 PUSH1 0x0 NOT DIV DUP4 GT DUP3 ISZERO ISZERO AND ISZERO PUSH2 0x5AB JUMPI PUSH2 0x5AB PUSH2 0x5C7 JUMP JUMPDEST POP MUL SWAP1 JUMP JUMPDEST PUSH1 0x0 DUP3 DUP3 LT ISZERO PUSH2 0x5C2 JUMPI PUSH2 0x5C2 PUSH2 0x5C7 JUMP JUMPDEST POP SUB SWAP1 JUMP JUMPDEST PUSH4 0x4E487B71 PUSH1 0xE0 SHL PUSH1 0x0 MSTORE PUSH1 0x11 PUSH1 0x4 MSTORE PUSH1 0x24 PUSH1 0x0 REVERT INVALID LOG2 PUSH5 0x6970667358 0x22 SLT KECCAK256 DUP6 0xD5 0xE3 SIGNEXTEND 0xC SHR RETURNDATASIZE 0xD3 0x2E PUSH8 0xB134DCBEA33C284A SWAP14 0x2D XOR 0xB3 0xB2 0x4D 0xC7 XOR 0x5D PUSH25 0x620B356664736F6C6343000807003300000000000000000000 "
    },
    "gasEstimates": {
      "creation": {
        "codeDepositCost": "311000",
        "executionCost": "infinite",
        "totalCost": "infinite"
      },
      "external": {
        "BASE()": "250",
        "feeRaiseTimeout()": "infinite",
        "getCommission(uint256,uint256)": "2635",
        "maxRaise()": "infinite",
        "owner()": "2301",
        "rate()": "2307",
        "renounceOwnership()": "28181",
        "setRate(uint256)": "infinite",
        "timeoutTimestamp()": "2328",
        "transferOwnership(address)": "28362"
      }
    },
    "methodIdentifiers": {
      "BASE()": "ec342ad0",
      "feeRaiseTimeout()": "112cde6a",
      "getCommission(uint256,uint256)": "b1fc8ad4",
      "maxRaise()": "719ec6b1",
      "owner()": "8da5cb5b",
      "rate()": "2c4e722e",
      "renounceOwnership()": "715018a6",
      "setRate(uint256)": "34fcf437",
      "timeoutTimestamp()": "c2ce5e86",
      "transferOwnership(address)": "f2fde38b"
    }
  },
  "storageLayout": {
    "storage": [
      {
        "astId": 1184,
        "contract": "contracts/FlatRateCommission.sol:FlatRateCommission",
        "label": "_owner",
        "offset": 0,
        "slot": "0",
        "type": "t_address"
      },
      {
        "astId": 1569,
        "contract": "contracts/FlatRateCommission.sol:FlatRateCommission",
        "label": "rate",
        "offset": 0,
        "slot": "1",
        "type": "t_uint256"
      },
      {
        "astId": 1571,
        "contract": "contracts/FlatRateCommission.sol:FlatRateCommission",
        "label": "timeoutTimestamp",
        "offset": 0,
        "slot": "2",
        "type": "t_uint256"
      }
    ],
    "types": {
      "t_address": {
        "encoding": "inplace",
        "label": "address",
        "numberOfBytes": "20"
      },
      "t_uint256": {
        "encoding": "inplace",
        "label": "uint256",
        "numberOfBytes": "32"
      }
    }
  },
  "userdoc": {
    "events": {
      "FlatRateChanged(uint256,uint256)": {
        "notice": "event fired when setRate function is called and successful"
      },
      "FlatRateCommissionCreated(uint256)": {
        "notice": "Event emmited when a contract is created"
      }
    },
    "kind": "user",
    "methods": {
      "getCommission(uint256,uint256)": {
        "notice": "calculates the total amount of the reward that will be directed to the PoolManager"
      },
      "setRate(uint256)": {
        "notice": "allows for the poolManager to reduce how much they want to charge for the block production tx"
      }
    },
    "version": 1
  }
}