{
  "contractName": "StakingPoolManagementImpl",
  "sourceName": "contracts/StakingPoolManagementImpl.sol",
  "abi": [
    {
      "inputs": [
        {
          "internalType": "address",
          "name": "_ens",
          "type": "address"
        }
      ],
      "stateMutability": "nonpayable",
      "type": "constructor"
    },
    {
      "anonymous": false,
      "inputs": [
        {
          "indexed": true,
          "internalType": "address",
          "name": "previousOwner",
          "type": "address"
        },
        {
          "indexed": true,
          "internalType": "address",
          "name": "newOwner",
          "type": "address"
        }
      ],
      "name": "OwnershipTransferred",
      "type": "event"
    },
    {
      "anonymous": false,
      "inputs": [
        {
          "indexed": false,
          "internalType": "address",
          "name": "account",
          "type": "address"
        }
      ],
      "name": "Paused",
      "type": "event"
    },
    {
      "anonymous": false,
      "inputs": [
        {
          "indexed": false,
          "internalType": "string",
          "name": "name",
          "type": "string"
        }
      ],
      "name": "StakingPoolRenamed",
      "type": "event"
    },
    {
      "anonymous": false,
      "inputs": [
        {
          "indexed": false,
          "internalType": "address",
          "name": "account",
          "type": "address"
        }
      ],
      "name": "Unpaused",
      "type": "event"
    },
    {
      "inputs": [],
      "name": "amount",
      "outputs": [
        {
          "internalType": "uint256",
          "name": "",
          "type": "uint256"
        }
      ],
      "stateMutability": "view",
      "type": "function"
    },
    {
      "inputs": [
        {
          "internalType": "uint256",
          "name": "_amount",
          "type": "uint256"
        }
      ],
      "name": "amountToShares",
      "outputs": [
        {
          "internalType": "uint256",
          "name": "",
          "type": "uint256"
        }
      ],
      "stateMutability": "view",
      "type": "function"
    },
    {
      "inputs": [],
      "name": "ens",
      "outputs": [
        {
          "internalType": "contract ENS",
          "name": "",
          "type": "address"
        }
      ],
      "stateMutability": "view",
      "type": "function"
    },
    {
      "inputs": [],
      "name": "factory",
      "outputs": [
        {
          "internalType": "contract StakingPoolFactory",
          "name": "",
          "type": "address"
        }
      ],
      "stateMutability": "view",
      "type": "function"
    },
    {
      "inputs": [],
      "name": "owner",
      "outputs": [
        {
          "internalType": "address",
          "name": "",
          "type": "address"
        }
      ],
      "stateMutability": "view",
      "type": "function"
    },
    {
      "inputs": [],
      "name": "pause",
      "outputs": [],
      "stateMutability": "nonpayable",
      "type": "function"
    },
    {
      "inputs": [],
      "name": "paused",
      "outputs": [
        {
          "internalType": "bool",
          "name": "",
          "type": "bool"
        }
      ],
      "stateMutability": "view",
      "type": "function"
    },
    {
      "inputs": [],
      "name": "pos",
      "outputs": [
        {
          "internalType": "contract IPoS",
          "name": "",
          "type": "address"
        }
      ],
      "stateMutability": "view",
      "type": "function"
    },
    {
      "inputs": [],
      "name": "renounceOwnership",
      "outputs": [],
      "stateMutability": "nonpayable",
      "type": "function"
    },
    {
      "inputs": [],
      "name": "requiredLiquidity",
      "outputs": [
        {
          "internalType": "uint256",
          "name": "",
          "type": "uint256"
        }
      ],
      "stateMutability": "view",
      "type": "function"
    },
    {
      "inputs": [
        {
          "internalType": "string",
          "name": "name",
          "type": "string"
        }
      ],
      "name": "setName",
      "outputs": [],
      "stateMutability": "nonpayable",
      "type": "function"
    },
    {
      "inputs": [],
      "name": "shares",
      "outputs": [
        {
          "internalType": "uint256",
          "name": "",
          "type": "uint256"
        }
      ],
      "stateMutability": "view",
      "type": "function"
    },
    {
      "inputs": [
        {
          "internalType": "uint256",
          "name": "_shares",
          "type": "uint256"
        }
      ],
      "name": "sharesToAmount",
      "outputs": [
        {
          "internalType": "uint256",
          "name": "",
          "type": "uint256"
        }
      ],
      "stateMutability": "view",
      "type": "function"
    },
    {
      "inputs": [
        {
          "internalType": "address",
          "name": "newOwner",
          "type": "address"
        }
      ],
      "name": "transferOwnership",
      "outputs": [],
      "stateMutability": "nonpayable",
      "type": "function"
    },
    {
      "inputs": [],
      "name": "unpause",
      "outputs": [],
      "stateMutability": "nonpayable",
      "type": "function"
    },
    {
      "inputs": [
        {
          "internalType": "address",
          "name": "",
          "type": "address"
        }
      ],
      "name": "userBalance",
      "outputs": [
        {
          "internalType": "uint256",
          "name": "balance",
          "type": "uint256"
        },
        {
          "internalType": "uint256",
          "name": "shares",
          "type": "uint256"
        },
        {
          "internalType": "uint256",
          "name": "depositTimestamp",
          "type": "uint256"
        }
      ],
      "stateMutability": "view",
      "type": "function"
    }
  ],
  "bytecode": "0x60a060405234801561001057600080fd5b50604051610cf7380380610cf783398101604081905261002f916101fd565b600054610100900460ff1680610048575060005460ff16155b6100b05760405162461bcd60e51b815260206004820152602e60248201527f496e697469616c697a61626c653a20636f6e747261637420697320616c72656160448201526d191e481a5b9a5d1a585b1a5e995960921b60648201526084015b60405180910390fd5b600054610100900460ff161580156100d2576000805461ffff19166101011790555b6001600160a01b0382166101325760405162461bcd60e51b815260206004820152602160248201527f706172616d657465722063616e206e6f74206265207a65726f206164647265736044820152607360f81b60648201526084016100a7565b6001600160601b0319606083901b1660805261014c610165565b801561015e576000805461ff00191690555b505061022d565b60335460ff16156101ab5760405162461bcd60e51b815260206004820152601060248201526f14185d5cd8589b194e881c185d5cd95960821b60448201526064016100a7565b6033805460ff191660011790557f62e78cea01bee320cd4e420270b5ea74000d11b0c9f74754ebdbfc544b05a2586101e03390565b6040516001600160a01b03909116815260200160405180910390a1565b60006020828403121561020f57600080fd5b81516001600160a01b038116811461022657600080fd5b9392505050565b60805160601c610aa56102526000396000818161017001526103e80152610aa56000f3fe608060405234801561001057600080fd5b50600436106101005760003560e01c80638da5cb5b11610097578063c47f002711610066578063c47f00271461022d578063c56551b614610240578063e366b7bb14610253578063f2fde38b1461025c57600080fd5b80638da5cb5b146101ed578063aa8c217c146101fe578063b811540e14610207578063c45a01551461021a57600080fd5b8063555d8ebb116100d3578063555d8ebb146101b45780635c975abb146101c7578063715018a6146101dd5780638456cb59146101e557600080fd5b80630103c92b1461010557806303314efa146101545780633f15457f1461016b5780633f4ba83a146101aa575b600080fd5b61013461011336600461082e565b609b6020526000908152604090208054600182015460029092015490919083565b604080519384526020840192909252908201526060015b60405180910390f35b61015d60975481565b60405190815260200161014b565b6101927f000000000000000000000000000000000000000000000000000000000000000081565b6040516001600160a01b03909116815260200161014b565b6101b261026f565b005b61015d6101c2366004610932565b6102ac565b60335460ff16604051901515815260200161014b565b6101b26102e9565b6101b261031d565b6065546001600160a01b0316610192565b61015d60985481565b61015d610215366004610932565b61034f565b609c54610192906001600160a01b031681565b6101b261023b366004610881565b610386565b609a54610192906001600160a01b031681565b61015d60995481565b6101b261026a36600461082e565b610527565b6065546001600160a01b031633146102a25760405162461bcd60e51b8152600401610299906109a0565b60405180910390fd5b6102aa6105c2565b565b6000609754600014156102c8576102c282610655565b92915050565b6102c26097546102e36098548561068990919063ffffffff16565b906106c3565b6065546001600160a01b031633146103135760405162461bcd60e51b8152600401610299906109a0565b6102aa6000610706565b6065546001600160a01b031633146103475760405162461bcd60e51b8152600401610299906109a0565b6102aa610758565b600060985460001415610365576102c2826107d3565b6102c2609854610380609754856107e390919063ffffffff16565b9061080b565b6065546001600160a01b031633146103b05760405162461bcd60e51b8152600401610299906109a0565b6040516302571be360e01b81527f91d1777781884d03a6757a803996e38de2a42967fb37eeaca72729271025a9e260048201526000907f00000000000000000000000000000000000000000000000000000000000000006001600160a01b0316906302571be39060240160206040518083038186803b15801561043257600080fd5b505afa158015610446573d6000803e3d6000fd5b505050506040513d601f19601f8201168201806040525081019061046a919061084b565b60405163c47f002760e01b81529091506001600160a01b0382169063c47f00279061049990859060040161094b565b602060405180830381600087803b1580156104b357600080fd5b505af11580156104c7573d6000803e3d6000fd5b505050506040513d601f19601f820116820180604052508101906104eb9190610868565b507f6aaa0865532d48a9a0f63cc91df7ff2ab538c896665c864ae02d0a1e7f81cf658260405161051b919061094b565b60405180910390a15050565b6065546001600160a01b031633146105515760405162461bcd60e51b8152600401610299906109a0565b6001600160a01b0381166105b65760405162461bcd60e51b815260206004820152602660248201527f4f776e61626c653a206e6577206f776e657220697320746865207a65726f206160448201526564647265737360d01b6064820152608401610299565b6105bf81610706565b50565b60335460ff1661060b5760405162461bcd60e51b815260206004820152601460248201527314185d5cd8589b194e881b9bdd081c185d5cd95960621b6044820152606401610299565b6033805460ff191690557f5db9ee0a495bf2e6ff9c91a7834c1ba4fdd244a5e8aa4e537bd38aeae4b073aa335b6040516001600160a01b03909116815260200160405180910390a1565b6000806106676002633b9aca006109ed565b9050633b9aca0061067884836109d5565b61068291906109ed565b9392505050565b60006b033b2e3c9fd0803ce80000006106a28385610a0f565b6106b960026b033b2e3c9fd0803ce80000006109ed565b61067891906109d5565b6000806106d16002846109ed565b9050826106ea6b033b2e3c9fd0803ce800000086610a0f565b6106f490836109d5565b6106fe91906109ed565b949350505050565b606580546001600160a01b038381166001600160a01b0319831681179093556040519116919082907f8be0079c531659141344cd1fd0a4f28419497f9722a3daafe3b4186f6b6457e090600090a35050565b60335460ff161561079e5760405162461bcd60e51b815260206004820152601060248201526f14185d5cd8589b194e881c185d5cd95960821b6044820152606401610299565b6033805460ff191660011790557f62e78cea01bee320cd4e420270b5ea74000d11b0c9f74754ebdbfc544b05a2586106383390565b60006102c2633b9aca0083610a0f565b6000670de0b6b3a76400006107f88385610a0f565b6106b96002670de0b6b3a76400006109ed565b6000806108196002846109ed565b9050826106ea670de0b6b3a764000086610a0f565b60006020828403121561084057600080fd5b813561068281610a5a565b60006020828403121561085d57600080fd5b815161068281610a5a565b60006020828403121561087a57600080fd5b5051919050565b60006020828403121561089357600080fd5b813567ffffffffffffffff808211156108ab57600080fd5b818401915084601f8301126108bf57600080fd5b8135818111156108d1576108d1610a44565b604051601f8201601f19908116603f011681019083821181831017156108f9576108f9610a44565b8160405282815287602084870101111561091257600080fd5b826020860160208301376000928101602001929092525095945050505050565b60006020828403121561094457600080fd5b5035919050565b600060208083528351808285015260005b818110156109785785810183015185820160400152820161095c565b8181111561098a576000604083870101525b50601f01601f1916929092016040019392505050565b6020808252818101527f4f776e61626c653a2063616c6c6572206973206e6f7420746865206f776e6572604082015260600190565b600082198211156109e8576109e8610a2e565b500190565b600082610a0a57634e487b7160e01b600052601260045260246000fd5b500490565b6000816000190483118215151615610a2957610a29610a2e565b500290565b634e487b7160e01b600052601160045260246000fd5b634e487b7160e01b600052604160045260246000fd5b6001600160a01b03811681146105bf57600080fdfea2646970667358221220cdc866b67c32b29360987f45609f3ec269d15396fbef20fc7b5d4982edc259b764736f6c63430008070033",
  "linkReferences": {},
  "deployedLinkReferences": {},
  "devdoc": {
    "kind": "dev",
    "methods": {
      "owner()": {
        "details": "Returns the address of the current owner."
      },
      "paused()": {
        "details": "Returns true if the contract is paused, and false otherwise."
      },
      "renounceOwnership()": {
        "details": "Leaves the contract without owner. It will not be possible to call `onlyOwner` functions anymore. Can only be called by the current owner. NOTE: Renouncing ownership will leave the contract without an owner, thereby removing any functionality that is only available to the owner."
      },
      "transferOwnership(address)": {
        "details": "Transfers ownership of the contract to a new account (`newOwner`). Can only be called by the current owner."
      }
    },
    "version": 1
  },
  "evm": {
    "bytecode": {
      "linkReferences": {},
      "opcodes": "PUSH1 0xA0 PUSH1 0x40 MSTORE CALLVALUE DUP1 ISZERO PUSH2 0x10 JUMPI PUSH1 0x0 DUP1 REVERT JUMPDEST POP PUSH1 0x40 MLOAD PUSH2 0xCF7 CODESIZE SUB DUP1 PUSH2 0xCF7 DUP4 CODECOPY DUP2 ADD PUSH1 0x40 DUP2 SWAP1 MSTORE PUSH2 0x2F SWAP2 PUSH2 0x1FD JUMP JUMPDEST PUSH1 0x0 SLOAD PUSH2 0x100 SWAP1 DIV PUSH1 0xFF AND DUP1 PUSH2 0x48 JUMPI POP PUSH1 0x0 SLOAD PUSH1 0xFF AND ISZERO JUMPDEST PUSH2 0xB0 JUMPI PUSH1 0x40 MLOAD PUSH3 0x461BCD PUSH1 0xE5 SHL DUP2 MSTORE PUSH1 0x20 PUSH1 0x4 DUP3 ADD MSTORE PUSH1 0x2E PUSH1 0x24 DUP3 ADD MSTORE PUSH32 0x496E697469616C697A61626C653A20636F6E747261637420697320616C726561 PUSH1 0x44 DUP3 ADD MSTORE PUSH14 0x191E481A5B9A5D1A585B1A5E9959 PUSH1 0x92 SHL PUSH1 0x64 DUP3 ADD MSTORE PUSH1 0x84 ADD JUMPDEST PUSH1 0x40 MLOAD DUP1 SWAP2 SUB SWAP1 REVERT JUMPDEST PUSH1 0x0 SLOAD PUSH2 0x100 SWAP1 DIV PUSH1 0xFF AND ISZERO DUP1 ISZERO PUSH2 0xD2 JUMPI PUSH1 0x0 DUP1 SLOAD PUSH2 0xFFFF NOT AND PUSH2 0x101 OR SWAP1 SSTORE JUMPDEST PUSH1 0x1 PUSH1 0x1 PUSH1 0xA0 SHL SUB DUP3 AND PUSH2 0x132 JUMPI PUSH1 0x40 MLOAD PUSH3 0x461BCD PUSH1 0xE5 SHL DUP2 MSTORE PUSH1 0x20 PUSH1 0x4 DUP3 ADD MSTORE PUSH1 0x21 PUSH1 0x24 DUP3 ADD MSTORE PUSH32 0x706172616D657465722063616E206E6F74206265207A65726F20616464726573 PUSH1 0x44 DUP3 ADD MSTORE PUSH1 0x73 PUSH1 0xF8 SHL PUSH1 0x64 DUP3 ADD MSTORE PUSH1 0x84 ADD PUSH2 0xA7 JUMP JUMPDEST PUSH1 0x1 PUSH1 0x1 PUSH1 0x60 SHL SUB NOT PUSH1 0x60 DUP4 SWAP1 SHL AND PUSH1 0x80 MSTORE PUSH2 0x14C PUSH2 0x165 JUMP JUMPDEST DUP1 ISZERO PUSH2 0x15E JUMPI PUSH1 0x0 DUP1 SLOAD PUSH2 0xFF00 NOT AND SWAP1 SSTORE JUMPDEST POP POP PUSH2 0x22D JUMP JUMPDEST PUSH1 0x33 SLOAD PUSH1 0xFF AND ISZERO PUSH2 0x1AB JUMPI PUSH1 0x40 MLOAD PUSH3 0x461BCD PUSH1 0xE5 SHL DUP2 MSTORE PUSH1 0x20 PUSH1 0x4 DUP3 ADD MSTORE PUSH1 0x10 PUSH1 0x24 DUP3 ADD MSTORE PUSH16 0x14185D5CD8589B194E881C185D5CD959 PUSH1 0x82 SHL PUSH1 0x44 DUP3 ADD MSTORE PUSH1 0x64 ADD PUSH2 0xA7 JUMP JUMPDEST PUSH1 0x33 DUP1 SLOAD PUSH1 0xFF NOT AND PUSH1 0x1 OR SWAP1 SSTORE PUSH32 0x62E78CEA01BEE320CD4E420270B5EA74000D11B0C9F74754EBDBFC544B05A258 PUSH2 0x1E0 CALLER SWAP1 JUMP JUMPDEST PUSH1 0x40 MLOAD PUSH1 0x1 PUSH1 0x1 PUSH1 0xA0 SHL SUB SWAP1 SWAP2 AND DUP2 MSTORE PUSH1 0x20 ADD PUSH1 0x40 MLOAD DUP1 SWAP2 SUB SWAP1 LOG1 JUMP JUMPDEST PUSH1 0x0 PUSH1 0x20 DUP3 DUP5 SUB SLT ISZERO PUSH2 0x20F JUMPI PUSH1 0x0 DUP1 REVERT JUMPDEST DUP2 MLOAD PUSH1 0x1 PUSH1 0x1 PUSH1 0xA0 SHL SUB DUP2 AND DUP2 EQ PUSH2 0x226 JUMPI PUSH1 0x0 DUP1 REVERT JUMPDEST SWAP4 SWAP3 POP POP POP JUMP JUMPDEST PUSH1 0x80 MLOAD PUSH1 0x60 SHR PUSH2 0xAA5 PUSH2 0x252 PUSH1 0x0 CODECOPY PUSH1 0x0 DUP2 DUP2 PUSH2 0x170 ADD MSTORE PUSH2 0x3E8 ADD MSTORE PUSH2 0xAA5 PUSH1 0x0 RETURN INVALID PUSH1 0x80 PUSH1 0x40 MSTORE CALLVALUE DUP1 ISZERO PUSH2 0x10 JUMPI PUSH1 0x0 DUP1 REVERT JUMPDEST POP PUSH1 0x4 CALLDATASIZE LT PUSH2 0x100 JUMPI PUSH1 0x0 CALLDATALOAD PUSH1 0xE0 SHR DUP1 PUSH4 0x8DA5CB5B GT PUSH2 0x97 JUMPI DUP1 PUSH4 0xC47F0027 GT PUSH2 0x66 JUMPI DUP1 PUSH4 0xC47F0027 EQ PUSH2 0x22D JUMPI DUP1 PUSH4 0xC56551B6 EQ PUSH2 0x240 JUMPI DUP1 PUSH4 0xE366B7BB EQ PUSH2 0x253 JUMPI DUP1 PUSH4 0xF2FDE38B EQ PUSH2 0x25C JUMPI PUSH1 0x0 DUP1 REVERT JUMPDEST DUP1 PUSH4 0x8DA5CB5B EQ PUSH2 0x1ED JUMPI DUP1 PUSH4 0xAA8C217C EQ PUSH2 0x1FE JUMPI DUP1 PUSH4 0xB811540E EQ PUSH2 0x207 JUMPI DUP1 PUSH4 0xC45A0155 EQ PUSH2 0x21A JUMPI PUSH1 0x0 DUP1 REVERT JUMPDEST DUP1 PUSH4 0x555D8EBB GT PUSH2 0xD3 JUMPI DUP1 PUSH4 0x555D8EBB EQ PUSH2 0x1B4 JUMPI DUP1 PUSH4 0x5C975ABB EQ PUSH2 0x1C7 JUMPI DUP1 PUSH4 0x715018A6 EQ PUSH2 0x1DD JUMPI DUP1 PUSH4 0x8456CB59 EQ PUSH2 0x1E5 JUMPI PUSH1 0x0 DUP1 REVERT JUMPDEST DUP1 PUSH4 0x103C92B EQ PUSH2 0x105 JUMPI DUP1 PUSH4 0x3314EFA EQ PUSH2 0x154 JUMPI DUP1 PUSH4 0x3F15457F EQ PUSH2 0x16B JUMPI DUP1 PUSH4 0x3F4BA83A EQ PUSH2 0x1AA JUMPI JUMPDEST PUSH1 0x0 DUP1 REVERT JUMPDEST PUSH2 0x134 PUSH2 0x113 CALLDATASIZE PUSH1 0x4 PUSH2 0x82E JUMP JUMPDEST PUSH1 0x9B PUSH1 0x20 MSTORE PUSH1 0x0 SWAP1 DUP2 MSTORE PUSH1 0x40 SWAP1 KECCAK256 DUP1 SLOAD PUSH1 0x1 DUP3 ADD SLOAD PUSH1 0x2 SWAP1 SWAP3 ADD SLOAD SWAP1 SWAP2 SWAP1 DUP4 JUMP JUMPDEST PUSH1 0x40 DUP1 MLOAD SWAP4 DUP5 MSTORE PUSH1 0x20 DUP5 ADD SWAP3 SWAP1 SWAP3 MSTORE SWAP1 DUP3 ADD MSTORE PUSH1 0x60 ADD JUMPDEST PUSH1 0x40 MLOAD DUP1 SWAP2 SUB SWAP1 RETURN JUMPDEST PUSH2 0x15D PUSH1 0x97 SLOAD DUP2 JUMP JUMPDEST PUSH1 0x40 MLOAD SWAP1 DUP2 MSTORE PUSH1 0x20 ADD PUSH2 0x14B JUMP JUMPDEST PUSH2 0x192 PUSH32 0x0 DUP2 JUMP JUMPDEST PUSH1 0x40 MLOAD PUSH1 0x1 PUSH1 0x1 PUSH1 0xA0 SHL SUB SWAP1 SWAP2 AND DUP2 MSTORE PUSH1 0x20 ADD PUSH2 0x14B JUMP JUMPDEST PUSH2 0x1B2 PUSH2 0x26F JUMP JUMPDEST STOP JUMPDEST PUSH2 0x15D PUSH2 0x1C2 CALLDATASIZE PUSH1 0x4 PUSH2 0x932 JUMP JUMPDEST PUSH2 0x2AC JUMP JUMPDEST PUSH1 0x33 SLOAD PUSH1 0xFF AND PUSH1 0x40 MLOAD SWAP1 ISZERO ISZERO DUP2 MSTORE PUSH1 0x20 ADD PUSH2 0x14B JUMP JUMPDEST PUSH2 0x1B2 PUSH2 0x2E9 JUMP JUMPDEST PUSH2 0x1B2 PUSH2 0x31D JUMP JUMPDEST PUSH1 0x65 SLOAD PUSH1 0x1 PUSH1 0x1 PUSH1 0xA0 SHL SUB AND PUSH2 0x192 JUMP JUMPDEST PUSH2 0x15D PUSH1 0x98 SLOAD DUP2 JUMP JUMPDEST PUSH2 0x15D PUSH2 0x215 CALLDATASIZE PUSH1 0x4 PUSH2 0x932 JUMP JUMPDEST PUSH2 0x34F JUMP JUMPDEST PUSH1 0x9C SLOAD PUSH2 0x192 SWAP1 PUSH1 0x1 PUSH1 0x1 PUSH1 0xA0 SHL SUB AND DUP2 JUMP JUMPDEST PUSH2 0x1B2 PUSH2 0x23B CALLDATASIZE PUSH1 0x4 PUSH2 0x881 JUMP JUMPDEST PUSH2 0x386 JUMP JUMPDEST PUSH1 0x9A SLOAD PUSH2 0x192 SWAP1 PUSH1 0x1 PUSH1 0x1 PUSH1 0xA0 SHL SUB AND DUP2 JUMP JUMPDEST PUSH2 0x15D PUSH1 0x99 SLOAD DUP2 JUMP JUMPDEST PUSH2 0x1B2 PUSH2 0x26A CALLDATASIZE PUSH1 0x4 PUSH2 0x82E JUMP JUMPDEST PUSH2 0x527 JUMP JUMPDEST PUSH1 0x65 SLOAD PUSH1 0x1 PUSH1 0x1 PUSH1 0xA0 SHL SUB AND CALLER EQ PUSH2 0x2A2 JUMPI PUSH1 0x40 MLOAD PUSH3 0x461BCD PUSH1 0xE5 SHL DUP2 MSTORE PUSH1 0x4 ADD PUSH2 0x299 SWAP1 PUSH2 0x9A0 JUMP JUMPDEST PUSH1 0x40 MLOAD DUP1 SWAP2 SUB SWAP1 REVERT JUMPDEST PUSH2 0x2AA PUSH2 0x5C2 JUMP JUMPDEST JUMP JUMPDEST PUSH1 0x0 PUSH1 0x97 SLOAD PUSH1 0x0 EQ ISZERO PUSH2 0x2C8 JUMPI PUSH2 0x2C2 DUP3 PUSH2 0x655 JUMP JUMPDEST SWAP3 SWAP2 POP POP JUMP JUMPDEST PUSH2 0x2C2 PUSH1 0x97 SLOAD PUSH2 0x2E3 PUSH1 0x98 SLOAD DUP6 PUSH2 0x689 SWAP1 SWAP2 SWAP1 PUSH4 0xFFFFFFFF AND JUMP JUMPDEST SWAP1 PUSH2 0x6C3 JUMP JUMPDEST PUSH1 0x65 SLOAD PUSH1 0x1 PUSH1 0x1 PUSH1 0xA0 SHL SUB AND CALLER EQ PUSH2 0x313 JUMPI PUSH1 0x40 MLOAD PUSH3 0x461BCD PUSH1 0xE5 SHL DUP2 MSTORE PUSH1 0x4 ADD PUSH2 0x299 SWAP1 PUSH2 0x9A0 JUMP JUMPDEST PUSH2 0x2AA PUSH1 0x0 PUSH2 0x706 JUMP JUMPDEST PUSH1 0x65 SLOAD PUSH1 0x1 PUSH1 0x1 PUSH1 0xA0 SHL SUB AND CALLER EQ PUSH2 0x347 JUMPI PUSH1 0x40 MLOAD PUSH3 0x461BCD PUSH1 0xE5 SHL DUP2 MSTORE PUSH1 0x4 ADD PUSH2 0x299 SWAP1 PUSH2 0x9A0 JUMP JUMPDEST PUSH2 0x2AA PUSH2 0x758 JUMP JUMPDEST PUSH1 0x0 PUSH1 0x98 SLOAD PUSH1 0x0 EQ ISZERO PUSH2 0x365 JUMPI PUSH2 0x2C2 DUP3 PUSH2 0x7D3 JUMP JUMPDEST PUSH2 0x2C2 PUSH1 0x98 SLOAD PUSH2 0x380 PUSH1 0x97 SLOAD DUP6 PUSH2 0x7E3 SWAP1 SWAP2 SWAP1 PUSH4 0xFFFFFFFF AND JUMP JUMPDEST SWAP1 PUSH2 0x80B JUMP JUMPDEST PUSH1 0x65 SLOAD PUSH1 0x1 PUSH1 0x1 PUSH1 0xA0 SHL SUB AND CALLER EQ PUSH2 0x3B0 JUMPI PUSH1 0x40 MLOAD PUSH3 0x461BCD PUSH1 0xE5 SHL DUP2 MSTORE PUSH1 0x4 ADD PUSH2 0x299 SWAP1 PUSH2 0x9A0 JUMP JUMPDEST PUSH1 0x40 MLOAD PUSH4 0x2571BE3 PUSH1 0xE0 SHL DUP2 MSTORE PUSH32 0x91D1777781884D03A6757A803996E38DE2A42967FB37EEACA72729271025A9E2 PUSH1 0x4 DUP3 ADD MSTORE PUSH1 0x0 SWAP1 PUSH32 0x0 PUSH1 0x1 PUSH1 0x1 PUSH1 0xA0 SHL SUB AND SWAP1 PUSH4 0x2571BE3 SWAP1 PUSH1 0x24 ADD PUSH1 0x20 PUSH1 0x40 MLOAD DUP1 DUP4 SUB DUP2 DUP7 DUP1 EXTCODESIZE ISZERO DUP1 ISZERO PUSH2 0x432 JUMPI PUSH1 0x0 DUP1 REVERT JUMPDEST POP GAS STATICCALL ISZERO DUP1 ISZERO PUSH2 0x446 JUMPI RETURNDATASIZE PUSH1 0x0 DUP1 RETURNDATACOPY RETURNDATASIZE PUSH1 0x0 REVERT JUMPDEST POP POP POP POP PUSH1 0x40 MLOAD RETURNDATASIZE PUSH1 0x1F NOT PUSH1 0x1F DUP3 ADD AND DUP3 ADD DUP1 PUSH1 0x40 MSTORE POP DUP2 ADD SWAP1 PUSH2 0x46A SWAP2 SWAP1 PUSH2 0x84B JUMP JUMPDEST PUSH1 0x40 MLOAD PUSH4 0xC47F0027 PUSH1 0xE0 SHL DUP2 MSTORE SWAP1 SWAP2 POP PUSH1 0x1 PUSH1 0x1 PUSH1 0xA0 SHL SUB DUP3 AND SWAP1 PUSH4 0xC47F0027 SWAP1 PUSH2 0x499 SWAP1 DUP6 SWAP1 PUSH1 0x4 ADD PUSH2 0x94B JUMP JUMPDEST PUSH1 0x20 PUSH1 0x40 MLOAD DUP1 DUP4 SUB DUP2 PUSH1 0x0 DUP8 DUP1 EXTCODESIZE ISZERO DUP1 ISZERO PUSH2 0x4B3 JUMPI PUSH1 0x0 DUP1 REVERT JUMPDEST POP GAS CALL ISZERO DUP1 ISZERO PUSH2 0x4C7 JUMPI RETURNDATASIZE PUSH1 0x0 DUP1 RETURNDATACOPY RETURNDATASIZE PUSH1 0x0 REVERT JUMPDEST POP POP POP POP PUSH1 0x40 MLOAD RETURNDATASIZE PUSH1 0x1F NOT PUSH1 0x1F DUP3 ADD AND DUP3 ADD DUP1 PUSH1 0x40 MSTORE POP DUP2 ADD SWAP1 PUSH2 0x4EB SWAP2 SWAP1 PUSH2 0x868 JUMP JUMPDEST POP PUSH32 0x6AAA0865532D48A9A0F63CC91DF7FF2AB538C896665C864AE02D0A1E7F81CF65 DUP3 PUSH1 0x40 MLOAD PUSH2 0x51B SWAP2 SWAP1 PUSH2 0x94B JUMP JUMPDEST PUSH1 0x40 MLOAD DUP1 SWAP2 SUB SWAP1 LOG1 POP POP JUMP JUMPDEST PUSH1 0x65 SLOAD PUSH1 0x1 PUSH1 0x1 PUSH1 0xA0 SHL SUB AND CALLER EQ PUSH2 0x551 JUMPI PUSH1 0x40 MLOAD PUSH3 0x461BCD PUSH1 0xE5 SHL DUP2 MSTORE PUSH1 0x4 ADD PUSH2 0x299 SWAP1 PUSH2 0x9A0 JUMP JUMPDEST PUSH1 0x1 PUSH1 0x1 PUSH1 0xA0 SHL SUB DUP2 AND PUSH2 0x5B6 JUMPI PUSH1 0x40 MLOAD PUSH3 0x461BCD PUSH1 0xE5 SHL DUP2 MSTORE PUSH1 0x20 PUSH1 0x4 DUP3 ADD MSTORE PUSH1 0x26 PUSH1 0x24 DUP3 ADD MSTORE PUSH32 0x4F776E61626C653A206E6577206F776E657220697320746865207A65726F2061 PUSH1 0x44 DUP3 ADD MSTORE PUSH6 0x646472657373 PUSH1 0xD0 SHL PUSH1 0x64 DUP3 ADD MSTORE PUSH1 0x84 ADD PUSH2 0x299 JUMP JUMPDEST PUSH2 0x5BF DUP2 PUSH2 0x706 JUMP JUMPDEST POP JUMP JUMPDEST PUSH1 0x33 SLOAD PUSH1 0xFF AND PUSH2 0x60B JUMPI PUSH1 0x40 MLOAD PUSH3 0x461BCD PUSH1 0xE5 SHL DUP2 MSTORE PUSH1 0x20 PUSH1 0x4 DUP3 ADD MSTORE PUSH1 0x14 PUSH1 0x24 DUP3 ADD MSTORE PUSH20 0x14185D5CD8589B194E881B9BDD081C185D5CD959 PUSH1 0x62 SHL PUSH1 0x44 DUP3 ADD MSTORE PUSH1 0x64 ADD PUSH2 0x299 JUMP JUMPDEST PUSH1 0x33 DUP1 SLOAD PUSH1 0xFF NOT AND SWAP1 SSTORE PUSH32 0x5DB9EE0A495BF2E6FF9C91A7834C1BA4FDD244A5E8AA4E537BD38AEAE4B073AA CALLER JUMPDEST PUSH1 0x40 MLOAD PUSH1 0x1 PUSH1 0x1 PUSH1 0xA0 SHL SUB SWAP1 SWAP2 AND DUP2 MSTORE PUSH1 0x20 ADD PUSH1 0x40 MLOAD DUP1 SWAP2 SUB SWAP1 LOG1 JUMP JUMPDEST PUSH1 0x0 DUP1 PUSH2 0x667 PUSH1 0x2 PUSH4 0x3B9ACA00 PUSH2 0x9ED JUMP JUMPDEST SWAP1 POP PUSH4 0x3B9ACA00 PUSH2 0x678 DUP5 DUP4 PUSH2 0x9D5 JUMP JUMPDEST PUSH2 0x682 SWAP2 SWAP1 PUSH2 0x9ED JUMP JUMPDEST SWAP4 SWAP3 POP POP POP JUMP JUMPDEST PUSH1 0x0 PUSH12 0x33B2E3C9FD0803CE8000000 PUSH2 0x6A2 DUP4 DUP6 PUSH2 0xA0F JUMP JUMPDEST PUSH2 0x6B9 PUSH1 0x2 PUSH12 0x33B2E3C9FD0803CE8000000 PUSH2 0x9ED JUMP JUMPDEST PUSH2 0x678 SWAP2 SWAP1 PUSH2 0x9D5 JUMP JUMPDEST PUSH1 0x0 DUP1 PUSH2 0x6D1 PUSH1 0x2 DUP5 PUSH2 0x9ED JUMP JUMPDEST SWAP1 POP DUP3 PUSH2 0x6EA PUSH12 0x33B2E3C9FD0803CE8000000 DUP7 PUSH2 0xA0F JUMP JUMPDEST PUSH2 0x6F4 SWAP1 DUP4 PUSH2 0x9D5 JUMP JUMPDEST PUSH2 0x6FE SWAP2 SWAP1 PUSH2 0x9ED JUMP JUMPDEST SWAP5 SWAP4 POP POP POP POP JUMP JUMPDEST PUSH1 0x65 DUP1 SLOAD PUSH1 0x1 PUSH1 0x1 PUSH1 0xA0 SHL SUB DUP4 DUP2 AND PUSH1 0x1 PUSH1 0x1 PUSH1 0xA0 SHL SUB NOT DUP4 AND DUP2 OR SWAP1 SWAP4 SSTORE PUSH1 0x40 MLOAD SWAP2 AND SWAP2 SWAP1 DUP3 SWAP1 PUSH32 0x8BE0079C531659141344CD1FD0A4F28419497F9722A3DAAFE3B4186F6B6457E0 SWAP1 PUSH1 0x0 SWAP1 LOG3 POP POP JUMP JUMPDEST PUSH1 0x33 SLOAD PUSH1 0xFF AND ISZERO PUSH2 0x79E JUMPI PUSH1 0x40 MLOAD PUSH3 0x461BCD PUSH1 0xE5 SHL DUP2 MSTORE PUSH1 0x20 PUSH1 0x4 DUP3 ADD MSTORE PUSH1 0x10 PUSH1 0x24 DUP3 ADD MSTORE PUSH16 0x14185D5CD8589B194E881C185D5CD959 PUSH1 0x82 SHL PUSH1 0x44 DUP3 ADD MSTORE PUSH1 0x64 ADD PUSH2 0x299 JUMP JUMPDEST PUSH1 0x33 DUP1 SLOAD PUSH1 0xFF NOT AND PUSH1 0x1 OR SWAP1 SSTORE PUSH32 0x62E78CEA01BEE320CD4E420270B5EA74000D11B0C9F74754EBDBFC544B05A258 PUSH2 0x638 CALLER SWAP1 JUMP JUMPDEST PUSH1 0x0 PUSH2 0x2C2 PUSH4 0x3B9ACA00 DUP4 PUSH2 0xA0F JUMP JUMPDEST PUSH1 0x0 PUSH8 0xDE0B6B3A7640000 PUSH2 0x7F8 DUP4 DUP6 PUSH2 0xA0F JUMP JUMPDEST PUSH2 0x6B9 PUSH1 0x2 PUSH8 0xDE0B6B3A7640000 PUSH2 0x9ED JUMP JUMPDEST PUSH1 0x0 DUP1 PUSH2 0x819 PUSH1 0x2 DUP5 PUSH2 0x9ED JUMP JUMPDEST SWAP1 POP DUP3 PUSH2 0x6EA PUSH8 0xDE0B6B3A7640000 DUP7 PUSH2 0xA0F JUMP JUMPDEST PUSH1 0x0 PUSH1 0x20 DUP3 DUP5 SUB SLT ISZERO PUSH2 0x840 JUMPI PUSH1 0x0 DUP1 REVERT JUMPDEST DUP2 CALLDATALOAD PUSH2 0x682 DUP2 PUSH2 0xA5A JUMP JUMPDEST PUSH1 0x0 PUSH1 0x20 DUP3 DUP5 SUB SLT ISZERO PUSH2 0x85D JUMPI PUSH1 0x0 DUP1 REVERT JUMPDEST DUP2 MLOAD PUSH2 0x682 DUP2 PUSH2 0xA5A JUMP JUMPDEST PUSH1 0x0 PUSH1 0x20 DUP3 DUP5 SUB SLT ISZERO PUSH2 0x87A JUMPI PUSH1 0x0 DUP1 REVERT JUMPDEST POP MLOAD SWAP2 SWAP1 POP JUMP JUMPDEST PUSH1 0x0 PUSH1 0x20 DUP3 DUP5 SUB SLT ISZERO PUSH2 0x893 JUMPI PUSH1 0x0 DUP1 REVERT JUMPDEST DUP2 CALLDATALOAD PUSH8 0xFFFFFFFFFFFFFFFF DUP1 DUP3 GT ISZERO PUSH2 0x8AB JUMPI PUSH1 0x0 DUP1 REVERT JUMPDEST DUP2 DUP5 ADD SWAP2 POP DUP5 PUSH1 0x1F DUP4 ADD SLT PUSH2 0x8BF JUMPI PUSH1 0x0 DUP1 REVERT JUMPDEST DUP2 CALLDATALOAD DUP2 DUP2 GT ISZERO PUSH2 0x8D1 JUMPI PUSH2 0x8D1 PUSH2 0xA44 JUMP JUMPDEST PUSH1 0x40 MLOAD PUSH1 0x1F DUP3 ADD PUSH1 0x1F NOT SWAP1 DUP2 AND PUSH1 0x3F ADD AND DUP2 ADD SWAP1 DUP4 DUP3 GT DUP2 DUP4 LT OR ISZERO PUSH2 0x8F9 JUMPI PUSH2 0x8F9 PUSH2 0xA44 JUMP JUMPDEST DUP2 PUSH1 0x40 MSTORE DUP3 DUP2 MSTORE DUP8 PUSH1 0x20 DUP5 DUP8 ADD ADD GT ISZERO PUSH2 0x912 JUMPI PUSH1 0x0 DUP1 REVERT JUMPDEST DUP3 PUSH1 0x20 DUP7 ADD PUSH1 0x20 DUP4 ADD CALLDATACOPY PUSH1 0x0 SWAP3 DUP2 ADD PUSH1 0x20 ADD SWAP3 SWAP1 SWAP3 MSTORE POP SWAP6 SWAP5 POP POP POP POP POP JUMP JUMPDEST PUSH1 0x0 PUSH1 0x20 DUP3 DUP5 SUB SLT ISZERO PUSH2 0x944 JUMPI PUSH1 0x0 DUP1 REVERT JUMPDEST POP CALLDATALOAD SWAP2 SWAP1 POP JUMP JUMPDEST PUSH1 0x0 PUSH1 0x20 DUP1 DUP4 MSTORE DUP4 MLOAD DUP1 DUP3 DUP6 ADD MSTORE PUSH1 0x0 JUMPDEST DUP2 DUP2 LT ISZERO PUSH2 0x978 JUMPI DUP6 DUP2 ADD DUP4 ADD MLOAD DUP6 DUP3 ADD PUSH1 0x40 ADD MSTORE DUP3 ADD PUSH2 0x95C JUMP JUMPDEST DUP2 DUP2 GT ISZERO PUSH2 0x98A JUMPI PUSH1 0x0 PUSH1 0x40 DUP4 DUP8 ADD ADD MSTORE JUMPDEST POP PUSH1 0x1F ADD PUSH1 0x1F NOT AND SWAP3 SWAP1 SWAP3 ADD PUSH1 0x40 ADD SWAP4 SWAP3 POP POP POP JUMP JUMPDEST PUSH1 0x20 DUP1 DUP3 MSTORE DUP2 DUP2 ADD MSTORE PUSH32 0x4F776E61626C653A2063616C6C6572206973206E6F7420746865206F776E6572 PUSH1 0x40 DUP3 ADD MSTORE PUSH1 0x60 ADD SWAP1 JUMP JUMPDEST PUSH1 0x0 DUP3 NOT DUP3 GT ISZERO PUSH2 0x9E8 JUMPI PUSH2 0x9E8 PUSH2 0xA2E JUMP JUMPDEST POP ADD SWAP1 JUMP JUMPDEST PUSH1 0x0 DUP3 PUSH2 0xA0A JUMPI PUSH4 0x4E487B71 PUSH1 0xE0 SHL PUSH1 0x0 MSTORE PUSH1 0x12 PUSH1 0x4 MSTORE PUSH1 0x24 PUSH1 0x0 REVERT JUMPDEST POP DIV SWAP1 JUMP JUMPDEST PUSH1 0x0 DUP2 PUSH1 0x0 NOT DIV DUP4 GT DUP3 ISZERO ISZERO AND ISZERO PUSH2 0xA29 JUMPI PUSH2 0xA29 PUSH2 0xA2E JUMP JUMPDEST POP MUL SWAP1 JUMP JUMPDEST PUSH4 0x4E487B71 PUSH1 0xE0 SHL PUSH1 0x0 MSTORE PUSH1 0x11 PUSH1 0x4 MSTORE PUSH1 0x24 PUSH1 0x0 REVERT JUMPDEST PUSH4 0x4E487B71 PUSH1 0xE0 SHL PUSH1 0x0 MSTORE PUSH1 0x41 PUSH1 0x4 MSTORE PUSH1 0x24 PUSH1 0x0 REVERT JUMPDEST PUSH1 0x1 PUSH1 0x1 PUSH1 0xA0 SHL SUB DUP2 AND DUP2 EQ PUSH2 0x5BF JUMPI PUSH1 0x0 DUP1 REVERT INVALID LOG2 PUSH5 0x6970667358 0x22 SLT KECCAK256 0xCD 0xC8 PUSH7 0xB67C32B2936098 PUSH32 0x45609F3EC269D15396FBEF20FC7B5D4982EDC259B764736F6C63430008070033 "
    },
    "gasEstimates": {
      "creation": {
        "codeDepositCost": "545000",
        "executionCost": "infinite",
        "totalCost": "infinite"
      },
      "external": {
        "amount()": "2340",
        "amountToShares(uint256)": "infinite",
        "ens()": "infinite",
        "factory()": "2426",
        "owner()": "2354",
        "pause()": "29839",
        "paused()": "2337",
        "pos()": "2381",
        "renounceOwnership()": "28184",
        "requiredLiquidity()": "2361",
        "setName(string)": "infinite",
        "shares()": "2341",
        "sharesToAmount(uint256)": "infinite",
        "transferOwnership(address)": "infinite",
        "unpause()": "29817",
        "userBalance(address)": "6801"
      },
      "internal": {
        "__StakingPoolManagementImpl_init()": "infinite"
      }
    },
    "methodIdentifiers": {
      "amount()": "aa8c217c",
      "amountToShares(uint256)": "b811540e",
      "ens()": "3f15457f",
      "factory()": "c45a0155",
      "owner()": "8da5cb5b",
      "pause()": "8456cb59",
      "paused()": "5c975abb",
      "pos()": "c56551b6",
      "renounceOwnership()": "715018a6",
      "requiredLiquidity()": "e366b7bb",
      "setName(string)": "c47f0027",
      "shares()": "03314efa",
      "sharesToAmount(uint256)": "555d8ebb",
      "transferOwnership(address)": "f2fde38b",
      "unpause()": "3f4ba83a",
      "userBalance(address)": "0103c92b"
    }
  },
  "storageLayout": {
    "storage": [
      {
        "astId": 979,
        "contract": "contracts/StakingPoolManagementImpl.sol:StakingPoolManagementImpl",
        "label": "_initialized",
        "offset": 0,
        "slot": "0",
        "type": "t_bool"
      },
      {
        "astId": 982,
        "contract": "contracts/StakingPoolManagementImpl.sol:StakingPoolManagementImpl",
        "label": "_initializing",
        "offset": 1,
        "slot": "0",
        "type": "t_bool"
      },
      {
        "astId": 1175,
        "contract": "contracts/StakingPoolManagementImpl.sol:StakingPoolManagementImpl",
        "label": "__gap",
        "offset": 0,
        "slot": "1",
        "type": "t_array(t_uint256)50_storage"
      },
      {
        "astId": 1040,
        "contract": "contracts/StakingPoolManagementImpl.sol:StakingPoolManagementImpl",
        "label": "_paused",
        "offset": 0,
        "slot": "51",
        "type": "t_bool"
      },
      {
        "astId": 1131,
        "contract": "contracts/StakingPoolManagementImpl.sol:StakingPoolManagementImpl",
        "label": "__gap",
        "offset": 0,
        "slot": "52",
        "type": "t_array(t_uint256)49_storage"
      },
      {
        "astId": 859,
        "contract": "contracts/StakingPoolManagementImpl.sol:StakingPoolManagementImpl",
        "label": "_owner",
        "offset": 0,
        "slot": "101",
        "type": "t_address"
      },
      {
        "astId": 972,
        "contract": "contracts/StakingPoolManagementImpl.sol:StakingPoolManagementImpl",
        "label": "__gap",
        "offset": 0,
        "slot": "102",
        "type": "t_array(t_uint256)49_storage"
      },
      {
        "astId": 1883,
        "contract": "contracts/StakingPoolManagementImpl.sol:StakingPoolManagementImpl",
        "label": "shares",
        "offset": 0,
        "slot": "151",
        "type": "t_uint256"
      },
      {
        "astId": 1885,
        "contract": "contracts/StakingPoolManagementImpl.sol:StakingPoolManagementImpl",
        "label": "amount",
        "offset": 0,
        "slot": "152",
        "type": "t_uint256"
      },
      {
        "astId": 1887,
        "contract": "contracts/StakingPoolManagementImpl.sol:StakingPoolManagementImpl",
        "label": "requiredLiquidity",
        "offset": 0,
        "slot": "153",
        "type": "t_uint256"
      },
      {
        "astId": 1890,
        "contract": "contracts/StakingPoolManagementImpl.sol:StakingPoolManagementImpl",
        "label": "pos",
        "offset": 0,
        "slot": "154",
        "type": "t_contract(IPoS)61"
      },
      {
        "astId": 1902,
        "contract": "contracts/StakingPoolManagementImpl.sol:StakingPoolManagementImpl",
        "label": "userBalance",
        "offset": 0,
        "slot": "155",
        "type": "t_mapping(t_address,t_struct(UserBalance)1897_storage)"
      },
      {
        "astId": 2474,
        "contract": "contracts/StakingPoolManagementImpl.sol:StakingPoolManagementImpl",
        "label": "factory",
        "offset": 0,
        "slot": "156",
        "type": "t_contract(StakingPoolFactory)3504"
      }
    ],
    "types": {
      "t_address": {
        "encoding": "inplace",
        "label": "address",
        "numberOfBytes": "20"
      },
      "t_array(t_uint256)49_storage": {
        "base": "t_uint256",
        "encoding": "inplace",
        "label": "uint256[49]",
        "numberOfBytes": "1568"
      },
      "t_array(t_uint256)50_storage": {
        "base": "t_uint256",
        "encoding": "inplace",
        "label": "uint256[50]",
        "numberOfBytes": "1600"
      },
      "t_bool": {
        "encoding": "inplace",
        "label": "bool",
        "numberOfBytes": "1"
      },
      "t_contract(IPoS)61": {
        "encoding": "inplace",
        "label": "contract IPoS",
        "numberOfBytes": "20"
      },
      "t_contract(StakingPoolFactory)3504": {
        "encoding": "inplace",
        "label": "contract StakingPoolFactory",
        "numberOfBytes": "20"
      },
      "t_mapping(t_address,t_struct(UserBalance)1897_storage)": {
        "encoding": "mapping",
        "key": "t_address",
        "label": "mapping(address => struct StakingPoolData.UserBalance)",
        "numberOfBytes": "32",
        "value": "t_struct(UserBalance)1897_storage"
      },
      "t_struct(UserBalance)1897_storage": {
        "encoding": "inplace",
        "label": "struct StakingPoolData.UserBalance",
        "members": [
          {
            "astId": 1892,
            "contract": "contracts/StakingPoolManagementImpl.sol:StakingPoolManagementImpl",
            "label": "balance",
            "offset": 0,
            "slot": "0",
            "type": "t_uint256"
          },
          {
            "astId": 1894,
            "contract": "contracts/StakingPoolManagementImpl.sol:StakingPoolManagementImpl",
            "label": "shares",
            "offset": 0,
            "slot": "1",
            "type": "t_uint256"
          },
          {
            "astId": 1896,
            "contract": "contracts/StakingPoolManagementImpl.sol:StakingPoolManagementImpl",
            "label": "depositTimestamp",
            "offset": 0,
            "slot": "2",
            "type": "t_uint256"
          }
        ],
        "numberOfBytes": "96"
      },
      "t_uint256": {
        "encoding": "inplace",
        "label": "uint256",
        "numberOfBytes": "32"
      }
    }
  },
  "userdoc": {
    "events": {
      "StakingPoolRenamed(string)": {
        "notice": "Event emmited when a pool is rename"
      }
    },
    "kind": "user",
    "methods": {
      "pause()": {
        "notice": "pauses new staking on the pool"
      },
      "setName(string)": {
        "notice": "sets a name for the pool using ENS service"
      },
      "unpause()": {
        "notice": "unpauses new staking on the pool"
      }
    },
    "version": 1
  }
}