{
  "contractName": "StakingPoolWorkerImpl",
  "sourceName": "contracts/StakingPoolWorkerImpl.sol",
  "abi": [
    {
      "inputs": [
        {
          "internalType": "address",
          "name": "_workerManager",
          "type": "address"
        }
      ],
      "stateMutability": "nonpayable",
      "type": "constructor"
    },
    {
      "anonymous": false,
      "inputs": [
        {
          "indexed": true,
          "internalType": "address",
          "name": "previousOwner",
          "type": "address"
        },
        {
          "indexed": true,
          "internalType": "address",
          "name": "newOwner",
          "type": "address"
        }
      ],
      "name": "OwnershipTransferred",
      "type": "event"
    },
    {
      "anonymous": false,
      "inputs": [
        {
          "indexed": false,
          "internalType": "address",
          "name": "account",
          "type": "address"
        }
      ],
      "name": "Paused",
      "type": "event"
    },
    {
      "anonymous": false,
      "inputs": [
        {
          "indexed": false,
          "internalType": "address",
          "name": "account",
          "type": "address"
        }
      ],
      "name": "Unpaused",
      "type": "event"
    },
    {
      "inputs": [],
      "name": "amount",
      "outputs": [
        {
          "internalType": "uint256",
          "name": "",
          "type": "uint256"
        }
      ],
      "stateMutability": "view",
      "type": "function"
    },
    {
      "inputs": [
        {
          "internalType": "uint256",
          "name": "_amount",
          "type": "uint256"
        }
      ],
      "name": "amountToShares",
      "outputs": [
        {
          "internalType": "uint256",
          "name": "",
          "type": "uint256"
        }
      ],
      "stateMutability": "view",
      "type": "function"
    },
    {
      "inputs": [
        {
          "internalType": "address",
          "name": "workerAddress",
          "type": "address"
        }
      ],
      "name": "cancelHire",
      "outputs": [],
      "stateMutability": "nonpayable",
      "type": "function"
    },
    {
      "inputs": [
        {
          "internalType": "address payable",
          "name": "workerAddress",
          "type": "address"
        }
      ],
      "name": "hire",
      "outputs": [],
      "stateMutability": "payable",
      "type": "function"
    },
    {
      "inputs": [],
      "name": "owner",
      "outputs": [
        {
          "internalType": "address",
          "name": "",
          "type": "address"
        }
      ],
      "stateMutability": "view",
      "type": "function"
    },
    {
      "inputs": [],
      "name": "paused",
      "outputs": [
        {
          "internalType": "bool",
          "name": "",
          "type": "bool"
        }
      ],
      "stateMutability": "view",
      "type": "function"
    },
    {
      "inputs": [],
      "name": "pos",
      "outputs": [
        {
          "internalType": "contract IPoS",
          "name": "",
          "type": "address"
        }
      ],
      "stateMutability": "view",
      "type": "function"
    },
    {
      "inputs": [],
      "name": "renounceOwnership",
      "outputs": [],
      "stateMutability": "nonpayable",
      "type": "function"
    },
    {
      "inputs": [],
      "name": "requiredLiquidity",
      "outputs": [
        {
          "internalType": "uint256",
          "name": "",
          "type": "uint256"
        }
      ],
      "stateMutability": "view",
      "type": "function"
    },
    {
      "inputs": [
        {
          "internalType": "address payable",
          "name": "workerAddress",
          "type": "address"
        }
      ],
      "name": "retire",
      "outputs": [],
      "stateMutability": "nonpayable",
      "type": "function"
    },
    {
      "inputs": [],
      "name": "selfhire",
      "outputs": [],
      "stateMutability": "payable",
      "type": "function"
    },
    {
      "inputs": [],
      "name": "shares",
      "outputs": [
        {
          "internalType": "uint256",
          "name": "",
          "type": "uint256"
        }
      ],
      "stateMutability": "view",
      "type": "function"
    },
    {
      "inputs": [
        {
          "internalType": "uint256",
          "name": "_shares",
          "type": "uint256"
        }
      ],
      "name": "sharesToAmount",
      "outputs": [
        {
          "internalType": "uint256",
          "name": "",
          "type": "uint256"
        }
      ],
      "stateMutability": "view",
      "type": "function"
    },
    {
      "inputs": [
        {
          "internalType": "address",
          "name": "newOwner",
          "type": "address"
        }
      ],
      "name": "transferOwnership",
      "outputs": [],
      "stateMutability": "nonpayable",
      "type": "function"
    },
    {
      "inputs": [
        {
          "internalType": "address",
          "name": "",
          "type": "address"
        }
      ],
      "name": "userBalance",
      "outputs": [
        {
          "internalType": "uint256",
          "name": "balance",
          "type": "uint256"
        },
        {
          "internalType": "uint256",
          "name": "shares",
          "type": "uint256"
        },
        {
          "internalType": "uint256",
          "name": "depositTimestamp",
          "type": "uint256"
        }
      ],
      "stateMutability": "view",
      "type": "function"
    },
    {
      "stateMutability": "payable",
      "type": "receive"
    }
  ],
  "bytecode": "0x60a060405234801561001057600080fd5b50604051610ba2380380610ba283398101604081905261002f916100a8565b6001600160a01b0381166100935760405162461bcd60e51b815260206004820152602160248201527f706172616d657465722063616e206e6f74206265207a65726f206164647265736044820152607360f81b606482015260840160405180910390fd5b60601b6001600160601b0319166080526100d8565b6000602082840312156100ba57600080fd5b81516001600160a01b03811681146100d157600080fd5b9392505050565b60805160601c610a826101206000396000818161033d015281816103c80152818161042c01528181610555015281816105fe015281816106ad01526107320152610a826000f3fe6080604052600436106100ec5760003560e01c80639e6371ba1161008a578063c56551b611610059578063c56551b614610282578063d9d6bd86146102a2578063e366b7bb146102b5578063f2fde38b146102cb57600080fd5b80639e6371ba1461020c578063aa8c217c1461022c578063b64b3bed14610242578063b811540e1461026257600080fd5b80635c975abb116100c65780635c975abb146101985780636ff46a6c146101bb578063715018a6146101c55780638da5cb5b146101da57600080fd5b80630103c92b146100f857806303314efa14610154578063555d8ebb1461017857600080fd5b366100f357005b600080fd5b34801561010457600080fd5b5061013461011336600461095d565b609b6020526000908152604090208054600182015460029092015490919083565b604080519384526020840192909252908201526060015b60405180910390f35b34801561016057600080fd5b5061016a60975481565b60405190815260200161014b565b34801561018457600080fd5b5061016a61019336600461097a565b6102eb565b3480156101a457600080fd5b5060335460ff16604051901515815260200161014b565b6101c3610328565b005b3480156101d157600080fd5b506101c36104cd565b3480156101e657600080fd5b506065546001600160a01b03165b6040516001600160a01b03909116815260200161014b565b34801561021857600080fd5b506101c361022736600461095d565b61050c565b34801561023857600080fd5b5061016a60985481565b34801561024e57600080fd5b506101c361025d36600461095d565b6105b5565b34801561026e57600080fd5b5061016a61027d36600461097a565b61062d565b34801561028e57600080fd5b50609a546101f4906001600160a01b031681565b6101c36102b036600461095d565b610664565b3480156102c157600080fd5b5061016a60995481565b3480156102d757600080fd5b506101c36102e636600461095d565b610767565b60006097546000141561030757610301826107ff565b92915050565b6103016097546103226098548561083390919063ffffffff16565b9061086d565b604051636ceb5ec360e11b81523060048201527f00000000000000000000000000000000000000000000000000000000000000006001600160a01b03169063d9d6bd869034906024016000604051808303818588803b15801561038a57600080fd5b505af115801561039e573d6000803e3d6000fd5b5050609a54604051632bef459560e01b81523060048201526001600160a01b0391821660248201527f00000000000000000000000000000000000000000000000000000000000000009091169350632bef459592506044019050600060405180830381600087803b15801561041257600080fd5b505af1158015610426573d6000803e3d6000fd5b505050507f00000000000000000000000000000000000000000000000000000000000000006001600160a01b0316639b789b7e6040518163ffffffff1660e01b8152600401600060405180830381600087803b15801561048557600080fd5b505af1158015610499573d6000803e3d6000fd5b50506040513392503480156108fc029250906000818181858888f193505050501580156104ca573d6000803e3d6000fd5b50565b6065546001600160a01b031633146105005760405162461bcd60e51b81526004016104f790610993565b60405180910390fd5b61050a60006108b0565b565b6065546001600160a01b031633146105365760405162461bcd60e51b81526004016104f790610993565b604051634f31b8dd60e11b81526001600160a01b0382811660048301527f00000000000000000000000000000000000000000000000000000000000000001690639e6371ba906024015b600060405180830381600087803b15801561059a57600080fd5b505af11580156105ae573d6000803e3d6000fd5b5050505050565b6065546001600160a01b031633146105df5760405162461bcd60e51b81526004016104f790610993565b60405163b64b3bed60e01b81526001600160a01b0382811660048301527f0000000000000000000000000000000000000000000000000000000000000000169063b64b3bed90602401610580565b6000609854600014156106435761030182610902565b61030160985461065e6097548561091290919063ffffffff16565b9061093a565b6065546001600160a01b0316331461068e5760405162461bcd60e51b81526004016104f790610993565b604051636ceb5ec360e11b81526001600160a01b0382811660048301527f0000000000000000000000000000000000000000000000000000000000000000169063d9d6bd869034906024016000604051808303818588803b1580156106f257600080fd5b505af1158015610706573d6000803e3d6000fd5b5050609a54604051632bef459560e01b81526001600160a01b03868116600483015291821660248201527f00000000000000000000000000000000000000000000000000000000000000009091169350632bef459592506044019050610580565b6065546001600160a01b031633146107915760405162461bcd60e51b81526004016104f790610993565b6001600160a01b0381166107f65760405162461bcd60e51b815260206004820152602660248201527f4f776e61626c653a206e6577206f776e657220697320746865207a65726f206160448201526564647265737360d01b60648201526084016104f7565b6104ca816108b0565b6000806108116002633b9aca006109e0565b9050633b9aca0061082284836109c8565b61082c91906109e0565b9392505050565b60006b033b2e3c9fd0803ce800000061084c8385610a02565b61086360026b033b2e3c9fd0803ce80000006109e0565b61082291906109c8565b60008061087b6002846109e0565b9050826108946b033b2e3c9fd0803ce800000086610a02565b61089e90836109c8565b6108a891906109e0565b949350505050565b606580546001600160a01b038381166001600160a01b0319831681179093556040519116919082907f8be0079c531659141344cd1fd0a4f28419497f9722a3daafe3b4186f6b6457e090600090a35050565b6000610301633b9aca0083610a02565b6000670de0b6b3a76400006109278385610a02565b6108636002670de0b6b3a76400006109e0565b6000806109486002846109e0565b905082610894670de0b6b3a764000086610a02565b60006020828403121561096f57600080fd5b813561082c81610a37565b60006020828403121561098c57600080fd5b5035919050565b6020808252818101527f4f776e61626c653a2063616c6c6572206973206e6f7420746865206f776e6572604082015260600190565b600082198211156109db576109db610a21565b500190565b6000826109fd57634e487b7160e01b600052601260045260246000fd5b500490565b6000816000190483118215151615610a1c57610a1c610a21565b500290565b634e487b7160e01b600052601160045260246000fd5b6001600160a01b03811681146104ca57600080fdfea26469706673582212204d826897b62c22b62f36b32216dafe5cb91d8bd35227c0b8ebfe7b8ed108cd2764736f6c63430008070033",
  "linkReferences": {},
  "deployedLinkReferences": {},
  "devdoc": {
    "kind": "dev",
    "methods": {
      "cancelHire(address)": {
        "params": {
          "workerAddress": "address of the worker node"
        }
      },
      "hire(address)": {
        "params": {
          "workerAddress": "address of the worker"
        }
      },
      "owner()": {
        "details": "Returns the address of the current owner."
      },
      "paused()": {
        "details": "Returns true if the contract is paused, and false otherwise."
      },
      "renounceOwnership()": {
        "details": "Leaves the contract without owner. It will not be possible to call `onlyOwner` functions anymore. Can only be called by the current owner. NOTE: Renouncing ownership will leave the contract without an owner, thereby removing any functionality that is only available to the owner."
      },
      "retire(address)": {
        "details": "this also removes all authorizations in place",
        "params": {
          "workerAddress": "address of the worker to be retired"
        }
      },
      "transferOwnership(address)": {
        "details": "Transfers ownership of the contract to a new account (`newOwner`). Can only be called by the current owner."
      }
    },
    "version": 1
  },
  "evm": {
    "bytecode": {
      "linkReferences": {},
      "opcodes": "PUSH1 0xA0 PUSH1 0x40 MSTORE CALLVALUE DUP1 ISZERO PUSH2 0x10 JUMPI PUSH1 0x0 DUP1 REVERT JUMPDEST POP PUSH1 0x40 MLOAD PUSH2 0xBA2 CODESIZE SUB DUP1 PUSH2 0xBA2 DUP4 CODECOPY DUP2 ADD PUSH1 0x40 DUP2 SWAP1 MSTORE PUSH2 0x2F SWAP2 PUSH2 0xA8 JUMP JUMPDEST PUSH1 0x1 PUSH1 0x1 PUSH1 0xA0 SHL SUB DUP2 AND PUSH2 0x93 JUMPI PUSH1 0x40 MLOAD PUSH3 0x461BCD PUSH1 0xE5 SHL DUP2 MSTORE PUSH1 0x20 PUSH1 0x4 DUP3 ADD MSTORE PUSH1 0x21 PUSH1 0x24 DUP3 ADD MSTORE PUSH32 0x706172616D657465722063616E206E6F74206265207A65726F20616464726573 PUSH1 0x44 DUP3 ADD MSTORE PUSH1 0x73 PUSH1 0xF8 SHL PUSH1 0x64 DUP3 ADD MSTORE PUSH1 0x84 ADD PUSH1 0x40 MLOAD DUP1 SWAP2 SUB SWAP1 REVERT JUMPDEST PUSH1 0x60 SHL PUSH1 0x1 PUSH1 0x1 PUSH1 0x60 SHL SUB NOT AND PUSH1 0x80 MSTORE PUSH2 0xD8 JUMP JUMPDEST PUSH1 0x0 PUSH1 0x20 DUP3 DUP5 SUB SLT ISZERO PUSH2 0xBA JUMPI PUSH1 0x0 DUP1 REVERT JUMPDEST DUP2 MLOAD PUSH1 0x1 PUSH1 0x1 PUSH1 0xA0 SHL SUB DUP2 AND DUP2 EQ PUSH2 0xD1 JUMPI PUSH1 0x0 DUP1 REVERT JUMPDEST SWAP4 SWAP3 POP POP POP JUMP JUMPDEST PUSH1 0x80 MLOAD PUSH1 0x60 SHR PUSH2 0xA82 PUSH2 0x120 PUSH1 0x0 CODECOPY PUSH1 0x0 DUP2 DUP2 PUSH2 0x33D ADD MSTORE DUP2 DUP2 PUSH2 0x3C8 ADD MSTORE DUP2 DUP2 PUSH2 0x42C ADD MSTORE DUP2 DUP2 PUSH2 0x555 ADD MSTORE DUP2 DUP2 PUSH2 0x5FE ADD MSTORE DUP2 DUP2 PUSH2 0x6AD ADD MSTORE PUSH2 0x732 ADD MSTORE PUSH2 0xA82 PUSH1 0x0 RETURN INVALID PUSH1 0x80 PUSH1 0x40 MSTORE PUSH1 0x4 CALLDATASIZE LT PUSH2 0xEC JUMPI PUSH1 0x0 CALLDATALOAD PUSH1 0xE0 SHR DUP1 PUSH4 0x9E6371BA GT PUSH2 0x8A JUMPI DUP1 PUSH4 0xC56551B6 GT PUSH2 0x59 JUMPI DUP1 PUSH4 0xC56551B6 EQ PUSH2 0x282 JUMPI DUP1 PUSH4 0xD9D6BD86 EQ PUSH2 0x2A2 JUMPI DUP1 PUSH4 0xE366B7BB EQ PUSH2 0x2B5 JUMPI DUP1 PUSH4 0xF2FDE38B EQ PUSH2 0x2CB JUMPI PUSH1 0x0 DUP1 REVERT JUMPDEST DUP1 PUSH4 0x9E6371BA EQ PUSH2 0x20C JUMPI DUP1 PUSH4 0xAA8C217C EQ PUSH2 0x22C JUMPI DUP1 PUSH4 0xB64B3BED EQ PUSH2 0x242 JUMPI DUP1 PUSH4 0xB811540E EQ PUSH2 0x262 JUMPI PUSH1 0x0 DUP1 REVERT JUMPDEST DUP1 PUSH4 0x5C975ABB GT PUSH2 0xC6 JUMPI DUP1 PUSH4 0x5C975ABB EQ PUSH2 0x198 JUMPI DUP1 PUSH4 0x6FF46A6C EQ PUSH2 0x1BB JUMPI DUP1 PUSH4 0x715018A6 EQ PUSH2 0x1C5 JUMPI DUP1 PUSH4 0x8DA5CB5B EQ PUSH2 0x1DA JUMPI PUSH1 0x0 DUP1 REVERT JUMPDEST DUP1 PUSH4 0x103C92B EQ PUSH2 0xF8 JUMPI DUP1 PUSH4 0x3314EFA EQ PUSH2 0x154 JUMPI DUP1 PUSH4 0x555D8EBB EQ PUSH2 0x178 JUMPI PUSH1 0x0 DUP1 REVERT JUMPDEST CALLDATASIZE PUSH2 0xF3 JUMPI STOP JUMPDEST PUSH1 0x0 DUP1 REVERT JUMPDEST CALLVALUE DUP1 ISZERO PUSH2 0x104 JUMPI PUSH1 0x0 DUP1 REVERT JUMPDEST POP PUSH2 0x134 PUSH2 0x113 CALLDATASIZE PUSH1 0x4 PUSH2 0x95D JUMP JUMPDEST PUSH1 0x9B PUSH1 0x20 MSTORE PUSH1 0x0 SWAP1 DUP2 MSTORE PUSH1 0x40 SWAP1 KECCAK256 DUP1 SLOAD PUSH1 0x1 DUP3 ADD SLOAD PUSH1 0x2 SWAP1 SWAP3 ADD SLOAD SWAP1 SWAP2 SWAP1 DUP4 JUMP JUMPDEST PUSH1 0x40 DUP1 MLOAD SWAP4 DUP5 MSTORE PUSH1 0x20 DUP5 ADD SWAP3 SWAP1 SWAP3 MSTORE SWAP1 DUP3 ADD MSTORE PUSH1 0x60 ADD JUMPDEST PUSH1 0x40 MLOAD DUP1 SWAP2 SUB SWAP1 RETURN JUMPDEST CALLVALUE DUP1 ISZERO PUSH2 0x160 JUMPI PUSH1 0x0 DUP1 REVERT JUMPDEST POP PUSH2 0x16A PUSH1 0x97 SLOAD DUP2 JUMP JUMPDEST PUSH1 0x40 MLOAD SWAP1 DUP2 MSTORE PUSH1 0x20 ADD PUSH2 0x14B JUMP JUMPDEST CALLVALUE DUP1 ISZERO PUSH2 0x184 JUMPI PUSH1 0x0 DUP1 REVERT JUMPDEST POP PUSH2 0x16A PUSH2 0x193 CALLDATASIZE PUSH1 0x4 PUSH2 0x97A JUMP JUMPDEST PUSH2 0x2EB JUMP JUMPDEST CALLVALUE DUP1 ISZERO PUSH2 0x1A4 JUMPI PUSH1 0x0 DUP1 REVERT JUMPDEST POP PUSH1 0x33 SLOAD PUSH1 0xFF AND PUSH1 0x40 MLOAD SWAP1 ISZERO ISZERO DUP2 MSTORE PUSH1 0x20 ADD PUSH2 0x14B JUMP JUMPDEST PUSH2 0x1C3 PUSH2 0x328 JUMP JUMPDEST STOP JUMPDEST CALLVALUE DUP1 ISZERO PUSH2 0x1D1 JUMPI PUSH1 0x0 DUP1 REVERT JUMPDEST POP PUSH2 0x1C3 PUSH2 0x4CD JUMP JUMPDEST CALLVALUE DUP1 ISZERO PUSH2 0x1E6 JUMPI PUSH1 0x0 DUP1 REVERT JUMPDEST POP PUSH1 0x65 SLOAD PUSH1 0x1 PUSH1 0x1 PUSH1 0xA0 SHL SUB AND JUMPDEST PUSH1 0x40 MLOAD PUSH1 0x1 PUSH1 0x1 PUSH1 0xA0 SHL SUB SWAP1 SWAP2 AND DUP2 MSTORE PUSH1 0x20 ADD PUSH2 0x14B JUMP JUMPDEST CALLVALUE DUP1 ISZERO PUSH2 0x218 JUMPI PUSH1 0x0 DUP1 REVERT JUMPDEST POP PUSH2 0x1C3 PUSH2 0x227 CALLDATASIZE PUSH1 0x4 PUSH2 0x95D JUMP JUMPDEST PUSH2 0x50C JUMP JUMPDEST CALLVALUE DUP1 ISZERO PUSH2 0x238 JUMPI PUSH1 0x0 DUP1 REVERT JUMPDEST POP PUSH2 0x16A PUSH1 0x98 SLOAD DUP2 JUMP JUMPDEST CALLVALUE DUP1 ISZERO PUSH2 0x24E JUMPI PUSH1 0x0 DUP1 REVERT JUMPDEST POP PUSH2 0x1C3 PUSH2 0x25D CALLDATASIZE PUSH1 0x4 PUSH2 0x95D JUMP JUMPDEST PUSH2 0x5B5 JUMP JUMPDEST CALLVALUE DUP1 ISZERO PUSH2 0x26E JUMPI PUSH1 0x0 DUP1 REVERT JUMPDEST POP PUSH2 0x16A PUSH2 0x27D CALLDATASIZE PUSH1 0x4 PUSH2 0x97A JUMP JUMPDEST PUSH2 0x62D JUMP JUMPDEST CALLVALUE DUP1 ISZERO PUSH2 0x28E JUMPI PUSH1 0x0 DUP1 REVERT JUMPDEST POP PUSH1 0x9A SLOAD PUSH2 0x1F4 SWAP1 PUSH1 0x1 PUSH1 0x1 PUSH1 0xA0 SHL SUB AND DUP2 JUMP JUMPDEST PUSH2 0x1C3 PUSH2 0x2B0 CALLDATASIZE PUSH1 0x4 PUSH2 0x95D JUMP JUMPDEST PUSH2 0x664 JUMP JUMPDEST CALLVALUE DUP1 ISZERO PUSH2 0x2C1 JUMPI PUSH1 0x0 DUP1 REVERT JUMPDEST POP PUSH2 0x16A PUSH1 0x99 SLOAD DUP2 JUMP JUMPDEST CALLVALUE DUP1 ISZERO PUSH2 0x2D7 JUMPI PUSH1 0x0 DUP1 REVERT JUMPDEST POP PUSH2 0x1C3 PUSH2 0x2E6 CALLDATASIZE PUSH1 0x4 PUSH2 0x95D JUMP JUMPDEST PUSH2 0x767 JUMP JUMPDEST PUSH1 0x0 PUSH1 0x97 SLOAD PUSH1 0x0 EQ ISZERO PUSH2 0x307 JUMPI PUSH2 0x301 DUP3 PUSH2 0x7FF JUMP JUMPDEST SWAP3 SWAP2 POP POP JUMP JUMPDEST PUSH2 0x301 PUSH1 0x97 SLOAD PUSH2 0x322 PUSH1 0x98 SLOAD DUP6 PUSH2 0x833 SWAP1 SWAP2 SWAP1 PUSH4 0xFFFFFFFF AND JUMP JUMPDEST SWAP1 PUSH2 0x86D JUMP JUMPDEST PUSH1 0x40 MLOAD PUSH4 0x6CEB5EC3 PUSH1 0xE1 SHL DUP2 MSTORE ADDRESS PUSH1 0x4 DUP3 ADD MSTORE PUSH32 0x0 PUSH1 0x1 PUSH1 0x1 PUSH1 0xA0 SHL SUB AND SWAP1 PUSH4 0xD9D6BD86 SWAP1 CALLVALUE SWAP1 PUSH1 0x24 ADD PUSH1 0x0 PUSH1 0x40 MLOAD DUP1 DUP4 SUB DUP2 DUP6 DUP9 DUP1 EXTCODESIZE ISZERO DUP1 ISZERO PUSH2 0x38A JUMPI PUSH1 0x0 DUP1 REVERT JUMPDEST POP GAS CALL ISZERO DUP1 ISZERO PUSH2 0x39E JUMPI RETURNDATASIZE PUSH1 0x0 DUP1 RETURNDATACOPY RETURNDATASIZE PUSH1 0x0 REVERT JUMPDEST POP POP PUSH1 0x9A SLOAD PUSH1 0x40 MLOAD PUSH4 0x2BEF4595 PUSH1 0xE0 SHL DUP2 MSTORE ADDRESS PUSH1 0x4 DUP3 ADD MSTORE PUSH1 0x1 PUSH1 0x1 PUSH1 0xA0 SHL SUB SWAP2 DUP3 AND PUSH1 0x24 DUP3 ADD MSTORE PUSH32 0x0 SWAP1 SWAP2 AND SWAP4 POP PUSH4 0x2BEF4595 SWAP3 POP PUSH1 0x44 ADD SWAP1 POP PUSH1 0x0 PUSH1 0x40 MLOAD DUP1 DUP4 SUB DUP2 PUSH1 0x0 DUP8 DUP1 EXTCODESIZE ISZERO DUP1 ISZERO PUSH2 0x412 JUMPI PUSH1 0x0 DUP1 REVERT JUMPDEST POP GAS CALL ISZERO DUP1 ISZERO PUSH2 0x426 JUMPI RETURNDATASIZE PUSH1 0x0 DUP1 RETURNDATACOPY RETURNDATASIZE PUSH1 0x0 REVERT JUMPDEST POP POP POP POP PUSH32 0x0 PUSH1 0x1 PUSH1 0x1 PUSH1 0xA0 SHL SUB AND PUSH4 0x9B789B7E PUSH1 0x40 MLOAD DUP2 PUSH4 0xFFFFFFFF AND PUSH1 0xE0 SHL DUP2 MSTORE PUSH1 0x4 ADD PUSH1 0x0 PUSH1 0x40 MLOAD DUP1 DUP4 SUB DUP2 PUSH1 0x0 DUP8 DUP1 EXTCODESIZE ISZERO DUP1 ISZERO PUSH2 0x485 JUMPI PUSH1 0x0 DUP1 REVERT JUMPDEST POP GAS CALL ISZERO DUP1 ISZERO PUSH2 0x499 JUMPI RETURNDATASIZE PUSH1 0x0 DUP1 RETURNDATACOPY RETURNDATASIZE PUSH1 0x0 REVERT JUMPDEST POP POP PUSH1 0x40 MLOAD CALLER SWAP3 POP CALLVALUE DUP1 ISZERO PUSH2 0x8FC MUL SWAP3 POP SWAP1 PUSH1 0x0 DUP2 DUP2 DUP2 DUP6 DUP9 DUP9 CALL SWAP4 POP POP POP POP ISZERO DUP1 ISZERO PUSH2 0x4CA JUMPI RETURNDATASIZE PUSH1 0x0 DUP1 RETURNDATACOPY RETURNDATASIZE PUSH1 0x0 REVERT JUMPDEST POP JUMP JUMPDEST PUSH1 0x65 SLOAD PUSH1 0x1 PUSH1 0x1 PUSH1 0xA0 SHL SUB AND CALLER EQ PUSH2 0x500 JUMPI PUSH1 0x40 MLOAD PUSH3 0x461BCD PUSH1 0xE5 SHL DUP2 MSTORE PUSH1 0x4 ADD PUSH2 0x4F7 SWAP1 PUSH2 0x993 JUMP JUMPDEST PUSH1 0x40 MLOAD DUP1 SWAP2 SUB SWAP1 REVERT JUMPDEST PUSH2 0x50A PUSH1 0x0 PUSH2 0x8B0 JUMP JUMPDEST JUMP JUMPDEST PUSH1 0x65 SLOAD PUSH1 0x1 PUSH1 0x1 PUSH1 0xA0 SHL SUB AND CALLER EQ PUSH2 0x536 JUMPI PUSH1 0x40 MLOAD PUSH3 0x461BCD PUSH1 0xE5 SHL DUP2 MSTORE PUSH1 0x4 ADD PUSH2 0x4F7 SWAP1 PUSH2 0x993 JUMP JUMPDEST PUSH1 0x40 MLOAD PUSH4 0x4F31B8DD PUSH1 0xE1 SHL DUP2 MSTORE PUSH1 0x1 PUSH1 0x1 PUSH1 0xA0 SHL SUB DUP3 DUP2 AND PUSH1 0x4 DUP4 ADD MSTORE PUSH32 0x0 AND SWAP1 PUSH4 0x9E6371BA SWAP1 PUSH1 0x24 ADD JUMPDEST PUSH1 0x0 PUSH1 0x40 MLOAD DUP1 DUP4 SUB DUP2 PUSH1 0x0 DUP8 DUP1 EXTCODESIZE ISZERO DUP1 ISZERO PUSH2 0x59A JUMPI PUSH1 0x0 DUP1 REVERT JUMPDEST POP GAS CALL ISZERO DUP1 ISZERO PUSH2 0x5AE JUMPI RETURNDATASIZE PUSH1 0x0 DUP1 RETURNDATACOPY RETURNDATASIZE PUSH1 0x0 REVERT JUMPDEST POP POP POP POP POP JUMP JUMPDEST PUSH1 0x65 SLOAD PUSH1 0x1 PUSH1 0x1 PUSH1 0xA0 SHL SUB AND CALLER EQ PUSH2 0x5DF JUMPI PUSH1 0x40 MLOAD PUSH3 0x461BCD PUSH1 0xE5 SHL DUP2 MSTORE PUSH1 0x4 ADD PUSH2 0x4F7 SWAP1 PUSH2 0x993 JUMP JUMPDEST PUSH1 0x40 MLOAD PUSH4 0xB64B3BED PUSH1 0xE0 SHL DUP2 MSTORE PUSH1 0x1 PUSH1 0x1 PUSH1 0xA0 SHL SUB DUP3 DUP2 AND PUSH1 0x4 DUP4 ADD MSTORE PUSH32 0x0 AND SWAP1 PUSH4 0xB64B3BED SWAP1 PUSH1 0x24 ADD PUSH2 0x580 JUMP JUMPDEST PUSH1 0x0 PUSH1 0x98 SLOAD PUSH1 0x0 EQ ISZERO PUSH2 0x643 JUMPI PUSH2 0x301 DUP3 PUSH2 0x902 JUMP JUMPDEST PUSH2 0x301 PUSH1 0x98 SLOAD PUSH2 0x65E PUSH1 0x97 SLOAD DUP6 PUSH2 0x912 SWAP1 SWAP2 SWAP1 PUSH4 0xFFFFFFFF AND JUMP JUMPDEST SWAP1 PUSH2 0x93A JUMP JUMPDEST PUSH1 0x65 SLOAD PUSH1 0x1 PUSH1 0x1 PUSH1 0xA0 SHL SUB AND CALLER EQ PUSH2 0x68E JUMPI PUSH1 0x40 MLOAD PUSH3 0x461BCD PUSH1 0xE5 SHL DUP2 MSTORE PUSH1 0x4 ADD PUSH2 0x4F7 SWAP1 PUSH2 0x993 JUMP JUMPDEST PUSH1 0x40 MLOAD PUSH4 0x6CEB5EC3 PUSH1 0xE1 SHL DUP2 MSTORE PUSH1 0x1 PUSH1 0x1 PUSH1 0xA0 SHL SUB DUP3 DUP2 AND PUSH1 0x4 DUP4 ADD MSTORE PUSH32 0x0 AND SWAP1 PUSH4 0xD9D6BD86 SWAP1 CALLVALUE SWAP1 PUSH1 0x24 ADD PUSH1 0x0 PUSH1 0x40 MLOAD DUP1 DUP4 SUB DUP2 DUP6 DUP9 DUP1 EXTCODESIZE ISZERO DUP1 ISZERO PUSH2 0x6F2 JUMPI PUSH1 0x0 DUP1 REVERT JUMPDEST POP GAS CALL ISZERO DUP1 ISZERO PUSH2 0x706 JUMPI RETURNDATASIZE PUSH1 0x0 DUP1 RETURNDATACOPY RETURNDATASIZE PUSH1 0x0 REVERT JUMPDEST POP POP PUSH1 0x9A SLOAD PUSH1 0x40 MLOAD PUSH4 0x2BEF4595 PUSH1 0xE0 SHL DUP2 MSTORE PUSH1 0x1 PUSH1 0x1 PUSH1 0xA0 SHL SUB DUP7 DUP2 AND PUSH1 0x4 DUP4 ADD MSTORE SWAP2 DUP3 AND PUSH1 0x24 DUP3 ADD MSTORE PUSH32 0x0 SWAP1 SWAP2 AND SWAP4 POP PUSH4 0x2BEF4595 SWAP3 POP PUSH1 0x44 ADD SWAP1 POP PUSH2 0x580 JUMP JUMPDEST PUSH1 0x65 SLOAD PUSH1 0x1 PUSH1 0x1 PUSH1 0xA0 SHL SUB AND CALLER EQ PUSH2 0x791 JUMPI PUSH1 0x40 MLOAD PUSH3 0x461BCD PUSH1 0xE5 SHL DUP2 MSTORE PUSH1 0x4 ADD PUSH2 0x4F7 SWAP1 PUSH2 0x993 JUMP JUMPDEST PUSH1 0x1 PUSH1 0x1 PUSH1 0xA0 SHL SUB DUP2 AND PUSH2 0x7F6 JUMPI PUSH1 0x40 MLOAD PUSH3 0x461BCD PUSH1 0xE5 SHL DUP2 MSTORE PUSH1 0x20 PUSH1 0x4 DUP3 ADD MSTORE PUSH1 0x26 PUSH1 0x24 DUP3 ADD MSTORE PUSH32 0x4F776E61626C653A206E6577206F776E657220697320746865207A65726F2061 PUSH1 0x44 DUP3 ADD MSTORE PUSH6 0x646472657373 PUSH1 0xD0 SHL PUSH1 0x64 DUP3 ADD MSTORE PUSH1 0x84 ADD PUSH2 0x4F7 JUMP JUMPDEST PUSH2 0x4CA DUP2 PUSH2 0x8B0 JUMP JUMPDEST PUSH1 0x0 DUP1 PUSH2 0x811 PUSH1 0x2 PUSH4 0x3B9ACA00 PUSH2 0x9E0 JUMP JUMPDEST SWAP1 POP PUSH4 0x3B9ACA00 PUSH2 0x822 DUP5 DUP4 PUSH2 0x9C8 JUMP JUMPDEST PUSH2 0x82C SWAP2 SWAP1 PUSH2 0x9E0 JUMP JUMPDEST SWAP4 SWAP3 POP POP POP JUMP JUMPDEST PUSH1 0x0 PUSH12 0x33B2E3C9FD0803CE8000000 PUSH2 0x84C DUP4 DUP6 PUSH2 0xA02 JUMP JUMPDEST PUSH2 0x863 PUSH1 0x2 PUSH12 0x33B2E3C9FD0803CE8000000 PUSH2 0x9E0 JUMP JUMPDEST PUSH2 0x822 SWAP2 SWAP1 PUSH2 0x9C8 JUMP JUMPDEST PUSH1 0x0 DUP1 PUSH2 0x87B PUSH1 0x2 DUP5 PUSH2 0x9E0 JUMP JUMPDEST SWAP1 POP DUP3 PUSH2 0x894 PUSH12 0x33B2E3C9FD0803CE8000000 DUP7 PUSH2 0xA02 JUMP JUMPDEST PUSH2 0x89E SWAP1 DUP4 PUSH2 0x9C8 JUMP JUMPDEST PUSH2 0x8A8 SWAP2 SWAP1 PUSH2 0x9E0 JUMP JUMPDEST SWAP5 SWAP4 POP POP POP POP JUMP JUMPDEST PUSH1 0x65 DUP1 SLOAD PUSH1 0x1 PUSH1 0x1 PUSH1 0xA0 SHL SUB DUP4 DUP2 AND PUSH1 0x1 PUSH1 0x1 PUSH1 0xA0 SHL SUB NOT DUP4 AND DUP2 OR SWAP1 SWAP4 SSTORE PUSH1 0x40 MLOAD SWAP2 AND SWAP2 SWAP1 DUP3 SWAP1 PUSH32 0x8BE0079C531659141344CD1FD0A4F28419497F9722A3DAAFE3B4186F6B6457E0 SWAP1 PUSH1 0x0 SWAP1 LOG3 POP POP JUMP JUMPDEST PUSH1 0x0 PUSH2 0x301 PUSH4 0x3B9ACA00 DUP4 PUSH2 0xA02 JUMP JUMPDEST PUSH1 0x0 PUSH8 0xDE0B6B3A7640000 PUSH2 0x927 DUP4 DUP6 PUSH2 0xA02 JUMP JUMPDEST PUSH2 0x863 PUSH1 0x2 PUSH8 0xDE0B6B3A7640000 PUSH2 0x9E0 JUMP JUMPDEST PUSH1 0x0 DUP1 PUSH2 0x948 PUSH1 0x2 DUP5 PUSH2 0x9E0 JUMP JUMPDEST SWAP1 POP DUP3 PUSH2 0x894 PUSH8 0xDE0B6B3A7640000 DUP7 PUSH2 0xA02 JUMP JUMPDEST PUSH1 0x0 PUSH1 0x20 DUP3 DUP5 SUB SLT ISZERO PUSH2 0x96F JUMPI PUSH1 0x0 DUP1 REVERT JUMPDEST DUP2 CALLDATALOAD PUSH2 0x82C DUP2 PUSH2 0xA37 JUMP JUMPDEST PUSH1 0x0 PUSH1 0x20 DUP3 DUP5 SUB SLT ISZERO PUSH2 0x98C JUMPI PUSH1 0x0 DUP1 REVERT JUMPDEST POP CALLDATALOAD SWAP2 SWAP1 POP JUMP JUMPDEST PUSH1 0x20 DUP1 DUP3 MSTORE DUP2 DUP2 ADD MSTORE PUSH32 0x4F776E61626C653A2063616C6C6572206973206E6F7420746865206F776E6572 PUSH1 0x40 DUP3 ADD MSTORE PUSH1 0x60 ADD SWAP1 JUMP JUMPDEST PUSH1 0x0 DUP3 NOT DUP3 GT ISZERO PUSH2 0x9DB JUMPI PUSH2 0x9DB PUSH2 0xA21 JUMP JUMPDEST POP ADD SWAP1 JUMP JUMPDEST PUSH1 0x0 DUP3 PUSH2 0x9FD JUMPI PUSH4 0x4E487B71 PUSH1 0xE0 SHL PUSH1 0x0 MSTORE PUSH1 0x12 PUSH1 0x4 MSTORE PUSH1 0x24 PUSH1 0x0 REVERT JUMPDEST POP DIV SWAP1 JUMP JUMPDEST PUSH1 0x0 DUP2 PUSH1 0x0 NOT DIV DUP4 GT DUP3 ISZERO ISZERO AND ISZERO PUSH2 0xA1C JUMPI PUSH2 0xA1C PUSH2 0xA21 JUMP JUMPDEST POP MUL SWAP1 JUMP JUMPDEST PUSH4 0x4E487B71 PUSH1 0xE0 SHL PUSH1 0x0 MSTORE PUSH1 0x11 PUSH1 0x4 MSTORE PUSH1 0x24 PUSH1 0x0 REVERT JUMPDEST PUSH1 0x1 PUSH1 0x1 PUSH1 0xA0 SHL SUB DUP2 AND DUP2 EQ PUSH2 0x4CA JUMPI PUSH1 0x0 DUP1 REVERT INVALID LOG2 PUSH5 0x6970667358 0x22 SLT KECCAK256 0x4D DUP3 PUSH9 0x97B62C22B62F36B322 AND 0xDA INVALID 0x5C 0xB9 SAR DUP12 0xD3 MSTORE 0x27 0xC0 0xB8 0xEB INVALID PUSH28 0x8ED108CD2764736F6C63430008070033000000000000000000000000 "
    },
    "gasEstimates": {
      "creation": {
        "codeDepositCost": "538000",
        "executionCost": "infinite",
        "totalCost": "infinite"
      },
      "external": {
        "amount()": "2340",
        "amountToShares(uint256)": "infinite",
        "cancelHire(address)": "infinite",
        "hire(address)": "infinite",
        "owner()": "2409",
        "paused()": "2315",
        "pos()": "2359",
        "renounceOwnership()": "28184",
        "requiredLiquidity()": "2361",
        "retire(address)": "infinite",
        "selfhire()": "infinite",
        "shares()": "2341",
        "sharesToAmount(uint256)": "infinite",
        "transferOwnership(address)": "infinite",
        "userBalance(address)": "6801"
      },
      "internal": {
        "__StakingPoolWorkerImpl_update(address)": "infinite"
      }
    },
    "methodIdentifiers": {
      "amount()": "aa8c217c",
      "amountToShares(uint256)": "b811540e",
      "cancelHire(address)": "b64b3bed",
      "hire(address)": "d9d6bd86",
      "owner()": "8da5cb5b",
      "paused()": "5c975abb",
      "pos()": "c56551b6",
      "renounceOwnership()": "715018a6",
      "requiredLiquidity()": "e366b7bb",
      "retire(address)": "9e6371ba",
      "selfhire()": "6ff46a6c",
      "shares()": "03314efa",
      "sharesToAmount(uint256)": "555d8ebb",
      "transferOwnership(address)": "f2fde38b",
      "userBalance(address)": "0103c92b"
    }
  },
  "storageLayout": {
    "storage": [
      {
        "astId": 979,
        "contract": "contracts/StakingPoolWorkerImpl.sol:StakingPoolWorkerImpl",
        "label": "_initialized",
        "offset": 0,
        "slot": "0",
        "type": "t_bool"
      },
      {
        "astId": 982,
        "contract": "contracts/StakingPoolWorkerImpl.sol:StakingPoolWorkerImpl",
        "label": "_initializing",
        "offset": 1,
        "slot": "0",
        "type": "t_bool"
      },
      {
        "astId": 1175,
        "contract": "contracts/StakingPoolWorkerImpl.sol:StakingPoolWorkerImpl",
        "label": "__gap",
        "offset": 0,
        "slot": "1",
        "type": "t_array(t_uint256)50_storage"
      },
      {
        "astId": 1040,
        "contract": "contracts/StakingPoolWorkerImpl.sol:StakingPoolWorkerImpl",
        "label": "_paused",
        "offset": 0,
        "slot": "51",
        "type": "t_bool"
      },
      {
        "astId": 1131,
        "contract": "contracts/StakingPoolWorkerImpl.sol:StakingPoolWorkerImpl",
        "label": "__gap",
        "offset": 0,
        "slot": "52",
        "type": "t_array(t_uint256)49_storage"
      },
      {
        "astId": 859,
        "contract": "contracts/StakingPoolWorkerImpl.sol:StakingPoolWorkerImpl",
        "label": "_owner",
        "offset": 0,
        "slot": "101",
        "type": "t_address"
      },
      {
        "astId": 972,
        "contract": "contracts/StakingPoolWorkerImpl.sol:StakingPoolWorkerImpl",
        "label": "__gap",
        "offset": 0,
        "slot": "102",
        "type": "t_array(t_uint256)49_storage"
      },
      {
        "astId": 1883,
        "contract": "contracts/StakingPoolWorkerImpl.sol:StakingPoolWorkerImpl",
        "label": "shares",
        "offset": 0,
        "slot": "151",
        "type": "t_uint256"
      },
      {
        "astId": 1885,
        "contract": "contracts/StakingPoolWorkerImpl.sol:StakingPoolWorkerImpl",
        "label": "amount",
        "offset": 0,
        "slot": "152",
        "type": "t_uint256"
      },
      {
        "astId": 1887,
        "contract": "contracts/StakingPoolWorkerImpl.sol:StakingPoolWorkerImpl",
        "label": "requiredLiquidity",
        "offset": 0,
        "slot": "153",
        "type": "t_uint256"
      },
      {
        "astId": 1890,
        "contract": "contracts/StakingPoolWorkerImpl.sol:StakingPoolWorkerImpl",
        "label": "pos",
        "offset": 0,
        "slot": "154",
        "type": "t_contract(IPoS)61"
      },
      {
        "astId": 1902,
        "contract": "contracts/StakingPoolWorkerImpl.sol:StakingPoolWorkerImpl",
        "label": "userBalance",
        "offset": 0,
        "slot": "155",
        "type": "t_mapping(t_address,t_struct(UserBalance)1897_storage)"
      }
    ],
    "types": {
      "t_address": {
        "encoding": "inplace",
        "label": "address",
        "numberOfBytes": "20"
      },
      "t_array(t_uint256)49_storage": {
        "base": "t_uint256",
        "encoding": "inplace",
        "label": "uint256[49]",
        "numberOfBytes": "1568"
      },
      "t_array(t_uint256)50_storage": {
        "base": "t_uint256",
        "encoding": "inplace",
        "label": "uint256[50]",
        "numberOfBytes": "1600"
      },
      "t_bool": {
        "encoding": "inplace",
        "label": "bool",
        "numberOfBytes": "1"
      },
      "t_contract(IPoS)61": {
        "encoding": "inplace",
        "label": "contract IPoS",
        "numberOfBytes": "20"
      },
      "t_mapping(t_address,t_struct(UserBalance)1897_storage)": {
        "encoding": "mapping",
        "key": "t_address",
        "label": "mapping(address => struct StakingPoolData.UserBalance)",
        "numberOfBytes": "32",
        "value": "t_struct(UserBalance)1897_storage"
      },
      "t_struct(UserBalance)1897_storage": {
        "encoding": "inplace",
        "label": "struct StakingPoolData.UserBalance",
        "members": [
          {
            "astId": 1892,
            "contract": "contracts/StakingPoolWorkerImpl.sol:StakingPoolWorkerImpl",
            "label": "balance",
            "offset": 0,
            "slot": "0",
            "type": "t_uint256"
          },
          {
            "astId": 1894,
            "contract": "contracts/StakingPoolWorkerImpl.sol:StakingPoolWorkerImpl",
            "label": "shares",
            "offset": 0,
            "slot": "1",
            "type": "t_uint256"
          },
          {
            "astId": 1896,
            "contract": "contracts/StakingPoolWorkerImpl.sol:StakingPoolWorkerImpl",
            "label": "depositTimestamp",
            "offset": 0,
            "slot": "2",
            "type": "t_uint256"
          }
        ],
        "numberOfBytes": "96"
      },
      "t_uint256": {
        "encoding": "inplace",
        "label": "uint256",
        "numberOfBytes": "32"
      }
    }
  },
  "userdoc": {
    "kind": "user",
    "methods": {
      "cancelHire(address)": {
        "notice": "Called by the user to cancel a job offer"
      },
      "hire(address)": {
        "notice": "Asks the worker to work for the sender. Sender needs to pay something."
      },
      "retire(address)": {
        "notice": "Called by the user to retire his worker."
      },
      "selfhire()": {
        "notice": "allows for the pool to act on its own behalf when producing blocks."
      }
    },
    "version": 1
  }
}