{
  "contractName": "StakingPoolImpl",
  "sourceName": "contracts/StakingPoolImpl.sol",
  "abi": [
    {
      "inputs": [
        {
          "internalType": "address",
          "name": "_ctsi",
          "type": "address"
        },
        {
          "internalType": "address",
          "name": "_staking",
          "type": "address"
        },
        {
          "internalType": "address",
          "name": "_pos",
          "type": "address"
        },
        {
          "internalType": "address",
          "name": "_workerManager",
          "type": "address"
        },
        {
          "internalType": "address",
          "name": "_ens",
          "type": "address"
        }
      ],
      "stateMutability": "nonpayable",
      "type": "constructor"
    },
    {
      "anonymous": false,
      "inputs": [
        {
          "indexed": false,
          "internalType": "uint256",
          "name": "reward",
          "type": "uint256"
        },
        {
          "indexed": false,
          "internalType": "uint256",
          "name": "commission",
          "type": "uint256"
        }
      ],
      "name": "BlockProduced",
      "type": "event"
    },
    {
      "anonymous": false,
      "inputs": [
        {
          "indexed": true,
          "internalType": "address",
          "name": "previousOwner",
          "type": "address"
        },
        {
          "indexed": true,
          "internalType": "address",
          "name": "newOwner",
          "type": "address"
        }
      ],
      "name": "OwnershipTransferred",
      "type": "event"
    },
    {
      "anonymous": false,
      "inputs": [
        {
          "indexed": false,
          "internalType": "address",
          "name": "account",
          "type": "address"
        }
      ],
      "name": "Paused",
      "type": "event"
    },
    {
      "anonymous": false,
      "inputs": [
        {
          "indexed": true,
          "internalType": "address",
          "name": "user",
          "type": "address"
        },
        {
          "indexed": false,
          "internalType": "uint256",
          "name": "amount",
          "type": "uint256"
        },
        {
          "indexed": false,
          "internalType": "uint256",
          "name": "shares",
          "type": "uint256"
        },
        {
          "indexed": false,
          "internalType": "uint256",
          "name": "unlockTimestamp",
          "type": "uint256"
        }
      ],
      "name": "Stake",
      "type": "event"
    },
    {
      "anonymous": false,
      "inputs": [
        {
          "indexed": false,
          "internalType": "string",
          "name": "name",
          "type": "string"
        }
      ],
      "name": "StakingPoolRenamed",
      "type": "event"
    },
    {
      "anonymous": false,
      "inputs": [
        {
          "indexed": false,
          "internalType": "address",
          "name": "account",
          "type": "address"
        }
      ],
      "name": "Unpaused",
      "type": "event"
    },
    {
      "anonymous": false,
      "inputs": [
        {
          "indexed": true,
          "internalType": "address",
          "name": "user",
          "type": "address"
        },
        {
          "indexed": false,
          "internalType": "uint256",
          "name": "amount",
          "type": "uint256"
        },
        {
          "indexed": false,
          "internalType": "uint256",
          "name": "shares",
          "type": "uint256"
        }
      ],
      "name": "Unstake",
      "type": "event"
    },
    {
      "anonymous": false,
      "inputs": [
        {
          "indexed": true,
          "internalType": "address",
          "name": "user",
          "type": "address"
        },
        {
          "indexed": false,
          "internalType": "uint256",
          "name": "amount",
          "type": "uint256"
        }
      ],
      "name": "Withdraw",
      "type": "event"
    },
    {
      "inputs": [
        {
          "internalType": "address",
          "name": "_fee",
          "type": "address"
        }
      ],
      "name": "__StakingPoolProducer_init",
      "outputs": [],
      "stateMutability": "nonpayable",
      "type": "function"
    },
    {
      "inputs": [],
      "name": "__StakingPoolStaking_init",
      "outputs": [],
      "stateMutability": "nonpayable",
      "type": "function"
    },
    {
      "inputs": [
        {
          "internalType": "uint256",
          "name": "_lockTime",
          "type": "uint256"
        }
      ],
      "name": "__StakingPoolUser_init",
      "outputs": [],
      "stateMutability": "nonpayable",
      "type": "function"
    },
    {
      "inputs": [],
      "name": "amount",
      "outputs": [
        {
          "internalType": "uint256",
          "name": "",
          "type": "uint256"
        }
      ],
      "stateMutability": "view",
      "type": "function"
    },
    {
      "inputs": [
        {
          "internalType": "uint256",
          "name": "_amount",
          "type": "uint256"
        }
      ],
      "name": "amountToShares",
      "outputs": [
        {
          "internalType": "uint256",
          "name": "",
          "type": "uint256"
        }
      ],
      "stateMutability": "view",
      "type": "function"
    },
    {
      "inputs": [],
      "name": "amounts",
      "outputs": [
        {
          "internalType": "uint256",
          "name": "stake",
          "type": "uint256"
        },
        {
          "internalType": "uint256",
          "name": "unstake",
          "type": "uint256"
        },
        {
          "internalType": "uint256",
          "name": "withdraw",
          "type": "uint256"
        }
      ],
      "stateMutability": "view",
      "type": "function"
    },
    {
      "inputs": [
        {
          "internalType": "address",
          "name": "workerAddress",
          "type": "address"
        }
      ],
      "name": "cancelHire",
      "outputs": [],
      "stateMutability": "nonpayable",
      "type": "function"
    },
    {
      "inputs": [],
      "name": "ctsi",
      "outputs": [
        {
          "internalType": "contract IERC20",
          "name": "",
          "type": "address"
        }
      ],
      "stateMutability": "view",
      "type": "function"
    },
    {
      "inputs": [],
      "name": "ens",
      "outputs": [
        {
          "internalType": "contract ENS",
          "name": "",
          "type": "address"
        }
      ],
      "stateMutability": "view",
      "type": "function"
    },
    {
      "inputs": [],
      "name": "fee",
      "outputs": [
        {
          "internalType": "contract Fee",
          "name": "",
          "type": "address"
        }
      ],
      "stateMutability": "view",
      "type": "function"
    },
    {
      "inputs": [],
      "name": "getWithdrawBalance",
      "outputs": [
        {
          "internalType": "uint256",
          "name": "",
          "type": "uint256"
        }
      ],
      "stateMutability": "view",
      "type": "function"
    },
    {
      "inputs": [
        {
          "internalType": "address payable",
          "name": "workerAddress",
          "type": "address"
        }
      ],
      "name": "hire",
      "outputs": [],
      "stateMutability": "payable",
      "type": "function"
    },
    {
      "inputs": [
        {
          "internalType": "address",
          "name": "_fee",
          "type": "address"
        },
        {
          "internalType": "uint256",
          "name": "_stakeLock",
          "type": "uint256"
        }
      ],
      "name": "initialize",
      "outputs": [],
      "stateMutability": "nonpayable",
      "type": "function"
    },
    {
      "inputs": [],
      "name": "owner",
      "outputs": [
        {
          "internalType": "address",
          "name": "",
          "type": "address"
        }
      ],
      "stateMutability": "view",
      "type": "function"
    },
    {
      "inputs": [],
      "name": "pause",
      "outputs": [],
      "stateMutability": "nonpayable",
      "type": "function"
    },
    {
      "inputs": [],
      "name": "paused",
      "outputs": [
        {
          "internalType": "bool",
          "name": "",
          "type": "bool"
        }
      ],
      "stateMutability": "view",
      "type": "function"
    },
    {
      "inputs": [],
      "name": "pos",
      "outputs": [
        {
          "internalType": "contract IPoS",
          "name": "",
          "type": "address"
        }
      ],
      "stateMutability": "view",
      "type": "function"
    },
    {
      "inputs": [
        {
          "internalType": "uint256",
          "name": "_index",
          "type": "uint256"
        }
      ],
      "name": "produceBlock",
      "outputs": [
        {
          "internalType": "bool",
          "name": "",
          "type": "bool"
        }
      ],
      "stateMutability": "nonpayable",
      "type": "function"
    },
    {
      "inputs": [],
      "name": "rebalance",
      "outputs": [],
      "stateMutability": "nonpayable",
      "type": "function"
    },
    {
      "inputs": [],
      "name": "renounceOwnership",
      "outputs": [],
      "stateMutability": "nonpayable",
      "type": "function"
    },
    {
      "inputs": [],
      "name": "requiredLiquidity",
      "outputs": [
        {
          "internalType": "uint256",
          "name": "",
          "type": "uint256"
        }
      ],
      "stateMutability": "view",
      "type": "function"
    },
    {
      "inputs": [
        {
          "internalType": "address payable",
          "name": "workerAddress",
          "type": "address"
        }
      ],
      "name": "retire",
      "outputs": [],
      "stateMutability": "nonpayable",
      "type": "function"
    },
    {
      "inputs": [],
      "name": "selfhire",
      "outputs": [],
      "stateMutability": "payable",
      "type": "function"
    },
    {
      "inputs": [
        {
          "internalType": "string",
          "name": "name",
          "type": "string"
        }
      ],
      "name": "setName",
      "outputs": [],
      "stateMutability": "nonpayable",
      "type": "function"
    },
    {
      "inputs": [],
      "name": "shares",
      "outputs": [
        {
          "internalType": "uint256",
          "name": "",
          "type": "uint256"
        }
      ],
      "stateMutability": "view",
      "type": "function"
    },
    {
      "inputs": [
        {
          "internalType": "uint256",
          "name": "_shares",
          "type": "uint256"
        }
      ],
      "name": "sharesToAmount",
      "outputs": [
        {
          "internalType": "uint256",
          "name": "",
          "type": "uint256"
        }
      ],
      "stateMutability": "view",
      "type": "function"
    },
    {
      "inputs": [
        {
          "internalType": "uint256",
          "name": "_amount",
          "type": "uint256"
        }
      ],
      "name": "stake",
      "outputs": [],
      "stateMutability": "nonpayable",
      "type": "function"
    },
    {
      "inputs": [
        {
          "internalType": "address",
          "name": "newOwner",
          "type": "address"
        }
      ],
      "name": "transferOwnership",
      "outputs": [],
      "stateMutability": "nonpayable",
      "type": "function"
    },
    {
      "inputs": [],
      "name": "unpause",
      "outputs": [],
      "stateMutability": "nonpayable",
      "type": "function"
    },
    {
      "inputs": [
        {
          "internalType": "uint256",
          "name": "_shares",
          "type": "uint256"
        }
      ],
      "name": "unstake",
      "outputs": [],
      "stateMutability": "nonpayable",
      "type": "function"
    },
    {
      "inputs": [
        {
          "internalType": "address",
          "name": "",
          "type": "address"
        }
      ],
      "name": "userBalance",
      "outputs": [
        {
          "internalType": "uint256",
          "name": "shares",
          "type": "uint256"
        },
        {
          "internalType": "uint256",
          "name": "released",
          "type": "uint256"
        },
        {
          "internalType": "uint256",
          "name": "unstakeTimestamp",
          "type": "uint256"
        }
      ],
      "stateMutability": "view",
      "type": "function"
    },
    {
      "inputs": [],
      "name": "withdraw",
      "outputs": [],
      "stateMutability": "nonpayable",
      "type": "function"
    },
    {
      "stateMutability": "payable",
      "type": "receive"
    }
  ],
  "bytecode": "0x6101806040523480156200001257600080fd5b506040516200291438038062002914833981016040819052620000359162000265565b81838680878184876001600160a01b038116620000925760405162461bcd60e51b81526020600482015260216024820152600080516020620028f48339815191526044820152607360f81b60648201526084015b60405180910390fd5b6001600160601b0319606082901b16608052620000ae620001ad565b506001600160601b0319606092831b811660a05290821b811660c05292811b831660e05290811b8216610100529190911b16610120526001600160a01b038216620001355760405162461bcd60e51b81526020600482015260216024820152600080516020620028f48339815191526044820152607360f81b606482015260840162000089565b6001600160a01b038116620001865760405162461bcd60e51b81526020600482015260216024820152600080516020620028f48339815191526044820152607360f81b606482015260840162000089565b6001600160601b0319606092831b811661016052911b166101405250620002d59350505050565b60335460ff1615620001f55760405162461bcd60e51b815260206004820152601060248201526f14185d5cd8589b194e881c185d5cd95960821b604482015260640162000089565b6033805460ff191660011790557f62e78cea01bee320cd4e420270b5ea74000d11b0c9f74754ebdbfc544b05a2586200022b3390565b6040516001600160a01b03909116815260200160405180910390a1565b80516001600160a01b03811681146200026057600080fd5b919050565b600080600080600060a086880312156200027e57600080fd5b620002898662000248565b9450620002996020870162000248565b9350620002a96040870162000248565b9250620002b96060870162000248565b9150620002c96080870162000248565b90509295509295909350565b60805160601c60a05160601c60c05160601c60e05160601c6101005160601c6101205160601c6101405160601c6101605160601c612515620003df60003960008181610d5e01528181610e0601528181610e6801528181611269015281816119d301528181611c7a0152611d1c015260008181610dde0152611cf401526000818161088d01528181610f1101526117e60152600081816109d201528181610c0c01528181610ca60152818161100b015281816110aa0152818161112d01526111ae015260008181610a020152610b3501526000818161052f015281816112ec01526113f4015260008181610376015261157f0152600081816102bc0152611a8501526125156000f3fe6080604052600436106101e75760003560e01c80638456cb5911610102578063c47f002711610095578063ddca3f4311610064578063ddca3f4314610584578063e366b7bb146105a4578063f2fde38b146105ba578063f6efbd14146105da57600080fd5b8063c47f0027146104fd578063c56551b61461051d578063cd6dc68714610551578063d9d6bd861461057157600080fd5b8063a694fc3a116100d1578063a694fc3a14610487578063aa8c217c146104a7578063b64b3bed146104bd578063b811540e146104dd57600080fd5b80638456cb59146104145780638da5cb5b146104295780639e6371ba14610447578063a5a6cd0b1461046757600080fd5b80635c975abb1161017a578063710fe6f811610149578063710fe6f8146103b5578063715018a6146103ca5780637172dea2146103df5780637d7c2a1c146103ff57600080fd5b80635c975abb1461034057806364ffc3f4146103645780636beaeeae146103985780636ff46a6c146103ad57600080fd5b80633f15457f116101b65780633f15457f146102aa5780633f4ba83a146102f657806342429eef1461030b578063555d8ebb1461032057600080fd5b80630103c92b146101f357806303314efa1461024f5780632e17de78146102735780633ccfd60b1461029557600080fd5b366101ee57005b600080fd5b3480156101ff57600080fd5b5061022f61020e366004612196565b609a6020526000908152604090208054600182015460029092015490919083565b604080519384526020840192909252908201526060015b60405180910390f35b34801561025b57600080fd5b5061026560975481565b604051908152602001610246565b34801561027f57600080fd5b5061029361028e3660046122ef565b6105fa565b005b3480156102a157600080fd5b506102936107fc565b3480156102b657600080fd5b506102de7f000000000000000000000000000000000000000000000000000000000000000081565b6040516001600160a01b039091168152602001610246565b34801561030257600080fd5b50610293610987565b34801561031757600080fd5b506102936109bb565b34801561032c57600080fd5b5061026561033b3660046122ef565b610ade565b34801561034c57600080fd5b5060335460ff165b6040519015158152602001610246565b34801561037057600080fd5b506102de7f000000000000000000000000000000000000000000000000000000000000000081565b3480156103a457600080fd5b5061022f610b0f565b610293610d49565b3480156103c157600080fd5b50610265610edb565b3480156103d657600080fd5b50610293610fa5565b3480156103eb57600080fd5b506102936103fa3660046122ef565b609c55565b34801561040b57600080fd5b50610293610fd9565b34801561042057600080fd5b50610293611218565b34801561043557600080fd5b506065546001600160a01b03166102de565b34801561045357600080fd5b50610293610462366004612196565b61124a565b34801561047357600080fd5b506103546104823660046122ef565b6112c9565b34801561049357600080fd5b506102936104a23660046122ef565b611713565b3480156104b357600080fd5b5061026560985481565b3480156104c957600080fd5b506102936104d8366004612196565b6119b4565b3480156104e957600080fd5b506102656104f83660046122ef565b611a02565b34801561050957600080fd5b5061029361051836600461223e565b611a23565b34801561052957600080fd5b506102de7f000000000000000000000000000000000000000000000000000000000000000081565b34801561055d57600080fd5b5061029361056c3660046121d7565b611bc4565b61029361057f366004612196565b611c5b565b34801561059057600080fd5b50609b546102de906001600160a01b031681565b3480156105b057600080fd5b5061026560995481565b3480156105c657600080fd5b506102936105d5366004612196565b611d4f565b3480156105e657600080fd5b506102936105f5366004612196565b611d5b565b336000908152609a60205260409020816106715760405162461bcd60e51b815260206004820152602d60248201527f5374616b696e67506f6f6c55736572496d706c3a20696e76616c696420616d6f60448201526c756e74206f662073686172657360981b60648201526084015b60405180910390fd5b80548211156106d35760405162461bcd60e51b815260206004820152602860248201527f5374616b696e67506f6f6c55736572496d706c3a20696e73756666696369656e604482015267742073686172657360c01b6064820152608401610668565b806002015442116107305760405162461bcd60e51b815260206004820152602160248201527f5374616b696e67506f6f6c55736572496d706c3a207374616b65206c6f636b656044820152601960fa1b6064820152608401610668565b818160000160008282546107449190612487565b909155506000905061075583610ade565b905082609760008282546107699190612487565b9250508190555080609860008282546107829190612487565b925050819055508082600101600082825461079d919061242e565b9250508190555080609960008282546107b6919061242e565b9091555050604080518281526020810185905233917ff960dbf9e5d0682f7a298ed974e33a28b4464914b7a2bfac12ae419a9afeb28091015b60405180910390a2505050565b336000908152609a602052604090206001810154806108715760405162461bcd60e51b815260206004820152602b60248201527f5374616b696e67506f6f6c55736572496d706c3a206e6f2062616c616e63652060448201526a746f20776974686472617760a81b6064820152608401610668565b60405163a9059cbb60e01b8152336004820152602481018290527f00000000000000000000000000000000000000000000000000000000000000006001600160a01b03169063a9059cbb90604401602060405180830381600087803b1580156108d957600080fd5b505af11580156108ed573d6000803e3d6000fd5b505050506040513d601f19601f820116820180604052508101906109119190612203565b61092d5760405162461bcd60e51b81526004016106689061235d565b6000826001018190555080609960008282546109499190612487565b909155505060405181815233907f884edad9ce6fa2440d8a54cc123490eb96d2768479d49ff9c7366125a94243649060200160405180910390a25050565b6065546001600160a01b031633146109b15760405162461bcd60e51b8152600401610668906123f9565b6109b9611d7d565b565b60405163095ea7b360e01b81526001600160a01b037f00000000000000000000000000000000000000000000000000000000000000008116600483015260001960248301527f0000000000000000000000000000000000000000000000000000000000000000169063095ea7b390604401602060405180830381600087803b158015610a4657600080fd5b505af1158015610a5a573d6000803e3d6000fd5b505050506040513d601f19601f82011682018060405250810190610a7e9190612203565b6109b95760405162461bcd60e51b815260206004820152602b60248201527f4661696c656420746f20617070726f7665204354534920666f72207374616b6960448201526a1b99c818dbdb9d1c9858dd60aa1b6064820152608401610668565b600060975460001415610aef575090565b609754609854610aff9084612468565b610b099190612446565b92915050565b6040516370a0823160e01b81523060048201526000908190819081906001600160a01b037f000000000000000000000000000000000000000000000000000000000000000016906370a082319060240160206040518083038186803b158015610b7757600080fd5b505afa158015610b8b573d6000803e3d6000fd5b505050506040513d601f19601f82011682018060405250810190610baf9190612225565b9050609954811115610bcf57609954610bc89082612487565b9350610d43565b806099541115610d4357600081609954610be99190612487565b604051638e9f04b560e01b81523060048201529091506000906001600160a01b037f00000000000000000000000000000000000000000000000000000000000000001690638e9f04b59060240160206040518083038186803b158015610c4e57600080fd5b505afa158015610c62573d6000803e3d6000fd5b505050506040513d601f19601f82011682018060405250810190610c869190612225565b90508015610d3c576040516367ba9b9160e01b81523060048201526000907f00000000000000000000000000000000000000000000000000000000000000006001600160a01b0316906367ba9b919060240160206040518083038186803b158015610cf057600080fd5b505afa158015610d04573d6000803e3d6000fd5b505050506040513d601f19601f82011682018060405250810190610d289190612225565b905042811015610d36578194505b50610d40565b8194505b50505b50909192565b604051636ceb5ec360e11b81523060048201527f00000000000000000000000000000000000000000000000000000000000000006001600160a01b03169063d9d6bd869034906024016000604051808303818588803b158015610dab57600080fd5b505af1158015610dbf573d6000803e3d6000fd5b5050604051632bef459560e01b81523060048201526001600160a01b037f0000000000000000000000000000000000000000000000000000000000000000811660248301527f0000000000000000000000000000000000000000000000000000000000000000169350632bef459592506044019050600060405180830381600087803b158015610e4e57600080fd5b505af1158015610e62573d6000803e3d6000fd5b505050507f00000000000000000000000000000000000000000000000000000000000000006001600160a01b0316639b789b7e6040518163ffffffff1660e01b8152600401600060405180830381600087803b158015610ec157600080fd5b505af1158015610ed5573d6000803e3d6000fd5b50505050565b336000908152609a6020526040808220600181015491516370a0823160e01b815230600482015290919083906001600160a01b037f000000000000000000000000000000000000000000000000000000000000000016906370a082319060240160206040518083038186803b158015610f5357600080fd5b505afa158015610f67573d6000803e3d6000fd5b505050506040513d601f19601f82011682018060405250810190610f8b9190612225565b9050818111610f9b576000610f9d565b815b935050505090565b6065546001600160a01b03163314610fcf5760405162461bcd60e51b8152600401610668906123f9565b6109b96000611e10565b6000806000610fe6610b0f565b91945092509050821561111157604051631066f98960e21b81523060048201526000907f00000000000000000000000000000000000000000000000000000000000000006001600160a01b03169063419be6249060240160206040518083038186803b15801561105557600080fd5b505afa158015611069573d6000803e3d6000fd5b505050506040513d601f19601f8201168201806040525081019061108d9190612225565b90508061110f5760405163534a7e1d60e11b8152600481018590527f00000000000000000000000000000000000000000000000000000000000000006001600160a01b03169063a694fc3a90602401600060405180830381600087803b1580156110f657600080fd5b505af115801561110a573d6000803e3d6000fd5b505050505b505b8115611192576040516305c2fbcf60e31b8152600481018390527f00000000000000000000000000000000000000000000000000000000000000006001600160a01b031690632e17de7890602401600060405180830381600087803b15801561117957600080fd5b505af115801561118d573d6000803e3d6000fd5b505050505b801561121357604051632e1a7d4d60e01b8152600481018290527f00000000000000000000000000000000000000000000000000000000000000006001600160a01b031690632e1a7d4d90602401600060405180830381600087803b1580156111fa57600080fd5b505af115801561120e573d6000803e3d6000fd5b505050505b505050565b6065546001600160a01b031633146112425760405162461bcd60e51b8152600401610668906123f9565b6109b9611e62565b604051634f31b8dd60e11b81526001600160a01b0382811660048301527f00000000000000000000000000000000000000000000000000000000000000001690639e6371ba906024015b600060405180830381600087803b1580156112ae57600080fd5b505af11580156112c2573d6000803e3d6000fd5b5050505050565b6040516385425f4f60e01b81526004810182905260009081906001600160a01b037f000000000000000000000000000000000000000000000000000000000000000016906385425f4f9060240160206040518083038186803b15801561132e57600080fd5b505afa158015611342573d6000803e3d6000fd5b505050506040513d601f19601f8201168201806040525081019061136691906121ba565b90506000816001600160a01b0316638aec85426040518163ffffffff1660e01b815260040160206040518083038186803b1580156113a357600080fd5b505afa1580156113b7573d6000803e3d6000fd5b505050506040513d601f19601f820116820180604052508101906113db9190612225565b60405163a5a6cd0b60e01b8152600481018690529091507f00000000000000000000000000000000000000000000000000000000000000006001600160a01b03169063a5a6cd0b90602401602060405180830381600087803b15801561144057600080fd5b505af1158015611454573d6000803e3d6000fd5b505050506040513d601f19601f820116820180604052508101906114789190612203565b50609b54604051632c7f22b560e21b815260048101869052602481018390526000916001600160a01b03169063b1fc8ad49060440160206040518083038186803b1580156114c557600080fd5b505afa1580156114d9573d6000803e3d6000fd5b505050506040513d601f19601f820116820180604052508101906114fd9190612225565b905081811115611577576040805162461bcd60e51b81526020600482015260248101919091527f5374616b696e67506f6f6c50726f6475636572496d706c3a20636f6d6d69737360448201527f696f6e2069732067726561746572207468616e20626c6f636b207265776172646064820152608401610668565b80156116a9577f00000000000000000000000000000000000000000000000000000000000000006001600160a01b031663a9059cbb6115be6065546001600160a01b031690565b6040516001600160e01b031960e084901b1681526001600160a01b03909116600482015260248101849052604401602060405180830381600087803b15801561160657600080fd5b505af115801561161a573d6000803e3d6000fd5b505050506040513d601f19601f8201168201806040525081019061163e9190612203565b6116a95760405162461bcd60e51b815260206004820152603660248201527f5374616b696e67506f6f6c50726f6475636572496d706c3a206661696c6564206044820152753a37903a3930b739b332b91031b7b6b6b4b9b9b4b7b760511b6064820152608401610668565b60006116b58284612487565b905080609860008282546116c9919061242e565b909155505060408051848152602081018490527fbb9ac692e0e3001a628f86a894f03da4ced5df81886fec577036664ed70a59cb910160405180910390a150600195945050505050565b60335460ff16156117595760405162461bcd60e51b815260206004820152601060248201526f14185d5cd8589b194e881c185d5cd95960821b6044820152606401610668565b600081116117c45760405162461bcd60e51b815260206004820152603260248201527f5374616b696e67506f6f6c55736572496d706c3a20616d6f756e74206d75737460448201527102062652067726561746572207468616e20360741b6064820152608401610668565b6040516323b872dd60e01b8152336004820152306024820152604481018290527f00000000000000000000000000000000000000000000000000000000000000006001600160a01b0316906323b872dd90606401602060405180830381600087803b15801561183257600080fd5b505af1158015611846573d6000803e3d6000fd5b505050506040513d601f19601f8201168201806040525081019061186a9190612203565b6118865760405162461bcd60e51b81526004016106689061235d565b600061189182611a02565b9050600081116119015760405162461bcd60e51b815260206004820152603560248201527f5374616b696e67506f6f6c55736572496d706c3a207374616b65206e6f7420656044820152746e6f75676820746f20656d6974203120736861726560581b6064820152608401610668565b336000908152609a6020526040812080549091839183919061192490849061242e565b9091555050609c54611936904261242e565b81600201819055508260986000828254611950919061242e565b925050819055508160976000828254611969919061242e565b9091555050600281015460408051858152602081018590529081019190915233907ff556991011e831bcfac4f406d547e5e32cdd98267efab83935230d5f8d02c446906060016107ef565b60405163b64b3bed60e01b81526001600160a01b0382811660048301527f0000000000000000000000000000000000000000000000000000000000000000169063b64b3bed90602401611294565b600060985460001415611a13575090565b609854609754610aff9084612468565b6065546001600160a01b03163314611a4d5760405162461bcd60e51b8152600401610668906123f9565b6040516302571be360e01b81527f91d1777781884d03a6757a803996e38de2a42967fb37eeaca72729271025a9e260048201526000907f00000000000000000000000000000000000000000000000000000000000000006001600160a01b0316906302571be39060240160206040518083038186803b158015611acf57600080fd5b505afa158015611ae3573d6000803e3d6000fd5b505050506040513d601f19601f82011682018060405250810190611b0791906121ba565b60405163c47f002760e01b81529091506001600160a01b0382169063c47f002790611b36908590600401612308565b602060405180830381600087803b158015611b5057600080fd5b505af1158015611b64573d6000803e3d6000fd5b505050506040513d601f19601f82011682018060405250810190611b889190612225565b507f6aaa0865532d48a9a0f63cc91df7ff2ab538c896665c864ae02d0a1e7f81cf6582604051611bb89190612308565b60405180910390a15050565b600054610100900460ff1680611bdd575060005460ff16155b611bf95760405162461bcd60e51b8152600401610668906123ab565b600054610100900460ff16158015611c1b576000805461ffff19166101011790555b611c23611edd565b611c2b611f58565b611c3483611d5b565b611c3c6109bb565b611c4582609c55565b8015611213576000805461ff0019169055505050565b604051636ceb5ec360e11b81526001600160a01b0382811660048301527f0000000000000000000000000000000000000000000000000000000000000000169063d9d6bd869034906024016000604051808303818588803b158015611cbf57600080fd5b505af1158015611cd3573d6000803e3d6000fd5b5050604051632bef459560e01b81526001600160a01b0385811660048301527f0000000000000000000000000000000000000000000000000000000000000000811660248301527f0000000000000000000000000000000000000000000000000000000000000000169350632bef459592506044019050611294565b611d5881611fbf565b50565b609b80546001600160a01b0319166001600160a01b0392909216919091179055565b60335460ff16611dc65760405162461bcd60e51b815260206004820152601460248201527314185d5cd8589b194e881b9bdd081c185d5cd95960621b6044820152606401610668565b6033805460ff191690557f5db9ee0a495bf2e6ff9c91a7834c1ba4fdd244a5e8aa4e537bd38aeae4b073aa335b6040516001600160a01b03909116815260200160405180910390a1565b606580546001600160a01b038381166001600160a01b0319831681179093556040519116919082907f8be0079c531659141344cd1fd0a4f28419497f9722a3daafe3b4186f6b6457e090600090a35050565b60335460ff1615611ea85760405162461bcd60e51b815260206004820152601060248201526f14185d5cd8589b194e881c185d5cd95960821b6044820152606401610668565b6033805460ff191660011790557f62e78cea01bee320cd4e420270b5ea74000d11b0c9f74754ebdbfc544b05a258611df33390565b600054610100900460ff1680611ef6575060005460ff16155b611f125760405162461bcd60e51b8152600401610668906123ab565b600054610100900460ff16158015611f34576000805461ffff19166101011790555b611f3c612057565b611f446120c1565b8015611d58576000805461ff001916905550565b600054610100900460ff1680611f71575060005460ff16155b611f8d5760405162461bcd60e51b8152600401610668906123ab565b600054610100900460ff16158015611faf576000805461ffff19166101011790555b611fb7612057565b611f44612136565b6065546001600160a01b03163314611fe95760405162461bcd60e51b8152600401610668906123f9565b6001600160a01b03811661204e5760405162461bcd60e51b815260206004820152602660248201527f4f776e61626c653a206e6577206f776e657220697320746865207a65726f206160448201526564647265737360d01b6064820152608401610668565b611d5881611e10565b600054610100900460ff1680612070575060005460ff16155b61208c5760405162461bcd60e51b8152600401610668906123ab565b600054610100900460ff16158015611f44576000805461ffff19166101011790558015611d58576000805461ff001916905550565b600054610100900460ff16806120da575060005460ff16155b6120f65760405162461bcd60e51b8152600401610668906123ab565b600054610100900460ff16158015612118576000805461ffff19166101011790555b6033805460ff191690558015611d58576000805461ff001916905550565b600054610100900460ff168061214f575060005460ff16155b61216b5760405162461bcd60e51b8152600401610668906123ab565b600054610100900460ff1615801561218d576000805461ffff19166101011790555b611f4433611e10565b6000602082840312156121a857600080fd5b81356121b3816124ca565b9392505050565b6000602082840312156121cc57600080fd5b81516121b3816124ca565b600080604083850312156121ea57600080fd5b82356121f5816124ca565b946020939093013593505050565b60006020828403121561221557600080fd5b815180151581146121b357600080fd5b60006020828403121561223757600080fd5b5051919050565b60006020828403121561225057600080fd5b813567ffffffffffffffff8082111561226857600080fd5b818401915084601f83011261227c57600080fd5b81358181111561228e5761228e6124b4565b604051601f8201601f19908116603f011681019083821181831017156122b6576122b66124b4565b816040528281528760208487010111156122cf57600080fd5b826020860160208301376000928101602001929092525095945050505050565b60006020828403121561230157600080fd5b5035919050565b600060208083528351808285015260005b8181101561233557858101830151858201604001528201612319565b81811115612347576000604083870101525b50601f01601f1916929092016040019392505050565b6020808252602e908201527f5374616b696e67506f6f6c55736572496d706c3a206661696c656420746f207460408201526d72616e7366657220746f6b656e7360901b606082015260800190565b6020808252602e908201527f496e697469616c697a61626c653a20636f6e747261637420697320616c72656160408201526d191e481a5b9a5d1a585b1a5e995960921b606082015260800190565b6020808252818101527f4f776e61626c653a2063616c6c6572206973206e6f7420746865206f776e6572604082015260600190565b600082198211156124415761244161249e565b500190565b60008261246357634e487b7160e01b600052601260045260246000fd5b500490565b60008160001904831182151516156124825761248261249e565b500290565b6000828210156124995761249961249e565b500390565b634e487b7160e01b600052601160045260246000fd5b634e487b7160e01b600052604160045260246000fd5b6001600160a01b0381168114611d5857600080fdfea2646970667358221220ac062ff941721c4d84b733c20ab7356623c749074a2c330b3755638a5e4aa3f464736f6c63430008060033706172616d657465722063616e206e6f74206265207a65726f20616464726573",
  "linkReferences": {},
  "deployedLinkReferences": {},
  "devdoc": {
    "kind": "dev",
    "methods": {
      "__StakingPoolUser_init(uint256)": {
        "params": {
          "_lockTime": "The user stake lock period"
        }
      },
      "amounts()": {
        "returns": {
          "stake": "amount of tokens that can be staked",
          "unstake": "amount of tokens that must be unstaked to add liquidity",
          "withdraw": "amount of tokens that can be withdrawn to add liquidity"
        }
      },
      "cancelHire(address)": {
        "params": {
          "workerAddress": "address of the worker node"
        }
      },
      "getWithdrawBalance()": {
        "details": "there is no way to know the exact time in the future the requested tokens will be available",
        "returns": {
          "_0": "the amount of tokens that can be immediately withdrawn by the calling user"
        }
      },
      "hire(address)": {
        "params": {
          "workerAddress": "address of the worker"
        }
      },
      "owner()": {
        "details": "Returns the address of the current owner."
      },
      "paused()": {
        "details": "Returns true if the contract is paused, and false otherwise."
      },
      "produceBlock(uint256)": {
        "returns": {
          "_0": "true when everything went fine"
        }
      },
      "renounceOwnership()": {
        "details": "Leaves the contract without owner. It will not be possible to call `onlyOwner` functions anymore. Can only be called by the current owner. NOTE: Renouncing ownership will leave the contract without an owner, thereby removing any functionality that is only available to the owner."
      },
      "retire(address)": {
        "details": "this also removes all authorizations in place",
        "params": {
          "workerAddress": "address of the worker to be retired"
        }
      },
      "stake(uint256)": {
        "params": {
          "_amount": "amount of tokens deposited in the pool"
        }
      },
      "withdraw()": {
        "details": "this will transfer all free tokens for the calling user"
      }
    },
    "version": 1
  },
  "evm": {
    "bytecode": {
      "linkReferences": {},
      "opcodes": "PUSH2 0x180 PUSH1 0x40 MSTORE CALLVALUE DUP1 ISZERO PUSH3 0x12 JUMPI PUSH1 0x0 DUP1 REVERT JUMPDEST POP PUSH1 0x40 MLOAD PUSH3 0x2914 CODESIZE SUB DUP1 PUSH3 0x2914 DUP4 CODECOPY DUP2 ADD PUSH1 0x40 DUP2 SWAP1 MSTORE PUSH3 0x35 SWAP2 PUSH3 0x265 JUMP JUMPDEST DUP2 DUP4 DUP7 DUP1 DUP8 DUP2 DUP5 DUP8 PUSH1 0x1 PUSH1 0x1 PUSH1 0xA0 SHL SUB DUP2 AND PUSH3 0x92 JUMPI PUSH1 0x40 MLOAD PUSH3 0x461BCD PUSH1 0xE5 SHL DUP2 MSTORE PUSH1 0x20 PUSH1 0x4 DUP3 ADD MSTORE PUSH1 0x21 PUSH1 0x24 DUP3 ADD MSTORE PUSH1 0x0 DUP1 MLOAD PUSH1 0x20 PUSH3 0x28F4 DUP4 CODECOPY DUP2 MLOAD SWAP2 MSTORE PUSH1 0x44 DUP3 ADD MSTORE PUSH1 0x73 PUSH1 0xF8 SHL PUSH1 0x64 DUP3 ADD MSTORE PUSH1 0x84 ADD JUMPDEST PUSH1 0x40 MLOAD DUP1 SWAP2 SUB SWAP1 REVERT JUMPDEST PUSH1 0x1 PUSH1 0x1 PUSH1 0x60 SHL SUB NOT PUSH1 0x60 DUP3 SWAP1 SHL AND PUSH1 0x80 MSTORE PUSH3 0xAE PUSH3 0x1AD JUMP JUMPDEST POP PUSH1 0x1 PUSH1 0x1 PUSH1 0x60 SHL SUB NOT PUSH1 0x60 SWAP3 DUP4 SHL DUP2 AND PUSH1 0xA0 MSTORE SWAP1 DUP3 SHL DUP2 AND PUSH1 0xC0 MSTORE SWAP3 DUP2 SHL DUP4 AND PUSH1 0xE0 MSTORE SWAP1 DUP2 SHL DUP3 AND PUSH2 0x100 MSTORE SWAP2 SWAP1 SWAP2 SHL AND PUSH2 0x120 MSTORE PUSH1 0x1 PUSH1 0x1 PUSH1 0xA0 SHL SUB DUP3 AND PUSH3 0x135 JUMPI PUSH1 0x40 MLOAD PUSH3 0x461BCD PUSH1 0xE5 SHL DUP2 MSTORE PUSH1 0x20 PUSH1 0x4 DUP3 ADD MSTORE PUSH1 0x21 PUSH1 0x24 DUP3 ADD MSTORE PUSH1 0x0 DUP1 MLOAD PUSH1 0x20 PUSH3 0x28F4 DUP4 CODECOPY DUP2 MLOAD SWAP2 MSTORE PUSH1 0x44 DUP3 ADD MSTORE PUSH1 0x73 PUSH1 0xF8 SHL PUSH1 0x64 DUP3 ADD MSTORE PUSH1 0x84 ADD PUSH3 0x89 JUMP JUMPDEST PUSH1 0x1 PUSH1 0x1 PUSH1 0xA0 SHL SUB DUP2 AND PUSH3 0x186 JUMPI PUSH1 0x40 MLOAD PUSH3 0x461BCD PUSH1 0xE5 SHL DUP2 MSTORE PUSH1 0x20 PUSH1 0x4 DUP3 ADD MSTORE PUSH1 0x21 PUSH1 0x24 DUP3 ADD MSTORE PUSH1 0x0 DUP1 MLOAD PUSH1 0x20 PUSH3 0x28F4 DUP4 CODECOPY DUP2 MLOAD SWAP2 MSTORE PUSH1 0x44 DUP3 ADD MSTORE PUSH1 0x73 PUSH1 0xF8 SHL PUSH1 0x64 DUP3 ADD MSTORE PUSH1 0x84 ADD PUSH3 0x89 JUMP JUMPDEST PUSH1 0x1 PUSH1 0x1 PUSH1 0x60 SHL SUB NOT PUSH1 0x60 SWAP3 DUP4 SHL DUP2 AND PUSH2 0x160 MSTORE SWAP2 SHL AND PUSH2 0x140 MSTORE POP PUSH3 0x2D5 SWAP4 POP POP POP POP JUMP JUMPDEST PUSH1 0x33 SLOAD PUSH1 0xFF AND ISZERO PUSH3 0x1F5 JUMPI PUSH1 0x40 MLOAD PUSH3 0x461BCD PUSH1 0xE5 SHL DUP2 MSTORE PUSH1 0x20 PUSH1 0x4 DUP3 ADD MSTORE PUSH1 0x10 PUSH1 0x24 DUP3 ADD MSTORE PUSH16 0x14185D5CD8589B194E881C185D5CD959 PUSH1 0x82 SHL PUSH1 0x44 DUP3 ADD MSTORE PUSH1 0x64 ADD PUSH3 0x89 JUMP JUMPDEST PUSH1 0x33 DUP1 SLOAD PUSH1 0xFF NOT AND PUSH1 0x1 OR SWAP1 SSTORE PUSH32 0x62E78CEA01BEE320CD4E420270B5EA74000D11B0C9F74754EBDBFC544B05A258 PUSH3 0x22B CALLER SWAP1 JUMP JUMPDEST PUSH1 0x40 MLOAD PUSH1 0x1 PUSH1 0x1 PUSH1 0xA0 SHL SUB SWAP1 SWAP2 AND DUP2 MSTORE PUSH1 0x20 ADD PUSH1 0x40 MLOAD DUP1 SWAP2 SUB SWAP1 LOG1 JUMP JUMPDEST DUP1 MLOAD PUSH1 0x1 PUSH1 0x1 PUSH1 0xA0 SHL SUB DUP2 AND DUP2 EQ PUSH3 0x260 JUMPI PUSH1 0x0 DUP1 REVERT JUMPDEST SWAP2 SWAP1 POP JUMP JUMPDEST PUSH1 0x0 DUP1 PUSH1 0x0 DUP1 PUSH1 0x0 PUSH1 0xA0 DUP7 DUP9 SUB SLT ISZERO PUSH3 0x27E JUMPI PUSH1 0x0 DUP1 REVERT JUMPDEST PUSH3 0x289 DUP7 PUSH3 0x248 JUMP JUMPDEST SWAP5 POP PUSH3 0x299 PUSH1 0x20 DUP8 ADD PUSH3 0x248 JUMP JUMPDEST SWAP4 POP PUSH3 0x2A9 PUSH1 0x40 DUP8 ADD PUSH3 0x248 JUMP JUMPDEST SWAP3 POP PUSH3 0x2B9 PUSH1 0x60 DUP8 ADD PUSH3 0x248 JUMP JUMPDEST SWAP2 POP PUSH3 0x2C9 PUSH1 0x80 DUP8 ADD PUSH3 0x248 JUMP JUMPDEST SWAP1 POP SWAP3 SWAP6 POP SWAP3 SWAP6 SWAP1 SWAP4 POP JUMP JUMPDEST PUSH1 0x80 MLOAD PUSH1 0x60 SHR PUSH1 0xA0 MLOAD PUSH1 0x60 SHR PUSH1 0xC0 MLOAD PUSH1 0x60 SHR PUSH1 0xE0 MLOAD PUSH1 0x60 SHR PUSH2 0x100 MLOAD PUSH1 0x60 SHR PUSH2 0x120 MLOAD PUSH1 0x60 SHR PUSH2 0x140 MLOAD PUSH1 0x60 SHR PUSH2 0x160 MLOAD PUSH1 0x60 SHR PUSH2 0x2515 PUSH3 0x3DF PUSH1 0x0 CODECOPY PUSH1 0x0 DUP2 DUP2 PUSH2 0xD5E ADD MSTORE DUP2 DUP2 PUSH2 0xE06 ADD MSTORE DUP2 DUP2 PUSH2 0xE68 ADD MSTORE DUP2 DUP2 PUSH2 0x1269 ADD MSTORE DUP2 DUP2 PUSH2 0x19D3 ADD MSTORE DUP2 DUP2 PUSH2 0x1C7A ADD MSTORE PUSH2 0x1D1C ADD MSTORE PUSH1 0x0 DUP2 DUP2 PUSH2 0xDDE ADD MSTORE PUSH2 0x1CF4 ADD MSTORE PUSH1 0x0 DUP2 DUP2 PUSH2 0x88D ADD MSTORE DUP2 DUP2 PUSH2 0xF11 ADD MSTORE PUSH2 0x17E6 ADD MSTORE PUSH1 0x0 DUP2 DUP2 PUSH2 0x9D2 ADD MSTORE DUP2 DUP2 PUSH2 0xC0C ADD MSTORE DUP2 DUP2 PUSH2 0xCA6 ADD MSTORE DUP2 DUP2 PUSH2 0x100B ADD MSTORE DUP2 DUP2 PUSH2 0x10AA ADD MSTORE DUP2 DUP2 PUSH2 0x112D ADD MSTORE PUSH2 0x11AE ADD MSTORE PUSH1 0x0 DUP2 DUP2 PUSH2 0xA02 ADD MSTORE PUSH2 0xB35 ADD MSTORE PUSH1 0x0 DUP2 DUP2 PUSH2 0x52F ADD MSTORE DUP2 DUP2 PUSH2 0x12EC ADD MSTORE PUSH2 0x13F4 ADD MSTORE PUSH1 0x0 DUP2 DUP2 PUSH2 0x376 ADD MSTORE PUSH2 0x157F ADD MSTORE PUSH1 0x0 DUP2 DUP2 PUSH2 0x2BC ADD MSTORE PUSH2 0x1A85 ADD MSTORE PUSH2 0x2515 PUSH1 0x0 RETURN INVALID PUSH1 0x80 PUSH1 0x40 MSTORE PUSH1 0x4 CALLDATASIZE LT PUSH2 0x1E7 JUMPI PUSH1 0x0 CALLDATALOAD PUSH1 0xE0 SHR DUP1 PUSH4 0x8456CB59 GT PUSH2 0x102 JUMPI DUP1 PUSH4 0xC47F0027 GT PUSH2 0x95 JUMPI DUP1 PUSH4 0xDDCA3F43 GT PUSH2 0x64 JUMPI DUP1 PUSH4 0xDDCA3F43 EQ PUSH2 0x584 JUMPI DUP1 PUSH4 0xE366B7BB EQ PUSH2 0x5A4 JUMPI DUP1 PUSH4 0xF2FDE38B EQ PUSH2 0x5BA JUMPI DUP1 PUSH4 0xF6EFBD14 EQ PUSH2 0x5DA JUMPI PUSH1 0x0 DUP1 REVERT JUMPDEST DUP1 PUSH4 0xC47F0027 EQ PUSH2 0x4FD JUMPI DUP1 PUSH4 0xC56551B6 EQ PUSH2 0x51D JUMPI DUP1 PUSH4 0xCD6DC687 EQ PUSH2 0x551 JUMPI DUP1 PUSH4 0xD9D6BD86 EQ PUSH2 0x571 JUMPI PUSH1 0x0 DUP1 REVERT JUMPDEST DUP1 PUSH4 0xA694FC3A GT PUSH2 0xD1 JUMPI DUP1 PUSH4 0xA694FC3A EQ PUSH2 0x487 JUMPI DUP1 PUSH4 0xAA8C217C EQ PUSH2 0x4A7 JUMPI DUP1 PUSH4 0xB64B3BED EQ PUSH2 0x4BD JUMPI DUP1 PUSH4 0xB811540E EQ PUSH2 0x4DD JUMPI PUSH1 0x0 DUP1 REVERT JUMPDEST DUP1 PUSH4 0x8456CB59 EQ PUSH2 0x414 JUMPI DUP1 PUSH4 0x8DA5CB5B EQ PUSH2 0x429 JUMPI DUP1 PUSH4 0x9E6371BA EQ PUSH2 0x447 JUMPI DUP1 PUSH4 0xA5A6CD0B EQ PUSH2 0x467 JUMPI PUSH1 0x0 DUP1 REVERT JUMPDEST DUP1 PUSH4 0x5C975ABB GT PUSH2 0x17A JUMPI DUP1 PUSH4 0x710FE6F8 GT PUSH2 0x149 JUMPI DUP1 PUSH4 0x710FE6F8 EQ PUSH2 0x3B5 JUMPI DUP1 PUSH4 0x715018A6 EQ PUSH2 0x3CA JUMPI DUP1 PUSH4 0x7172DEA2 EQ PUSH2 0x3DF JUMPI DUP1 PUSH4 0x7D7C2A1C EQ PUSH2 0x3FF JUMPI PUSH1 0x0 DUP1 REVERT JUMPDEST DUP1 PUSH4 0x5C975ABB EQ PUSH2 0x340 JUMPI DUP1 PUSH4 0x64FFC3F4 EQ PUSH2 0x364 JUMPI DUP1 PUSH4 0x6BEAEEAE EQ PUSH2 0x398 JUMPI DUP1 PUSH4 0x6FF46A6C EQ PUSH2 0x3AD JUMPI PUSH1 0x0 DUP1 REVERT JUMPDEST DUP1 PUSH4 0x3F15457F GT PUSH2 0x1B6 JUMPI DUP1 PUSH4 0x3F15457F EQ PUSH2 0x2AA JUMPI DUP1 PUSH4 0x3F4BA83A EQ PUSH2 0x2F6 JUMPI DUP1 PUSH4 0x42429EEF EQ PUSH2 0x30B JUMPI DUP1 PUSH4 0x555D8EBB EQ PUSH2 0x320 JUMPI PUSH1 0x0 DUP1 REVERT JUMPDEST DUP1 PUSH4 0x103C92B EQ PUSH2 0x1F3 JUMPI DUP1 PUSH4 0x3314EFA EQ PUSH2 0x24F JUMPI DUP1 PUSH4 0x2E17DE78 EQ PUSH2 0x273 JUMPI DUP1 PUSH4 0x3CCFD60B EQ PUSH2 0x295 JUMPI PUSH1 0x0 DUP1 REVERT JUMPDEST CALLDATASIZE PUSH2 0x1EE JUMPI STOP JUMPDEST PUSH1 0x0 DUP1 REVERT JUMPDEST CALLVALUE DUP1 ISZERO PUSH2 0x1FF JUMPI PUSH1 0x0 DUP1 REVERT JUMPDEST POP PUSH2 0x22F PUSH2 0x20E CALLDATASIZE PUSH1 0x4 PUSH2 0x2196 JUMP JUMPDEST PUSH1 0x9A PUSH1 0x20 MSTORE PUSH1 0x0 SWAP1 DUP2 MSTORE PUSH1 0x40 SWAP1 KECCAK256 DUP1 SLOAD PUSH1 0x1 DUP3 ADD SLOAD PUSH1 0x2 SWAP1 SWAP3 ADD SLOAD SWAP1 SWAP2 SWAP1 DUP4 JUMP JUMPDEST PUSH1 0x40 DUP1 MLOAD SWAP4 DUP5 MSTORE PUSH1 0x20 DUP5 ADD SWAP3 SWAP1 SWAP3 MSTORE SWAP1 DUP3 ADD MSTORE PUSH1 0x60 ADD JUMPDEST PUSH1 0x40 MLOAD DUP1 SWAP2 SUB SWAP1 RETURN JUMPDEST CALLVALUE DUP1 ISZERO PUSH2 0x25B JUMPI PUSH1 0x0 DUP1 REVERT JUMPDEST POP PUSH2 0x265 PUSH1 0x97 SLOAD DUP2 JUMP JUMPDEST PUSH1 0x40 MLOAD SWAP1 DUP2 MSTORE PUSH1 0x20 ADD PUSH2 0x246 JUMP JUMPDEST CALLVALUE DUP1 ISZERO PUSH2 0x27F JUMPI PUSH1 0x0 DUP1 REVERT JUMPDEST POP PUSH2 0x293 PUSH2 0x28E CALLDATASIZE PUSH1 0x4 PUSH2 0x22EF JUMP JUMPDEST PUSH2 0x5FA JUMP JUMPDEST STOP JUMPDEST CALLVALUE DUP1 ISZERO PUSH2 0x2A1 JUMPI PUSH1 0x0 DUP1 REVERT JUMPDEST POP PUSH2 0x293 PUSH2 0x7FC JUMP JUMPDEST CALLVALUE DUP1 ISZERO PUSH2 0x2B6 JUMPI PUSH1 0x0 DUP1 REVERT JUMPDEST POP PUSH2 0x2DE PUSH32 0x0 DUP2 JUMP JUMPDEST PUSH1 0x40 MLOAD PUSH1 0x1 PUSH1 0x1 PUSH1 0xA0 SHL SUB SWAP1 SWAP2 AND DUP2 MSTORE PUSH1 0x20 ADD PUSH2 0x246 JUMP JUMPDEST CALLVALUE DUP1 ISZERO PUSH2 0x302 JUMPI PUSH1 0x0 DUP1 REVERT JUMPDEST POP PUSH2 0x293 PUSH2 0x987 JUMP JUMPDEST CALLVALUE DUP1 ISZERO PUSH2 0x317 JUMPI PUSH1 0x0 DUP1 REVERT JUMPDEST POP PUSH2 0x293 PUSH2 0x9BB JUMP JUMPDEST CALLVALUE DUP1 ISZERO PUSH2 0x32C JUMPI PUSH1 0x0 DUP1 REVERT JUMPDEST POP PUSH2 0x265 PUSH2 0x33B CALLDATASIZE PUSH1 0x4 PUSH2 0x22EF JUMP JUMPDEST PUSH2 0xADE JUMP JUMPDEST CALLVALUE DUP1 ISZERO PUSH2 0x34C JUMPI PUSH1 0x0 DUP1 REVERT JUMPDEST POP PUSH1 0x33 SLOAD PUSH1 0xFF AND JUMPDEST PUSH1 0x40 MLOAD SWAP1 ISZERO ISZERO DUP2 MSTORE PUSH1 0x20 ADD PUSH2 0x246 JUMP JUMPDEST CALLVALUE DUP1 ISZERO PUSH2 0x370 JUMPI PUSH1 0x0 DUP1 REVERT JUMPDEST POP PUSH2 0x2DE PUSH32 0x0 DUP2 JUMP JUMPDEST CALLVALUE DUP1 ISZERO PUSH2 0x3A4 JUMPI PUSH1 0x0 DUP1 REVERT JUMPDEST POP PUSH2 0x22F PUSH2 0xB0F JUMP JUMPDEST PUSH2 0x293 PUSH2 0xD49 JUMP JUMPDEST CALLVALUE DUP1 ISZERO PUSH2 0x3C1 JUMPI PUSH1 0x0 DUP1 REVERT JUMPDEST POP PUSH2 0x265 PUSH2 0xEDB JUMP JUMPDEST CALLVALUE DUP1 ISZERO PUSH2 0x3D6 JUMPI PUSH1 0x0 DUP1 REVERT JUMPDEST POP PUSH2 0x293 PUSH2 0xFA5 JUMP JUMPDEST CALLVALUE DUP1 ISZERO PUSH2 0x3EB JUMPI PUSH1 0x0 DUP1 REVERT JUMPDEST POP PUSH2 0x293 PUSH2 0x3FA CALLDATASIZE PUSH1 0x4 PUSH2 0x22EF JUMP JUMPDEST PUSH1 0x9C SSTORE JUMP JUMPDEST CALLVALUE DUP1 ISZERO PUSH2 0x40B JUMPI PUSH1 0x0 DUP1 REVERT JUMPDEST POP PUSH2 0x293 PUSH2 0xFD9 JUMP JUMPDEST CALLVALUE DUP1 ISZERO PUSH2 0x420 JUMPI PUSH1 0x0 DUP1 REVERT JUMPDEST POP PUSH2 0x293 PUSH2 0x1218 JUMP JUMPDEST CALLVALUE DUP1 ISZERO PUSH2 0x435 JUMPI PUSH1 0x0 DUP1 REVERT JUMPDEST POP PUSH1 0x65 SLOAD PUSH1 0x1 PUSH1 0x1 PUSH1 0xA0 SHL SUB AND PUSH2 0x2DE JUMP JUMPDEST CALLVALUE DUP1 ISZERO PUSH2 0x453 JUMPI PUSH1 0x0 DUP1 REVERT JUMPDEST POP PUSH2 0x293 PUSH2 0x462 CALLDATASIZE PUSH1 0x4 PUSH2 0x2196 JUMP JUMPDEST PUSH2 0x124A JUMP JUMPDEST CALLVALUE DUP1 ISZERO PUSH2 0x473 JUMPI PUSH1 0x0 DUP1 REVERT JUMPDEST POP PUSH2 0x354 PUSH2 0x482 CALLDATASIZE PUSH1 0x4 PUSH2 0x22EF JUMP JUMPDEST PUSH2 0x12C9 JUMP JUMPDEST CALLVALUE DUP1 ISZERO PUSH2 0x493 JUMPI PUSH1 0x0 DUP1 REVERT JUMPDEST POP PUSH2 0x293 PUSH2 0x4A2 CALLDATASIZE PUSH1 0x4 PUSH2 0x22EF JUMP JUMPDEST PUSH2 0x1713 JUMP JUMPDEST CALLVALUE DUP1 ISZERO PUSH2 0x4B3 JUMPI PUSH1 0x0 DUP1 REVERT JUMPDEST POP PUSH2 0x265 PUSH1 0x98 SLOAD DUP2 JUMP JUMPDEST CALLVALUE DUP1 ISZERO PUSH2 0x4C9 JUMPI PUSH1 0x0 DUP1 REVERT JUMPDEST POP PUSH2 0x293 PUSH2 0x4D8 CALLDATASIZE PUSH1 0x4 PUSH2 0x2196 JUMP JUMPDEST PUSH2 0x19B4 JUMP JUMPDEST CALLVALUE DUP1 ISZERO PUSH2 0x4E9 JUMPI PUSH1 0x0 DUP1 REVERT JUMPDEST POP PUSH2 0x265 PUSH2 0x4F8 CALLDATASIZE PUSH1 0x4 PUSH2 0x22EF JUMP JUMPDEST PUSH2 0x1A02 JUMP JUMPDEST CALLVALUE DUP1 ISZERO PUSH2 0x509 JUMPI PUSH1 0x0 DUP1 REVERT JUMPDEST POP PUSH2 0x293 PUSH2 0x518 CALLDATASIZE PUSH1 0x4 PUSH2 0x223E JUMP JUMPDEST PUSH2 0x1A23 JUMP JUMPDEST CALLVALUE DUP1 ISZERO PUSH2 0x529 JUMPI PUSH1 0x0 DUP1 REVERT JUMPDEST POP PUSH2 0x2DE PUSH32 0x0 DUP2 JUMP JUMPDEST CALLVALUE DUP1 ISZERO PUSH2 0x55D JUMPI PUSH1 0x0 DUP1 REVERT JUMPDEST POP PUSH2 0x293 PUSH2 0x56C CALLDATASIZE PUSH1 0x4 PUSH2 0x21D7 JUMP JUMPDEST PUSH2 0x1BC4 JUMP JUMPDEST PUSH2 0x293 PUSH2 0x57F CALLDATASIZE PUSH1 0x4 PUSH2 0x2196 JUMP JUMPDEST PUSH2 0x1C5B JUMP JUMPDEST CALLVALUE DUP1 ISZERO PUSH2 0x590 JUMPI PUSH1 0x0 DUP1 REVERT JUMPDEST POP PUSH1 0x9B SLOAD PUSH2 0x2DE SWAP1 PUSH1 0x1 PUSH1 0x1 PUSH1 0xA0 SHL SUB AND DUP2 JUMP JUMPDEST CALLVALUE DUP1 ISZERO PUSH2 0x5B0 JUMPI PUSH1 0x0 DUP1 REVERT JUMPDEST POP PUSH2 0x265 PUSH1 0x99 SLOAD DUP2 JUMP JUMPDEST CALLVALUE DUP1 ISZERO PUSH2 0x5C6 JUMPI PUSH1 0x0 DUP1 REVERT JUMPDEST POP PUSH2 0x293 PUSH2 0x5D5 CALLDATASIZE PUSH1 0x4 PUSH2 0x2196 JUMP JUMPDEST PUSH2 0x1D4F JUMP JUMPDEST CALLVALUE DUP1 ISZERO PUSH2 0x5E6 JUMPI PUSH1 0x0 DUP1 REVERT JUMPDEST POP PUSH2 0x293 PUSH2 0x5F5 CALLDATASIZE PUSH1 0x4 PUSH2 0x2196 JUMP JUMPDEST PUSH2 0x1D5B JUMP JUMPDEST CALLER PUSH1 0x0 SWAP1 DUP2 MSTORE PUSH1 0x9A PUSH1 0x20 MSTORE PUSH1 0x40 SWAP1 KECCAK256 DUP2 PUSH2 0x671 JUMPI PUSH1 0x40 MLOAD PUSH3 0x461BCD PUSH1 0xE5 SHL DUP2 MSTORE PUSH1 0x20 PUSH1 0x4 DUP3 ADD MSTORE PUSH1 0x2D PUSH1 0x24 DUP3 ADD MSTORE PUSH32 0x5374616B696E67506F6F6C55736572496D706C3A20696E76616C696420616D6F PUSH1 0x44 DUP3 ADD MSTORE PUSH13 0x756E74206F6620736861726573 PUSH1 0x98 SHL PUSH1 0x64 DUP3 ADD MSTORE PUSH1 0x84 ADD JUMPDEST PUSH1 0x40 MLOAD DUP1 SWAP2 SUB SWAP1 REVERT JUMPDEST DUP1 SLOAD DUP3 GT ISZERO PUSH2 0x6D3 JUMPI PUSH1 0x40 MLOAD PUSH3 0x461BCD PUSH1 0xE5 SHL DUP2 MSTORE PUSH1 0x20 PUSH1 0x4 DUP3 ADD MSTORE PUSH1 0x28 PUSH1 0x24 DUP3 ADD MSTORE PUSH32 0x5374616B696E67506F6F6C55736572496D706C3A20696E73756666696369656E PUSH1 0x44 DUP3 ADD MSTORE PUSH8 0x7420736861726573 PUSH1 0xC0 SHL PUSH1 0x64 DUP3 ADD MSTORE PUSH1 0x84 ADD PUSH2 0x668 JUMP JUMPDEST DUP1 PUSH1 0x2 ADD SLOAD TIMESTAMP GT PUSH2 0x730 JUMPI PUSH1 0x40 MLOAD PUSH3 0x461BCD PUSH1 0xE5 SHL DUP2 MSTORE PUSH1 0x20 PUSH1 0x4 DUP3 ADD MSTORE PUSH1 0x21 PUSH1 0x24 DUP3 ADD MSTORE PUSH32 0x5374616B696E67506F6F6C55736572496D706C3A207374616B65206C6F636B65 PUSH1 0x44 DUP3 ADD MSTORE PUSH1 0x19 PUSH1 0xFA SHL PUSH1 0x64 DUP3 ADD MSTORE PUSH1 0x84 ADD PUSH2 0x668 JUMP JUMPDEST DUP2 DUP2 PUSH1 0x0 ADD PUSH1 0x0 DUP3 DUP3 SLOAD PUSH2 0x744 SWAP2 SWAP1 PUSH2 0x2487 JUMP JUMPDEST SWAP1 SWAP2 SSTORE POP PUSH1 0x0 SWAP1 POP PUSH2 0x755 DUP4 PUSH2 0xADE JUMP JUMPDEST SWAP1 POP DUP3 PUSH1 0x97 PUSH1 0x0 DUP3 DUP3 SLOAD PUSH2 0x769 SWAP2 SWAP1 PUSH2 0x2487 JUMP JUMPDEST SWAP3 POP POP DUP2 SWAP1 SSTORE POP DUP1 PUSH1 0x98 PUSH1 0x0 DUP3 DUP3 SLOAD PUSH2 0x782 SWAP2 SWAP1 PUSH2 0x2487 JUMP JUMPDEST SWAP3 POP POP DUP2 SWAP1 SSTORE POP DUP1 DUP3 PUSH1 0x1 ADD PUSH1 0x0 DUP3 DUP3 SLOAD PUSH2 0x79D SWAP2 SWAP1 PUSH2 0x242E JUMP JUMPDEST SWAP3 POP POP DUP2 SWAP1 SSTORE POP DUP1 PUSH1 0x99 PUSH1 0x0 DUP3 DUP3 SLOAD PUSH2 0x7B6 SWAP2 SWAP1 PUSH2 0x242E JUMP JUMPDEST SWAP1 SWAP2 SSTORE POP POP PUSH1 0x40 DUP1 MLOAD DUP3 DUP2 MSTORE PUSH1 0x20 DUP2 ADD DUP6 SWAP1 MSTORE CALLER SWAP2 PUSH32 0xF960DBF9E5D0682F7A298ED974E33A28B4464914B7A2BFAC12AE419A9AFEB280 SWAP2 ADD JUMPDEST PUSH1 0x40 MLOAD DUP1 SWAP2 SUB SWAP1 LOG2 POP POP POP JUMP JUMPDEST CALLER PUSH1 0x0 SWAP1 DUP2 MSTORE PUSH1 0x9A PUSH1 0x20 MSTORE PUSH1 0x40 SWAP1 KECCAK256 PUSH1 0x1 DUP2 ADD SLOAD DUP1 PUSH2 0x871 JUMPI PUSH1 0x40 MLOAD PUSH3 0x461BCD PUSH1 0xE5 SHL DUP2 MSTORE PUSH1 0x20 PUSH1 0x4 DUP3 ADD MSTORE PUSH1 0x2B PUSH1 0x24 DUP3 ADD MSTORE PUSH32 0x5374616B696E67506F6F6C55736572496D706C3A206E6F2062616C616E636520 PUSH1 0x44 DUP3 ADD MSTORE PUSH11 0x746F207769746864726177 PUSH1 0xA8 SHL PUSH1 0x64 DUP3 ADD MSTORE PUSH1 0x84 ADD PUSH2 0x668 JUMP JUMPDEST PUSH1 0x40 MLOAD PUSH4 0xA9059CBB PUSH1 0xE0 SHL DUP2 MSTORE CALLER PUSH1 0x4 DUP3 ADD MSTORE PUSH1 0x24 DUP2 ADD DUP3 SWAP1 MSTORE PUSH32 0x0 PUSH1 0x1 PUSH1 0x1 PUSH1 0xA0 SHL SUB AND SWAP1 PUSH4 0xA9059CBB SWAP1 PUSH1 0x44 ADD PUSH1 0x20 PUSH1 0x40 MLOAD DUP1 DUP4 SUB DUP2 PUSH1 0x0 DUP8 DUP1 EXTCODESIZE ISZERO DUP1 ISZERO PUSH2 0x8D9 JUMPI PUSH1 0x0 DUP1 REVERT JUMPDEST POP GAS CALL ISZERO DUP1 ISZERO PUSH2 0x8ED JUMPI RETURNDATASIZE PUSH1 0x0 DUP1 RETURNDATACOPY RETURNDATASIZE PUSH1 0x0 REVERT JUMPDEST POP POP POP POP PUSH1 0x40 MLOAD RETURNDATASIZE PUSH1 0x1F NOT PUSH1 0x1F DUP3 ADD AND DUP3 ADD DUP1 PUSH1 0x40 MSTORE POP DUP2 ADD SWAP1 PUSH2 0x911 SWAP2 SWAP1 PUSH2 0x2203 JUMP JUMPDEST PUSH2 0x92D JUMPI PUSH1 0x40 MLOAD PUSH3 0x461BCD PUSH1 0xE5 SHL DUP2 MSTORE PUSH1 0x4 ADD PUSH2 0x668 SWAP1 PUSH2 0x235D JUMP JUMPDEST PUSH1 0x0 DUP3 PUSH1 0x1 ADD DUP2 SWAP1 SSTORE POP DUP1 PUSH1 0x99 PUSH1 0x0 DUP3 DUP3 SLOAD PUSH2 0x949 SWAP2 SWAP1 PUSH2 0x2487 JUMP JUMPDEST SWAP1 SWAP2 SSTORE POP POP PUSH1 0x40 MLOAD DUP2 DUP2 MSTORE CALLER SWAP1 PUSH32 0x884EDAD9CE6FA2440D8A54CC123490EB96D2768479D49FF9C7366125A9424364 SWAP1 PUSH1 0x20 ADD PUSH1 0x40 MLOAD DUP1 SWAP2 SUB SWAP1 LOG2 POP POP JUMP JUMPDEST PUSH1 0x65 SLOAD PUSH1 0x1 PUSH1 0x1 PUSH1 0xA0 SHL SUB AND CALLER EQ PUSH2 0x9B1 JUMPI PUSH1 0x40 MLOAD PUSH3 0x461BCD PUSH1 0xE5 SHL DUP2 MSTORE PUSH1 0x4 ADD PUSH2 0x668 SWAP1 PUSH2 0x23F9 JUMP JUMPDEST PUSH2 0x9B9 PUSH2 0x1D7D JUMP JUMPDEST JUMP JUMPDEST PUSH1 0x40 MLOAD PUSH4 0x95EA7B3 PUSH1 0xE0 SHL DUP2 MSTORE PUSH1 0x1 PUSH1 0x1 PUSH1 0xA0 SHL SUB PUSH32 0x0 DUP2 AND PUSH1 0x4 DUP4 ADD MSTORE PUSH1 0x0 NOT PUSH1 0x24 DUP4 ADD MSTORE PUSH32 0x0 AND SWAP1 PUSH4 0x95EA7B3 SWAP1 PUSH1 0x44 ADD PUSH1 0x20 PUSH1 0x40 MLOAD DUP1 DUP4 SUB DUP2 PUSH1 0x0 DUP8 DUP1 EXTCODESIZE ISZERO DUP1 ISZERO PUSH2 0xA46 JUMPI PUSH1 0x0 DUP1 REVERT JUMPDEST POP GAS CALL ISZERO DUP1 ISZERO PUSH2 0xA5A JUMPI RETURNDATASIZE PUSH1 0x0 DUP1 RETURNDATACOPY RETURNDATASIZE PUSH1 0x0 REVERT JUMPDEST POP POP POP POP PUSH1 0x40 MLOAD RETURNDATASIZE PUSH1 0x1F NOT PUSH1 0x1F DUP3 ADD AND DUP3 ADD DUP1 PUSH1 0x40 MSTORE POP DUP2 ADD SWAP1 PUSH2 0xA7E SWAP2 SWAP1 PUSH2 0x2203 JUMP JUMPDEST PUSH2 0x9B9 JUMPI PUSH1 0x40 MLOAD PUSH3 0x461BCD PUSH1 0xE5 SHL DUP2 MSTORE PUSH1 0x20 PUSH1 0x4 DUP3 ADD MSTORE PUSH1 0x2B PUSH1 0x24 DUP3 ADD MSTORE PUSH32 0x4661696C656420746F20617070726F7665204354534920666F72207374616B69 PUSH1 0x44 DUP3 ADD MSTORE PUSH11 0x1B99C818DBDB9D1C9858DD PUSH1 0xAA SHL PUSH1 0x64 DUP3 ADD MSTORE PUSH1 0x84 ADD PUSH2 0x668 JUMP JUMPDEST PUSH1 0x0 PUSH1 0x97 SLOAD PUSH1 0x0 EQ ISZERO PUSH2 0xAEF JUMPI POP SWAP1 JUMP JUMPDEST PUSH1 0x97 SLOAD PUSH1 0x98 SLOAD PUSH2 0xAFF SWAP1 DUP5 PUSH2 0x2468 JUMP JUMPDEST PUSH2 0xB09 SWAP2 SWAP1 PUSH2 0x2446 JUMP JUMPDEST SWAP3 SWAP2 POP POP JUMP JUMPDEST PUSH1 0x40 MLOAD PUSH4 0x70A08231 PUSH1 0xE0 SHL DUP2 MSTORE ADDRESS PUSH1 0x4 DUP3 ADD MSTORE PUSH1 0x0 SWAP1 DUP2 SWAP1 DUP2 SWAP1 DUP2 SWAP1 PUSH1 0x1 PUSH1 0x1 PUSH1 0xA0 SHL SUB PUSH32 0x0 AND SWAP1 PUSH4 0x70A08231 SWAP1 PUSH1 0x24 ADD PUSH1 0x20 PUSH1 0x40 MLOAD DUP1 DUP4 SUB DUP2 DUP7 DUP1 EXTCODESIZE ISZERO DUP1 ISZERO PUSH2 0xB77 JUMPI PUSH1 0x0 DUP1 REVERT JUMPDEST POP GAS STATICCALL ISZERO DUP1 ISZERO PUSH2 0xB8B JUMPI RETURNDATASIZE PUSH1 0x0 DUP1 RETURNDATACOPY RETURNDATASIZE PUSH1 0x0 REVERT JUMPDEST POP POP POP POP PUSH1 0x40 MLOAD RETURNDATASIZE PUSH1 0x1F NOT PUSH1 0x1F DUP3 ADD AND DUP3 ADD DUP1 PUSH1 0x40 MSTORE POP DUP2 ADD SWAP1 PUSH2 0xBAF SWAP2 SWAP1 PUSH2 0x2225 JUMP JUMPDEST SWAP1 POP PUSH1 0x99 SLOAD DUP2 GT ISZERO PUSH2 0xBCF JUMPI PUSH1 0x99 SLOAD PUSH2 0xBC8 SWAP1 DUP3 PUSH2 0x2487 JUMP JUMPDEST SWAP4 POP PUSH2 0xD43 JUMP JUMPDEST DUP1 PUSH1 0x99 SLOAD GT ISZERO PUSH2 0xD43 JUMPI PUSH1 0x0 DUP2 PUSH1 0x99 SLOAD PUSH2 0xBE9 SWAP2 SWAP1 PUSH2 0x2487 JUMP JUMPDEST PUSH1 0x40 MLOAD PUSH4 0x8E9F04B5 PUSH1 0xE0 SHL DUP2 MSTORE ADDRESS PUSH1 0x4 DUP3 ADD MSTORE SWAP1 SWAP2 POP PUSH1 0x0 SWAP1 PUSH1 0x1 PUSH1 0x1 PUSH1 0xA0 SHL SUB PUSH32 0x0 AND SWAP1 PUSH4 0x8E9F04B5 SWAP1 PUSH1 0x24 ADD PUSH1 0x20 PUSH1 0x40 MLOAD DUP1 DUP4 SUB DUP2 DUP7 DUP1 EXTCODESIZE ISZERO DUP1 ISZERO PUSH2 0xC4E JUMPI PUSH1 0x0 DUP1 REVERT JUMPDEST POP GAS STATICCALL ISZERO DUP1 ISZERO PUSH2 0xC62 JUMPI RETURNDATASIZE PUSH1 0x0 DUP1 RETURNDATACOPY RETURNDATASIZE PUSH1 0x0 REVERT JUMPDEST POP POP POP POP PUSH1 0x40 MLOAD RETURNDATASIZE PUSH1 0x1F NOT PUSH1 0x1F DUP3 ADD AND DUP3 ADD DUP1 PUSH1 0x40 MSTORE POP DUP2 ADD SWAP1 PUSH2 0xC86 SWAP2 SWAP1 PUSH2 0x2225 JUMP JUMPDEST SWAP1 POP DUP1 ISZERO PUSH2 0xD3C JUMPI PUSH1 0x40 MLOAD PUSH4 0x67BA9B91 PUSH1 0xE0 SHL DUP2 MSTORE ADDRESS PUSH1 0x4 DUP3 ADD MSTORE PUSH1 0x0 SWAP1 PUSH32 0x0 PUSH1 0x1 PUSH1 0x1 PUSH1 0xA0 SHL SUB AND SWAP1 PUSH4 0x67BA9B91 SWAP1 PUSH1 0x24 ADD PUSH1 0x20 PUSH1 0x40 MLOAD DUP1 DUP4 SUB DUP2 DUP7 DUP1 EXTCODESIZE ISZERO DUP1 ISZERO PUSH2 0xCF0 JUMPI PUSH1 0x0 DUP1 REVERT JUMPDEST POP GAS STATICCALL ISZERO DUP1 ISZERO PUSH2 0xD04 JUMPI RETURNDATASIZE PUSH1 0x0 DUP1 RETURNDATACOPY RETURNDATASIZE PUSH1 0x0 REVERT JUMPDEST POP POP POP POP PUSH1 0x40 MLOAD RETURNDATASIZE PUSH1 0x1F NOT PUSH1 0x1F DUP3 ADD AND DUP3 ADD DUP1 PUSH1 0x40 MSTORE POP DUP2 ADD SWAP1 PUSH2 0xD28 SWAP2 SWAP1 PUSH2 0x2225 JUMP JUMPDEST SWAP1 POP TIMESTAMP DUP2 LT ISZERO PUSH2 0xD36 JUMPI DUP2 SWAP5 POP JUMPDEST POP PUSH2 0xD40 JUMP JUMPDEST DUP2 SWAP5 POP JUMPDEST POP POP JUMPDEST POP SWAP1 SWAP2 SWAP3 JUMP JUMPDEST PUSH1 0x40 MLOAD PUSH4 0x6CEB5EC3 PUSH1 0xE1 SHL DUP2 MSTORE ADDRESS PUSH1 0x4 DUP3 ADD MSTORE PUSH32 0x0 PUSH1 0x1 PUSH1 0x1 PUSH1 0xA0 SHL SUB AND SWAP1 PUSH4 0xD9D6BD86 SWAP1 CALLVALUE SWAP1 PUSH1 0x24 ADD PUSH1 0x0 PUSH1 0x40 MLOAD DUP1 DUP4 SUB DUP2 DUP6 DUP9 DUP1 EXTCODESIZE ISZERO DUP1 ISZERO PUSH2 0xDAB JUMPI PUSH1 0x0 DUP1 REVERT JUMPDEST POP GAS CALL ISZERO DUP1 ISZERO PUSH2 0xDBF JUMPI RETURNDATASIZE PUSH1 0x0 DUP1 RETURNDATACOPY RETURNDATASIZE PUSH1 0x0 REVERT JUMPDEST POP POP PUSH1 0x40 MLOAD PUSH4 0x2BEF4595 PUSH1 0xE0 SHL DUP2 MSTORE ADDRESS PUSH1 0x4 DUP3 ADD MSTORE PUSH1 0x1 PUSH1 0x1 PUSH1 0xA0 SHL SUB PUSH32 0x0 DUP2 AND PUSH1 0x24 DUP4 ADD MSTORE PUSH32 0x0 AND SWAP4 POP PUSH4 0x2BEF4595 SWAP3 POP PUSH1 0x44 ADD SWAP1 POP PUSH1 0x0 PUSH1 0x40 MLOAD DUP1 DUP4 SUB DUP2 PUSH1 0x0 DUP8 DUP1 EXTCODESIZE ISZERO DUP1 ISZERO PUSH2 0xE4E JUMPI PUSH1 0x0 DUP1 REVERT JUMPDEST POP GAS CALL ISZERO DUP1 ISZERO PUSH2 0xE62 JUMPI RETURNDATASIZE PUSH1 0x0 DUP1 RETURNDATACOPY RETURNDATASIZE PUSH1 0x0 REVERT JUMPDEST POP POP POP POP PUSH32 0x0 PUSH1 0x1 PUSH1 0x1 PUSH1 0xA0 SHL SUB AND PUSH4 0x9B789B7E PUSH1 0x40 MLOAD DUP2 PUSH4 0xFFFFFFFF AND PUSH1 0xE0 SHL DUP2 MSTORE PUSH1 0x4 ADD PUSH1 0x0 PUSH1 0x40 MLOAD DUP1 DUP4 SUB DUP2 PUSH1 0x0 DUP8 DUP1 EXTCODESIZE ISZERO DUP1 ISZERO PUSH2 0xEC1 JUMPI PUSH1 0x0 DUP1 REVERT JUMPDEST POP GAS CALL ISZERO DUP1 ISZERO PUSH2 0xED5 JUMPI RETURNDATASIZE PUSH1 0x0 DUP1 RETURNDATACOPY RETURNDATASIZE PUSH1 0x0 REVERT JUMPDEST POP POP POP POP JUMP JUMPDEST CALLER PUSH1 0x0 SWAP1 DUP2 MSTORE PUSH1 0x9A PUSH1 0x20 MSTORE PUSH1 0x40 DUP1 DUP3 KECCAK256 PUSH1 0x1 DUP2 ADD SLOAD SWAP2 MLOAD PUSH4 0x70A08231 PUSH1 0xE0 SHL DUP2 MSTORE ADDRESS PUSH1 0x4 DUP3 ADD MSTORE SWAP1 SWAP2 SWAP1 DUP4 SWAP1 PUSH1 0x1 PUSH1 0x1 PUSH1 0xA0 SHL SUB PUSH32 0x0 AND SWAP1 PUSH4 0x70A08231 SWAP1 PUSH1 0x24 ADD PUSH1 0x20 PUSH1 0x40 MLOAD DUP1 DUP4 SUB DUP2 DUP7 DUP1 EXTCODESIZE ISZERO DUP1 ISZERO PUSH2 0xF53 JUMPI PUSH1 0x0 DUP1 REVERT JUMPDEST POP GAS STATICCALL ISZERO DUP1 ISZERO PUSH2 0xF67 JUMPI RETURNDATASIZE PUSH1 0x0 DUP1 RETURNDATACOPY RETURNDATASIZE PUSH1 0x0 REVERT JUMPDEST POP POP POP POP PUSH1 0x40 MLOAD RETURNDATASIZE PUSH1 0x1F NOT PUSH1 0x1F DUP3 ADD AND DUP3 ADD DUP1 PUSH1 0x40 MSTORE POP DUP2 ADD SWAP1 PUSH2 0xF8B SWAP2 SWAP1 PUSH2 0x2225 JUMP JUMPDEST SWAP1 POP DUP2 DUP2 GT PUSH2 0xF9B JUMPI PUSH1 0x0 PUSH2 0xF9D JUMP JUMPDEST DUP2 JUMPDEST SWAP4 POP POP POP POP SWAP1 JUMP JUMPDEST PUSH1 0x65 SLOAD PUSH1 0x1 PUSH1 0x1 PUSH1 0xA0 SHL SUB AND CALLER EQ PUSH2 0xFCF JUMPI PUSH1 0x40 MLOAD PUSH3 0x461BCD PUSH1 0xE5 SHL DUP2 MSTORE PUSH1 0x4 ADD PUSH2 0x668 SWAP1 PUSH2 0x23F9 JUMP JUMPDEST PUSH2 0x9B9 PUSH1 0x0 PUSH2 0x1E10 JUMP JUMPDEST PUSH1 0x0 DUP1 PUSH1 0x0 PUSH2 0xFE6 PUSH2 0xB0F JUMP JUMPDEST SWAP2 SWAP5 POP SWAP3 POP SWAP1 POP DUP3 ISZERO PUSH2 0x1111 JUMPI PUSH1 0x40 MLOAD PUSH4 0x1066F989 PUSH1 0xE2 SHL DUP2 MSTORE ADDRESS PUSH1 0x4 DUP3 ADD MSTORE PUSH1 0x0 SWAP1 PUSH32 0x0 PUSH1 0x1 PUSH1 0x1 PUSH1 0xA0 SHL SUB AND SWAP1 PUSH4 0x419BE624 SWAP1 PUSH1 0x24 ADD PUSH1 0x20 PUSH1 0x40 MLOAD DUP1 DUP4 SUB DUP2 DUP7 DUP1 EXTCODESIZE ISZERO DUP1 ISZERO PUSH2 0x1055 JUMPI PUSH1 0x0 DUP1 REVERT JUMPDEST POP GAS STATICCALL ISZERO DUP1 ISZERO PUSH2 0x1069 JUMPI RETURNDATASIZE PUSH1 0x0 DUP1 RETURNDATACOPY RETURNDATASIZE PUSH1 0x0 REVERT JUMPDEST POP POP POP POP PUSH1 0x40 MLOAD RETURNDATASIZE PUSH1 0x1F NOT PUSH1 0x1F DUP3 ADD AND DUP3 ADD DUP1 PUSH1 0x40 MSTORE POP DUP2 ADD SWAP1 PUSH2 0x108D SWAP2 SWAP1 PUSH2 0x2225 JUMP JUMPDEST SWAP1 POP DUP1 PUSH2 0x110F JUMPI PUSH1 0x40 MLOAD PUSH4 0x534A7E1D PUSH1 0xE1 SHL DUP2 MSTORE PUSH1 0x4 DUP2 ADD DUP6 SWAP1 MSTORE PUSH32 0x0 PUSH1 0x1 PUSH1 0x1 PUSH1 0xA0 SHL SUB AND SWAP1 PUSH4 0xA694FC3A SWAP1 PUSH1 0x24 ADD PUSH1 0x0 PUSH1 0x40 MLOAD DUP1 DUP4 SUB DUP2 PUSH1 0x0 DUP8 DUP1 EXTCODESIZE ISZERO DUP1 ISZERO PUSH2 0x10F6 JUMPI PUSH1 0x0 DUP1 REVERT JUMPDEST POP GAS CALL ISZERO DUP1 ISZERO PUSH2 0x110A JUMPI RETURNDATASIZE PUSH1 0x0 DUP1 RETURNDATACOPY RETURNDATASIZE PUSH1 0x0 REVERT JUMPDEST POP POP POP POP JUMPDEST POP JUMPDEST DUP2 ISZERO PUSH2 0x1192 JUMPI PUSH1 0x40 MLOAD PUSH4 0x5C2FBCF PUSH1 0xE3 SHL DUP2 MSTORE PUSH1 0x4 DUP2 ADD DUP4 SWAP1 MSTORE PUSH32 0x0 PUSH1 0x1 PUSH1 0x1 PUSH1 0xA0 SHL SUB AND SWAP1 PUSH4 0x2E17DE78 SWAP1 PUSH1 0x24 ADD PUSH1 0x0 PUSH1 0x40 MLOAD DUP1 DUP4 SUB DUP2 PUSH1 0x0 DUP8 DUP1 EXTCODESIZE ISZERO DUP1 ISZERO PUSH2 0x1179 JUMPI PUSH1 0x0 DUP1 REVERT JUMPDEST POP GAS CALL ISZERO DUP1 ISZERO PUSH2 0x118D JUMPI RETURNDATASIZE PUSH1 0x0 DUP1 RETURNDATACOPY RETURNDATASIZE PUSH1 0x0 REVERT JUMPDEST POP POP POP POP JUMPDEST DUP1 ISZERO PUSH2 0x1213 JUMPI PUSH1 0x40 MLOAD PUSH4 0x2E1A7D4D PUSH1 0xE0 SHL DUP2 MSTORE PUSH1 0x4 DUP2 ADD DUP3 SWAP1 MSTORE PUSH32 0x0 PUSH1 0x1 PUSH1 0x1 PUSH1 0xA0 SHL SUB AND SWAP1 PUSH4 0x2E1A7D4D SWAP1 PUSH1 0x24 ADD PUSH1 0x0 PUSH1 0x40 MLOAD DUP1 DUP4 SUB DUP2 PUSH1 0x0 DUP8 DUP1 EXTCODESIZE ISZERO DUP1 ISZERO PUSH2 0x11FA JUMPI PUSH1 0x0 DUP1 REVERT JUMPDEST POP GAS CALL ISZERO DUP1 ISZERO PUSH2 0x120E JUMPI RETURNDATASIZE PUSH1 0x0 DUP1 RETURNDATACOPY RETURNDATASIZE PUSH1 0x0 REVERT JUMPDEST POP POP POP POP JUMPDEST POP POP POP JUMP JUMPDEST PUSH1 0x65 SLOAD PUSH1 0x1 PUSH1 0x1 PUSH1 0xA0 SHL SUB AND CALLER EQ PUSH2 0x1242 JUMPI PUSH1 0x40 MLOAD PUSH3 0x461BCD PUSH1 0xE5 SHL DUP2 MSTORE PUSH1 0x4 ADD PUSH2 0x668 SWAP1 PUSH2 0x23F9 JUMP JUMPDEST PUSH2 0x9B9 PUSH2 0x1E62 JUMP JUMPDEST PUSH1 0x40 MLOAD PUSH4 0x4F31B8DD PUSH1 0xE1 SHL DUP2 MSTORE PUSH1 0x1 PUSH1 0x1 PUSH1 0xA0 SHL SUB DUP3 DUP2 AND PUSH1 0x4 DUP4 ADD MSTORE PUSH32 0x0 AND SWAP1 PUSH4 0x9E6371BA SWAP1 PUSH1 0x24 ADD JUMPDEST PUSH1 0x0 PUSH1 0x40 MLOAD DUP1 DUP4 SUB DUP2 PUSH1 0x0 DUP8 DUP1 EXTCODESIZE ISZERO DUP1 ISZERO PUSH2 0x12AE JUMPI PUSH1 0x0 DUP1 REVERT JUMPDEST POP GAS CALL ISZERO DUP1 ISZERO PUSH2 0x12C2 JUMPI RETURNDATASIZE PUSH1 0x0 DUP1 RETURNDATACOPY RETURNDATASIZE PUSH1 0x0 REVERT JUMPDEST POP POP POP POP POP JUMP JUMPDEST PUSH1 0x40 MLOAD PUSH4 0x85425F4F PUSH1 0xE0 SHL DUP2 MSTORE PUSH1 0x4 DUP2 ADD DUP3 SWAP1 MSTORE PUSH1 0x0 SWAP1 DUP2 SWAP1 PUSH1 0x1 PUSH1 0x1 PUSH1 0xA0 SHL SUB PUSH32 0x0 AND SWAP1 PUSH4 0x85425F4F SWAP1 PUSH1 0x24 ADD PUSH1 0x20 PUSH1 0x40 MLOAD DUP1 DUP4 SUB DUP2 DUP7 DUP1 EXTCODESIZE ISZERO DUP1 ISZERO PUSH2 0x132E JUMPI PUSH1 0x0 DUP1 REVERT JUMPDEST POP GAS STATICCALL ISZERO DUP1 ISZERO PUSH2 0x1342 JUMPI RETURNDATASIZE PUSH1 0x0 DUP1 RETURNDATACOPY RETURNDATASIZE PUSH1 0x0 REVERT JUMPDEST POP POP POP POP PUSH1 0x40 MLOAD RETURNDATASIZE PUSH1 0x1F NOT PUSH1 0x1F DUP3 ADD AND DUP3 ADD DUP1 PUSH1 0x40 MSTORE POP DUP2 ADD SWAP1 PUSH2 0x1366 SWAP2 SWAP1 PUSH2 0x21BA JUMP JUMPDEST SWAP1 POP PUSH1 0x0 DUP2 PUSH1 0x1 PUSH1 0x1 PUSH1 0xA0 SHL SUB AND PUSH4 0x8AEC8542 PUSH1 0x40 MLOAD DUP2 PUSH4 0xFFFFFFFF AND PUSH1 0xE0 SHL DUP2 MSTORE PUSH1 0x4 ADD PUSH1 0x20 PUSH1 0x40 MLOAD DUP1 DUP4 SUB DUP2 DUP7 DUP1 EXTCODESIZE ISZERO DUP1 ISZERO PUSH2 0x13A3 JUMPI PUSH1 0x0 DUP1 REVERT JUMPDEST POP GAS STATICCALL ISZERO DUP1 ISZERO PUSH2 0x13B7 JUMPI RETURNDATASIZE PUSH1 0x0 DUP1 RETURNDATACOPY RETURNDATASIZE PUSH1 0x0 REVERT JUMPDEST POP POP POP POP PUSH1 0x40 MLOAD RETURNDATASIZE PUSH1 0x1F NOT PUSH1 0x1F DUP3 ADD AND DUP3 ADD DUP1 PUSH1 0x40 MSTORE POP DUP2 ADD SWAP1 PUSH2 0x13DB SWAP2 SWAP1 PUSH2 0x2225 JUMP JUMPDEST PUSH1 0x40 MLOAD PUSH4 0xA5A6CD0B PUSH1 0xE0 SHL DUP2 MSTORE PUSH1 0x4 DUP2 ADD DUP7 SWAP1 MSTORE SWAP1 SWAP2 POP PUSH32 0x0 PUSH1 0x1 PUSH1 0x1 PUSH1 0xA0 SHL SUB AND SWAP1 PUSH4 0xA5A6CD0B SWAP1 PUSH1 0x24 ADD PUSH1 0x20 PUSH1 0x40 MLOAD DUP1 DUP4 SUB DUP2 PUSH1 0x0 DUP8 DUP1 EXTCODESIZE ISZERO DUP1 ISZERO PUSH2 0x1440 JUMPI PUSH1 0x0 DUP1 REVERT JUMPDEST POP GAS CALL ISZERO DUP1 ISZERO PUSH2 0x1454 JUMPI RETURNDATASIZE PUSH1 0x0 DUP1 RETURNDATACOPY RETURNDATASIZE PUSH1 0x0 REVERT JUMPDEST POP POP POP POP PUSH1 0x40 MLOAD RETURNDATASIZE PUSH1 0x1F NOT PUSH1 0x1F DUP3 ADD AND DUP3 ADD DUP1 PUSH1 0x40 MSTORE POP DUP2 ADD SWAP1 PUSH2 0x1478 SWAP2 SWAP1 PUSH2 0x2203 JUMP JUMPDEST POP PUSH1 0x9B SLOAD PUSH1 0x40 MLOAD PUSH4 0x2C7F22B5 PUSH1 0xE2 SHL DUP2 MSTORE PUSH1 0x4 DUP2 ADD DUP7 SWAP1 MSTORE PUSH1 0x24 DUP2 ADD DUP4 SWAP1 MSTORE PUSH1 0x0 SWAP2 PUSH1 0x1 PUSH1 0x1 PUSH1 0xA0 SHL SUB AND SWAP1 PUSH4 0xB1FC8AD4 SWAP1 PUSH1 0x44 ADD PUSH1 0x20 PUSH1 0x40 MLOAD DUP1 DUP4 SUB DUP2 DUP7 DUP1 EXTCODESIZE ISZERO DUP1 ISZERO PUSH2 0x14C5 JUMPI PUSH1 0x0 DUP1 REVERT JUMPDEST POP GAS STATICCALL ISZERO DUP1 ISZERO PUSH2 0x14D9 JUMPI RETURNDATASIZE PUSH1 0x0 DUP1 RETURNDATACOPY RETURNDATASIZE PUSH1 0x0 REVERT JUMPDEST POP POP POP POP PUSH1 0x40 MLOAD RETURNDATASIZE PUSH1 0x1F NOT PUSH1 0x1F DUP3 ADD AND DUP3 ADD DUP1 PUSH1 0x40 MSTORE POP DUP2 ADD SWAP1 PUSH2 0x14FD SWAP2 SWAP1 PUSH2 0x2225 JUMP JUMPDEST SWAP1 POP DUP2 DUP2 GT ISZERO PUSH2 0x1577 JUMPI PUSH1 0x40 DUP1 MLOAD PUSH3 0x461BCD PUSH1 0xE5 SHL DUP2 MSTORE PUSH1 0x20 PUSH1 0x4 DUP3 ADD MSTORE PUSH1 0x24 DUP2 ADD SWAP2 SWAP1 SWAP2 MSTORE PUSH32 0x5374616B696E67506F6F6C50726F6475636572496D706C3A20636F6D6D697373 PUSH1 0x44 DUP3 ADD MSTORE PUSH32 0x696F6E2069732067726561746572207468616E20626C6F636B20726577617264 PUSH1 0x64 DUP3 ADD MSTORE PUSH1 0x84 ADD PUSH2 0x668 JUMP JUMPDEST DUP1 ISZERO PUSH2 0x16A9 JUMPI PUSH32 0x0 PUSH1 0x1 PUSH1 0x1 PUSH1 0xA0 SHL SUB AND PUSH4 0xA9059CBB PUSH2 0x15BE PUSH1 0x65 SLOAD PUSH1 0x1 PUSH1 0x1 PUSH1 0xA0 SHL SUB AND SWAP1 JUMP JUMPDEST PUSH1 0x40 MLOAD PUSH1 0x1 PUSH1 0x1 PUSH1 0xE0 SHL SUB NOT PUSH1 0xE0 DUP5 SWAP1 SHL AND DUP2 MSTORE PUSH1 0x1 PUSH1 0x1 PUSH1 0xA0 SHL SUB SWAP1 SWAP2 AND PUSH1 0x4 DUP3 ADD MSTORE PUSH1 0x24 DUP2 ADD DUP5 SWAP1 MSTORE PUSH1 0x44 ADD PUSH1 0x20 PUSH1 0x40 MLOAD DUP1 DUP4 SUB DUP2 PUSH1 0x0 DUP8 DUP1 EXTCODESIZE ISZERO DUP1 ISZERO PUSH2 0x1606 JUMPI PUSH1 0x0 DUP1 REVERT JUMPDEST POP GAS CALL ISZERO DUP1 ISZERO PUSH2 0x161A JUMPI RETURNDATASIZE PUSH1 0x0 DUP1 RETURNDATACOPY RETURNDATASIZE PUSH1 0x0 REVERT JUMPDEST POP POP POP POP PUSH1 0x40 MLOAD RETURNDATASIZE PUSH1 0x1F NOT PUSH1 0x1F DUP3 ADD AND DUP3 ADD DUP1 PUSH1 0x40 MSTORE POP DUP2 ADD SWAP1 PUSH2 0x163E SWAP2 SWAP1 PUSH2 0x2203 JUMP JUMPDEST PUSH2 0x16A9 JUMPI PUSH1 0x40 MLOAD PUSH3 0x461BCD PUSH1 0xE5 SHL DUP2 MSTORE PUSH1 0x20 PUSH1 0x4 DUP3 ADD MSTORE PUSH1 0x36 PUSH1 0x24 DUP3 ADD MSTORE PUSH32 0x5374616B696E67506F6F6C50726F6475636572496D706C3A206661696C656420 PUSH1 0x44 DUP3 ADD MSTORE PUSH22 0x3A37903A3930B739B332B91031B7B6B6B4B9B9B4B7B7 PUSH1 0x51 SHL PUSH1 0x64 DUP3 ADD MSTORE PUSH1 0x84 ADD PUSH2 0x668 JUMP JUMPDEST PUSH1 0x0 PUSH2 0x16B5 DUP3 DUP5 PUSH2 0x2487 JUMP JUMPDEST SWAP1 POP DUP1 PUSH1 0x98 PUSH1 0x0 DUP3 DUP3 SLOAD PUSH2 0x16C9 SWAP2 SWAP1 PUSH2 0x242E JUMP JUMPDEST SWAP1 SWAP2 SSTORE POP POP PUSH1 0x40 DUP1 MLOAD DUP5 DUP2 MSTORE PUSH1 0x20 DUP2 ADD DUP5 SWAP1 MSTORE PUSH32 0xBB9AC692E0E3001A628F86A894F03DA4CED5DF81886FEC577036664ED70A59CB SWAP2 ADD PUSH1 0x40 MLOAD DUP1 SWAP2 SUB SWAP1 LOG1 POP PUSH1 0x1 SWAP6 SWAP5 POP POP POP POP POP JUMP JUMPDEST PUSH1 0x33 SLOAD PUSH1 0xFF AND ISZERO PUSH2 0x1759 JUMPI PUSH1 0x40 MLOAD PUSH3 0x461BCD PUSH1 0xE5 SHL DUP2 MSTORE PUSH1 0x20 PUSH1 0x4 DUP3 ADD MSTORE PUSH1 0x10 PUSH1 0x24 DUP3 ADD MSTORE PUSH16 0x14185D5CD8589B194E881C185D5CD959 PUSH1 0x82 SHL PUSH1 0x44 DUP3 ADD MSTORE PUSH1 0x64 ADD PUSH2 0x668 JUMP JUMPDEST PUSH1 0x0 DUP2 GT PUSH2 0x17C4 JUMPI PUSH1 0x40 MLOAD PUSH3 0x461BCD PUSH1 0xE5 SHL DUP2 MSTORE PUSH1 0x20 PUSH1 0x4 DUP3 ADD MSTORE PUSH1 0x32 PUSH1 0x24 DUP3 ADD MSTORE PUSH32 0x5374616B696E67506F6F6C55736572496D706C3A20616D6F756E74206D757374 PUSH1 0x44 DUP3 ADD MSTORE PUSH18 0x2062652067726561746572207468616E203 PUSH1 0x74 SHL PUSH1 0x64 DUP3 ADD MSTORE PUSH1 0x84 ADD PUSH2 0x668 JUMP JUMPDEST PUSH1 0x40 MLOAD PUSH4 0x23B872DD PUSH1 0xE0 SHL DUP2 MSTORE CALLER PUSH1 0x4 DUP3 ADD MSTORE ADDRESS PUSH1 0x24 DUP3 ADD MSTORE PUSH1 0x44 DUP2 ADD DUP3 SWAP1 MSTORE PUSH32 0x0 PUSH1 0x1 PUSH1 0x1 PUSH1 0xA0 SHL SUB AND SWAP1 PUSH4 0x23B872DD SWAP1 PUSH1 0x64 ADD PUSH1 0x20 PUSH1 0x40 MLOAD DUP1 DUP4 SUB DUP2 PUSH1 0x0 DUP8 DUP1 EXTCODESIZE ISZERO DUP1 ISZERO PUSH2 0x1832 JUMPI PUSH1 0x0 DUP1 REVERT JUMPDEST POP GAS CALL ISZERO DUP1 ISZERO PUSH2 0x1846 JUMPI RETURNDATASIZE PUSH1 0x0 DUP1 RETURNDATACOPY RETURNDATASIZE PUSH1 0x0 REVERT JUMPDEST POP POP POP POP PUSH1 0x40 MLOAD RETURNDATASIZE PUSH1 0x1F NOT PUSH1 0x1F DUP3 ADD AND DUP3 ADD DUP1 PUSH1 0x40 MSTORE POP DUP2 ADD SWAP1 PUSH2 0x186A SWAP2 SWAP1 PUSH2 0x2203 JUMP JUMPDEST PUSH2 0x1886 JUMPI PUSH1 0x40 MLOAD PUSH3 0x461BCD PUSH1 0xE5 SHL DUP2 MSTORE PUSH1 0x4 ADD PUSH2 0x668 SWAP1 PUSH2 0x235D JUMP JUMPDEST PUSH1 0x0 PUSH2 0x1891 DUP3 PUSH2 0x1A02 JUMP JUMPDEST SWAP1 POP PUSH1 0x0 DUP2 GT PUSH2 0x1901 JUMPI PUSH1 0x40 MLOAD PUSH3 0x461BCD PUSH1 0xE5 SHL DUP2 MSTORE PUSH1 0x20 PUSH1 0x4 DUP3 ADD MSTORE PUSH1 0x35 PUSH1 0x24 DUP3 ADD MSTORE PUSH32 0x5374616B696E67506F6F6C55736572496D706C3A207374616B65206E6F742065 PUSH1 0x44 DUP3 ADD MSTORE PUSH21 0x6E6F75676820746F20656D69742031207368617265 PUSH1 0x58 SHL PUSH1 0x64 DUP3 ADD MSTORE PUSH1 0x84 ADD PUSH2 0x668 JUMP JUMPDEST CALLER PUSH1 0x0 SWAP1 DUP2 MSTORE PUSH1 0x9A PUSH1 0x20 MSTORE PUSH1 0x40 DUP2 KECCAK256 DUP1 SLOAD SWAP1 SWAP2 DUP4 SWAP2 DUP4 SWAP2 SWAP1 PUSH2 0x1924 SWAP1 DUP5 SWAP1 PUSH2 0x242E JUMP JUMPDEST SWAP1 SWAP2 SSTORE POP POP PUSH1 0x9C SLOAD PUSH2 0x1936 SWAP1 TIMESTAMP PUSH2 0x242E JUMP JUMPDEST DUP2 PUSH1 0x2 ADD DUP2 SWAP1 SSTORE POP DUP3 PUSH1 0x98 PUSH1 0x0 DUP3 DUP3 SLOAD PUSH2 0x1950 SWAP2 SWAP1 PUSH2 0x242E JUMP JUMPDEST SWAP3 POP POP DUP2 SWAP1 SSTORE POP DUP2 PUSH1 0x97 PUSH1 0x0 DUP3 DUP3 SLOAD PUSH2 0x1969 SWAP2 SWAP1 PUSH2 0x242E JUMP JUMPDEST SWAP1 SWAP2 SSTORE POP POP PUSH1 0x2 DUP2 ADD SLOAD PUSH1 0x40 DUP1 MLOAD DUP6 DUP2 MSTORE PUSH1 0x20 DUP2 ADD DUP6 SWAP1 MSTORE SWAP1 DUP2 ADD SWAP2 SWAP1 SWAP2 MSTORE CALLER SWAP1 PUSH32 0xF556991011E831BCFAC4F406D547E5E32CDD98267EFAB83935230D5F8D02C446 SWAP1 PUSH1 0x60 ADD PUSH2 0x7EF JUMP JUMPDEST PUSH1 0x40 MLOAD PUSH4 0xB64B3BED PUSH1 0xE0 SHL DUP2 MSTORE PUSH1 0x1 PUSH1 0x1 PUSH1 0xA0 SHL SUB DUP3 DUP2 AND PUSH1 0x4 DUP4 ADD MSTORE PUSH32 0x0 AND SWAP1 PUSH4 0xB64B3BED SWAP1 PUSH1 0x24 ADD PUSH2 0x1294 JUMP JUMPDEST PUSH1 0x0 PUSH1 0x98 SLOAD PUSH1 0x0 EQ ISZERO PUSH2 0x1A13 JUMPI POP SWAP1 JUMP JUMPDEST PUSH1 0x98 SLOAD PUSH1 0x97 SLOAD PUSH2 0xAFF SWAP1 DUP5 PUSH2 0x2468 JUMP JUMPDEST PUSH1 0x65 SLOAD PUSH1 0x1 PUSH1 0x1 PUSH1 0xA0 SHL SUB AND CALLER EQ PUSH2 0x1A4D JUMPI PUSH1 0x40 MLOAD PUSH3 0x461BCD PUSH1 0xE5 SHL DUP2 MSTORE PUSH1 0x4 ADD PUSH2 0x668 SWAP1 PUSH2 0x23F9 JUMP JUMPDEST PUSH1 0x40 MLOAD PUSH4 0x2571BE3 PUSH1 0xE0 SHL DUP2 MSTORE PUSH32 0x91D1777781884D03A6757A803996E38DE2A42967FB37EEACA72729271025A9E2 PUSH1 0x4 DUP3 ADD MSTORE PUSH1 0x0 SWAP1 PUSH32 0x0 PUSH1 0x1 PUSH1 0x1 PUSH1 0xA0 SHL SUB AND SWAP1 PUSH4 0x2571BE3 SWAP1 PUSH1 0x24 ADD PUSH1 0x20 PUSH1 0x40 MLOAD DUP1 DUP4 SUB DUP2 DUP7 DUP1 EXTCODESIZE ISZERO DUP1 ISZERO PUSH2 0x1ACF JUMPI PUSH1 0x0 DUP1 REVERT JUMPDEST POP GAS STATICCALL ISZERO DUP1 ISZERO PUSH2 0x1AE3 JUMPI RETURNDATASIZE PUSH1 0x0 DUP1 RETURNDATACOPY RETURNDATASIZE PUSH1 0x0 REVERT JUMPDEST POP POP POP POP PUSH1 0x40 MLOAD RETURNDATASIZE PUSH1 0x1F NOT PUSH1 0x1F DUP3 ADD AND DUP3 ADD DUP1 PUSH1 0x40 MSTORE POP DUP2 ADD SWAP1 PUSH2 0x1B07 SWAP2 SWAP1 PUSH2 0x21BA JUMP JUMPDEST PUSH1 0x40 MLOAD PUSH4 0xC47F0027 PUSH1 0xE0 SHL DUP2 MSTORE SWAP1 SWAP2 POP PUSH1 0x1 PUSH1 0x1 PUSH1 0xA0 SHL SUB DUP3 AND SWAP1 PUSH4 0xC47F0027 SWAP1 PUSH2 0x1B36 SWAP1 DUP6 SWAP1 PUSH1 0x4 ADD PUSH2 0x2308 JUMP JUMPDEST PUSH1 0x20 PUSH1 0x40 MLOAD DUP1 DUP4 SUB DUP2 PUSH1 0x0 DUP8 DUP1 EXTCODESIZE ISZERO DUP1 ISZERO PUSH2 0x1B50 JUMPI PUSH1 0x0 DUP1 REVERT JUMPDEST POP GAS CALL ISZERO DUP1 ISZERO PUSH2 0x1B64 JUMPI RETURNDATASIZE PUSH1 0x0 DUP1 RETURNDATACOPY RETURNDATASIZE PUSH1 0x0 REVERT JUMPDEST POP POP POP POP PUSH1 0x40 MLOAD RETURNDATASIZE PUSH1 0x1F NOT PUSH1 0x1F DUP3 ADD AND DUP3 ADD DUP1 PUSH1 0x40 MSTORE POP DUP2 ADD SWAP1 PUSH2 0x1B88 SWAP2 SWAP1 PUSH2 0x2225 JUMP JUMPDEST POP PUSH32 0x6AAA0865532D48A9A0F63CC91DF7FF2AB538C896665C864AE02D0A1E7F81CF65 DUP3 PUSH1 0x40 MLOAD PUSH2 0x1BB8 SWAP2 SWAP1 PUSH2 0x2308 JUMP JUMPDEST PUSH1 0x40 MLOAD DUP1 SWAP2 SUB SWAP1 LOG1 POP POP JUMP JUMPDEST PUSH1 0x0 SLOAD PUSH2 0x100 SWAP1 DIV PUSH1 0xFF AND DUP1 PUSH2 0x1BDD JUMPI POP PUSH1 0x0 SLOAD PUSH1 0xFF AND ISZERO JUMPDEST PUSH2 0x1BF9 JUMPI PUSH1 0x40 MLOAD PUSH3 0x461BCD PUSH1 0xE5 SHL DUP2 MSTORE PUSH1 0x4 ADD PUSH2 0x668 SWAP1 PUSH2 0x23AB JUMP JUMPDEST PUSH1 0x0 SLOAD PUSH2 0x100 SWAP1 DIV PUSH1 0xFF AND ISZERO DUP1 ISZERO PUSH2 0x1C1B JUMPI PUSH1 0x0 DUP1 SLOAD PUSH2 0xFFFF NOT AND PUSH2 0x101 OR SWAP1 SSTORE JUMPDEST PUSH2 0x1C23 PUSH2 0x1EDD JUMP JUMPDEST PUSH2 0x1C2B PUSH2 0x1F58 JUMP JUMPDEST PUSH2 0x1C34 DUP4 PUSH2 0x1D5B JUMP JUMPDEST PUSH2 0x1C3C PUSH2 0x9BB JUMP JUMPDEST PUSH2 0x1C45 DUP3 PUSH1 0x9C SSTORE JUMP JUMPDEST DUP1 ISZERO PUSH2 0x1213 JUMPI PUSH1 0x0 DUP1 SLOAD PUSH2 0xFF00 NOT AND SWAP1 SSTORE POP POP POP JUMP JUMPDEST PUSH1 0x40 MLOAD PUSH4 0x6CEB5EC3 PUSH1 0xE1 SHL DUP2 MSTORE PUSH1 0x1 PUSH1 0x1 PUSH1 0xA0 SHL SUB DUP3 DUP2 AND PUSH1 0x4 DUP4 ADD MSTORE PUSH32 0x0 AND SWAP1 PUSH4 0xD9D6BD86 SWAP1 CALLVALUE SWAP1 PUSH1 0x24 ADD PUSH1 0x0 PUSH1 0x40 MLOAD DUP1 DUP4 SUB DUP2 DUP6 DUP9 DUP1 EXTCODESIZE ISZERO DUP1 ISZERO PUSH2 0x1CBF JUMPI PUSH1 0x0 DUP1 REVERT JUMPDEST POP GAS CALL ISZERO DUP1 ISZERO PUSH2 0x1CD3 JUMPI RETURNDATASIZE PUSH1 0x0 DUP1 RETURNDATACOPY RETURNDATASIZE PUSH1 0x0 REVERT JUMPDEST POP POP PUSH1 0x40 MLOAD PUSH4 0x2BEF4595 PUSH1 0xE0 SHL DUP2 MSTORE PUSH1 0x1 PUSH1 0x1 PUSH1 0xA0 SHL SUB DUP6 DUP2 AND PUSH1 0x4 DUP4 ADD MSTORE PUSH32 0x0 DUP2 AND PUSH1 0x24 DUP4 ADD MSTORE PUSH32 0x0 AND SWAP4 POP PUSH4 0x2BEF4595 SWAP3 POP PUSH1 0x44 ADD SWAP1 POP PUSH2 0x1294 JUMP JUMPDEST PUSH2 0x1D58 DUP2 PUSH2 0x1FBF JUMP JUMPDEST POP JUMP JUMPDEST PUSH1 0x9B DUP1 SLOAD PUSH1 0x1 PUSH1 0x1 PUSH1 0xA0 SHL SUB NOT AND PUSH1 0x1 PUSH1 0x1 PUSH1 0xA0 SHL SUB SWAP3 SWAP1 SWAP3 AND SWAP2 SWAP1 SWAP2 OR SWAP1 SSTORE JUMP JUMPDEST PUSH1 0x33 SLOAD PUSH1 0xFF AND PUSH2 0x1DC6 JUMPI PUSH1 0x40 MLOAD PUSH3 0x461BCD PUSH1 0xE5 SHL DUP2 MSTORE PUSH1 0x20 PUSH1 0x4 DUP3 ADD MSTORE PUSH1 0x14 PUSH1 0x24 DUP3 ADD MSTORE PUSH20 0x14185D5CD8589B194E881B9BDD081C185D5CD959 PUSH1 0x62 SHL PUSH1 0x44 DUP3 ADD MSTORE PUSH1 0x64 ADD PUSH2 0x668 JUMP JUMPDEST PUSH1 0x33 DUP1 SLOAD PUSH1 0xFF NOT AND SWAP1 SSTORE PUSH32 0x5DB9EE0A495BF2E6FF9C91A7834C1BA4FDD244A5E8AA4E537BD38AEAE4B073AA CALLER JUMPDEST PUSH1 0x40 MLOAD PUSH1 0x1 PUSH1 0x1 PUSH1 0xA0 SHL SUB SWAP1 SWAP2 AND DUP2 MSTORE PUSH1 0x20 ADD PUSH1 0x40 MLOAD DUP1 SWAP2 SUB SWAP1 LOG1 JUMP JUMPDEST PUSH1 0x65 DUP1 SLOAD PUSH1 0x1 PUSH1 0x1 PUSH1 0xA0 SHL SUB DUP4 DUP2 AND PUSH1 0x1 PUSH1 0x1 PUSH1 0xA0 SHL SUB NOT DUP4 AND DUP2 OR SWAP1 SWAP4 SSTORE PUSH1 0x40 MLOAD SWAP2 AND SWAP2 SWAP1 DUP3 SWAP1 PUSH32 0x8BE0079C531659141344CD1FD0A4F28419497F9722A3DAAFE3B4186F6B6457E0 SWAP1 PUSH1 0x0 SWAP1 LOG3 POP POP JUMP JUMPDEST PUSH1 0x33 SLOAD PUSH1 0xFF AND ISZERO PUSH2 0x1EA8 JUMPI PUSH1 0x40 MLOAD PUSH3 0x461BCD PUSH1 0xE5 SHL DUP2 MSTORE PUSH1 0x20 PUSH1 0x4 DUP3 ADD MSTORE PUSH1 0x10 PUSH1 0x24 DUP3 ADD MSTORE PUSH16 0x14185D5CD8589B194E881C185D5CD959 PUSH1 0x82 SHL PUSH1 0x44 DUP3 ADD MSTORE PUSH1 0x64 ADD PUSH2 0x668 JUMP JUMPDEST PUSH1 0x33 DUP1 SLOAD PUSH1 0xFF NOT AND PUSH1 0x1 OR SWAP1 SSTORE PUSH32 0x62E78CEA01BEE320CD4E420270B5EA74000D11B0C9F74754EBDBFC544B05A258 PUSH2 0x1DF3 CALLER SWAP1 JUMP JUMPDEST PUSH1 0x0 SLOAD PUSH2 0x100 SWAP1 DIV PUSH1 0xFF AND DUP1 PUSH2 0x1EF6 JUMPI POP PUSH1 0x0 SLOAD PUSH1 0xFF AND ISZERO JUMPDEST PUSH2 0x1F12 JUMPI PUSH1 0x40 MLOAD PUSH3 0x461BCD PUSH1 0xE5 SHL DUP2 MSTORE PUSH1 0x4 ADD PUSH2 0x668 SWAP1 PUSH2 0x23AB JUMP JUMPDEST PUSH1 0x0 SLOAD PUSH2 0x100 SWAP1 DIV PUSH1 0xFF AND ISZERO DUP1 ISZERO PUSH2 0x1F34 JUMPI PUSH1 0x0 DUP1 SLOAD PUSH2 0xFFFF NOT AND PUSH2 0x101 OR SWAP1 SSTORE JUMPDEST PUSH2 0x1F3C PUSH2 0x2057 JUMP JUMPDEST PUSH2 0x1F44 PUSH2 0x20C1 JUMP JUMPDEST DUP1 ISZERO PUSH2 0x1D58 JUMPI PUSH1 0x0 DUP1 SLOAD PUSH2 0xFF00 NOT AND SWAP1 SSTORE POP JUMP JUMPDEST PUSH1 0x0 SLOAD PUSH2 0x100 SWAP1 DIV PUSH1 0xFF AND DUP1 PUSH2 0x1F71 JUMPI POP PUSH1 0x0 SLOAD PUSH1 0xFF AND ISZERO JUMPDEST PUSH2 0x1F8D JUMPI PUSH1 0x40 MLOAD PUSH3 0x461BCD PUSH1 0xE5 SHL DUP2 MSTORE PUSH1 0x4 ADD PUSH2 0x668 SWAP1 PUSH2 0x23AB JUMP JUMPDEST PUSH1 0x0 SLOAD PUSH2 0x100 SWAP1 DIV PUSH1 0xFF AND ISZERO DUP1 ISZERO PUSH2 0x1FAF JUMPI PUSH1 0x0 DUP1 SLOAD PUSH2 0xFFFF NOT AND PUSH2 0x101 OR SWAP1 SSTORE JUMPDEST PUSH2 0x1FB7 PUSH2 0x2057 JUMP JUMPDEST PUSH2 0x1F44 PUSH2 0x2136 JUMP JUMPDEST PUSH1 0x65 SLOAD PUSH1 0x1 PUSH1 0x1 PUSH1 0xA0 SHL SUB AND CALLER EQ PUSH2 0x1FE9 JUMPI PUSH1 0x40 MLOAD PUSH3 0x461BCD PUSH1 0xE5 SHL DUP2 MSTORE PUSH1 0x4 ADD PUSH2 0x668 SWAP1 PUSH2 0x23F9 JUMP JUMPDEST PUSH1 0x1 PUSH1 0x1 PUSH1 0xA0 SHL SUB DUP2 AND PUSH2 0x204E JUMPI PUSH1 0x40 MLOAD PUSH3 0x461BCD PUSH1 0xE5 SHL DUP2 MSTORE PUSH1 0x20 PUSH1 0x4 DUP3 ADD MSTORE PUSH1 0x26 PUSH1 0x24 DUP3 ADD MSTORE PUSH32 0x4F776E61626C653A206E6577206F776E657220697320746865207A65726F2061 PUSH1 0x44 DUP3 ADD MSTORE PUSH6 0x646472657373 PUSH1 0xD0 SHL PUSH1 0x64 DUP3 ADD MSTORE PUSH1 0x84 ADD PUSH2 0x668 JUMP JUMPDEST PUSH2 0x1D58 DUP2 PUSH2 0x1E10 JUMP JUMPDEST PUSH1 0x0 SLOAD PUSH2 0x100 SWAP1 DIV PUSH1 0xFF AND DUP1 PUSH2 0x2070 JUMPI POP PUSH1 0x0 SLOAD PUSH1 0xFF AND ISZERO JUMPDEST PUSH2 0x208C JUMPI PUSH1 0x40 MLOAD PUSH3 0x461BCD PUSH1 0xE5 SHL DUP2 MSTORE PUSH1 0x4 ADD PUSH2 0x668 SWAP1 PUSH2 0x23AB JUMP JUMPDEST PUSH1 0x0 SLOAD PUSH2 0x100 SWAP1 DIV PUSH1 0xFF AND ISZERO DUP1 ISZERO PUSH2 0x1F44 JUMPI PUSH1 0x0 DUP1 SLOAD PUSH2 0xFFFF NOT AND PUSH2 0x101 OR SWAP1 SSTORE DUP1 ISZERO PUSH2 0x1D58 JUMPI PUSH1 0x0 DUP1 SLOAD PUSH2 0xFF00 NOT AND SWAP1 SSTORE POP JUMP JUMPDEST PUSH1 0x0 SLOAD PUSH2 0x100 SWAP1 DIV PUSH1 0xFF AND DUP1 PUSH2 0x20DA JUMPI POP PUSH1 0x0 SLOAD PUSH1 0xFF AND ISZERO JUMPDEST PUSH2 0x20F6 JUMPI PUSH1 0x40 MLOAD PUSH3 0x461BCD PUSH1 0xE5 SHL DUP2 MSTORE PUSH1 0x4 ADD PUSH2 0x668 SWAP1 PUSH2 0x23AB JUMP JUMPDEST PUSH1 0x0 SLOAD PUSH2 0x100 SWAP1 DIV PUSH1 0xFF AND ISZERO DUP1 ISZERO PUSH2 0x2118 JUMPI PUSH1 0x0 DUP1 SLOAD PUSH2 0xFFFF NOT AND PUSH2 0x101 OR SWAP1 SSTORE JUMPDEST PUSH1 0x33 DUP1 SLOAD PUSH1 0xFF NOT AND SWAP1 SSTORE DUP1 ISZERO PUSH2 0x1D58 JUMPI PUSH1 0x0 DUP1 SLOAD PUSH2 0xFF00 NOT AND SWAP1 SSTORE POP JUMP JUMPDEST PUSH1 0x0 SLOAD PUSH2 0x100 SWAP1 DIV PUSH1 0xFF AND DUP1 PUSH2 0x214F JUMPI POP PUSH1 0x0 SLOAD PUSH1 0xFF AND ISZERO JUMPDEST PUSH2 0x216B JUMPI PUSH1 0x40 MLOAD PUSH3 0x461BCD PUSH1 0xE5 SHL DUP2 MSTORE PUSH1 0x4 ADD PUSH2 0x668 SWAP1 PUSH2 0x23AB JUMP JUMPDEST PUSH1 0x0 SLOAD PUSH2 0x100 SWAP1 DIV PUSH1 0xFF AND ISZERO DUP1 ISZERO PUSH2 0x218D JUMPI PUSH1 0x0 DUP1 SLOAD PUSH2 0xFFFF NOT AND PUSH2 0x101 OR SWAP1 SSTORE JUMPDEST PUSH2 0x1F44 CALLER PUSH2 0x1E10 JUMP JUMPDEST PUSH1 0x0 PUSH1 0x20 DUP3 DUP5 SUB SLT ISZERO PUSH2 0x21A8 JUMPI PUSH1 0x0 DUP1 REVERT JUMPDEST DUP2 CALLDATALOAD PUSH2 0x21B3 DUP2 PUSH2 0x24CA JUMP JUMPDEST SWAP4 SWAP3 POP POP POP JUMP JUMPDEST PUSH1 0x0 PUSH1 0x20 DUP3 DUP5 SUB SLT ISZERO PUSH2 0x21CC JUMPI PUSH1 0x0 DUP1 REVERT JUMPDEST DUP2 MLOAD PUSH2 0x21B3 DUP2 PUSH2 0x24CA JUMP JUMPDEST PUSH1 0x0 DUP1 PUSH1 0x40 DUP4 DUP6 SUB SLT ISZERO PUSH2 0x21EA JUMPI PUSH1 0x0 DUP1 REVERT JUMPDEST DUP3 CALLDATALOAD PUSH2 0x21F5 DUP2 PUSH2 0x24CA JUMP JUMPDEST SWAP5 PUSH1 0x20 SWAP4 SWAP1 SWAP4 ADD CALLDATALOAD SWAP4 POP POP POP JUMP JUMPDEST PUSH1 0x0 PUSH1 0x20 DUP3 DUP5 SUB SLT ISZERO PUSH2 0x2215 JUMPI PUSH1 0x0 DUP1 REVERT JUMPDEST DUP2 MLOAD DUP1 ISZERO ISZERO DUP2 EQ PUSH2 0x21B3 JUMPI PUSH1 0x0 DUP1 REVERT JUMPDEST PUSH1 0x0 PUSH1 0x20 DUP3 DUP5 SUB SLT ISZERO PUSH2 0x2237 JUMPI PUSH1 0x0 DUP1 REVERT JUMPDEST POP MLOAD SWAP2 SWAP1 POP JUMP JUMPDEST PUSH1 0x0 PUSH1 0x20 DUP3 DUP5 SUB SLT ISZERO PUSH2 0x2250 JUMPI PUSH1 0x0 DUP1 REVERT JUMPDEST DUP2 CALLDATALOAD PUSH8 0xFFFFFFFFFFFFFFFF DUP1 DUP3 GT ISZERO PUSH2 0x2268 JUMPI PUSH1 0x0 DUP1 REVERT JUMPDEST DUP2 DUP5 ADD SWAP2 POP DUP5 PUSH1 0x1F DUP4 ADD SLT PUSH2 0x227C JUMPI PUSH1 0x0 DUP1 REVERT JUMPDEST DUP2 CALLDATALOAD DUP2 DUP2 GT ISZERO PUSH2 0x228E JUMPI PUSH2 0x228E PUSH2 0x24B4 JUMP JUMPDEST PUSH1 0x40 MLOAD PUSH1 0x1F DUP3 ADD PUSH1 0x1F NOT SWAP1 DUP2 AND PUSH1 0x3F ADD AND DUP2 ADD SWAP1 DUP4 DUP3 GT DUP2 DUP4 LT OR ISZERO PUSH2 0x22B6 JUMPI PUSH2 0x22B6 PUSH2 0x24B4 JUMP JUMPDEST DUP2 PUSH1 0x40 MSTORE DUP3 DUP2 MSTORE DUP8 PUSH1 0x20 DUP5 DUP8 ADD ADD GT ISZERO PUSH2 0x22CF JUMPI PUSH1 0x0 DUP1 REVERT JUMPDEST DUP3 PUSH1 0x20 DUP7 ADD PUSH1 0x20 DUP4 ADD CALLDATACOPY PUSH1 0x0 SWAP3 DUP2 ADD PUSH1 0x20 ADD SWAP3 SWAP1 SWAP3 MSTORE POP SWAP6 SWAP5 POP POP POP POP POP JUMP JUMPDEST PUSH1 0x0 PUSH1 0x20 DUP3 DUP5 SUB SLT ISZERO PUSH2 0x2301 JUMPI PUSH1 0x0 DUP1 REVERT JUMPDEST POP CALLDATALOAD SWAP2 SWAP1 POP JUMP JUMPDEST PUSH1 0x0 PUSH1 0x20 DUP1 DUP4 MSTORE DUP4 MLOAD DUP1 DUP3 DUP6 ADD MSTORE PUSH1 0x0 JUMPDEST DUP2 DUP2 LT ISZERO PUSH2 0x2335 JUMPI DUP6 DUP2 ADD DUP4 ADD MLOAD DUP6 DUP3 ADD PUSH1 0x40 ADD MSTORE DUP3 ADD PUSH2 0x2319 JUMP JUMPDEST DUP2 DUP2 GT ISZERO PUSH2 0x2347 JUMPI PUSH1 0x0 PUSH1 0x40 DUP4 DUP8 ADD ADD MSTORE JUMPDEST POP PUSH1 0x1F ADD PUSH1 0x1F NOT AND SWAP3 SWAP1 SWAP3 ADD PUSH1 0x40 ADD SWAP4 SWAP3 POP POP POP JUMP JUMPDEST PUSH1 0x20 DUP1 DUP3 MSTORE PUSH1 0x2E SWAP1 DUP3 ADD MSTORE PUSH32 0x5374616B696E67506F6F6C55736572496D706C3A206661696C656420746F2074 PUSH1 0x40 DUP3 ADD MSTORE PUSH14 0x72616E7366657220746F6B656E73 PUSH1 0x90 SHL PUSH1 0x60 DUP3 ADD MSTORE PUSH1 0x80 ADD SWAP1 JUMP JUMPDEST PUSH1 0x20 DUP1 DUP3 MSTORE PUSH1 0x2E SWAP1 DUP3 ADD MSTORE PUSH32 0x496E697469616C697A61626C653A20636F6E747261637420697320616C726561 PUSH1 0x40 DUP3 ADD MSTORE PUSH14 0x191E481A5B9A5D1A585B1A5E9959 PUSH1 0x92 SHL PUSH1 0x60 DUP3 ADD MSTORE PUSH1 0x80 ADD SWAP1 JUMP JUMPDEST PUSH1 0x20 DUP1 DUP3 MSTORE DUP2 DUP2 ADD MSTORE PUSH32 0x4F776E61626C653A2063616C6C6572206973206E6F7420746865206F776E6572 PUSH1 0x40 DUP3 ADD MSTORE PUSH1 0x60 ADD SWAP1 JUMP JUMPDEST PUSH1 0x0 DUP3 NOT DUP3 GT ISZERO PUSH2 0x2441 JUMPI PUSH2 0x2441 PUSH2 0x249E JUMP JUMPDEST POP ADD SWAP1 JUMP JUMPDEST PUSH1 0x0 DUP3 PUSH2 0x2463 JUMPI PUSH4 0x4E487B71 PUSH1 0xE0 SHL PUSH1 0x0 MSTORE PUSH1 0x12 PUSH1 0x4 MSTORE PUSH1 0x24 PUSH1 0x0 REVERT JUMPDEST POP DIV SWAP1 JUMP JUMPDEST PUSH1 0x0 DUP2 PUSH1 0x0 NOT DIV DUP4 GT DUP3 ISZERO ISZERO AND ISZERO PUSH2 0x2482 JUMPI PUSH2 0x2482 PUSH2 0x249E JUMP JUMPDEST POP MUL SWAP1 JUMP JUMPDEST PUSH1 0x0 DUP3 DUP3 LT ISZERO PUSH2 0x2499 JUMPI PUSH2 0x2499 PUSH2 0x249E JUMP JUMPDEST POP SUB SWAP1 JUMP JUMPDEST PUSH4 0x4E487B71 PUSH1 0xE0 SHL PUSH1 0x0 MSTORE PUSH1 0x11 PUSH1 0x4 MSTORE PUSH1 0x24 PUSH1 0x0 REVERT JUMPDEST PUSH4 0x4E487B71 PUSH1 0xE0 SHL PUSH1 0x0 MSTORE PUSH1 0x41 PUSH1 0x4 MSTORE PUSH1 0x24 PUSH1 0x0 REVERT JUMPDEST PUSH1 0x1 PUSH1 0x1 PUSH1 0xA0 SHL SUB DUP2 AND DUP2 EQ PUSH2 0x1D58 JUMPI PUSH1 0x0 DUP1 REVERT INVALID LOG2 PUSH5 0x6970667358 0x22 SLT KECCAK256 0xAC MOD 0x2F 0xF9 COINBASE PUSH19 0x1C4D84B733C20AB7356623C749074A2C330B37 SSTORE PUSH4 0x8A5E4AA3 DELEGATECALL PUSH5 0x736F6C6343 STOP ADDMOD MOD STOP CALLER PUSH17 0x6172616D657465722063616E206E6F7420 PUSH3 0x65207A PUSH6 0x726F20616464 PUSH19 0x65730000000000000000000000000000000000 "
    },
    "gasEstimates": {
      "creation": {
        "codeDepositCost": "1898600",
        "executionCost": "infinite",
        "totalCost": "infinite"
      },
      "external": {
        "__StakingPoolProducer_init(address)": "24675",
        "__StakingPoolStaking_init()": "infinite",
        "__StakingPoolUser_init(uint256)": "22401",
        "amount()": "2362",
        "amountToShares(uint256)": "6886",
        "amounts()": "infinite",
        "cancelHire(address)": "infinite",
        "ctsi()": "infinite",
        "ens()": "infinite",
        "fee()": "2381",
        "getWithdrawBalance()": "infinite",
        "hire(address)": "infinite",
        "initialize(address,uint256)": "infinite",
        "owner()": "2399",
        "pause()": "29796",
        "paused()": "2339",
        "pos()": "infinite",
        "produceBlock(uint256)": "infinite",
        "rebalance()": "infinite",
        "renounceOwnership()": "28184",
        "requiredLiquidity()": "2361",
        "retire(address)": "infinite",
        "selfhire()": "infinite",
        "setName(string)": "infinite",
        "shares()": "2364",
        "sharesToAmount(uint256)": "6887",
        "stake(uint256)": "infinite",
        "transferOwnership(address)": "infinite",
        "unpause()": "29795",
        "unstake(uint256)": "infinite",
        "userBalance(address)": "6824",
        "withdraw()": "infinite"
      }
    },
    "methodIdentifiers": {
      "__StakingPoolProducer_init(address)": "f6efbd14",
      "__StakingPoolStaking_init()": "42429eef",
      "__StakingPoolUser_init(uint256)": "7172dea2",
      "amount()": "aa8c217c",
      "amountToShares(uint256)": "b811540e",
      "amounts()": "6beaeeae",
      "cancelHire(address)": "b64b3bed",
      "ctsi()": "64ffc3f4",
      "ens()": "3f15457f",
      "fee()": "ddca3f43",
      "getWithdrawBalance()": "710fe6f8",
      "hire(address)": "d9d6bd86",
      "initialize(address,uint256)": "cd6dc687",
      "owner()": "8da5cb5b",
      "pause()": "8456cb59",
      "paused()": "5c975abb",
      "pos()": "c56551b6",
      "produceBlock(uint256)": "a5a6cd0b",
      "rebalance()": "7d7c2a1c",
      "renounceOwnership()": "715018a6",
      "requiredLiquidity()": "e366b7bb",
      "retire(address)": "9e6371ba",
      "selfhire()": "6ff46a6c",
      "setName(string)": "c47f0027",
      "shares()": "03314efa",
      "sharesToAmount(uint256)": "555d8ebb",
      "stake(uint256)": "a694fc3a",
      "transferOwnership(address)": "f2fde38b",
      "unpause()": "3f4ba83a",
      "unstake(uint256)": "2e17de78",
      "userBalance(address)": "0103c92b",
      "withdraw()": "3ccfd60b"
    }
  },
  "storageLayout": {
    "storage": [
      {
        "astId": 770,
        "contract": "contracts/StakingPoolImpl.sol:StakingPoolImpl",
        "label": "_initialized",
        "offset": 0,
        "slot": "0",
        "type": "t_bool"
      },
      {
        "astId": 773,
        "contract": "contracts/StakingPoolImpl.sol:StakingPoolImpl",
        "label": "_initializing",
        "offset": 1,
        "slot": "0",
        "type": "t_bool"
      },
      {
        "astId": 965,
        "contract": "contracts/StakingPoolImpl.sol:StakingPoolImpl",
        "label": "__gap",
        "offset": 0,
        "slot": "1",
        "type": "t_array(t_uint256)50_storage"
      },
      {
        "astId": 831,
        "contract": "contracts/StakingPoolImpl.sol:StakingPoolImpl",
        "label": "_paused",
        "offset": 0,
        "slot": "51",
        "type": "t_bool"
      },
      {
        "astId": 922,
        "contract": "contracts/StakingPoolImpl.sol:StakingPoolImpl",
        "label": "__gap",
        "offset": 0,
        "slot": "52",
        "type": "t_array(t_uint256)49_storage"
      },
      {
        "astId": 650,
        "contract": "contracts/StakingPoolImpl.sol:StakingPoolImpl",
        "label": "_owner",
        "offset": 0,
        "slot": "101",
        "type": "t_address"
      },
      {
        "astId": 763,
        "contract": "contracts/StakingPoolImpl.sol:StakingPoolImpl",
        "label": "__gap",
        "offset": 0,
        "slot": "102",
        "type": "t_array(t_uint256)49_storage"
      },
      {
        "astId": 2387,
        "contract": "contracts/StakingPoolImpl.sol:StakingPoolImpl",
        "label": "shares",
        "offset": 0,
        "slot": "151",
        "type": "t_uint256"
      },
      {
        "astId": 2389,
        "contract": "contracts/StakingPoolImpl.sol:StakingPoolImpl",
        "label": "amount",
        "offset": 0,
        "slot": "152",
        "type": "t_uint256"
      },
      {
        "astId": 2391,
        "contract": "contracts/StakingPoolImpl.sol:StakingPoolImpl",
        "label": "requiredLiquidity",
        "offset": 0,
        "slot": "153",
        "type": "t_uint256"
      },
      {
        "astId": 2403,
        "contract": "contracts/StakingPoolImpl.sol:StakingPoolImpl",
        "label": "userBalance",
        "offset": 0,
        "slot": "154",
        "type": "t_mapping(t_address,t_struct(UserBalance)2398_storage)"
      },
      {
        "astId": 2956,
        "contract": "contracts/StakingPoolImpl.sol:StakingPoolImpl",
        "label": "fee",
        "offset": 0,
        "slot": "155",
        "type": "t_contract(Fee)3720"
      },
      {
        "astId": 3286,
        "contract": "contracts/StakingPoolImpl.sol:StakingPoolImpl",
        "label": "lockTime",
        "offset": 0,
        "slot": "156",
        "type": "t_uint256"
      }
    ],
    "types": {
      "t_address": {
        "encoding": "inplace",
        "label": "address",
        "numberOfBytes": "20"
      },
      "t_array(t_uint256)49_storage": {
        "base": "t_uint256",
        "encoding": "inplace",
        "label": "uint256[49]",
        "numberOfBytes": "1568"
      },
      "t_array(t_uint256)50_storage": {
        "base": "t_uint256",
        "encoding": "inplace",
        "label": "uint256[50]",
        "numberOfBytes": "1600"
      },
      "t_bool": {
        "encoding": "inplace",
        "label": "bool",
        "numberOfBytes": "1"
      },
      "t_contract(Fee)3720": {
        "encoding": "inplace",
        "label": "contract Fee",
        "numberOfBytes": "20"
      },
      "t_mapping(t_address,t_struct(UserBalance)2398_storage)": {
        "encoding": "mapping",
        "key": "t_address",
        "label": "mapping(address => struct StakingPoolData.UserBalance)",
        "numberOfBytes": "32",
        "value": "t_struct(UserBalance)2398_storage"
      },
      "t_struct(UserBalance)2398_storage": {
        "encoding": "inplace",
        "label": "struct StakingPoolData.UserBalance",
        "members": [
          {
            "astId": 2393,
            "contract": "contracts/StakingPoolImpl.sol:StakingPoolImpl",
            "label": "shares",
            "offset": 0,
            "slot": "0",
            "type": "t_uint256"
          },
          {
            "astId": 2395,
            "contract": "contracts/StakingPoolImpl.sol:StakingPoolImpl",
            "label": "released",
            "offset": 0,
            "slot": "1",
            "type": "t_uint256"
          },
          {
            "astId": 2397,
            "contract": "contracts/StakingPoolImpl.sol:StakingPoolImpl",
            "label": "unstakeTimestamp",
            "offset": 0,
            "slot": "2",
            "type": "t_uint256"
          }
        ],
        "numberOfBytes": "96"
      },
      "t_uint256": {
        "encoding": "inplace",
        "label": "uint256",
        "numberOfBytes": "32"
      }
    }
  },
  "userdoc": {
    "events": {
      "BlockProduced(uint256,uint256)": {
        "notice": "this event is emitted at every produceBlock call reward is the block reward commission is how much CTSI is directed to the pool owner"
      },
      "Stake(address,uint256,uint256,uint256)": {
        "notice": "Tokens were deposited, they count as shares immediatly"
      },
      "StakingPoolRenamed(string)": {
        "notice": "Event emmited when a pool is rename"
      },
      "Unstake(address,uint256,uint256)": {
        "notice": "Request to unstake tokens. Additional liquidity requested for the pool"
      },
      "Withdraw(address,uint256)": {
        "notice": "Withdraw performed by a user"
      }
    },
    "kind": "user",
    "methods": {
      "amounts()": {
        "notice": "provide information for offchain about the amount for each staking operation on the main Staking contract"
      },
      "cancelHire(address)": {
        "notice": "Called by the user to cancel a job offer"
      },
      "getWithdrawBalance()": {
        "notice": "Returns the amount of tokens that can be immediately withdrawn by the calling user"
      },
      "hire(address)": {
        "notice": "Asks the worker to work for the sender. Sender needs to pay something."
      },
      "pause()": {
        "notice": "pauses new staking on the pool"
      },
      "produceBlock(uint256)": {
        "notice": "routes produceBlock to POS contract and updates internal states of the pool"
      },
      "rebalance()": {
        "notice": "Move tokens from pool to staking or vice-versa, according to required liquidity. If the pool has more liquidity then necessary, it stakes tokens. If the pool has less liquidity then necessary, and has not started an unstake, it unstakes. If the pool has less liquity than necessary, and has started an unstake, it withdraws if possible."
      },
      "retire(address)": {
        "notice": "Called by the user to retire his worker."
      },
      "selfhire()": {
        "notice": "allows for the pool to act on its own behalf when producing blocks."
      },
      "setName(string)": {
        "notice": "sets a name for the pool using ENS service"
      },
      "stake(uint256)": {
        "notice": "Stake an amount of tokens, immediately earning pool shares in returns"
      },
      "unpause()": {
        "notice": "unpauses new staking on the pool"
      },
      "unstake(uint256)": {
        "notice": "allow for users to defined exactly how many shares they want to unstake. Estimated value is then emitted on Unstake event"
      },
      "withdraw()": {
        "notice": "Transfer tokens back to calling user wallet"
      }
    },
    "version": 1
  }
}