{
  "contractName": "StakingPoolProducerImpl",
  "sourceName": "contracts/StakingPoolProducerImpl.sol",
  "abi": [
    {
      "inputs": [
        {
          "internalType": "address",
          "name": "_ctsi",
          "type": "address"
        },
        {
          "internalType": "address",
          "name": "_pos",
          "type": "address"
        }
      ],
      "stateMutability": "nonpayable",
      "type": "constructor"
    },
    {
      "anonymous": false,
      "inputs": [
        {
          "indexed": false,
          "internalType": "uint256",
          "name": "reward",
          "type": "uint256"
        },
        {
          "indexed": false,
          "internalType": "uint256",
          "name": "commission",
          "type": "uint256"
        }
      ],
      "name": "BlockProduced",
      "type": "event"
    },
    {
      "anonymous": false,
      "inputs": [
        {
          "indexed": true,
          "internalType": "address",
          "name": "previousOwner",
          "type": "address"
        },
        {
          "indexed": true,
          "internalType": "address",
          "name": "newOwner",
          "type": "address"
        }
      ],
      "name": "OwnershipTransferred",
      "type": "event"
    },
    {
      "anonymous": false,
      "inputs": [
        {
          "indexed": false,
          "internalType": "address",
          "name": "account",
          "type": "address"
        }
      ],
      "name": "Paused",
      "type": "event"
    },
    {
      "anonymous": false,
      "inputs": [
        {
          "indexed": false,
          "internalType": "address",
          "name": "account",
          "type": "address"
        }
      ],
      "name": "Unpaused",
      "type": "event"
    },
    {
      "inputs": [
        {
          "internalType": "address",
          "name": "_fee",
          "type": "address"
        }
      ],
      "name": "__StakingPoolProducer_init",
      "outputs": [],
      "stateMutability": "nonpayable",
      "type": "function"
    },
    {
      "inputs": [],
      "name": "amount",
      "outputs": [
        {
          "internalType": "uint256",
          "name": "",
          "type": "uint256"
        }
      ],
      "stateMutability": "view",
      "type": "function"
    },
    {
      "inputs": [
        {
          "internalType": "uint256",
          "name": "_amount",
          "type": "uint256"
        }
      ],
      "name": "amountToShares",
      "outputs": [
        {
          "internalType": "uint256",
          "name": "",
          "type": "uint256"
        }
      ],
      "stateMutability": "view",
      "type": "function"
    },
    {
      "inputs": [],
      "name": "fee",
      "outputs": [
        {
          "internalType": "contract Fee",
          "name": "",
          "type": "address"
        }
      ],
      "stateMutability": "view",
      "type": "function"
    },
    {
      "inputs": [],
      "name": "owner",
      "outputs": [
        {
          "internalType": "address",
          "name": "",
          "type": "address"
        }
      ],
      "stateMutability": "view",
      "type": "function"
    },
    {
      "inputs": [],
      "name": "paused",
      "outputs": [
        {
          "internalType": "bool",
          "name": "",
          "type": "bool"
        }
      ],
      "stateMutability": "view",
      "type": "function"
    },
    {
      "inputs": [
        {
          "internalType": "uint256",
          "name": "_index",
          "type": "uint256"
        }
      ],
      "name": "produceBlock",
      "outputs": [
        {
          "internalType": "bool",
          "name": "",
          "type": "bool"
        }
      ],
      "stateMutability": "nonpayable",
      "type": "function"
    },
    {
      "inputs": [],
      "name": "renounceOwnership",
      "outputs": [],
      "stateMutability": "nonpayable",
      "type": "function"
    },
    {
      "inputs": [],
      "name": "requiredLiquidity",
      "outputs": [
        {
          "internalType": "uint256",
          "name": "",
          "type": "uint256"
        }
      ],
      "stateMutability": "view",
      "type": "function"
    },
    {
      "inputs": [],
      "name": "shares",
      "outputs": [
        {
          "internalType": "uint256",
          "name": "",
          "type": "uint256"
        }
      ],
      "stateMutability": "view",
      "type": "function"
    },
    {
      "inputs": [
        {
          "internalType": "uint256",
          "name": "_shares",
          "type": "uint256"
        }
      ],
      "name": "sharesToAmount",
      "outputs": [
        {
          "internalType": "uint256",
          "name": "",
          "type": "uint256"
        }
      ],
      "stateMutability": "view",
      "type": "function"
    },
    {
      "inputs": [
        {
          "internalType": "address",
          "name": "newOwner",
          "type": "address"
        }
      ],
      "name": "transferOwnership",
      "outputs": [],
      "stateMutability": "nonpayable",
      "type": "function"
    },
    {
      "inputs": [
        {
          "internalType": "address",
          "name": "",
          "type": "address"
        }
      ],
      "name": "userBalance",
      "outputs": [
        {
          "internalType": "uint256",
          "name": "shares",
          "type": "uint256"
        },
        {
          "internalType": "uint256",
          "name": "released",
          "type": "uint256"
        },
        {
          "internalType": "uint256",
          "name": "unstakeTimestamp",
          "type": "uint256"
        }
      ],
      "stateMutability": "view",
      "type": "function"
    }
  ],
  "bytecode": "0x60c060405234801561001057600080fd5b50604051610a79380380610a7983398101604081905261002f91610069565b6001600160601b0319606092831b8116608052911b1660a05261009c565b80516001600160a01b038116811461006457600080fd5b919050565b6000806040838503121561007c57600080fd5b6100858361004d565b91506100936020840161004d565b90509250929050565b60805160601c60a05160601c6109ab6100ce600039600081816102e001526103e80152600061057301526109ab6000f3fe608060405234801561001057600080fd5b50600436106100cf5760003560e01c8063a5a6cd0b1161008c578063ddca3f4311610066578063ddca3f43146101c2578063e366b7bb146101d5578063f2fde38b146101de578063f6efbd14146101f157600080fd5b8063a5a6cd0b14610193578063aa8c217c146101a6578063b811540e146101af57600080fd5b80630103c92b146100d457806303314efa14610123578063555d8ebb1461013a5780635c975abb1461014d578063715018a6146101645780638da5cb5b1461016e575b600080fd5b6101036100e2366004610845565b609a6020526000908152604090208054600182015460029092015490919083565b604080519384526020840192909252908201526060015b60405180910390f35b61012c60975481565b60405190815260200161011a565b61012c6101483660046108a8565b610221565b60335460ff165b604051901515815260200161011a565b61016c610252565b005b6065546001600160a01b03165b6040516001600160a01b03909116815260200161011a565b6101546101a13660046108a8565b6102bd565b61012c60985481565b61012c6101bd3660046108a8565b610707565b609b5461017b906001600160a01b031681565b61012c60995481565b61016c6101ec366004610845565b610728565b61016c6101ff366004610845565b609b80546001600160a01b0319166001600160a01b0392909216919091179055565b600060975460001415610232575090565b6097546098546102429084610914565b61024c91906108f2565b92915050565b6065546001600160a01b031633146102b15760405162461bcd60e51b815260206004820181905260248201527f4f776e61626c653a2063616c6c6572206973206e6f7420746865206f776e657260448201526064015b60405180910390fd5b6102bb60006107f3565b565b6040516385425f4f60e01b81526004810182905260009081906001600160a01b037f000000000000000000000000000000000000000000000000000000000000000016906385425f4f9060240160206040518083038186803b15801561032257600080fd5b505afa158015610336573d6000803e3d6000fd5b505050506040513d601f19601f8201168201806040525081019061035a9190610869565b90506000816001600160a01b0316638aec85426040518163ffffffff1660e01b815260040160206040518083038186803b15801561039757600080fd5b505afa1580156103ab573d6000803e3d6000fd5b505050506040513d601f19601f820116820180604052508101906103cf91906108c1565b60405163a5a6cd0b60e01b8152600481018690529091507f00000000000000000000000000000000000000000000000000000000000000006001600160a01b03169063a5a6cd0b90602401602060405180830381600087803b15801561043457600080fd5b505af1158015610448573d6000803e3d6000fd5b505050506040513d601f19601f8201168201806040525081019061046c9190610886565b50609b54604051632c7f22b560e21b815260048101869052602481018390526000916001600160a01b03169063b1fc8ad49060440160206040518083038186803b1580156104b957600080fd5b505afa1580156104cd573d6000803e3d6000fd5b505050506040513d601f19601f820116820180604052508101906104f191906108c1565b90508181111561056b576040805162461bcd60e51b81526020600482015260248101919091527f5374616b696e67506f6f6c50726f6475636572496d706c3a20636f6d6d69737360448201527f696f6e2069732067726561746572207468616e20626c6f636b2072657761726460648201526084016102a8565b801561069d577f00000000000000000000000000000000000000000000000000000000000000006001600160a01b031663a9059cbb6105b26065546001600160a01b031690565b6040516001600160e01b031960e084901b1681526001600160a01b03909116600482015260248101849052604401602060405180830381600087803b1580156105fa57600080fd5b505af115801561060e573d6000803e3d6000fd5b505050506040513d601f19601f820116820180604052508101906106329190610886565b61069d5760405162461bcd60e51b815260206004820152603660248201527f5374616b696e67506f6f6c50726f6475636572496d706c3a206661696c6564206044820152753a37903a3930b739b332b91031b7b6b6b4b9b9b4b7b760511b60648201526084016102a8565b60006106a98284610933565b905080609860008282546106bd91906108da565b909155505060408051848152602081018490527fbb9ac692e0e3001a628f86a894f03da4ced5df81886fec577036664ed70a59cb910160405180910390a150600195945050505050565b600060985460001415610718575090565b6098546097546102429084610914565b6065546001600160a01b031633146107825760405162461bcd60e51b815260206004820181905260248201527f4f776e61626c653a2063616c6c6572206973206e6f7420746865206f776e657260448201526064016102a8565b6001600160a01b0381166107e75760405162461bcd60e51b815260206004820152602660248201527f4f776e61626c653a206e6577206f776e657220697320746865207a65726f206160448201526564647265737360d01b60648201526084016102a8565b6107f0816107f3565b50565b606580546001600160a01b038381166001600160a01b0319831681179093556040519116919082907f8be0079c531659141344cd1fd0a4f28419497f9722a3daafe3b4186f6b6457e090600090a35050565b60006020828403121561085757600080fd5b813561086281610960565b9392505050565b60006020828403121561087b57600080fd5b815161086281610960565b60006020828403121561089857600080fd5b8151801515811461086257600080fd5b6000602082840312156108ba57600080fd5b5035919050565b6000602082840312156108d357600080fd5b5051919050565b600082198211156108ed576108ed61094a565b500190565b60008261090f57634e487b7160e01b600052601260045260246000fd5b500490565b600081600019048311821515161561092e5761092e61094a565b500290565b6000828210156109455761094561094a565b500390565b634e487b7160e01b600052601160045260246000fd5b6001600160a01b03811681146107f057600080fdfea264697066735822122039489a5d086d231bd080a82e7c38b42b4cd85a0e07f4056b570b223b46cca9da64736f6c63430008060033",
  "linkReferences": {},
  "deployedLinkReferences": {},
  "devdoc": {
    "kind": "dev",
    "methods": {
      "owner()": {
        "details": "Returns the address of the current owner."
      },
      "paused()": {
        "details": "Returns true if the contract is paused, and false otherwise."
      },
      "produceBlock(uint256)": {
        "returns": {
          "_0": "true when everything went fine"
        }
      },
      "renounceOwnership()": {
        "details": "Leaves the contract without owner. It will not be possible to call `onlyOwner` functions anymore. Can only be called by the current owner. NOTE: Renouncing ownership will leave the contract without an owner, thereby removing any functionality that is only available to the owner."
      },
      "transferOwnership(address)": {
        "details": "Transfers ownership of the contract to a new account (`newOwner`). Can only be called by the current owner."
      }
    },
    "version": 1
  },
  "evm": {
    "bytecode": {
      "linkReferences": {},
      "opcodes": "PUSH1 0xC0 PUSH1 0x40 MSTORE CALLVALUE DUP1 ISZERO PUSH2 0x10 JUMPI PUSH1 0x0 DUP1 REVERT JUMPDEST POP PUSH1 0x40 MLOAD PUSH2 0xA79 CODESIZE SUB DUP1 PUSH2 0xA79 DUP4 CODECOPY DUP2 ADD PUSH1 0x40 DUP2 SWAP1 MSTORE PUSH2 0x2F SWAP2 PUSH2 0x69 JUMP JUMPDEST PUSH1 0x1 PUSH1 0x1 PUSH1 0x60 SHL SUB NOT PUSH1 0x60 SWAP3 DUP4 SHL DUP2 AND PUSH1 0x80 MSTORE SWAP2 SHL AND PUSH1 0xA0 MSTORE PUSH2 0x9C JUMP JUMPDEST DUP1 MLOAD PUSH1 0x1 PUSH1 0x1 PUSH1 0xA0 SHL SUB DUP2 AND DUP2 EQ PUSH2 0x64 JUMPI PUSH1 0x0 DUP1 REVERT JUMPDEST SWAP2 SWAP1 POP JUMP JUMPDEST PUSH1 0x0 DUP1 PUSH1 0x40 DUP4 DUP6 SUB SLT ISZERO PUSH2 0x7C JUMPI PUSH1 0x0 DUP1 REVERT JUMPDEST PUSH2 0x85 DUP4 PUSH2 0x4D JUMP JUMPDEST SWAP2 POP PUSH2 0x93 PUSH1 0x20 DUP5 ADD PUSH2 0x4D JUMP JUMPDEST SWAP1 POP SWAP3 POP SWAP3 SWAP1 POP JUMP JUMPDEST PUSH1 0x80 MLOAD PUSH1 0x60 SHR PUSH1 0xA0 MLOAD PUSH1 0x60 SHR PUSH2 0x9AB PUSH2 0xCE PUSH1 0x0 CODECOPY PUSH1 0x0 DUP2 DUP2 PUSH2 0x2E0 ADD MSTORE PUSH2 0x3E8 ADD MSTORE PUSH1 0x0 PUSH2 0x573 ADD MSTORE PUSH2 0x9AB PUSH1 0x0 RETURN INVALID PUSH1 0x80 PUSH1 0x40 MSTORE CALLVALUE DUP1 ISZERO PUSH2 0x10 JUMPI PUSH1 0x0 DUP1 REVERT JUMPDEST POP PUSH1 0x4 CALLDATASIZE LT PUSH2 0xCF JUMPI PUSH1 0x0 CALLDATALOAD PUSH1 0xE0 SHR DUP1 PUSH4 0xA5A6CD0B GT PUSH2 0x8C JUMPI DUP1 PUSH4 0xDDCA3F43 GT PUSH2 0x66 JUMPI DUP1 PUSH4 0xDDCA3F43 EQ PUSH2 0x1C2 JUMPI DUP1 PUSH4 0xE366B7BB EQ PUSH2 0x1D5 JUMPI DUP1 PUSH4 0xF2FDE38B EQ PUSH2 0x1DE JUMPI DUP1 PUSH4 0xF6EFBD14 EQ PUSH2 0x1F1 JUMPI PUSH1 0x0 DUP1 REVERT JUMPDEST DUP1 PUSH4 0xA5A6CD0B EQ PUSH2 0x193 JUMPI DUP1 PUSH4 0xAA8C217C EQ PUSH2 0x1A6 JUMPI DUP1 PUSH4 0xB811540E EQ PUSH2 0x1AF JUMPI PUSH1 0x0 DUP1 REVERT JUMPDEST DUP1 PUSH4 0x103C92B EQ PUSH2 0xD4 JUMPI DUP1 PUSH4 0x3314EFA EQ PUSH2 0x123 JUMPI DUP1 PUSH4 0x555D8EBB EQ PUSH2 0x13A JUMPI DUP1 PUSH4 0x5C975ABB EQ PUSH2 0x14D JUMPI DUP1 PUSH4 0x715018A6 EQ PUSH2 0x164 JUMPI DUP1 PUSH4 0x8DA5CB5B EQ PUSH2 0x16E JUMPI JUMPDEST PUSH1 0x0 DUP1 REVERT JUMPDEST PUSH2 0x103 PUSH2 0xE2 CALLDATASIZE PUSH1 0x4 PUSH2 0x845 JUMP JUMPDEST PUSH1 0x9A PUSH1 0x20 MSTORE PUSH1 0x0 SWAP1 DUP2 MSTORE PUSH1 0x40 SWAP1 KECCAK256 DUP1 SLOAD PUSH1 0x1 DUP3 ADD SLOAD PUSH1 0x2 SWAP1 SWAP3 ADD SLOAD SWAP1 SWAP2 SWAP1 DUP4 JUMP JUMPDEST PUSH1 0x40 DUP1 MLOAD SWAP4 DUP5 MSTORE PUSH1 0x20 DUP5 ADD SWAP3 SWAP1 SWAP3 MSTORE SWAP1 DUP3 ADD MSTORE PUSH1 0x60 ADD JUMPDEST PUSH1 0x40 MLOAD DUP1 SWAP2 SUB SWAP1 RETURN JUMPDEST PUSH2 0x12C PUSH1 0x97 SLOAD DUP2 JUMP JUMPDEST PUSH1 0x40 MLOAD SWAP1 DUP2 MSTORE PUSH1 0x20 ADD PUSH2 0x11A JUMP JUMPDEST PUSH2 0x12C PUSH2 0x148 CALLDATASIZE PUSH1 0x4 PUSH2 0x8A8 JUMP JUMPDEST PUSH2 0x221 JUMP JUMPDEST PUSH1 0x33 SLOAD PUSH1 0xFF AND JUMPDEST PUSH1 0x40 MLOAD SWAP1 ISZERO ISZERO DUP2 MSTORE PUSH1 0x20 ADD PUSH2 0x11A JUMP JUMPDEST PUSH2 0x16C PUSH2 0x252 JUMP JUMPDEST STOP JUMPDEST PUSH1 0x65 SLOAD PUSH1 0x1 PUSH1 0x1 PUSH1 0xA0 SHL SUB AND JUMPDEST PUSH1 0x40 MLOAD PUSH1 0x1 PUSH1 0x1 PUSH1 0xA0 SHL SUB SWAP1 SWAP2 AND DUP2 MSTORE PUSH1 0x20 ADD PUSH2 0x11A JUMP JUMPDEST PUSH2 0x154 PUSH2 0x1A1 CALLDATASIZE PUSH1 0x4 PUSH2 0x8A8 JUMP JUMPDEST PUSH2 0x2BD JUMP JUMPDEST PUSH2 0x12C PUSH1 0x98 SLOAD DUP2 JUMP JUMPDEST PUSH2 0x12C PUSH2 0x1BD CALLDATASIZE PUSH1 0x4 PUSH2 0x8A8 JUMP JUMPDEST PUSH2 0x707 JUMP JUMPDEST PUSH1 0x9B SLOAD PUSH2 0x17B SWAP1 PUSH1 0x1 PUSH1 0x1 PUSH1 0xA0 SHL SUB AND DUP2 JUMP JUMPDEST PUSH2 0x12C PUSH1 0x99 SLOAD DUP2 JUMP JUMPDEST PUSH2 0x16C PUSH2 0x1EC CALLDATASIZE PUSH1 0x4 PUSH2 0x845 JUMP JUMPDEST PUSH2 0x728 JUMP JUMPDEST PUSH2 0x16C PUSH2 0x1FF CALLDATASIZE PUSH1 0x4 PUSH2 0x845 JUMP JUMPDEST PUSH1 0x9B DUP1 SLOAD PUSH1 0x1 PUSH1 0x1 PUSH1 0xA0 SHL SUB NOT AND PUSH1 0x1 PUSH1 0x1 PUSH1 0xA0 SHL SUB SWAP3 SWAP1 SWAP3 AND SWAP2 SWAP1 SWAP2 OR SWAP1 SSTORE JUMP JUMPDEST PUSH1 0x0 PUSH1 0x97 SLOAD PUSH1 0x0 EQ ISZERO PUSH2 0x232 JUMPI POP SWAP1 JUMP JUMPDEST PUSH1 0x97 SLOAD PUSH1 0x98 SLOAD PUSH2 0x242 SWAP1 DUP5 PUSH2 0x914 JUMP JUMPDEST PUSH2 0x24C SWAP2 SWAP1 PUSH2 0x8F2 JUMP JUMPDEST SWAP3 SWAP2 POP POP JUMP JUMPDEST PUSH1 0x65 SLOAD PUSH1 0x1 PUSH1 0x1 PUSH1 0xA0 SHL SUB AND CALLER EQ PUSH2 0x2B1 JUMPI PUSH1 0x40 MLOAD PUSH3 0x461BCD PUSH1 0xE5 SHL DUP2 MSTORE PUSH1 0x20 PUSH1 0x4 DUP3 ADD DUP2 SWAP1 MSTORE PUSH1 0x24 DUP3 ADD MSTORE PUSH32 0x4F776E61626C653A2063616C6C6572206973206E6F7420746865206F776E6572 PUSH1 0x44 DUP3 ADD MSTORE PUSH1 0x64 ADD JUMPDEST PUSH1 0x40 MLOAD DUP1 SWAP2 SUB SWAP1 REVERT JUMPDEST PUSH2 0x2BB PUSH1 0x0 PUSH2 0x7F3 JUMP JUMPDEST JUMP JUMPDEST PUSH1 0x40 MLOAD PUSH4 0x85425F4F PUSH1 0xE0 SHL DUP2 MSTORE PUSH1 0x4 DUP2 ADD DUP3 SWAP1 MSTORE PUSH1 0x0 SWAP1 DUP2 SWAP1 PUSH1 0x1 PUSH1 0x1 PUSH1 0xA0 SHL SUB PUSH32 0x0 AND SWAP1 PUSH4 0x85425F4F SWAP1 PUSH1 0x24 ADD PUSH1 0x20 PUSH1 0x40 MLOAD DUP1 DUP4 SUB DUP2 DUP7 DUP1 EXTCODESIZE ISZERO DUP1 ISZERO PUSH2 0x322 JUMPI PUSH1 0x0 DUP1 REVERT JUMPDEST POP GAS STATICCALL ISZERO DUP1 ISZERO PUSH2 0x336 JUMPI RETURNDATASIZE PUSH1 0x0 DUP1 RETURNDATACOPY RETURNDATASIZE PUSH1 0x0 REVERT JUMPDEST POP POP POP POP PUSH1 0x40 MLOAD RETURNDATASIZE PUSH1 0x1F NOT PUSH1 0x1F DUP3 ADD AND DUP3 ADD DUP1 PUSH1 0x40 MSTORE POP DUP2 ADD SWAP1 PUSH2 0x35A SWAP2 SWAP1 PUSH2 0x869 JUMP JUMPDEST SWAP1 POP PUSH1 0x0 DUP2 PUSH1 0x1 PUSH1 0x1 PUSH1 0xA0 SHL SUB AND PUSH4 0x8AEC8542 PUSH1 0x40 MLOAD DUP2 PUSH4 0xFFFFFFFF AND PUSH1 0xE0 SHL DUP2 MSTORE PUSH1 0x4 ADD PUSH1 0x20 PUSH1 0x40 MLOAD DUP1 DUP4 SUB DUP2 DUP7 DUP1 EXTCODESIZE ISZERO DUP1 ISZERO PUSH2 0x397 JUMPI PUSH1 0x0 DUP1 REVERT JUMPDEST POP GAS STATICCALL ISZERO DUP1 ISZERO PUSH2 0x3AB JUMPI RETURNDATASIZE PUSH1 0x0 DUP1 RETURNDATACOPY RETURNDATASIZE PUSH1 0x0 REVERT JUMPDEST POP POP POP POP PUSH1 0x40 MLOAD RETURNDATASIZE PUSH1 0x1F NOT PUSH1 0x1F DUP3 ADD AND DUP3 ADD DUP1 PUSH1 0x40 MSTORE POP DUP2 ADD SWAP1 PUSH2 0x3CF SWAP2 SWAP1 PUSH2 0x8C1 JUMP JUMPDEST PUSH1 0x40 MLOAD PUSH4 0xA5A6CD0B PUSH1 0xE0 SHL DUP2 MSTORE PUSH1 0x4 DUP2 ADD DUP7 SWAP1 MSTORE SWAP1 SWAP2 POP PUSH32 0x0 PUSH1 0x1 PUSH1 0x1 PUSH1 0xA0 SHL SUB AND SWAP1 PUSH4 0xA5A6CD0B SWAP1 PUSH1 0x24 ADD PUSH1 0x20 PUSH1 0x40 MLOAD DUP1 DUP4 SUB DUP2 PUSH1 0x0 DUP8 DUP1 EXTCODESIZE ISZERO DUP1 ISZERO PUSH2 0x434 JUMPI PUSH1 0x0 DUP1 REVERT JUMPDEST POP GAS CALL ISZERO DUP1 ISZERO PUSH2 0x448 JUMPI RETURNDATASIZE PUSH1 0x0 DUP1 RETURNDATACOPY RETURNDATASIZE PUSH1 0x0 REVERT JUMPDEST POP POP POP POP PUSH1 0x40 MLOAD RETURNDATASIZE PUSH1 0x1F NOT PUSH1 0x1F DUP3 ADD AND DUP3 ADD DUP1 PUSH1 0x40 MSTORE POP DUP2 ADD SWAP1 PUSH2 0x46C SWAP2 SWAP1 PUSH2 0x886 JUMP JUMPDEST POP PUSH1 0x9B SLOAD PUSH1 0x40 MLOAD PUSH4 0x2C7F22B5 PUSH1 0xE2 SHL DUP2 MSTORE PUSH1 0x4 DUP2 ADD DUP7 SWAP1 MSTORE PUSH1 0x24 DUP2 ADD DUP4 SWAP1 MSTORE PUSH1 0x0 SWAP2 PUSH1 0x1 PUSH1 0x1 PUSH1 0xA0 SHL SUB AND SWAP1 PUSH4 0xB1FC8AD4 SWAP1 PUSH1 0x44 ADD PUSH1 0x20 PUSH1 0x40 MLOAD DUP1 DUP4 SUB DUP2 DUP7 DUP1 EXTCODESIZE ISZERO DUP1 ISZERO PUSH2 0x4B9 JUMPI PUSH1 0x0 DUP1 REVERT JUMPDEST POP GAS STATICCALL ISZERO DUP1 ISZERO PUSH2 0x4CD JUMPI RETURNDATASIZE PUSH1 0x0 DUP1 RETURNDATACOPY RETURNDATASIZE PUSH1 0x0 REVERT JUMPDEST POP POP POP POP PUSH1 0x40 MLOAD RETURNDATASIZE PUSH1 0x1F NOT PUSH1 0x1F DUP3 ADD AND DUP3 ADD DUP1 PUSH1 0x40 MSTORE POP DUP2 ADD SWAP1 PUSH2 0x4F1 SWAP2 SWAP1 PUSH2 0x8C1 JUMP JUMPDEST SWAP1 POP DUP2 DUP2 GT ISZERO PUSH2 0x56B JUMPI PUSH1 0x40 DUP1 MLOAD PUSH3 0x461BCD PUSH1 0xE5 SHL DUP2 MSTORE PUSH1 0x20 PUSH1 0x4 DUP3 ADD MSTORE PUSH1 0x24 DUP2 ADD SWAP2 SWAP1 SWAP2 MSTORE PUSH32 0x5374616B696E67506F6F6C50726F6475636572496D706C3A20636F6D6D697373 PUSH1 0x44 DUP3 ADD MSTORE PUSH32 0x696F6E2069732067726561746572207468616E20626C6F636B20726577617264 PUSH1 0x64 DUP3 ADD MSTORE PUSH1 0x84 ADD PUSH2 0x2A8 JUMP JUMPDEST DUP1 ISZERO PUSH2 0x69D JUMPI PUSH32 0x0 PUSH1 0x1 PUSH1 0x1 PUSH1 0xA0 SHL SUB AND PUSH4 0xA9059CBB PUSH2 0x5B2 PUSH1 0x65 SLOAD PUSH1 0x1 PUSH1 0x1 PUSH1 0xA0 SHL SUB AND SWAP1 JUMP JUMPDEST PUSH1 0x40 MLOAD PUSH1 0x1 PUSH1 0x1 PUSH1 0xE0 SHL SUB NOT PUSH1 0xE0 DUP5 SWAP1 SHL AND DUP2 MSTORE PUSH1 0x1 PUSH1 0x1 PUSH1 0xA0 SHL SUB SWAP1 SWAP2 AND PUSH1 0x4 DUP3 ADD MSTORE PUSH1 0x24 DUP2 ADD DUP5 SWAP1 MSTORE PUSH1 0x44 ADD PUSH1 0x20 PUSH1 0x40 MLOAD DUP1 DUP4 SUB DUP2 PUSH1 0x0 DUP8 DUP1 EXTCODESIZE ISZERO DUP1 ISZERO PUSH2 0x5FA JUMPI PUSH1 0x0 DUP1 REVERT JUMPDEST POP GAS CALL ISZERO DUP1 ISZERO PUSH2 0x60E JUMPI RETURNDATASIZE PUSH1 0x0 DUP1 RETURNDATACOPY RETURNDATASIZE PUSH1 0x0 REVERT JUMPDEST POP POP POP POP PUSH1 0x40 MLOAD RETURNDATASIZE PUSH1 0x1F NOT PUSH1 0x1F DUP3 ADD AND DUP3 ADD DUP1 PUSH1 0x40 MSTORE POP DUP2 ADD SWAP1 PUSH2 0x632 SWAP2 SWAP1 PUSH2 0x886 JUMP JUMPDEST PUSH2 0x69D JUMPI PUSH1 0x40 MLOAD PUSH3 0x461BCD PUSH1 0xE5 SHL DUP2 MSTORE PUSH1 0x20 PUSH1 0x4 DUP3 ADD MSTORE PUSH1 0x36 PUSH1 0x24 DUP3 ADD MSTORE PUSH32 0x5374616B696E67506F6F6C50726F6475636572496D706C3A206661696C656420 PUSH1 0x44 DUP3 ADD MSTORE PUSH22 0x3A37903A3930B739B332B91031B7B6B6B4B9B9B4B7B7 PUSH1 0x51 SHL PUSH1 0x64 DUP3 ADD MSTORE PUSH1 0x84 ADD PUSH2 0x2A8 JUMP JUMPDEST PUSH1 0x0 PUSH2 0x6A9 DUP3 DUP5 PUSH2 0x933 JUMP JUMPDEST SWAP1 POP DUP1 PUSH1 0x98 PUSH1 0x0 DUP3 DUP3 SLOAD PUSH2 0x6BD SWAP2 SWAP1 PUSH2 0x8DA JUMP JUMPDEST SWAP1 SWAP2 SSTORE POP POP PUSH1 0x40 DUP1 MLOAD DUP5 DUP2 MSTORE PUSH1 0x20 DUP2 ADD DUP5 SWAP1 MSTORE PUSH32 0xBB9AC692E0E3001A628F86A894F03DA4CED5DF81886FEC577036664ED70A59CB SWAP2 ADD PUSH1 0x40 MLOAD DUP1 SWAP2 SUB SWAP1 LOG1 POP PUSH1 0x1 SWAP6 SWAP5 POP POP POP POP POP JUMP JUMPDEST PUSH1 0x0 PUSH1 0x98 SLOAD PUSH1 0x0 EQ ISZERO PUSH2 0x718 JUMPI POP SWAP1 JUMP JUMPDEST PUSH1 0x98 SLOAD PUSH1 0x97 SLOAD PUSH2 0x242 SWAP1 DUP5 PUSH2 0x914 JUMP JUMPDEST PUSH1 0x65 SLOAD PUSH1 0x1 PUSH1 0x1 PUSH1 0xA0 SHL SUB AND CALLER EQ PUSH2 0x782 JUMPI PUSH1 0x40 MLOAD PUSH3 0x461BCD PUSH1 0xE5 SHL DUP2 MSTORE PUSH1 0x20 PUSH1 0x4 DUP3 ADD DUP2 SWAP1 MSTORE PUSH1 0x24 DUP3 ADD MSTORE PUSH32 0x4F776E61626C653A2063616C6C6572206973206E6F7420746865206F776E6572 PUSH1 0x44 DUP3 ADD MSTORE PUSH1 0x64 ADD PUSH2 0x2A8 JUMP JUMPDEST PUSH1 0x1 PUSH1 0x1 PUSH1 0xA0 SHL SUB DUP2 AND PUSH2 0x7E7 JUMPI PUSH1 0x40 MLOAD PUSH3 0x461BCD PUSH1 0xE5 SHL DUP2 MSTORE PUSH1 0x20 PUSH1 0x4 DUP3 ADD MSTORE PUSH1 0x26 PUSH1 0x24 DUP3 ADD MSTORE PUSH32 0x4F776E61626C653A206E6577206F776E657220697320746865207A65726F2061 PUSH1 0x44 DUP3 ADD MSTORE PUSH6 0x646472657373 PUSH1 0xD0 SHL PUSH1 0x64 DUP3 ADD MSTORE PUSH1 0x84 ADD PUSH2 0x2A8 JUMP JUMPDEST PUSH2 0x7F0 DUP2 PUSH2 0x7F3 JUMP JUMPDEST POP JUMP JUMPDEST PUSH1 0x65 DUP1 SLOAD PUSH1 0x1 PUSH1 0x1 PUSH1 0xA0 SHL SUB DUP4 DUP2 AND PUSH1 0x1 PUSH1 0x1 PUSH1 0xA0 SHL SUB NOT DUP4 AND DUP2 OR SWAP1 SWAP4 SSTORE PUSH1 0x40 MLOAD SWAP2 AND SWAP2 SWAP1 DUP3 SWAP1 PUSH32 0x8BE0079C531659141344CD1FD0A4F28419497F9722A3DAAFE3B4186F6B6457E0 SWAP1 PUSH1 0x0 SWAP1 LOG3 POP POP JUMP JUMPDEST PUSH1 0x0 PUSH1 0x20 DUP3 DUP5 SUB SLT ISZERO PUSH2 0x857 JUMPI PUSH1 0x0 DUP1 REVERT JUMPDEST DUP2 CALLDATALOAD PUSH2 0x862 DUP2 PUSH2 0x960 JUMP JUMPDEST SWAP4 SWAP3 POP POP POP JUMP JUMPDEST PUSH1 0x0 PUSH1 0x20 DUP3 DUP5 SUB SLT ISZERO PUSH2 0x87B JUMPI PUSH1 0x0 DUP1 REVERT JUMPDEST DUP2 MLOAD PUSH2 0x862 DUP2 PUSH2 0x960 JUMP JUMPDEST PUSH1 0x0 PUSH1 0x20 DUP3 DUP5 SUB SLT ISZERO PUSH2 0x898 JUMPI PUSH1 0x0 DUP1 REVERT JUMPDEST DUP2 MLOAD DUP1 ISZERO ISZERO DUP2 EQ PUSH2 0x862 JUMPI PUSH1 0x0 DUP1 REVERT JUMPDEST PUSH1 0x0 PUSH1 0x20 DUP3 DUP5 SUB SLT ISZERO PUSH2 0x8BA JUMPI PUSH1 0x0 DUP1 REVERT JUMPDEST POP CALLDATALOAD SWAP2 SWAP1 POP JUMP JUMPDEST PUSH1 0x0 PUSH1 0x20 DUP3 DUP5 SUB SLT ISZERO PUSH2 0x8D3 JUMPI PUSH1 0x0 DUP1 REVERT JUMPDEST POP MLOAD SWAP2 SWAP1 POP JUMP JUMPDEST PUSH1 0x0 DUP3 NOT DUP3 GT ISZERO PUSH2 0x8ED JUMPI PUSH2 0x8ED PUSH2 0x94A JUMP JUMPDEST POP ADD SWAP1 JUMP JUMPDEST PUSH1 0x0 DUP3 PUSH2 0x90F JUMPI PUSH4 0x4E487B71 PUSH1 0xE0 SHL PUSH1 0x0 MSTORE PUSH1 0x12 PUSH1 0x4 MSTORE PUSH1 0x24 PUSH1 0x0 REVERT JUMPDEST POP DIV SWAP1 JUMP JUMPDEST PUSH1 0x0 DUP2 PUSH1 0x0 NOT DIV DUP4 GT DUP3 ISZERO ISZERO AND ISZERO PUSH2 0x92E JUMPI PUSH2 0x92E PUSH2 0x94A JUMP JUMPDEST POP MUL SWAP1 JUMP JUMPDEST PUSH1 0x0 DUP3 DUP3 LT ISZERO PUSH2 0x945 JUMPI PUSH2 0x945 PUSH2 0x94A JUMP JUMPDEST POP SUB SWAP1 JUMP JUMPDEST PUSH4 0x4E487B71 PUSH1 0xE0 SHL PUSH1 0x0 MSTORE PUSH1 0x11 PUSH1 0x4 MSTORE PUSH1 0x24 PUSH1 0x0 REVERT JUMPDEST PUSH1 0x1 PUSH1 0x1 PUSH1 0xA0 SHL SUB DUP2 AND DUP2 EQ PUSH2 0x7F0 JUMPI PUSH1 0x0 DUP1 REVERT INVALID LOG2 PUSH5 0x6970667358 0x22 SLT KECCAK256 CODECOPY 0x48 SWAP11 0x5D ADDMOD PUSH14 0x231BD080A82E7C38B42B4CD85A0E SMOD DELEGATECALL SDIV PUSH12 0x570B223B46CCA9DA64736F6C PUSH4 0x43000806 STOP CALLER "
    },
    "gasEstimates": {
      "creation": {
        "codeDepositCost": "495000",
        "executionCost": "infinite",
        "totalCost": "infinite"
      },
      "external": {
        "__StakingPoolProducer_init(address)": "24641",
        "amount()": "2340",
        "amountToShares(uint256)": "6842",
        "fee()": "2359",
        "owner()": "2431",
        "paused()": "2360",
        "produceBlock(uint256)": "infinite",
        "renounceOwnership()": "28206",
        "requiredLiquidity()": "2339",
        "shares()": "2318",
        "sharesToAmount(uint256)": "6820",
        "transferOwnership(address)": "infinite",
        "userBalance(address)": "6778"
      }
    },
    "methodIdentifiers": {
      "__StakingPoolProducer_init(address)": "f6efbd14",
      "amount()": "aa8c217c",
      "amountToShares(uint256)": "b811540e",
      "fee()": "ddca3f43",
      "owner()": "8da5cb5b",
      "paused()": "5c975abb",
      "produceBlock(uint256)": "a5a6cd0b",
      "renounceOwnership()": "715018a6",
      "requiredLiquidity()": "e366b7bb",
      "shares()": "03314efa",
      "sharesToAmount(uint256)": "555d8ebb",
      "transferOwnership(address)": "f2fde38b",
      "userBalance(address)": "0103c92b"
    }
  },
  "storageLayout": {
    "storage": [
      {
        "astId": 770,
        "contract": "contracts/StakingPoolProducerImpl.sol:StakingPoolProducerImpl",
        "label": "_initialized",
        "offset": 0,
        "slot": "0",
        "type": "t_bool"
      },
      {
        "astId": 773,
        "contract": "contracts/StakingPoolProducerImpl.sol:StakingPoolProducerImpl",
        "label": "_initializing",
        "offset": 1,
        "slot": "0",
        "type": "t_bool"
      },
      {
        "astId": 965,
        "contract": "contracts/StakingPoolProducerImpl.sol:StakingPoolProducerImpl",
        "label": "__gap",
        "offset": 0,
        "slot": "1",
        "type": "t_array(t_uint256)50_storage"
      },
      {
        "astId": 831,
        "contract": "contracts/StakingPoolProducerImpl.sol:StakingPoolProducerImpl",
        "label": "_paused",
        "offset": 0,
        "slot": "51",
        "type": "t_bool"
      },
      {
        "astId": 922,
        "contract": "contracts/StakingPoolProducerImpl.sol:StakingPoolProducerImpl",
        "label": "__gap",
        "offset": 0,
        "slot": "52",
        "type": "t_array(t_uint256)49_storage"
      },
      {
        "astId": 650,
        "contract": "contracts/StakingPoolProducerImpl.sol:StakingPoolProducerImpl",
        "label": "_owner",
        "offset": 0,
        "slot": "101",
        "type": "t_address"
      },
      {
        "astId": 763,
        "contract": "contracts/StakingPoolProducerImpl.sol:StakingPoolProducerImpl",
        "label": "__gap",
        "offset": 0,
        "slot": "102",
        "type": "t_array(t_uint256)49_storage"
      },
      {
        "astId": 2387,
        "contract": "contracts/StakingPoolProducerImpl.sol:StakingPoolProducerImpl",
        "label": "shares",
        "offset": 0,
        "slot": "151",
        "type": "t_uint256"
      },
      {
        "astId": 2389,
        "contract": "contracts/StakingPoolProducerImpl.sol:StakingPoolProducerImpl",
        "label": "amount",
        "offset": 0,
        "slot": "152",
        "type": "t_uint256"
      },
      {
        "astId": 2391,
        "contract": "contracts/StakingPoolProducerImpl.sol:StakingPoolProducerImpl",
        "label": "requiredLiquidity",
        "offset": 0,
        "slot": "153",
        "type": "t_uint256"
      },
      {
        "astId": 2403,
        "contract": "contracts/StakingPoolProducerImpl.sol:StakingPoolProducerImpl",
        "label": "userBalance",
        "offset": 0,
        "slot": "154",
        "type": "t_mapping(t_address,t_struct(UserBalance)2398_storage)"
      },
      {
        "astId": 2956,
        "contract": "contracts/StakingPoolProducerImpl.sol:StakingPoolProducerImpl",
        "label": "fee",
        "offset": 0,
        "slot": "155",
        "type": "t_contract(Fee)3713"
      }
    ],
    "types": {
      "t_address": {
        "encoding": "inplace",
        "label": "address",
        "numberOfBytes": "20"
      },
      "t_array(t_uint256)49_storage": {
        "base": "t_uint256",
        "encoding": "inplace",
        "label": "uint256[49]",
        "numberOfBytes": "1568"
      },
      "t_array(t_uint256)50_storage": {
        "base": "t_uint256",
        "encoding": "inplace",
        "label": "uint256[50]",
        "numberOfBytes": "1600"
      },
      "t_bool": {
        "encoding": "inplace",
        "label": "bool",
        "numberOfBytes": "1"
      },
      "t_contract(Fee)3713": {
        "encoding": "inplace",
        "label": "contract Fee",
        "numberOfBytes": "20"
      },
      "t_mapping(t_address,t_struct(UserBalance)2398_storage)": {
        "encoding": "mapping",
        "key": "t_address",
        "label": "mapping(address => struct StakingPoolData.UserBalance)",
        "numberOfBytes": "32",
        "value": "t_struct(UserBalance)2398_storage"
      },
      "t_struct(UserBalance)2398_storage": {
        "encoding": "inplace",
        "label": "struct StakingPoolData.UserBalance",
        "members": [
          {
            "astId": 2393,
            "contract": "contracts/StakingPoolProducerImpl.sol:StakingPoolProducerImpl",
            "label": "shares",
            "offset": 0,
            "slot": "0",
            "type": "t_uint256"
          },
          {
            "astId": 2395,
            "contract": "contracts/StakingPoolProducerImpl.sol:StakingPoolProducerImpl",
            "label": "released",
            "offset": 0,
            "slot": "1",
            "type": "t_uint256"
          },
          {
            "astId": 2397,
            "contract": "contracts/StakingPoolProducerImpl.sol:StakingPoolProducerImpl",
            "label": "unstakeTimestamp",
            "offset": 0,
            "slot": "2",
            "type": "t_uint256"
          }
        ],
        "numberOfBytes": "96"
      },
      "t_uint256": {
        "encoding": "inplace",
        "label": "uint256",
        "numberOfBytes": "32"
      }
    }
  },
  "userdoc": {
    "events": {
      "BlockProduced(uint256,uint256)": {
        "notice": "this event is emitted at every produceBlock call reward is the block reward commission is how much CTSI is directed to the pool owner"
      }
    },
    "kind": "user",
    "methods": {
      "produceBlock(uint256)": {
        "notice": "routes produceBlock to POS contract and updates internal states of the pool"
      }
    },
    "version": 1
  }
}