{
  "contractName": "UniswapV3PriceOracle",
  "sourceName": "contracts/oracle/UniswapV3PriceOracle.sol",
  "abi": [
    {
      "inputs": [
        {
          "internalType": "address",
          "name": "_factory",
          "type": "address"
        },
        {
          "internalType": "address",
          "name": "_ctsi",
          "type": "address"
        },
        {
          "internalType": "address",
          "name": "_weth",
          "type": "address"
        }
      ],
      "stateMutability": "nonpayable",
      "type": "constructor"
    },
    {
      "inputs": [],
      "name": "ctsi",
      "outputs": [
        {
          "internalType": "address",
          "name": "",
          "type": "address"
        }
      ],
      "stateMutability": "view",
      "type": "function"
    },
    {
      "inputs": [],
      "name": "getPrice",
      "outputs": [
        {
          "internalType": "uint256",
          "name": "",
          "type": "uint256"
        }
      ],
      "stateMutability": "view",
      "type": "function"
    },
    {
      "inputs": [],
      "name": "pool",
      "outputs": [
        {
          "internalType": "address",
          "name": "",
          "type": "address"
        }
      ],
      "stateMutability": "view",
      "type": "function"
    },
    {
      "inputs": [],
      "name": "weth",
      "outputs": [
        {
          "internalType": "address",
          "name": "",
          "type": "address"
        }
      ],
      "stateMutability": "view",
      "type": "function"
    }
  ],
  "bytecode": "0x60e060405234801561001057600080fd5b50604051610b77380380610b778339818101604052606081101561003357600080fd5b5080516020808301516040938401518451630b4c774160e11b81526001600160a01b0380841660048301528083166024830152610bb8604483018190529651959693959294879360009392851692631698ee82926064808301939192829003018186803b1580156100a357600080fd5b505afa1580156100b7573d6000803e3d6000fd5b505050506040513d60208110156100cd57600080fd5b505190506001600160a01b03811661016d576040805163a167129560e01b81526001600160a01b038781166004830152868116602483015262ffffff8616604483015291519184169163a1671295916064808201926020929091908290030181600087803b15801561013e57600080fd5b505af1158015610152573d6000803e3d6000fd5b505050506040513d602081101561016857600080fd5b505190505b6001600160601b0319606091821b811660805293811b841660a0529390931b90911660c05250505060805160601c60a05160601c60c05160601c6109a16101d66000398060e9528061016752508060c5528061014652508060a1528061011352506109a16000f3fe608060405234801561001057600080fd5b506004361061004c5760003560e01c806316f0115b146100515780633fc8cef31461007557806364ffc3f41461007d57806398d5fdca14610085575b600080fd5b61005961009f565b604080516001600160a01b039092168252519081900360200190f35b6100596100c3565b6100596100e7565b61008d61010b565b60408051918252519081900360200190f35b7f000000000000000000000000000000000000000000000000000000000000000081565b7f000000000000000000000000000000000000000000000000000000000000000081565b7f000000000000000000000000000000000000000000000000000000000000000081565b60008061013a7f0000000000000000000000000000000000000000000000000000000000000000610708610192565b9050600061018b8260017f00000000000000000000000000000000000000000000000000000000000000007f0000000000000000000000000000000000000000000000000000000000000000610492565b9250505090565b600063ffffffff82166101d1576040805162461bcd60e51b8152602060048201526002602482015261042560f41b604482015290519081900360640190fd5b604080516002808252606080830184529260208301908036833701905050905082816000815181106101ff57fe5b602002602001019063ffffffff16908163ffffffff168152505060008160018151811061022857fe5b63ffffffff90921660209283029190910182015260405163883bdbfd60e01b8152600481018281528351602483015283516060936001600160a01b0389169363883bdbfd9387939092839260440191858201910280838360005b8381101561029a578181015183820152602001610282565b505050509050019250505060006040518083038186803b1580156102bd57600080fd5b505afa1580156102d1573d6000803e3d6000fd5b505050506040513d6000823e601f3d908101601f1916820160409081528110156102fa57600080fd5b810190808051604051939291908464010000000082111561031a57600080fd5b90830190602082018581111561032f57600080fd5b825186602082028301116401000000008211171561034c57600080fd5b82525081516020918201928201910280838360005b83811015610379578181015183820152602001610361565b50505050905001604052602001805160405193929190846401000000008211156103a257600080fd5b9083019060208201858111156103b757600080fd5b82518660208202830111640100000000821117156103d457600080fd5b82525081516020918201928201910280838360005b838110156104015781810151838201526020016103e9565b5050505090500160405250505050905060008160008151811061042057fe5b60200260200101518260018151811061043557fe5b60200260200101510390508463ffffffff168160060b8161045257fe5b05935060008160060b12801561047c57508463ffffffff168160060b8161047557fe5b0760060b15155b1561048957600019909301925b50505092915050565b60008061049e86610589565b90506001600160801b036001600160a01b0382161161050d576001600160a01b03808216800290848116908616106104ed576104e8600160c01b876001600160801b0316836108bb565b610505565b61050581876001600160801b0316600160c01b6108bb565b925050610580565b600061052c6001600160a01b03831680680100000000000000006108bb565b9050836001600160a01b0316856001600160a01b0316106105645761055f600160801b876001600160801b0316836108bb565b61057c565b61057c81876001600160801b0316600160801b6108bb565b9250505b50949350505050565b60008060008360020b126105a0578260020b6105a8565b8260020b6000035b9050620d89e88111156105e6576040805162461bcd60e51b81526020600482015260016024820152601560fa1b604482015290519081900360640190fd5b6000600182166105fa57600160801b61060c565b6ffffcb933bd6fad37aa2d162d1a5940015b70ffffffffffffffffffffffffffffffffff1690506002821615610640576ffff97272373d413259a46990580e213a0260801c5b600482161561065f576ffff2e50f5f656932ef12357cf3c7fdcc0260801c5b600882161561067e576fffe5caca7e10e4e61c3624eaa0941cd00260801c5b601082161561069d576fffcb9843d60f6159c9db58835c9266440260801c5b60208216156106bc576fff973b41fa98c081472e6896dfb254c00260801c5b60408216156106db576fff2ea16466c96a3843ec78b326b528610260801c5b60808216156106fa576ffe5dee046a99a2a811c461f1969c30530260801c5b61010082161561071a576ffcbe86c7900a88aedcffc83b479aa3a40260801c5b61020082161561073a576ff987a7253ac413176f2b074cf7815e540260801c5b61040082161561075a576ff3392b0822b70005940c7a398e4b70f30260801c5b61080082161561077a576fe7159475a2c29b7443b29c7fa6e889d90260801c5b61100082161561079a576fd097f3bdfd2022b8845ad8f792aa58250260801c5b6120008216156107ba576fa9f746462d870fdf8a65dc1f90e061e50260801c5b6140008216156107da576f70d869a156d2a1b890bb3df62baf32f70260801c5b6180008216156107fa576f31be135f97d08fd981231505542fcfa60260801c5b6201000082161561081b576f09aa508b5b7a84e1c677de54f3e99bc90260801c5b6202000082161561083b576e5d6af8dedb81196699c329225ee6040260801c5b6204000082161561085a576d2216e584f5fa1ea926041bedfe980260801c5b62080000821615610877576b048a170391f7dc42444e8fa20260801c5b60008460020b131561089257806000198161088e57fe5b0490505b6401000000008106156108a65760016108a9565b60005b60ff16602082901c0192505050919050565b60008080600019858709868602925082811090839003039050806108f157600084116108e657600080fd5b508290049050610964565b8084116108fd57600080fd5b6000848688096000868103871696879004966002600389028118808a02820302808a02820302808a02820302808a02820302808a02820302808a02909103029181900381900460010186841190950394909402919094039290920491909117919091029150505b939250505056fea2646970667358221220f41df16751b911c8425bd8250aa032f9c46658b28c641b7216c591c615e0db0764736f6c63430007040033",
  "linkReferences": {},
  "deployedLinkReferences": {},
  "evm": {
    "bytecode": {
      "linkReferences": {},
      "opcodes": "PUSH1 0xE0 PUSH1 0x40 MSTORE CALLVALUE DUP1 ISZERO PUSH2 0x10 JUMPI PUSH1 0x0 DUP1 REVERT JUMPDEST POP PUSH1 0x40 MLOAD PUSH2 0xB77 CODESIZE SUB DUP1 PUSH2 0xB77 DUP4 CODECOPY DUP2 DUP2 ADD PUSH1 0x40 MSTORE PUSH1 0x60 DUP2 LT ISZERO PUSH2 0x33 JUMPI PUSH1 0x0 DUP1 REVERT JUMPDEST POP DUP1 MLOAD PUSH1 0x20 DUP1 DUP4 ADD MLOAD PUSH1 0x40 SWAP4 DUP5 ADD MLOAD DUP5 MLOAD PUSH4 0xB4C7741 PUSH1 0xE1 SHL DUP2 MSTORE PUSH1 0x1 PUSH1 0x1 PUSH1 0xA0 SHL SUB DUP1 DUP5 AND PUSH1 0x4 DUP4 ADD MSTORE DUP1 DUP4 AND PUSH1 0x24 DUP4 ADD MSTORE PUSH2 0xBB8 PUSH1 0x44 DUP4 ADD DUP2 SWAP1 MSTORE SWAP7 MLOAD SWAP6 SWAP7 SWAP4 SWAP6 SWAP3 SWAP5 DUP8 SWAP4 PUSH1 0x0 SWAP4 SWAP3 DUP6 AND SWAP3 PUSH4 0x1698EE82 SWAP3 PUSH1 0x64 DUP1 DUP4 ADD SWAP4 SWAP2 SWAP3 DUP3 SWAP1 SUB ADD DUP2 DUP7 DUP1 EXTCODESIZE ISZERO DUP1 ISZERO PUSH2 0xA3 JUMPI PUSH1 0x0 DUP1 REVERT JUMPDEST POP GAS STATICCALL ISZERO DUP1 ISZERO PUSH2 0xB7 JUMPI RETURNDATASIZE PUSH1 0x0 DUP1 RETURNDATACOPY RETURNDATASIZE PUSH1 0x0 REVERT JUMPDEST POP POP POP POP PUSH1 0x40 MLOAD RETURNDATASIZE PUSH1 0x20 DUP2 LT ISZERO PUSH2 0xCD JUMPI PUSH1 0x0 DUP1 REVERT JUMPDEST POP MLOAD SWAP1 POP PUSH1 0x1 PUSH1 0x1 PUSH1 0xA0 SHL SUB DUP2 AND PUSH2 0x16D JUMPI PUSH1 0x40 DUP1 MLOAD PUSH4 0xA1671295 PUSH1 0xE0 SHL DUP2 MSTORE PUSH1 0x1 PUSH1 0x1 PUSH1 0xA0 SHL SUB DUP8 DUP2 AND PUSH1 0x4 DUP4 ADD MSTORE DUP7 DUP2 AND PUSH1 0x24 DUP4 ADD MSTORE PUSH3 0xFFFFFF DUP7 AND PUSH1 0x44 DUP4 ADD MSTORE SWAP2 MLOAD SWAP2 DUP5 AND SWAP2 PUSH4 0xA1671295 SWAP2 PUSH1 0x64 DUP1 DUP3 ADD SWAP3 PUSH1 0x20 SWAP3 SWAP1 SWAP2 SWAP1 DUP3 SWAP1 SUB ADD DUP2 PUSH1 0x0 DUP8 DUP1 EXTCODESIZE ISZERO DUP1 ISZERO PUSH2 0x13E JUMPI PUSH1 0x0 DUP1 REVERT JUMPDEST POP GAS CALL ISZERO DUP1 ISZERO PUSH2 0x152 JUMPI RETURNDATASIZE PUSH1 0x0 DUP1 RETURNDATACOPY RETURNDATASIZE PUSH1 0x0 REVERT JUMPDEST POP POP POP POP PUSH1 0x40 MLOAD RETURNDATASIZE PUSH1 0x20 DUP2 LT ISZERO PUSH2 0x168 JUMPI PUSH1 0x0 DUP1 REVERT JUMPDEST POP MLOAD SWAP1 POP JUMPDEST PUSH1 0x1 PUSH1 0x1 PUSH1 0x60 SHL SUB NOT PUSH1 0x60 SWAP2 DUP3 SHL DUP2 AND PUSH1 0x80 MSTORE SWAP4 DUP2 SHL DUP5 AND PUSH1 0xA0 MSTORE SWAP4 SWAP1 SWAP4 SHL SWAP1 SWAP2 AND PUSH1 0xC0 MSTORE POP POP POP PUSH1 0x80 MLOAD PUSH1 0x60 SHR PUSH1 0xA0 MLOAD PUSH1 0x60 SHR PUSH1 0xC0 MLOAD PUSH1 0x60 SHR PUSH2 0x9A1 PUSH2 0x1D6 PUSH1 0x0 CODECOPY DUP1 PUSH1 0xE9 MSTORE DUP1 PUSH2 0x167 MSTORE POP DUP1 PUSH1 0xC5 MSTORE DUP1 PUSH2 0x146 MSTORE POP DUP1 PUSH1 0xA1 MSTORE DUP1 PUSH2 0x113 MSTORE POP PUSH2 0x9A1 PUSH1 0x0 RETURN INVALID PUSH1 0x80 PUSH1 0x40 MSTORE CALLVALUE DUP1 ISZERO PUSH2 0x10 JUMPI PUSH1 0x0 DUP1 REVERT JUMPDEST POP PUSH1 0x4 CALLDATASIZE LT PUSH2 0x4C JUMPI PUSH1 0x0 CALLDATALOAD PUSH1 0xE0 SHR DUP1 PUSH4 0x16F0115B EQ PUSH2 0x51 JUMPI DUP1 PUSH4 0x3FC8CEF3 EQ PUSH2 0x75 JUMPI DUP1 PUSH4 0x64FFC3F4 EQ PUSH2 0x7D JUMPI DUP1 PUSH4 0x98D5FDCA EQ PUSH2 0x85 JUMPI JUMPDEST PUSH1 0x0 DUP1 REVERT JUMPDEST PUSH2 0x59 PUSH2 0x9F JUMP JUMPDEST PUSH1 0x40 DUP1 MLOAD PUSH1 0x1 PUSH1 0x1 PUSH1 0xA0 SHL SUB SWAP1 SWAP3 AND DUP3 MSTORE MLOAD SWAP1 DUP2 SWAP1 SUB PUSH1 0x20 ADD SWAP1 RETURN JUMPDEST PUSH2 0x59 PUSH2 0xC3 JUMP JUMPDEST PUSH2 0x59 PUSH2 0xE7 JUMP JUMPDEST PUSH2 0x8D PUSH2 0x10B JUMP JUMPDEST PUSH1 0x40 DUP1 MLOAD SWAP2 DUP3 MSTORE MLOAD SWAP1 DUP2 SWAP1 SUB PUSH1 0x20 ADD SWAP1 RETURN JUMPDEST PUSH32 0x0 DUP2 JUMP JUMPDEST PUSH32 0x0 DUP2 JUMP JUMPDEST PUSH32 0x0 DUP2 JUMP JUMPDEST PUSH1 0x0 DUP1 PUSH2 0x13A PUSH32 0x0 PUSH2 0x708 PUSH2 0x192 JUMP JUMPDEST SWAP1 POP PUSH1 0x0 PUSH2 0x18B DUP3 PUSH1 0x1 PUSH32 0x0 PUSH32 0x0 PUSH2 0x492 JUMP JUMPDEST SWAP3 POP POP POP SWAP1 JUMP JUMPDEST PUSH1 0x0 PUSH4 0xFFFFFFFF DUP3 AND PUSH2 0x1D1 JUMPI PUSH1 0x40 DUP1 MLOAD PUSH3 0x461BCD PUSH1 0xE5 SHL DUP2 MSTORE PUSH1 0x20 PUSH1 0x4 DUP3 ADD MSTORE PUSH1 0x2 PUSH1 0x24 DUP3 ADD MSTORE PUSH2 0x425 PUSH1 0xF4 SHL PUSH1 0x44 DUP3 ADD MSTORE SWAP1 MLOAD SWAP1 DUP2 SWAP1 SUB PUSH1 0x64 ADD SWAP1 REVERT JUMPDEST PUSH1 0x40 DUP1 MLOAD PUSH1 0x2 DUP1 DUP3 MSTORE PUSH1 0x60 DUP1 DUP4 ADD DUP5 MSTORE SWAP3 PUSH1 0x20 DUP4 ADD SWAP1 DUP1 CALLDATASIZE DUP4 CALLDATACOPY ADD SWAP1 POP POP SWAP1 POP DUP3 DUP2 PUSH1 0x0 DUP2 MLOAD DUP2 LT PUSH2 0x1FF JUMPI INVALID JUMPDEST PUSH1 0x20 MUL PUSH1 0x20 ADD ADD SWAP1 PUSH4 0xFFFFFFFF AND SWAP1 DUP2 PUSH4 0xFFFFFFFF AND DUP2 MSTORE POP POP PUSH1 0x0 DUP2 PUSH1 0x1 DUP2 MLOAD DUP2 LT PUSH2 0x228 JUMPI INVALID JUMPDEST PUSH4 0xFFFFFFFF SWAP1 SWAP3 AND PUSH1 0x20 SWAP3 DUP4 MUL SWAP2 SWAP1 SWAP2 ADD DUP3 ADD MSTORE PUSH1 0x40 MLOAD PUSH4 0x883BDBFD PUSH1 0xE0 SHL DUP2 MSTORE PUSH1 0x4 DUP2 ADD DUP3 DUP2 MSTORE DUP4 MLOAD PUSH1 0x24 DUP4 ADD MSTORE DUP4 MLOAD PUSH1 0x60 SWAP4 PUSH1 0x1 PUSH1 0x1 PUSH1 0xA0 SHL SUB DUP10 AND SWAP4 PUSH4 0x883BDBFD SWAP4 DUP8 SWAP4 SWAP1 SWAP3 DUP4 SWAP3 PUSH1 0x44 ADD SWAP2 DUP6 DUP3 ADD SWAP2 MUL DUP1 DUP4 DUP4 PUSH1 0x0 JUMPDEST DUP4 DUP2 LT ISZERO PUSH2 0x29A JUMPI DUP2 DUP2 ADD MLOAD DUP4 DUP3 ADD MSTORE PUSH1 0x20 ADD PUSH2 0x282 JUMP JUMPDEST POP POP POP POP SWAP1 POP ADD SWAP3 POP POP POP PUSH1 0x0 PUSH1 0x40 MLOAD DUP1 DUP4 SUB DUP2 DUP7 DUP1 EXTCODESIZE ISZERO DUP1 ISZERO PUSH2 0x2BD JUMPI PUSH1 0x0 DUP1 REVERT JUMPDEST POP GAS STATICCALL ISZERO DUP1 ISZERO PUSH2 0x2D1 JUMPI RETURNDATASIZE PUSH1 0x0 DUP1 RETURNDATACOPY RETURNDATASIZE PUSH1 0x0 REVERT JUMPDEST POP POP POP POP PUSH1 0x40 MLOAD RETURNDATASIZE PUSH1 0x0 DUP3 RETURNDATACOPY PUSH1 0x1F RETURNDATASIZE SWAP1 DUP2 ADD PUSH1 0x1F NOT AND DUP3 ADD PUSH1 0x40 SWAP1 DUP2 MSTORE DUP2 LT ISZERO PUSH2 0x2FA JUMPI PUSH1 0x0 DUP1 REVERT JUMPDEST DUP2 ADD SWAP1 DUP1 DUP1 MLOAD PUSH1 0x40 MLOAD SWAP4 SWAP3 SWAP2 SWAP1 DUP5 PUSH5 0x100000000 DUP3 GT ISZERO PUSH2 0x31A JUMPI PUSH1 0x0 DUP1 REVERT JUMPDEST SWAP1 DUP4 ADD SWAP1 PUSH1 0x20 DUP3 ADD DUP6 DUP2 GT ISZERO PUSH2 0x32F JUMPI PUSH1 0x0 DUP1 REVERT JUMPDEST DUP3 MLOAD DUP7 PUSH1 0x20 DUP3 MUL DUP4 ADD GT PUSH5 0x100000000 DUP3 GT OR ISZERO PUSH2 0x34C JUMPI PUSH1 0x0 DUP1 REVERT JUMPDEST DUP3 MSTORE POP DUP2 MLOAD PUSH1 0x20 SWAP2 DUP3 ADD SWAP3 DUP3 ADD SWAP2 MUL DUP1 DUP4 DUP4 PUSH1 0x0 JUMPDEST DUP4 DUP2 LT ISZERO PUSH2 0x379 JUMPI DUP2 DUP2 ADD MLOAD DUP4 DUP3 ADD MSTORE PUSH1 0x20 ADD PUSH2 0x361 JUMP JUMPDEST POP POP POP POP SWAP1 POP ADD PUSH1 0x40 MSTORE PUSH1 0x20 ADD DUP1 MLOAD PUSH1 0x40 MLOAD SWAP4 SWAP3 SWAP2 SWAP1 DUP5 PUSH5 0x100000000 DUP3 GT ISZERO PUSH2 0x3A2 JUMPI PUSH1 0x0 DUP1 REVERT JUMPDEST SWAP1 DUP4 ADD SWAP1 PUSH1 0x20 DUP3 ADD DUP6 DUP2 GT ISZERO PUSH2 0x3B7 JUMPI PUSH1 0x0 DUP1 REVERT JUMPDEST DUP3 MLOAD DUP7 PUSH1 0x20 DUP3 MUL DUP4 ADD GT PUSH5 0x100000000 DUP3 GT OR ISZERO PUSH2 0x3D4 JUMPI PUSH1 0x0 DUP1 REVERT JUMPDEST DUP3 MSTORE POP DUP2 MLOAD PUSH1 0x20 SWAP2 DUP3 ADD SWAP3 DUP3 ADD SWAP2 MUL DUP1 DUP4 DUP4 PUSH1 0x0 JUMPDEST DUP4 DUP2 LT ISZERO PUSH2 0x401 JUMPI DUP2 DUP2 ADD MLOAD DUP4 DUP3 ADD MSTORE PUSH1 0x20 ADD PUSH2 0x3E9 JUMP JUMPDEST POP POP POP POP SWAP1 POP ADD PUSH1 0x40 MSTORE POP POP POP POP SWAP1 POP PUSH1 0x0 DUP2 PUSH1 0x0 DUP2 MLOAD DUP2 LT PUSH2 0x420 JUMPI INVALID JUMPDEST PUSH1 0x20 MUL PUSH1 0x20 ADD ADD MLOAD DUP3 PUSH1 0x1 DUP2 MLOAD DUP2 LT PUSH2 0x435 JUMPI INVALID JUMPDEST PUSH1 0x20 MUL PUSH1 0x20 ADD ADD MLOAD SUB SWAP1 POP DUP5 PUSH4 0xFFFFFFFF AND DUP2 PUSH1 0x6 SIGNEXTEND DUP2 PUSH2 0x452 JUMPI INVALID JUMPDEST SDIV SWAP4 POP PUSH1 0x0 DUP2 PUSH1 0x6 SIGNEXTEND SLT DUP1 ISZERO PUSH2 0x47C JUMPI POP DUP5 PUSH4 0xFFFFFFFF AND DUP2 PUSH1 0x6 SIGNEXTEND DUP2 PUSH2 0x475 JUMPI INVALID JUMPDEST SMOD PUSH1 0x6 SIGNEXTEND ISZERO ISZERO JUMPDEST ISZERO PUSH2 0x489 JUMPI PUSH1 0x0 NOT SWAP1 SWAP4 ADD SWAP3 JUMPDEST POP POP POP SWAP3 SWAP2 POP POP JUMP JUMPDEST PUSH1 0x0 DUP1 PUSH2 0x49E DUP7 PUSH2 0x589 JUMP JUMPDEST SWAP1 POP PUSH1 0x1 PUSH1 0x1 PUSH1 0x80 SHL SUB PUSH1 0x1 PUSH1 0x1 PUSH1 0xA0 SHL SUB DUP3 AND GT PUSH2 0x50D JUMPI PUSH1 0x1 PUSH1 0x1 PUSH1 0xA0 SHL SUB DUP1 DUP3 AND DUP1 MUL SWAP1 DUP5 DUP2 AND SWAP1 DUP7 AND LT PUSH2 0x4ED JUMPI PUSH2 0x4E8 PUSH1 0x1 PUSH1 0xC0 SHL DUP8 PUSH1 0x1 PUSH1 0x1 PUSH1 0x80 SHL SUB AND DUP4 PUSH2 0x8BB JUMP JUMPDEST PUSH2 0x505 JUMP JUMPDEST PUSH2 0x505 DUP2 DUP8 PUSH1 0x1 PUSH1 0x1 PUSH1 0x80 SHL SUB AND PUSH1 0x1 PUSH1 0xC0 SHL PUSH2 0x8BB JUMP JUMPDEST SWAP3 POP POP PUSH2 0x580 JUMP JUMPDEST PUSH1 0x0 PUSH2 0x52C PUSH1 0x1 PUSH1 0x1 PUSH1 0xA0 SHL SUB DUP4 AND DUP1 PUSH9 0x10000000000000000 PUSH2 0x8BB JUMP JUMPDEST SWAP1 POP DUP4 PUSH1 0x1 PUSH1 0x1 PUSH1 0xA0 SHL SUB AND DUP6 PUSH1 0x1 PUSH1 0x1 PUSH1 0xA0 SHL SUB AND LT PUSH2 0x564 JUMPI PUSH2 0x55F PUSH1 0x1 PUSH1 0x80 SHL DUP8 PUSH1 0x1 PUSH1 0x1 PUSH1 0x80 SHL SUB AND DUP4 PUSH2 0x8BB JUMP JUMPDEST PUSH2 0x57C JUMP JUMPDEST PUSH2 0x57C DUP2 DUP8 PUSH1 0x1 PUSH1 0x1 PUSH1 0x80 SHL SUB AND PUSH1 0x1 PUSH1 0x80 SHL PUSH2 0x8BB JUMP JUMPDEST SWAP3 POP POP JUMPDEST POP SWAP5 SWAP4 POP POP POP POP JUMP JUMPDEST PUSH1 0x0 DUP1 PUSH1 0x0 DUP4 PUSH1 0x2 SIGNEXTEND SLT PUSH2 0x5A0 JUMPI DUP3 PUSH1 0x2 SIGNEXTEND PUSH2 0x5A8 JUMP JUMPDEST DUP3 PUSH1 0x2 SIGNEXTEND PUSH1 0x0 SUB JUMPDEST SWAP1 POP PUSH3 0xD89E8 DUP2 GT ISZERO PUSH2 0x5E6 JUMPI PUSH1 0x40 DUP1 MLOAD PUSH3 0x461BCD PUSH1 0xE5 SHL DUP2 MSTORE PUSH1 0x20 PUSH1 0x4 DUP3 ADD MSTORE PUSH1 0x1 PUSH1 0x24 DUP3 ADD MSTORE PUSH1 0x15 PUSH1 0xFA SHL PUSH1 0x44 DUP3 ADD MSTORE SWAP1 MLOAD SWAP1 DUP2 SWAP1 SUB PUSH1 0x64 ADD SWAP1 REVERT JUMPDEST PUSH1 0x0 PUSH1 0x1 DUP3 AND PUSH2 0x5FA JUMPI PUSH1 0x1 PUSH1 0x80 SHL PUSH2 0x60C JUMP JUMPDEST PUSH16 0xFFFCB933BD6FAD37AA2D162D1A594001 JUMPDEST PUSH17 0xFFFFFFFFFFFFFFFFFFFFFFFFFFFFFFFFFF AND SWAP1 POP PUSH1 0x2 DUP3 AND ISZERO PUSH2 0x640 JUMPI PUSH16 0xFFF97272373D413259A46990580E213A MUL PUSH1 0x80 SHR JUMPDEST PUSH1 0x4 DUP3 AND ISZERO PUSH2 0x65F JUMPI PUSH16 0xFFF2E50F5F656932EF12357CF3C7FDCC MUL PUSH1 0x80 SHR JUMPDEST PUSH1 0x8 DUP3 AND ISZERO PUSH2 0x67E JUMPI PUSH16 0xFFE5CACA7E10E4E61C3624EAA0941CD0 MUL PUSH1 0x80 SHR JUMPDEST PUSH1 0x10 DUP3 AND ISZERO PUSH2 0x69D JUMPI PUSH16 0xFFCB9843D60F6159C9DB58835C926644 MUL PUSH1 0x80 SHR JUMPDEST PUSH1 0x20 DUP3 AND ISZERO PUSH2 0x6BC JUMPI PUSH16 0xFF973B41FA98C081472E6896DFB254C0 MUL PUSH1 0x80 SHR JUMPDEST PUSH1 0x40 DUP3 AND ISZERO PUSH2 0x6DB JUMPI PUSH16 0xFF2EA16466C96A3843EC78B326B52861 MUL PUSH1 0x80 SHR JUMPDEST PUSH1 0x80 DUP3 AND ISZERO PUSH2 0x6FA JUMPI PUSH16 0xFE5DEE046A99A2A811C461F1969C3053 MUL PUSH1 0x80 SHR JUMPDEST PUSH2 0x100 DUP3 AND ISZERO PUSH2 0x71A JUMPI PUSH16 0xFCBE86C7900A88AEDCFFC83B479AA3A4 MUL PUSH1 0x80 SHR JUMPDEST PUSH2 0x200 DUP3 AND ISZERO PUSH2 0x73A JUMPI PUSH16 0xF987A7253AC413176F2B074CF7815E54 MUL PUSH1 0x80 SHR JUMPDEST PUSH2 0x400 DUP3 AND ISZERO PUSH2 0x75A JUMPI PUSH16 0xF3392B0822B70005940C7A398E4B70F3 MUL PUSH1 0x80 SHR JUMPDEST PUSH2 0x800 DUP3 AND ISZERO PUSH2 0x77A JUMPI PUSH16 0xE7159475A2C29B7443B29C7FA6E889D9 MUL PUSH1 0x80 SHR JUMPDEST PUSH2 0x1000 DUP3 AND ISZERO PUSH2 0x79A JUMPI PUSH16 0xD097F3BDFD2022B8845AD8F792AA5825 MUL PUSH1 0x80 SHR JUMPDEST PUSH2 0x2000 DUP3 AND ISZERO PUSH2 0x7BA JUMPI PUSH16 0xA9F746462D870FDF8A65DC1F90E061E5 MUL PUSH1 0x80 SHR JUMPDEST PUSH2 0x4000 DUP3 AND ISZERO PUSH2 0x7DA JUMPI PUSH16 0x70D869A156D2A1B890BB3DF62BAF32F7 MUL PUSH1 0x80 SHR JUMPDEST PUSH2 0x8000 DUP3 AND ISZERO PUSH2 0x7FA JUMPI PUSH16 0x31BE135F97D08FD981231505542FCFA6 MUL PUSH1 0x80 SHR JUMPDEST PUSH3 0x10000 DUP3 AND ISZERO PUSH2 0x81B JUMPI PUSH16 0x9AA508B5B7A84E1C677DE54F3E99BC9 MUL PUSH1 0x80 SHR JUMPDEST PUSH3 0x20000 DUP3 AND ISZERO PUSH2 0x83B JUMPI PUSH15 0x5D6AF8DEDB81196699C329225EE604 MUL PUSH1 0x80 SHR JUMPDEST PUSH3 0x40000 DUP3 AND ISZERO PUSH2 0x85A JUMPI PUSH14 0x2216E584F5FA1EA926041BEDFE98 MUL PUSH1 0x80 SHR JUMPDEST PUSH3 0x80000 DUP3 AND ISZERO PUSH2 0x877 JUMPI PUSH12 0x48A170391F7DC42444E8FA2 MUL PUSH1 0x80 SHR JUMPDEST PUSH1 0x0 DUP5 PUSH1 0x2 SIGNEXTEND SGT ISZERO PUSH2 0x892 JUMPI DUP1 PUSH1 0x0 NOT DUP2 PUSH2 0x88E JUMPI INVALID JUMPDEST DIV SWAP1 POP JUMPDEST PUSH5 0x100000000 DUP2 MOD ISZERO PUSH2 0x8A6 JUMPI PUSH1 0x1 PUSH2 0x8A9 JUMP JUMPDEST PUSH1 0x0 JUMPDEST PUSH1 0xFF AND PUSH1 0x20 DUP3 SWAP1 SHR ADD SWAP3 POP POP POP SWAP2 SWAP1 POP JUMP JUMPDEST PUSH1 0x0 DUP1 DUP1 PUSH1 0x0 NOT DUP6 DUP8 MULMOD DUP7 DUP7 MUL SWAP3 POP DUP3 DUP2 LT SWAP1 DUP4 SWAP1 SUB SUB SWAP1 POP DUP1 PUSH2 0x8F1 JUMPI PUSH1 0x0 DUP5 GT PUSH2 0x8E6 JUMPI PUSH1 0x0 DUP1 REVERT JUMPDEST POP DUP3 SWAP1 DIV SWAP1 POP PUSH2 0x964 JUMP JUMPDEST DUP1 DUP5 GT PUSH2 0x8FD JUMPI PUSH1 0x0 DUP1 REVERT JUMPDEST PUSH1 0x0 DUP5 DUP7 DUP9 MULMOD PUSH1 0x0 DUP7 DUP2 SUB DUP8 AND SWAP7 DUP8 SWAP1 DIV SWAP7 PUSH1 0x2 PUSH1 0x3 DUP10 MUL DUP2 XOR DUP1 DUP11 MUL DUP3 SUB MUL DUP1 DUP11 MUL DUP3 SUB MUL DUP1 DUP11 MUL DUP3 SUB MUL DUP1 DUP11 MUL DUP3 SUB MUL DUP1 DUP11 MUL DUP3 SUB MUL DUP1 DUP11 MUL SWAP1 SWAP2 SUB MUL SWAP2 DUP2 SWAP1 SUB DUP2 SWAP1 DIV PUSH1 0x1 ADD DUP7 DUP5 GT SWAP1 SWAP6 SUB SWAP5 SWAP1 SWAP5 MUL SWAP2 SWAP1 SWAP5 SUB SWAP3 SWAP1 SWAP3 DIV SWAP2 SWAP1 SWAP2 OR SWAP2 SWAP1 SWAP2 MUL SWAP2 POP POP JUMPDEST SWAP4 SWAP3 POP POP POP JUMP INVALID LOG2 PUSH5 0x6970667358 0x22 SLT KECCAK256 DELEGATECALL SAR CALL PUSH8 0x51B911C8425BD825 EXP LOG0 ORIGIN 0xF9 0xC4 PUSH7 0x58B28C641B7216 0xC5 SWAP2 0xC6 ISZERO 0xE0 0xDB SMOD PUSH5 0x736F6C6343 STOP SMOD DIV STOP CALLER "
    },
    "methodIdentifiers": {
      "ctsi()": "64ffc3f4",
      "getPrice()": "98d5fdca",
      "pool()": "16f0115b",
      "weth()": "3fc8cef3"
    }
  }
}