{
  "address": "0xeEBFA818E5761c6C71467Ef75496f91CC5976E96",
  "abi": [
    {
      "inputs": [
        {
          "internalType": "address",
          "name": "_ctsi",
          "type": "address"
        },
        {
          "internalType": "address",
          "name": "_staking",
          "type": "address"
        },
        {
          "internalType": "address",
          "name": "_pos",
          "type": "address"
        },
        {
          "internalType": "address",
          "name": "_workerManager",
          "type": "address"
        },
        {
          "internalType": "address",
          "name": "_ens",
          "type": "address"
        },
        {
          "internalType": "uint256",
          "name": "_stakeLock",
          "type": "uint256"
        }
      ],
      "stateMutability": "nonpayable",
      "type": "constructor"
    },
    {
      "anonymous": false,
      "inputs": [
        {
          "indexed": false,
          "internalType": "uint256",
          "name": "reward",
          "type": "uint256"
        },
        {
          "indexed": false,
          "internalType": "uint256",
          "name": "commission",
          "type": "uint256"
        }
      ],
      "name": "BlockProduced",
      "type": "event"
    },
    {
      "anonymous": false,
      "inputs": [
        {
          "indexed": true,
          "internalType": "address",
          "name": "user",
          "type": "address"
        },
        {
          "indexed": false,
          "internalType": "uint256",
          "name": "amount",
          "type": "uint256"
        },
        {
          "indexed": false,
          "internalType": "uint256",
          "name": "stakeTimestamp",
          "type": "uint256"
        }
      ],
      "name": "Deposit",
      "type": "event"
    },
    {
      "anonymous": false,
      "inputs": [
        {
          "indexed": true,
          "internalType": "address",
          "name": "previousOwner",
          "type": "address"
        },
        {
          "indexed": true,
          "internalType": "address",
          "name": "newOwner",
          "type": "address"
        }
      ],
      "name": "OwnershipTransferred",
      "type": "event"
    },
    {
      "anonymous": false,
      "inputs": [
        {
          "indexed": false,
          "internalType": "address",
          "name": "account",
          "type": "address"
        }
      ],
      "name": "Paused",
      "type": "event"
    },
    {
      "anonymous": false,
      "inputs": [
        {
          "indexed": true,
          "internalType": "address",
          "name": "user",
          "type": "address"
        },
        {
          "indexed": false,
          "internalType": "uint256",
          "name": "amount",
          "type": "uint256"
        },
        {
          "indexed": false,
          "internalType": "uint256",
          "name": "shares",
          "type": "uint256"
        }
      ],
      "name": "Stake",
      "type": "event"
    },
    {
      "anonymous": false,
      "inputs": [
        {
          "indexed": false,
          "internalType": "string",
          "name": "name",
          "type": "string"
        }
      ],
      "name": "StakingPoolRenamed",
      "type": "event"
    },
    {
      "anonymous": false,
      "inputs": [
        {
          "indexed": false,
          "internalType": "address",
          "name": "account",
          "type": "address"
        }
      ],
      "name": "Unpaused",
      "type": "event"
    },
    {
      "anonymous": false,
      "inputs": [
        {
          "indexed": true,
          "internalType": "address",
          "name": "user",
          "type": "address"
        },
        {
          "indexed": false,
          "internalType": "uint256",
          "name": "amount",
          "type": "uint256"
        },
        {
          "indexed": false,
          "internalType": "uint256",
          "name": "shares",
          "type": "uint256"
        }
      ],
      "name": "Unstake",
      "type": "event"
    },
    {
      "anonymous": false,
      "inputs": [
        {
          "indexed": true,
          "internalType": "address",
          "name": "user",
          "type": "address"
        },
        {
          "indexed": false,
          "internalType": "uint256",
          "name": "amount",
          "type": "uint256"
        }
      ],
      "name": "Withdraw",
      "type": "event"
    },
    {
      "inputs": [],
      "name": "amount",
      "outputs": [
        {
          "internalType": "uint256",
          "name": "",
          "type": "uint256"
        }
      ],
      "stateMutability": "view",
      "type": "function"
    },
    {
      "inputs": [
        {
          "internalType": "uint256",
          "name": "_amount",
          "type": "uint256"
        }
      ],
      "name": "amountToShares",
      "outputs": [
        {
          "internalType": "uint256",
          "name": "",
          "type": "uint256"
        }
      ],
      "stateMutability": "view",
      "type": "function"
    },
    {
      "inputs": [],
      "name": "amounts",
      "outputs": [
        {
          "internalType": "uint256",
          "name": "stake",
          "type": "uint256"
        },
        {
          "internalType": "uint256",
          "name": "unstake",
          "type": "uint256"
        },
        {
          "internalType": "uint256",
          "name": "withdraw",
          "type": "uint256"
        }
      ],
      "stateMutability": "view",
      "type": "function"
    },
    {
      "inputs": [
        {
          "internalType": "address",
          "name": "workerAddress",
          "type": "address"
        }
      ],
      "name": "cancelHire",
      "outputs": [],
      "stateMutability": "nonpayable",
      "type": "function"
    },
    {
      "inputs": [],
      "name": "ctsi",
      "outputs": [
        {
          "internalType": "contract IERC20",
          "name": "",
          "type": "address"
        }
      ],
      "stateMutability": "view",
      "type": "function"
    },
    {
      "inputs": [
        {
          "internalType": "uint256",
          "name": "_amount",
          "type": "uint256"
        }
      ],
      "name": "deposit",
      "outputs": [],
      "stateMutability": "nonpayable",
      "type": "function"
    },
    {
      "inputs": [],
      "name": "ens",
      "outputs": [
        {
          "internalType": "contract ENS",
          "name": "",
          "type": "address"
        }
      ],
      "stateMutability": "view",
      "type": "function"
    },
    {
      "inputs": [],
      "name": "fee",
      "outputs": [
        {
          "internalType": "contract Fee",
          "name": "",
          "type": "address"
        }
      ],
      "stateMutability": "view",
      "type": "function"
    },
    {
      "inputs": [],
      "name": "getWithdrawBalance",
      "outputs": [
        {
          "internalType": "uint256",
          "name": "",
          "type": "uint256"
        }
      ],
      "stateMutability": "view",
      "type": "function"
    },
    {
      "inputs": [
        {
          "internalType": "address payable",
          "name": "workerAddress",
          "type": "address"
        }
      ],
      "name": "hire",
      "outputs": [],
      "stateMutability": "payable",
      "type": "function"
    },
    {
      "inputs": [
        {
          "internalType": "address",
          "name": "_fee",
          "type": "address"
        }
      ],
      "name": "initialize",
      "outputs": [],
      "stateMutability": "nonpayable",
      "type": "function"
    },
    {
      "inputs": [],
      "name": "lockTime",
      "outputs": [
        {
          "internalType": "uint256",
          "name": "",
          "type": "uint256"
        }
      ],
      "stateMutability": "view",
      "type": "function"
    },
    {
      "inputs": [],
      "name": "owner",
      "outputs": [
        {
          "internalType": "address",
          "name": "",
          "type": "address"
        }
      ],
      "stateMutability": "view",
      "type": "function"
    },
    {
      "inputs": [],
      "name": "pause",
      "outputs": [],
      "stateMutability": "nonpayable",
      "type": "function"
    },
    {
      "inputs": [],
      "name": "paused",
      "outputs": [
        {
          "internalType": "bool",
          "name": "",
          "type": "bool"
        }
      ],
      "stateMutability": "view",
      "type": "function"
    },
    {
      "inputs": [],
      "name": "pos",
      "outputs": [
        {
          "internalType": "contract IPoS",
          "name": "",
          "type": "address"
        }
      ],
      "stateMutability": "view",
      "type": "function"
    },
    {
      "inputs": [
        {
          "internalType": "uint256",
          "name": "_index",
          "type": "uint256"
        }
      ],
      "name": "produceBlock",
      "outputs": [
        {
          "internalType": "bool",
          "name": "",
          "type": "bool"
        }
      ],
      "stateMutability": "nonpayable",
      "type": "function"
    },
    {
      "inputs": [],
      "name": "rebalance",
      "outputs": [],
      "stateMutability": "nonpayable",
      "type": "function"
    },
    {
      "inputs": [],
      "name": "renounceOwnership",
      "outputs": [],
      "stateMutability": "nonpayable",
      "type": "function"
    },
    {
      "inputs": [],
      "name": "requiredLiquidity",
      "outputs": [
        {
          "internalType": "uint256",
          "name": "",
          "type": "uint256"
        }
      ],
      "stateMutability": "view",
      "type": "function"
    },
    {
      "inputs": [
        {
          "internalType": "address payable",
          "name": "workerAddress",
          "type": "address"
        }
      ],
      "name": "retire",
      "outputs": [],
      "stateMutability": "nonpayable",
      "type": "function"
    },
    {
      "inputs": [],
      "name": "selfhire",
      "outputs": [],
      "stateMutability": "payable",
      "type": "function"
    },
    {
      "inputs": [
        {
          "internalType": "string",
          "name": "name",
          "type": "string"
        }
      ],
      "name": "setName",
      "outputs": [],
      "stateMutability": "nonpayable",
      "type": "function"
    },
    {
      "inputs": [],
      "name": "shares",
      "outputs": [
        {
          "internalType": "uint256",
          "name": "",
          "type": "uint256"
        }
      ],
      "stateMutability": "view",
      "type": "function"
    },
    {
      "inputs": [
        {
          "internalType": "uint256",
          "name": "_shares",
          "type": "uint256"
        }
      ],
      "name": "sharesToAmount",
      "outputs": [
        {
          "internalType": "uint256",
          "name": "",
          "type": "uint256"
        }
      ],
      "stateMutability": "view",
      "type": "function"
    },
    {
      "inputs": [
        {
          "internalType": "uint256",
          "name": "_amount",
          "type": "uint256"
        }
      ],
      "name": "stake",
      "outputs": [],
      "stateMutability": "nonpayable",
      "type": "function"
    },
    {
      "inputs": [
        {
          "internalType": "address",
          "name": "newOwner",
          "type": "address"
        }
      ],
      "name": "transferOwnership",
      "outputs": [],
      "stateMutability": "nonpayable",
      "type": "function"
    },
    {
      "inputs": [],
      "name": "unpause",
      "outputs": [],
      "stateMutability": "nonpayable",
      "type": "function"
    },
    {
      "inputs": [
        {
          "internalType": "uint256",
          "name": "_shares",
          "type": "uint256"
        }
      ],
      "name": "unstake",
      "outputs": [],
      "stateMutability": "nonpayable",
      "type": "function"
    },
    {
      "inputs": [
        {
          "internalType": "address",
          "name": "",
          "type": "address"
        }
      ],
      "name": "userBalance",
      "outputs": [
        {
          "internalType": "uint256",
          "name": "balance",
          "type": "uint256"
        },
        {
          "internalType": "uint256",
          "name": "shares",
          "type": "uint256"
        },
        {
          "internalType": "uint256",
          "name": "depositTimestamp",
          "type": "uint256"
        }
      ],
      "stateMutability": "view",
      "type": "function"
    },
    {
      "inputs": [
        {
          "internalType": "uint256",
          "name": "_amount",
          "type": "uint256"
        }
      ],
      "name": "withdraw",
      "outputs": [],
      "stateMutability": "nonpayable",
      "type": "function"
    },
    {
      "stateMutability": "payable",
      "type": "receive"
    }
  ],
  "transactionHash": "0x265e60ed39d39bc150bc8677e9e80feab434bb31900f8094c0bb049cc1645524",
  "args": [
    "0xeDCca23Ad44C7B3F928b925091ee5bcd1C814ab0",
    "0xA3355eAff2feE04FB4E3dE9a90e469784F1dDAFe",
    "0x9dcF79E28E42e5b0DA47d515519Fe72D868eE7B2",
    "0x4b637E2957C96BA8892A6C51259F35C803Dd913F",
    "0x00000000000C2E074eC69A0dFb2997BA6C7d2e1e",
    120
  ],
  "solcInputHash": "85dbea9097cd8afef05a23bb24c383ad",
  "bytecode": "0x6101a06040523480156200001257600080fd5b5060405162002d3f38038062002d3f833981016040819052620000359162000328565b8284878389898b8a89600060019054906101000a900460ff16806200005d575060005460ff16155b620000c65760405162461bcd60e51b815260206004820152602e60248201527f496e697469616c697a61626c653a20636f6e747261637420697320616c72656160448201526d191e481a5b9a5d1a585b1a5e995960921b60648201526084015b60405180910390fd5b600054610100900460ff16158015620000e9576000805461ffff19166101011790555b6001600160a01b0382166200013a5760405162461bcd60e51b8152602060048201526021602482015260008051602062002d1f8339815191526044820152607360f81b6064820152608401620000bd565b6001600160601b0319606083901b166080526200015662000270565b801562000169576000805461ff00191690555b50506001600160601b0319606092831b811660a05290821b811660c05292811b831660e05290811b8216610100529290921b90911661012052610140526001600160a01b038216620001f75760405162461bcd60e51b8152602060048201526021602482015260008051602062002d1f8339815191526044820152607360f81b6064820152608401620000bd565b6001600160a01b038116620002485760405162461bcd60e51b8152602060048201526021602482015260008051602062002d1f8339815191526044820152607360f81b6064820152608401620000bd565b6001600160601b0319606092831b811661018052911b166101605250620003a0945050505050565b60335460ff1615620002b85760405162461bcd60e51b815260206004820152601060248201526f14185d5cd8589b194e881c185d5cd95960821b6044820152606401620000bd565b6033805460ff191660011790557f62e78cea01bee320cd4e420270b5ea74000d11b0c9f74754ebdbfc544b05a258620002ee3390565b6040516001600160a01b03909116815260200160405180910390a1565b80516001600160a01b03811681146200032357600080fd5b919050565b60008060008060008060c087890312156200034257600080fd5b6200034d876200030b565b95506200035d602088016200030b565b94506200036d604088016200030b565b93506200037d606088016200030b565b92506200038d608088016200030b565b915060a087015190509295509295509295565b60805160601c60a05160601c60c05160601c60e05160601c6101005160601c6101205160601c610140516101605160601c6101805160601c61285c620004c360003960008181610c9b01528181610d4301528181610da501528181611158015281816118f101528181611d910152611e33015260008181610d1b0152611e0b01526000818161027a015281816116ca0152611a9601526000818161082c01528181610e790152611985015260008181610a6d01528181610b4901528181610be301528181610f7101528181610ff20152818161107301526121b10152600081816109cf01526121e101526000818161056e015281816111db01526112e3015260008181610395015261146e0152600081816102f00152611b69015261285c6000f3fe6080604052600436106101dc5760003560e01c80638456cb5911610102578063b811540e11610095578063d9d6bd8611610064578063d9d6bd8614610590578063ddca3f43146105a3578063e366b7bb146105c3578063f2fde38b146105d957600080fd5b8063b811540e146104fc578063c47f00271461051c578063c4d66de81461053c578063c56551b61461055c57600080fd5b8063a694fc3a116100d1578063a694fc3a14610486578063aa8c217c146104a6578063b64b3bed146104bc578063b6b55f25146104dc57600080fd5b80638456cb59146104135780638da5cb5b146104285780639e6371ba14610446578063a5a6cd0b1461046657600080fd5b8063555d8ebb1161017a5780636ff46a6c116101495780636ff46a6c146103cc578063710fe6f8146103d4578063715018a6146103e95780637d7c2a1c146103fe57600080fd5b8063555d8ebb1461033f5780635c975abb1461035f57806364ffc3f4146103835780636beaeeae146103b757600080fd5b80632e17de78116101b65780632e17de781461029c5780632e1a7d4d146102be5780633f15457f146102de5780633f4ba83a1461032a57600080fd5b80630103c92b146101e857806303314efa146102445780630d6680871461026857600080fd5b366101e357005b600080fd5b3480156101f457600080fd5b50610224610203366004612494565b609a6020526000908152604090208054600182015460029092015490919083565b604080519384526020840192909252908201526060015b60405180910390f35b34801561025057600080fd5b5061025a60975481565b60405190815260200161023b565b34801561027457600080fd5b5061025a7f000000000000000000000000000000000000000000000000000000000000000081565b3480156102a857600080fd5b506102bc6102b73660046125ba565b6105f9565b005b3480156102ca57600080fd5b506102bc6102d93660046125ba565b61079f565b3480156102ea57600080fd5b506103127f000000000000000000000000000000000000000000000000000000000000000081565b6040516001600160a01b03909116815260200161023b565b34801561033657600080fd5b506102bc610938565b34801561034b57600080fd5b5061025a61035a3660046125ba565b61096c565b34801561036b57600080fd5b5060335460ff165b604051901515815260200161023b565b34801561038f57600080fd5b506103127f000000000000000000000000000000000000000000000000000000000000000081565b3480156103c357600080fd5b506102246109a9565b6102bc610c86565b3480156103e057600080fd5b5061025a610e46565b3480156103f557600080fd5b506102bc610f0d565b34801561040a57600080fd5b506102bc610f41565b34801561041f57600080fd5b506102bc6110dd565b34801561043457600080fd5b506065546001600160a01b0316610312565b34801561045257600080fd5b506102bc610461366004612494565b61110f565b34801561047257600080fd5b506103736104813660046125ba565b6111b8565b34801561049257600080fd5b506102bc6104a13660046125ba565b611602565b3480156104b257600080fd5b5061025a60985481565b3480156104c857600080fd5b506102bc6104d7366004612494565b6118a8565b3480156104e857600080fd5b506102bc6104f73660046125ba565b611920565b34801561050857600080fd5b5061025a6105173660046125ba565b611ad0565b34801561052857600080fd5b506102bc610537366004612509565b611b07565b34801561054857600080fd5b506102bc610557366004612494565b611ca8565b34801561056857600080fd5b506103127f000000000000000000000000000000000000000000000000000000000000000081565b6102bc61059e366004612494565b611d48565b3480156105af57600080fd5b50609b54610312906001600160a01b031681565b3480156105cf57600080fd5b5061025a60995481565b3480156105e557600080fd5b506102bc6105f4366004612494565b611e66565b336000908152609a60205260409020816106705760405162461bcd60e51b815260206004820152602d60248201527f5374616b696e67506f6f6c55736572496d706c3a20696e76616c696420616d6f60448201526c756e74206f662073686172657360981b60648201526084015b60405180910390fd5b81816001015410156106d55760405162461bcd60e51b815260206004820152602860248201527f5374616b696e67506f6f6c55736572496d706c3a20696e73756666696369656e604482015267742073686172657360c01b6064820152608401610667565b818160010160008282546106e991906127ce565b90915550600090506106fa8361096c565b9050826097600082825461070e91906127ce565b92505081905550806098600082825461072791906127ce565b9091555050815481908390600090610740908490612775565b9250508190555080609960008282546107599190612775565b9091555050604080518281526020810185905233917ff960dbf9e5d0682f7a298ed974e33a28b4464914b7a2bfac12ae419a9afeb28091015b60405180910390a2505050565b336000908152609a6020526040902080546108105760405162461bcd60e51b815260206004820152602b60248201527f5374616b696e67506f6f6c55736572496d706c3a206e6f2062616c616e63652060448201526a746f20776974686472617760a81b6064820152608401610667565b60405163a9059cbb60e01b8152336004820152602481018390527f00000000000000000000000000000000000000000000000000000000000000006001600160a01b03169063a9059cbb90604401602060405180830381600087803b15801561087857600080fd5b505af115801561088c573d6000803e3d6000fd5b505050506040513d601f19601f820116820180604052508101906108b091906124ce565b6108cc5760405162461bcd60e51b815260040161066790612628565b818160000160008282546108e091906127ce565b9250508190555081609960008282546108f991906127ce565b909155505060405182815233907f884edad9ce6fa2440d8a54cc123490eb96d2768479d49ff9c7366125a9424364906020015b60405180910390a25050565b6065546001600160a01b031633146109625760405162461bcd60e51b8152600401610667906126ee565b61096a611e6f565b565b6000609754600014156109885761098282611f02565b92915050565b6109826097546109a360985485611f3690919063ffffffff16565b90611f70565b6040516370a0823160e01b81523060048201526000908190819081906001600160a01b037f000000000000000000000000000000000000000000000000000000000000000016906370a082319060240160206040518083038186803b158015610a1157600080fd5b505afa158015610a25573d6000803e3d6000fd5b505050506040513d601f19601f82011682018060405250810190610a4991906124f0565b9050609954811115610b0c57604051631066f98960e21b81523060048201526000907f00000000000000000000000000000000000000000000000000000000000000006001600160a01b03169063419be6249060240160206040518083038186803b158015610ab757600080fd5b505afa158015610acb573d6000803e3d6000fd5b505050506040513d601f19601f82011682018060405250810190610aef91906124f0565b905080610b0657609954610b0390836127ce565b94505b50610c80565b806099541115610c8057600081609954610b2691906127ce565b604051638e9f04b560e01b81523060048201529091506000906001600160a01b037f00000000000000000000000000000000000000000000000000000000000000001690638e9f04b59060240160206040518083038186803b158015610b8b57600080fd5b505afa158015610b9f573d6000803e3d6000fd5b505050506040513d601f19601f82011682018060405250810190610bc391906124f0565b90508015610c79576040516367ba9b9160e01b81523060048201526000907f00000000000000000000000000000000000000000000000000000000000000006001600160a01b0316906367ba9b919060240160206040518083038186803b158015610c2d57600080fd5b505afa158015610c41573d6000803e3d6000fd5b505050506040513d601f19601f82011682018060405250810190610c6591906124f0565b905042811015610c73578194505b50610c7d565b8194505b50505b50909192565b604051636ceb5ec360e11b81523060048201527f00000000000000000000000000000000000000000000000000000000000000006001600160a01b03169063d9d6bd869034906024016000604051808303818588803b158015610ce857600080fd5b505af1158015610cfc573d6000803e3d6000fd5b5050604051632bef459560e01b81523060048201526001600160a01b037f0000000000000000000000000000000000000000000000000000000000000000811660248301527f0000000000000000000000000000000000000000000000000000000000000000169350632bef459592506044019050600060405180830381600087803b158015610d8b57600080fd5b505af1158015610d9f573d6000803e3d6000fd5b505050507f00000000000000000000000000000000000000000000000000000000000000006001600160a01b0316639b789b7e6040518163ffffffff1660e01b8152600401600060405180830381600087803b158015610dfe57600080fd5b505af1158015610e12573d6000803e3d6000fd5b50506040513392503480156108fc029250906000818181858888f19350505050158015610e43573d6000803e3d6000fd5b50565b336000908152609a6020526040808220805491516370a0823160e01b815230600482015290919083906001600160a01b037f000000000000000000000000000000000000000000000000000000000000000016906370a082319060240160206040518083038186803b158015610ebb57600080fd5b505afa158015610ecf573d6000803e3d6000fd5b505050506040513d601f19601f82011682018060405250810190610ef391906124f0565b905081811015610f035780610f05565b815b935050505090565b6065546001600160a01b03163314610f375760405162461bcd60e51b8152600401610667906126ee565b61096a6000611fb3565b6000806000610f4e6109a9565b919450925090508215610fd65760405163534a7e1d60e11b8152600481018490527f00000000000000000000000000000000000000000000000000000000000000006001600160a01b03169063a694fc3a90602401600060405180830381600087803b158015610fbd57600080fd5b505af1158015610fd1573d6000803e3d6000fd5b505050505b8115611057576040516305c2fbcf60e31b8152600481018390527f00000000000000000000000000000000000000000000000000000000000000006001600160a01b031690632e17de7890602401600060405180830381600087803b15801561103e57600080fd5b505af1158015611052573d6000803e3d6000fd5b505050505b80156110d857604051632e1a7d4d60e01b8152600481018290527f00000000000000000000000000000000000000000000000000000000000000006001600160a01b031690632e1a7d4d90602401600060405180830381600087803b1580156110bf57600080fd5b505af11580156110d3573d6000803e3d6000fd5b505050505b505050565b6065546001600160a01b031633146111075760405162461bcd60e51b8152600401610667906126ee565b61096a612005565b6065546001600160a01b031633146111395760405162461bcd60e51b8152600401610667906126ee565b604051634f31b8dd60e11b81526001600160a01b0382811660048301527f00000000000000000000000000000000000000000000000000000000000000001690639e6371ba906024015b600060405180830381600087803b15801561119d57600080fd5b505af11580156111b1573d6000803e3d6000fd5b5050505050565b6040516385425f4f60e01b81526004810182905260009081906001600160a01b037f000000000000000000000000000000000000000000000000000000000000000016906385425f4f9060240160206040518083038186803b15801561121d57600080fd5b505afa158015611231573d6000803e3d6000fd5b505050506040513d601f19601f8201168201806040525081019061125591906124b1565b90506000816001600160a01b0316638aec85426040518163ffffffff1660e01b815260040160206040518083038186803b15801561129257600080fd5b505afa1580156112a6573d6000803e3d6000fd5b505050506040513d601f19601f820116820180604052508101906112ca91906124f0565b60405163a5a6cd0b60e01b8152600481018690529091507f00000000000000000000000000000000000000000000000000000000000000006001600160a01b03169063a5a6cd0b90602401602060405180830381600087803b15801561132f57600080fd5b505af1158015611343573d6000803e3d6000fd5b505050506040513d601f19601f8201168201806040525081019061136791906124ce565b50609b54604051632c7f22b560e21b815260048101869052602481018390526000916001600160a01b03169063b1fc8ad49060440160206040518083038186803b1580156113b457600080fd5b505afa1580156113c8573d6000803e3d6000fd5b505050506040513d601f19601f820116820180604052508101906113ec91906124f0565b905081811115611466576040805162461bcd60e51b81526020600482015260248101919091527f5374616b696e67506f6f6c50726f6475636572496d706c3a20636f6d6d69737360448201527f696f6e2069732067726561746572207468616e20626c6f636b207265776172646064820152608401610667565b8015611598577f00000000000000000000000000000000000000000000000000000000000000006001600160a01b031663a9059cbb6114ad6065546001600160a01b031690565b6040516001600160e01b031960e084901b1681526001600160a01b03909116600482015260248101849052604401602060405180830381600087803b1580156114f557600080fd5b505af1158015611509573d6000803e3d6000fd5b505050506040513d601f19601f8201168201806040525081019061152d91906124ce565b6115985760405162461bcd60e51b815260206004820152603660248201527f5374616b696e67506f6f6c50726f6475636572496d706c3a206661696c6564206044820152753a37903a3930b739b332b91031b7b6b6b4b9b9b4b7b760511b6064820152608401610667565b60006115a482846127ce565b905080609860008282546115b89190612775565b909155505060408051848152602081018490527fbb9ac692e0e3001a628f86a894f03da4ced5df81886fec577036664ed70a59cb910160405180910390a150600195945050505050565b60335460ff16156116255760405162461bcd60e51b815260040161066790612676565b336000908152609a60205260409020816116515760405162461bcd60e51b815260040161066790612723565b80548211156116c85760405162461bcd60e51b815260206004820152603c60248201527f5374616b696e67506f6f6c55736572496d706c3a206e6f7420656e6f7567682060448201527f746f6b656e7320617661696c61626c6520666f72207374616b696e67000000006064820152608401610667565b7f000000000000000000000000000000000000000000000000000000000000000081600201546116f89190612775565b4210156117785760405162461bcd60e51b815260206004820152604260248201527f5374616b696e67506f6f6c55736572496d706c3a206e6f7420656e6f7567682060448201527f74696d6520686173207061737365642073696e6365206c617374206465706f736064820152611a5d60f21b608482015260a401610667565b600061178383611ad0565b9050600081116117f35760405162461bcd60e51b815260206004820152603560248201527f5374616b696e67506f6f6c55736572496d706c3a207374616b65206e6f7420656044820152746e6f75676820746f20656d6974203120736861726560581b6064820152608401610667565b808260010160008282546118079190612775565b90915550508154839083906000906118209084906127ce565b9250508190555082609860008282546118399190612775565b9250508190555080609760008282546118529190612775565b92505081905550826099600082825461186b91906127ce565b9091555050604080518481526020810183905233917f5af417134f72a9d41143ace85b0a26dce6f550f894f2cbc1eeee8810603d91b69101610792565b6065546001600160a01b031633146118d25760405162461bcd60e51b8152600401610667906126ee565b60405163b64b3bed60e01b81526001600160a01b0382811660048301527f0000000000000000000000000000000000000000000000000000000000000000169063b64b3bed90602401611183565b60335460ff16156119435760405162461bcd60e51b815260040161066790612676565b600081116119635760405162461bcd60e51b815260040161066790612723565b6040516323b872dd60e01b8152336004820152306024820152604481018290527f00000000000000000000000000000000000000000000000000000000000000006001600160a01b0316906323b872dd90606401602060405180830381600087803b1580156119d157600080fd5b505af11580156119e5573d6000803e3d6000fd5b505050506040513d601f19601f82011682018060405250810190611a0991906124ce565b611a255760405162461bcd60e51b815260040161066790612628565b336000908152609a60205260408120805490918391839190611a48908490612775565b909155505042600282015560998054839190600090611a68908490612775565b909155503390507f90890809c654f11d6e72a28fa60149770a0d11ec6c92319d6ceb2bb0a4ea1a1583611abb7f000000000000000000000000000000000000000000000000000000000000000042612775565b6040805192835260208301919091520161092c565b600060985460001415611ae6576109828261205d565b610982609854611b016097548561206d90919063ffffffff16565b90612095565b6065546001600160a01b03163314611b315760405162461bcd60e51b8152600401610667906126ee565b6040516302571be360e01b81527f91d1777781884d03a6757a803996e38de2a42967fb37eeaca72729271025a9e260048201526000907f00000000000000000000000000000000000000000000000000000000000000006001600160a01b0316906302571be39060240160206040518083038186803b158015611bb357600080fd5b505afa158015611bc7573d6000803e3d6000fd5b505050506040513d601f19601f82011682018060405250810190611beb91906124b1565b60405163c47f002760e01b81529091506001600160a01b0382169063c47f002790611c1a9085906004016125d3565b602060405180830381600087803b158015611c3457600080fd5b505af1158015611c48573d6000803e3d6000fd5b505050506040513d601f19601f82011682018060405250810190611c6c91906124f0565b507f6aaa0865532d48a9a0f63cc91df7ff2ab538c896665c864ae02d0a1e7f81cf6582604051611c9c91906125d3565b60405180910390a15050565b600054610100900460ff1680611cc1575060005460ff16155b611cdd5760405162461bcd60e51b8152600401610667906126a0565b600054610100900460ff16158015611cff576000805461ffff19166101011790555b611d076120b8565b611d0f612133565b609b80546001600160a01b0319166001600160a01b038416179055611d3261219a565b8015611d44576000805461ff00191690555b5050565b6065546001600160a01b03163314611d725760405162461bcd60e51b8152600401610667906126ee565b604051636ceb5ec360e11b81526001600160a01b0382811660048301527f0000000000000000000000000000000000000000000000000000000000000000169063d9d6bd869034906024016000604051808303818588803b158015611dd657600080fd5b505af1158015611dea573d6000803e3d6000fd5b5050604051632bef459560e01b81526001600160a01b0385811660048301527f0000000000000000000000000000000000000000000000000000000000000000811660248301527f0000000000000000000000000000000000000000000000000000000000000000169350632bef459592506044019050611183565b610e43816122bd565b60335460ff16611eb85760405162461bcd60e51b815260206004820152601460248201527314185d5cd8589b194e881b9bdd081c185d5cd95960621b6044820152606401610667565b6033805460ff191690557f5db9ee0a495bf2e6ff9c91a7834c1ba4fdd244a5e8aa4e537bd38aeae4b073aa335b6040516001600160a01b03909116815260200160405180910390a1565b600080611f146002633b9aca0061278d565b9050633b9aca00611f258483612775565b611f2f919061278d565b9392505050565b60006b033b2e3c9fd0803ce8000000611f4f83856127af565b611f6660026b033b2e3c9fd0803ce800000061278d565b611f259190612775565b600080611f7e60028461278d565b905082611f976b033b2e3c9fd0803ce8000000866127af565b611fa19083612775565b611fab919061278d565b949350505050565b606580546001600160a01b038381166001600160a01b0319831681179093556040519116919082907f8be0079c531659141344cd1fd0a4f28419497f9722a3daafe3b4186f6b6457e090600090a35050565b60335460ff16156120285760405162461bcd60e51b815260040161066790612676565b6033805460ff191660011790557f62e78cea01bee320cd4e420270b5ea74000d11b0c9f74754ebdbfc544b05a258611ee53390565b6000610982633b9aca00836127af565b6000670de0b6b3a764000061208283856127af565b611f666002670de0b6b3a764000061278d565b6000806120a360028461278d565b905082611f97670de0b6b3a7640000866127af565b600054610100900460ff16806120d1575060005460ff16155b6120ed5760405162461bcd60e51b8152600401610667906126a0565b600054610100900460ff1615801561210f576000805461ffff19166101011790555b612117612355565b61211f6123bf565b8015610e43576000805461ff001916905550565b600054610100900460ff168061214c575060005460ff16155b6121685760405162461bcd60e51b8152600401610667906126a0565b600054610100900460ff1615801561218a576000805461ffff19166101011790555b612192612355565b61211f612434565b60405163095ea7b360e01b81526001600160a01b037f00000000000000000000000000000000000000000000000000000000000000008116600483015260001960248301527f0000000000000000000000000000000000000000000000000000000000000000169063095ea7b390604401602060405180830381600087803b15801561222557600080fd5b505af1158015612239573d6000803e3d6000fd5b505050506040513d601f19601f8201168201806040525081019061225d91906124ce565b61096a5760405162461bcd60e51b815260206004820152602b60248201527f4661696c656420746f20617070726f7665204354534920666f72207374616b6960448201526a1b99c818dbdb9d1c9858dd60aa1b6064820152608401610667565b6065546001600160a01b031633146122e75760405162461bcd60e51b8152600401610667906126ee565b6001600160a01b03811661234c5760405162461bcd60e51b815260206004820152602660248201527f4f776e61626c653a206e6577206f776e657220697320746865207a65726f206160448201526564647265737360d01b6064820152608401610667565b610e4381611fb3565b600054610100900460ff168061236e575060005460ff16155b61238a5760405162461bcd60e51b8152600401610667906126a0565b600054610100900460ff1615801561211f576000805461ffff19166101011790558015610e43576000805461ff001916905550565b600054610100900460ff16806123d8575060005460ff16155b6123f45760405162461bcd60e51b8152600401610667906126a0565b600054610100900460ff16158015612416576000805461ffff19166101011790555b6033805460ff191690558015610e43576000805461ff001916905550565b600054610100900460ff168061244d575060005460ff16155b6124695760405162461bcd60e51b8152600401610667906126a0565b600054610100900460ff1615801561248b576000805461ffff19166101011790555b61211f33611fb3565b6000602082840312156124a657600080fd5b8135611f2f81612811565b6000602082840312156124c357600080fd5b8151611f2f81612811565b6000602082840312156124e057600080fd5b81518015158114611f2f57600080fd5b60006020828403121561250257600080fd5b5051919050565b60006020828403121561251b57600080fd5b813567ffffffffffffffff8082111561253357600080fd5b818401915084601f83011261254757600080fd5b813581811115612559576125596127fb565b604051601f8201601f19908116603f01168101908382118183101715612581576125816127fb565b8160405282815287602084870101111561259a57600080fd5b826020860160208301376000928101602001929092525095945050505050565b6000602082840312156125cc57600080fd5b5035919050565b600060208083528351808285015260005b81811015612600578581018301518582016040015282016125e4565b81811115612612576000604083870101525b50601f01601f1916929092016040019392505050565b6020808252602e908201527f5374616b696e67506f6f6c55736572496d706c3a206661696c656420746f207460408201526d72616e7366657220746f6b656e7360901b606082015260800190565b60208082526010908201526f14185d5cd8589b194e881c185d5cd95960821b604082015260600190565b6020808252602e908201527f496e697469616c697a61626c653a20636f6e747261637420697320616c72656160408201526d191e481a5b9a5d1a585b1a5e995960921b606082015260800190565b6020808252818101527f4f776e61626c653a2063616c6c6572206973206e6f7420746865206f776e6572604082015260600190565b60208082526032908201527f5374616b696e67506f6f6c55736572496d706c3a20616d6f756e74206d75737460408201527102062652067726561746572207468616e20360741b606082015260800190565b60008219821115612788576127886127e5565b500190565b6000826127aa57634e487b7160e01b600052601260045260246000fd5b500490565b60008160001904831182151516156127c9576127c96127e5565b500290565b6000828210156127e0576127e06127e5565b500390565b634e487b7160e01b600052601160045260246000fd5b634e487b7160e01b600052604160045260246000fd5b6001600160a01b0381168114610e4357600080fdfea2646970667358221220cda43f8263172fcee6cd2af8d01fc28f76524fb9ac79a49d83be81644b78740464736f6c63430008060033706172616d657465722063616e206e6f74206265207a65726f20616464726573",
  "devdoc": {
    "kind": "dev",
    "methods": {
      "amounts()": {
        "returns": {
          "stake": "amount of tokens that can be staked",
          "unstake": "amount of tokens that must be unstaked to add liquidity",
          "withdraw": "amount of tokens that can be withdrawn to add liquidity"
        }
      },
      "cancelHire(address)": {
        "params": {
          "workerAddress": "address of the worker node"
        }
      },
      "getWithdrawBalance()": {
        "details": "there is no way to know the exact time in the future the requested tokens will be available",
        "returns": {
          "_0": "the amount of tokens that can be immediately withdrawn by the calling user"
        }
      },
      "hire(address)": {
        "params": {
          "workerAddress": "address of the worker"
        }
      },
      "owner()": {
        "details": "Returns the address of the current owner."
      },
      "paused()": {
        "details": "Returns true if the contract is paused, and false otherwise."
      },
      "produceBlock(uint256)": {
        "returns": {
          "_0": "true when everything went fine"
        }
      },
      "renounceOwnership()": {
        "details": "Leaves the contract without owner. It will not be possible to call `onlyOwner` functions anymore. Can only be called by the current owner. NOTE: Renouncing ownership will leave the contract without an owner, thereby removing any functionality that is only available to the owner."
      },
      "retire(address)": {
        "details": "this also removes all authorizations in place",
        "params": {
          "workerAddress": "address of the worker to be retired"
        }
      },
      "stake(uint256)": {
        "params": {
          "_amount": "amount of tokens to convert from user's balance"
        }
      },
      "withdraw(uint256)": {
        "details": "this will transfer all free tokens for the calling user"
      }
    },
    "version": 1
  },
  "userdoc": {
    "events": {
      "BlockProduced(uint256,uint256)": {
        "notice": "this event is emitted at every produceBlock call reward is the block reward commission is how much CTSI is directed to the pool owner"
      },
      "Deposit(address,uint256,uint256)": {
        "notice": "Tokens were deposited, available for staking or withdrawal"
      },
      "Stake(address,uint256,uint256)": {
        "notice": "Tokens were deposited, they count as shares immediatly"
      },
      "StakingPoolRenamed(string)": {
        "notice": "Event emmited when a pool is rename"
      },
      "Unstake(address,uint256,uint256)": {
        "notice": "Request to unstake tokens. Additional liquidity requested for the pool"
      },
      "Withdraw(address,uint256)": {
        "notice": "Withdraw performed by a user"
      }
    },
    "kind": "user",
    "methods": {
      "amounts()": {
        "notice": "provide information for offchain about the amount for each staking operation on the main Staking contract"
      },
      "cancelHire(address)": {
        "notice": "Called by the user to cancel a job offer"
      },
      "getWithdrawBalance()": {
        "notice": "Returns the amount of tokens that can be immediately withdrawn by the calling user"
      },
      "hire(address)": {
        "notice": "Asks the worker to work for the sender. Sender needs to pay something."
      },
      "pause()": {
        "notice": "pauses new staking on the pool"
      },
      "produceBlock(uint256)": {
        "notice": "routes produceBlock to POS contract and updates internal states of the pool"
      },
      "rebalance()": {
        "notice": "Move tokens from pool to staking or vice-versa, according to required liquidity. If the pool has more liquidity then necessary, it stakes tokens. If the pool has less liquidity then necessary, and has not started an unstake, it unstakes. If the pool has less liquity than necessary, and has started an unstake, it withdraws if possible."
      },
      "retire(address)": {
        "notice": "Called by the user to retire his worker."
      },
      "selfhire()": {
        "notice": "allows for the pool to act on its own behalf when producing blocks."
      },
      "setName(string)": {
        "notice": "sets a name for the pool using ENS service"
      },
      "stake(uint256)": {
        "notice": "Stake an amount of tokens, immediately earning pool shares in returns"
      },
      "unpause()": {
        "notice": "unpauses new staking on the pool"
      },
      "unstake(uint256)": {
        "notice": "allow for users to defined exactly how many shares they want to unstake. Estimated value is then emitted on Unstake event"
      },
      "withdraw(uint256)": {
        "notice": "Transfer tokens back to calling user wallet"
      }
    },
    "version": 1
  },
  "storageLayout": {
    "storage": [
      {
        "astId": 979,
        "contract": "contracts/StakingPoolImpl.sol:StakingPoolImpl",
        "label": "_initialized",
        "offset": 0,
        "slot": "0",
        "type": "t_bool"
      },
      {
        "astId": 982,
        "contract": "contracts/StakingPoolImpl.sol:StakingPoolImpl",
        "label": "_initializing",
        "offset": 1,
        "slot": "0",
        "type": "t_bool"
      },
      {
        "astId": 1175,
        "contract": "contracts/StakingPoolImpl.sol:StakingPoolImpl",
        "label": "__gap",
        "offset": 0,
        "slot": "1",
        "type": "t_array(t_uint256)50_storage"
      },
      {
        "astId": 1040,
        "contract": "contracts/StakingPoolImpl.sol:StakingPoolImpl",
        "label": "_paused",
        "offset": 0,
        "slot": "51",
        "type": "t_bool"
      },
      {
        "astId": 1131,
        "contract": "contracts/StakingPoolImpl.sol:StakingPoolImpl",
        "label": "__gap",
        "offset": 0,
        "slot": "52",
        "type": "t_array(t_uint256)49_storage"
      },
      {
        "astId": 859,
        "contract": "contracts/StakingPoolImpl.sol:StakingPoolImpl",
        "label": "_owner",
        "offset": 0,
        "slot": "101",
        "type": "t_address"
      },
      {
        "astId": 972,
        "contract": "contracts/StakingPoolImpl.sol:StakingPoolImpl",
        "label": "__gap",
        "offset": 0,
        "slot": "102",
        "type": "t_array(t_uint256)49_storage"
      },
      {
        "astId": 1862,
        "contract": "contracts/StakingPoolImpl.sol:StakingPoolImpl",
        "label": "shares",
        "offset": 0,
        "slot": "151",
        "type": "t_uint256"
      },
      {
        "astId": 1864,
        "contract": "contracts/StakingPoolImpl.sol:StakingPoolImpl",
        "label": "amount",
        "offset": 0,
        "slot": "152",
        "type": "t_uint256"
      },
      {
        "astId": 1866,
        "contract": "contracts/StakingPoolImpl.sol:StakingPoolImpl",
        "label": "requiredLiquidity",
        "offset": 0,
        "slot": "153",
        "type": "t_uint256"
      },
      {
        "astId": 1878,
        "contract": "contracts/StakingPoolImpl.sol:StakingPoolImpl",
        "label": "userBalance",
        "offset": 0,
        "slot": "154",
        "type": "t_mapping(t_address,t_struct(UserBalance)1873_storage)"
      },
      {
        "astId": 2486,
        "contract": "contracts/StakingPoolImpl.sol:StakingPoolImpl",
        "label": "fee",
        "offset": 0,
        "slot": "155",
        "type": "t_contract(Fee)3319"
      }
    ],
    "types": {
      "t_address": {
        "encoding": "inplace",
        "label": "address",
        "numberOfBytes": "20"
      },
      "t_array(t_uint256)49_storage": {
        "base": "t_uint256",
        "encoding": "inplace",
        "label": "uint256[49]",
        "numberOfBytes": "1568"
      },
      "t_array(t_uint256)50_storage": {
        "base": "t_uint256",
        "encoding": "inplace",
        "label": "uint256[50]",
        "numberOfBytes": "1600"
      },
      "t_bool": {
        "encoding": "inplace",
        "label": "bool",
        "numberOfBytes": "1"
      },
      "t_contract(Fee)3319": {
        "encoding": "inplace",
        "label": "contract Fee",
        "numberOfBytes": "20"
      },
      "t_mapping(t_address,t_struct(UserBalance)1873_storage)": {
        "encoding": "mapping",
        "key": "t_address",
        "label": "mapping(address => struct StakingPoolData.UserBalance)",
        "numberOfBytes": "32",
        "value": "t_struct(UserBalance)1873_storage"
      },
      "t_struct(UserBalance)1873_storage": {
        "encoding": "inplace",
        "label": "struct StakingPoolData.UserBalance",
        "members": [
          {
            "astId": 1868,
            "contract": "contracts/StakingPoolImpl.sol:StakingPoolImpl",
            "label": "balance",
            "offset": 0,
            "slot": "0",
            "type": "t_uint256"
          },
          {
            "astId": 1870,
            "contract": "contracts/StakingPoolImpl.sol:StakingPoolImpl",
            "label": "shares",
            "offset": 0,
            "slot": "1",
            "type": "t_uint256"
          },
          {
            "astId": 1872,
            "contract": "contracts/StakingPoolImpl.sol:StakingPoolImpl",
            "label": "depositTimestamp",
            "offset": 0,
            "slot": "2",
            "type": "t_uint256"
          }
        ],
        "numberOfBytes": "96"
      },
      "t_uint256": {
        "encoding": "inplace",
        "label": "uint256",
        "numberOfBytes": "32"
      }
    }
  }
}