{
  "address": "0xd3Fef3d2827596F9F698091Bba403415DcDbE95B",
  "abi": [
    {
      "inputs": [
        {
          "internalType": "address",
          "name": "_gasOracle",
          "type": "address"
        },
        {
          "internalType": "address",
          "name": "_priceOracle",
          "type": "address"
        },
        {
          "internalType": "uint256",
          "name": "_feeRaiseTimeout",
          "type": "uint256"
        },
        {
          "internalType": "uint256",
          "name": "_maxGasRaise",
          "type": "uint256"
        },
        {
          "internalType": "uint256",
          "name": "_maxFeePercentageRaise",
          "type": "uint256"
        }
      ],
      "stateMutability": "nonpayable",
      "type": "constructor"
    },
    {
      "anonymous": false,
      "inputs": [
        {
          "indexed": true,
          "internalType": "address",
          "name": "pool",
          "type": "address"
        },
        {
          "indexed": false,
          "internalType": "address",
          "name": "fee",
          "type": "address"
        }
      ],
      "name": "NewFlatRateCommissionStakingPool",
      "type": "event"
    },
    {
      "anonymous": false,
      "inputs": [
        {
          "indexed": true,
          "internalType": "address",
          "name": "pool",
          "type": "address"
        },
        {
          "indexed": false,
          "internalType": "address",
          "name": "fee",
          "type": "address"
        }
      ],
      "name": "NewGasTaxCommissionStakingPool",
      "type": "event"
    },
    {
      "anonymous": false,
      "inputs": [
        {
          "indexed": true,
          "internalType": "address",
          "name": "previousOwner",
          "type": "address"
        },
        {
          "indexed": true,
          "internalType": "address",
          "name": "newOwner",
          "type": "address"
        }
      ],
      "name": "OwnershipTransferred",
      "type": "event"
    },
    {
      "anonymous": false,
      "inputs": [
        {
          "indexed": false,
          "internalType": "address",
          "name": "account",
          "type": "address"
        }
      ],
      "name": "Paused",
      "type": "event"
    },
    {
      "anonymous": false,
      "inputs": [
        {
          "indexed": true,
          "internalType": "address",
          "name": "pool",
          "type": "address"
        }
      ],
      "name": "ReferencePoolChanged",
      "type": "event"
    },
    {
      "anonymous": false,
      "inputs": [
        {
          "indexed": false,
          "internalType": "address",
          "name": "account",
          "type": "address"
        }
      ],
      "name": "Unpaused",
      "type": "event"
    },
    {
      "inputs": [
        {
          "internalType": "uint256",
          "name": "commission",
          "type": "uint256"
        }
      ],
      "name": "createFlatRateCommission",
      "outputs": [
        {
          "internalType": "address",
          "name": "",
          "type": "address"
        }
      ],
      "stateMutability": "payable",
      "type": "function"
    },
    {
      "inputs": [
        {
          "internalType": "uint256",
          "name": "gas",
          "type": "uint256"
        }
      ],
      "name": "createGasTaxCommission",
      "outputs": [
        {
          "internalType": "address",
          "name": "",
          "type": "address"
        }
      ],
      "stateMutability": "payable",
      "type": "function"
    },
    {
      "inputs": [],
      "name": "feeRaiseTimeout",
      "outputs": [
        {
          "internalType": "uint256",
          "name": "",
          "type": "uint256"
        }
      ],
      "stateMutability": "view",
      "type": "function"
    },
    {
      "inputs": [],
      "name": "gasOracle",
      "outputs": [
        {
          "internalType": "address",
          "name": "",
          "type": "address"
        }
      ],
      "stateMutability": "view",
      "type": "function"
    },
    {
      "inputs": [],
      "name": "maxFeePercentageRaise",
      "outputs": [
        {
          "internalType": "uint256",
          "name": "",
          "type": "uint256"
        }
      ],
      "stateMutability": "view",
      "type": "function"
    },
    {
      "inputs": [],
      "name": "maxGasRaise",
      "outputs": [
        {
          "internalType": "uint256",
          "name": "",
          "type": "uint256"
        }
      ],
      "stateMutability": "view",
      "type": "function"
    },
    {
      "inputs": [],
      "name": "owner",
      "outputs": [
        {
          "internalType": "address",
          "name": "",
          "type": "address"
        }
      ],
      "stateMutability": "view",
      "type": "function"
    },
    {
      "inputs": [],
      "name": "pause",
      "outputs": [],
      "stateMutability": "nonpayable",
      "type": "function"
    },
    {
      "inputs": [],
      "name": "paused",
      "outputs": [
        {
          "internalType": "bool",
          "name": "",
          "type": "bool"
        }
      ],
      "stateMutability": "view",
      "type": "function"
    },
    {
      "inputs": [],
      "name": "priceOracle",
      "outputs": [
        {
          "internalType": "address",
          "name": "",
          "type": "address"
        }
      ],
      "stateMutability": "view",
      "type": "function"
    },
    {
      "inputs": [],
      "name": "referencePool",
      "outputs": [
        {
          "internalType": "address",
          "name": "",
          "type": "address"
        }
      ],
      "stateMutability": "view",
      "type": "function"
    },
    {
      "inputs": [],
      "name": "renounceOwnership",
      "outputs": [],
      "stateMutability": "nonpayable",
      "type": "function"
    },
    {
      "inputs": [
        {
          "internalType": "address",
          "name": "_referencePool",
          "type": "address"
        }
      ],
      "name": "setReferencePool",
      "outputs": [],
      "stateMutability": "nonpayable",
      "type": "function"
    },
    {
      "inputs": [
        {
          "internalType": "address",
          "name": "newOwner",
          "type": "address"
        }
      ],
      "name": "transferOwnership",
      "outputs": [],
      "stateMutability": "nonpayable",
      "type": "function"
    },
    {
      "inputs": [],
      "name": "unpause",
      "outputs": [],
      "stateMutability": "nonpayable",
      "type": "function"
    },
    {
      "stateMutability": "payable",
      "type": "receive"
    }
  ],
  "transactionHash": "0x80b2d7b8d8273de3a773e2140f303d4178a03d8448b63d5b13e1ced85e6ba45c",
  "args": [
    "0x23aed0F095577c009e1Dad729C9E4eF68F3d268f",
    "0x48471bEa75aD3794542B1640E442914e49995bDf",
    120,
    20000,
    500
  ],
  "solcInputHash": "beed0be29af9d75220c2418c6d7071ac",
  "bytecode": "0x61012060405234801561001157600080fd5b50604051620021df380380620021df833981016040819052610032916101bb565b61003b3361014f565b6000805460ff60a01b191690556001600160a01b0385166100b85760405162461bcd60e51b815260206004820152603a6024820152600080516020620021bf83398151915260448201527f722063616e206e6f74206265207a65726f20616464726573732e00000000000060648201526084015b60405180910390fd5b6001600160a01b0384166101235760405162461bcd60e51b815260206004820152603a6024820152600080516020620021bf83398151915260448201527f722063616e206e6f74206265207a65726f20616464726573732e00000000000060648201526084016100af565b6001600160601b0319606095861b81166080529390941b90921660a05260c05260e05261010052610209565b600080546001600160a01b038381166001600160a01b0319831681178455604051919092169283917f8be0079c531659141344cd1fd0a4f28419497f9722a3daafe3b4186f6b6457e09190a35050565b80516001600160a01b03811681146101b657600080fd5b919050565b600080600080600060a086880312156101d357600080fd5b6101dc8661019f565b94506101ea6020870161019f565b6040870151606088015160809098015196999198509695945092505050565b60805160601c60a05160601c60c05160e05161010051611f416200027e6000396000818161023201526104c80152600081816102a3015261084c01526000818161010a015281816104a7015261082b01526000818161015101526108090152600081816101fe01526107e80152611f416000f3fe6080604052600436106100ec5760003560e01c8063715018a61161008a5780638da5cb5b116100595780638da5cb5b146102c557806395994ef7146102e3578063964658b614610303578063f2fde38b1461031657600080fd5b8063715018a6146102545780638456cb591461026957806386f1a7171461027e578063896c51071461029157600080fd5b8063533135b6116100c6578063533135b6146101a25780635c975abb146101c25780635d62a8dd146101ec5780636c678ff11461022057600080fd5b8063112cde6a146100f85780632630c12f1461013f5780633f4ba83a1461018b57600080fd5b366100f357005b600080fd5b34801561010457600080fd5b5061012c7f000000000000000000000000000000000000000000000000000000000000000081565b6040519081526020015b60405180910390f35b34801561014b57600080fd5b506101737f000000000000000000000000000000000000000000000000000000000000000081565b6040516001600160a01b039091168152602001610136565b34801561019757600080fd5b506101a0610336565b005b3480156101ae57600080fd5b50600154610173906001600160a01b031681565b3480156101ce57600080fd5b50600054600160a01b900460ff166040519015158152602001610136565b3480156101f857600080fd5b506101737f000000000000000000000000000000000000000000000000000000000000000081565b34801561022c57600080fd5b5061012c7f000000000000000000000000000000000000000000000000000000000000000081565b34801561026057600080fd5b506101a06103bf565b34801561027557600080fd5b506101a06103f3565b61017361028c366004610d7a565b61044f565b34801561029d57600080fd5b5061012c7f000000000000000000000000000000000000000000000000000000000000000081565b3480156102d157600080fd5b506000546001600160a01b0316610173565b3480156102ef57600080fd5b506101a06102fe366004610d4a565b61071d565b610173610311366004610d7a565b610791565b34801561032257600080fd5b506101a0610331366004610d4a565b610aab565b600054600160a01b900460ff1661038b5760405162461bcd60e51b815260206004820152601460248201527314185d5cd8589b194e881b9bdd081c185d5cd95960621b60448201526064015b60405180910390fd5b6000546001600160a01b031633146103b55760405162461bcd60e51b815260040161038290610dbd565b6103bd610b46565b565b6000546001600160a01b031633146103e95760405162461bcd60e51b815260040161038290610dbd565b6103bd6000610be3565b600054600160a01b900460ff161561041d5760405162461bcd60e51b815260040161038290610d93565b6000546001600160a01b031633146104475760405162461bcd60e51b815260040161038290610dbd565b6103bd610c33565b60008054600160a01b900460ff161561047a5760405162461bcd60e51b815260040161038290610d93565b6001546001600160a01b03166104a25760405162461bcd60e51b815260040161038290610df2565b6000827f00000000000000000000000000000000000000000000000000000000000000007f00000000000000000000000000000000000000000000000000000000000000006040516104f390610d30565b92835260208301919091526040820152606001604051809103906000f080158015610522573d6000803e3d6000fd5b5060015490915060009061053e906001600160a01b0316610c98565b60405163189acdbd60e31b81526001600160a01b038481166004830152919250829182169063c4d66de890602401600060405180830381600087803b15801561058657600080fd5b505af115801561059a573d6000803e3d6000fd5b505060405163f2fde38b60e01b81523360048201526001600160a01b038416925063f2fde38b9150602401600060405180830381600087803b1580156105df57600080fd5b505af11580156105f3573d6000803e3d6000fd5b505060405163f2fde38b60e01b81523360048201526001600160a01b038616925063f2fde38b9150602401600060405180830381600087803b15801561063857600080fd5b505af115801561064c573d6000803e3d6000fd5b50505050806001600160a01b0316636ff46a6c346040518263ffffffff1660e01b81526004016000604051808303818588803b15801561068b57600080fd5b505af115801561069f573d6000803e3d6000fd5b50506040513393503480156108fc02935091506000818181858888f193505050501580156106d1573d6000803e3d6000fd5b506040516001600160a01b0384811682528216907fdca0276ad17c3c65434ae45a0754677f87ae465de69763ebe79ceaeff2805bc7906020015b60405180910390a2925050505b919050565b6000546001600160a01b031633146107475760405162461bcd60e51b815260040161038290610dbd565b600180546001600160a01b0319166001600160a01b0383169081179091556040517f5e3b1dda0e29fe5d32248c3be6ac8f07890d4bc593a7810238b65d512197042490600090a250565b60008054600160a01b900460ff16156107bc5760405162461bcd60e51b815260040161038290610d93565b6001546001600160a01b03166107e45760405162461bcd60e51b815260040161038290610df2565b60007f00000000000000000000000000000000000000000000000000000000000000007f0000000000000000000000000000000000000000000000000000000000000000847f00000000000000000000000000000000000000000000000000000000000000007f000000000000000000000000000000000000000000000000000000000000000060405161087790610d3d565b6001600160a01b03958616815294909316602085015260408401919091526060830152608082015260a001604051809103906000f0801580156108be573d6000803e3d6000fd5b506001549091506000906108da906001600160a01b0316610c98565b60405163189acdbd60e31b81526001600160a01b038481166004830152919250829182169063c4d66de890602401600060405180830381600087803b15801561092257600080fd5b505af1158015610936573d6000803e3d6000fd5b505060405163f2fde38b60e01b81523360048201526001600160a01b038416925063f2fde38b9150602401600060405180830381600087803b15801561097b57600080fd5b505af115801561098f573d6000803e3d6000fd5b505060405163f2fde38b60e01b81523360048201526001600160a01b038616925063f2fde38b9150602401600060405180830381600087803b1580156109d457600080fd5b505af11580156109e8573d6000803e3d6000fd5b50505050806001600160a01b0316636ff46a6c346040518263ffffffff1660e01b81526004016000604051808303818588803b158015610a2757600080fd5b505af1158015610a3b573d6000803e3d6000fd5b50506040513393503480156108fc02935091506000818181858888f19350505050158015610a6d573d6000803e3d6000fd5b506040516001600160a01b0384811682528216907f93b9326c0865b177ab4a6131c8e6806a0edc9f3585dbaeb773542d3582d045719060200161070b565b6000546001600160a01b03163314610ad55760405162461bcd60e51b815260040161038290610dbd565b6001600160a01b038116610b3a5760405162461bcd60e51b815260206004820152602660248201527f4f776e61626c653a206e6577206f776e657220697320746865207a65726f206160448201526564647265737360d01b6064820152608401610382565b610b4381610be3565b50565b600054600160a01b900460ff16610b965760405162461bcd60e51b815260206004820152601460248201527314185d5cd8589b194e881b9bdd081c185d5cd95960621b6044820152606401610382565b6000805460ff60a01b191690557f5db9ee0a495bf2e6ff9c91a7834c1ba4fdd244a5e8aa4e537bd38aeae4b073aa335b6040516001600160a01b03909116815260200160405180910390a1565b600080546001600160a01b038381166001600160a01b0319831681178455604051919092169283917f8be0079c531659141344cd1fd0a4f28419497f9722a3daafe3b4186f6b6457e09190a35050565b600054600160a01b900460ff1615610c5d5760405162461bcd60e51b815260040161038290610d93565b6000805460ff60a01b1916600160a01b1790557f62e78cea01bee320cd4e420270b5ea74000d11b0c9f74754ebdbfc544b05a258610bc63390565b6000604051733d602d80600a3d3981f3363d3d373d3d3d363d7360601b81528260601b60148201526e5af43d82803e903d91602b57fd5bf360881b60288201526037816000f09150506001600160a01b0381166107185760405162461bcd60e51b8152602060048201526016602482015275115490cc4c4d8dce8818dc99585d194819985a5b195960521b6044820152606401610382565b61073580610e4383390190565b6109948061157883390190565b600060208284031215610d5c57600080fd5b81356001600160a01b0381168114610d7357600080fd5b9392505050565b600060208284031215610d8c57600080fd5b5035919050565b60208082526010908201526f14185d5cd8589b194e881c185d5cd95960821b604082015260600190565b6020808252818101527f4f776e61626c653a2063616c6c6572206973206e6f7420746865206f776e6572604082015260600190565b60208082526030908201527f5374616b696e67506f6f6c466163746f7279496d706c3a20756e646566696e6560408201526f19081c9959995c995b98d9481c1bdbdb60821b60608201526080019056fe60c060405234801561001057600080fd5b5060405161073538038061073583398101604081905261002f916100dc565b6100383361008c565b6001839055608082905260a08190526002546040805185815260208101929092527f8a36c5a730a168f010484976acd9da00019dde58dcdaa557ec1035ade3805c92910160405180910390a150505061010a565b600080546001600160a01b038381166001600160a01b0319831681178455604051919092169283917f8be0079c531659141344cd1fd0a4f28419497f9722a3daafe3b4186f6b6457e09190a35050565b6000806000606084860312156100f157600080fd5b8351925060208401519150604084015190509250925092565b60805160a0516105f961013c60003960008181610108015261023401526000818160a801526102f101526105f96000f3fe608060405234801561001057600080fd5b506004361061009e5760003560e01c80638da5cb5b116100665780638da5cb5b1461012a578063b1fc8ad414610145578063c2ce5e8614610158578063ec342ad014610161578063f2fde38b1461016a57600080fd5b8063112cde6a146100a35780632c4e722e146100dd57806334fcf437146100e6578063715018a6146100fb578063719ec6b114610103575b600080fd5b6100ca7f000000000000000000000000000000000000000000000000000000000000000081565b6040519081526020015b60405180910390f35b6100ca60015481565b6100f96100f43660046104cd565b61017d565b005b6100f961035f565b6100ca7f000000000000000000000000000000000000000000000000000000000000000081565b6000546040516001600160a01b0390911681526020016100d4565b6100ca6101533660046104e6565b610395565b6100ca60025481565b6100ca61271081565b6100f96101783660046104a4565b6103b9565b6000546001600160a01b031633146101b05760405162461bcd60e51b81526004016101a790610508565b60405180910390fd5b60015481111561031a574260025411156102325760405162461bcd60e51b815260206004820152603b60248201527f466c617452617465436f6d6d697373696f6e3a2074686520666565207261697360448201527f652074696d6f7574206973206e6f74206578706972656420796574000000000060648201526084016101a7565b7f0000000000000000000000000000000000000000000000000000000000000000600154826102619190610596565b11156102ec5760405162461bcd60e51b815260206004820152604e60248201527f466c617452617465436f6d6d697373696f6e3a2074686520666565207261697360448201527f65206973206f76657220746865206d6178696d756d20616c6c6f77656420706560648201526d7263656e746167652076616c756560901b608482015260a4016101a7565b6103167f00000000000000000000000000000000000000000000000000000000000000004261053d565b6002555b60018190556002546040805183815260208101929092527f8a36c5a730a168f010484976acd9da00019dde58dcdaa557ec1035ade3805c92910160405180910390a150565b6000546001600160a01b031633146103895760405162461bcd60e51b81526004016101a790610508565b6103936000610454565b565b6000612710600154836103a89190610577565b6103b29190610555565b9392505050565b6000546001600160a01b031633146103e35760405162461bcd60e51b81526004016101a790610508565b6001600160a01b0381166104485760405162461bcd60e51b815260206004820152602660248201527f4f776e61626c653a206e6577206f776e657220697320746865207a65726f206160448201526564647265737360d01b60648201526084016101a7565b61045181610454565b50565b600080546001600160a01b038381166001600160a01b0319831681178455604051919092169283917f8be0079c531659141344cd1fd0a4f28419497f9722a3daafe3b4186f6b6457e09190a35050565b6000602082840312156104b657600080fd5b81356001600160a01b03811681146103b257600080fd5b6000602082840312156104df57600080fd5b5035919050565b600080604083850312156104f957600080fd5b50508035926020909101359150565b6020808252818101527f4f776e61626c653a2063616c6c6572206973206e6f7420746865206f776e6572604082015260600190565b60008219821115610550576105506105ad565b500190565b60008261057257634e487b7160e01b600052601260045260246000fd5b500490565b6000816000190483118215151615610591576105916105ad565b500290565b6000828210156105a8576105a86105ad565b500390565b634e487b7160e01b600052601160045260246000fdfea2646970667358221220782d264d89567d79cf58e30217a0b5b82d20e8a647a862bc3a0f6e8a4a5e1fab64736f6c6343000807003361010060405234801561001157600080fd5b506040516109943803806109948339810160408190526100309161011d565b610039336100b1565b6001600160601b0319606086811b821660c05285901b1660e0526002839055608082905260a08190526001546040517fefb1b20d1d12d754c2da7fe3a7f0b7ea7f1d320144c1a2f873d1eeed95e5c54a9161009f91869190918252602082015260400190565b60405180910390a1505050505061016b565b600080546001600160a01b038381166001600160a01b0319831681178455604051919092169283917f8be0079c531659141344cd1fd0a4f28419497f9722a3daafe3b4186f6b6457e09190a35050565b80516001600160a01b038116811461011857600080fd5b919050565b600080600080600060a0868803121561013557600080fd5b61013e86610101565b945061014c60208701610101565b6040870151606088015160809098015196999198509695945092505050565b60805160a05160c05160601c60e05160601c6107d06101c46000396000818160ed01526102c601526000818161012c015261021f015260008181610166015261044e01526000818160b3015261050201526107d06000f3fe608060405234801561001057600080fd5b50600436106100a95760003560e01c8063719ec6b111610071578063719ec6b1146101615780638da5cb5b14610188578063b1fc8ad414610199578063c2ce5e86146101ac578063dd51faa2146101b5578063f2fde38b146101c857600080fd5b8063112cde6a146100ae5780632630c12f146100e85780635d62a8dd146101275780636ca7c2161461014e578063715018a614610157575b600080fd5b6100d57f000000000000000000000000000000000000000000000000000000000000000081565b6040519081526020015b60405180910390f35b61010f7f000000000000000000000000000000000000000000000000000000000000000081565b6040516001600160a01b0390911681526020016100df565b61010f7f000000000000000000000000000000000000000000000000000000000000000081565b6100d560025481565b61015f6101db565b005b6100d57f000000000000000000000000000000000000000000000000000000000000000081565b6000546001600160a01b031661010f565b6100d56101a73660046106bd565b61021a565b6100d560015481565b61015f6101c336600461068b565b6103a0565b61015f6101d636600461065b565b610570565b6000546001600160a01b0316331461020e5760405162461bcd60e51b8152600401610205906106df565b60405180910390fd5b610218600061060b565b565b6000807f00000000000000000000000000000000000000000000000000000000000000006001600160a01b031663455259cb6040518163ffffffff1660e01b815260040160206040518083038186803b15801561027657600080fd5b505afa15801561028a573d6000803e3d6000fd5b505050506040513d601f19601f820116820180604052508101906102ae91906106a4565b90506000600254826102c0919061074e565b905060007f00000000000000000000000000000000000000000000000000000000000000006001600160a01b03166398d5fdca6040518163ffffffff1660e01b815260040160206040518083038186803b15801561031d57600080fd5b505afa158015610331573d6000803e3d6000fd5b505050506040513d601f19601f8201168201806040525081019061035591906106a4565b90506000808211610367576000610384565b8161037a84670de0b6b3a764000061074e565b610384919061072c565b90508581116103935780610395565b855b979650505050505050565b6000546001600160a01b031633146103ca5760405162461bcd60e51b8152600401610205906106df565b60025481111561052b5742600154111561044c5760405162461bcd60e51b815260206004820152603960248201527f476173546178436f6d6d697373696f6e3a20746865206665652072616973652060448201527f74696d6f7574206973206e6f74206578706972656420796574000000000000006064820152608401610205565b7f00000000000000000000000000000000000000000000000000000000000000006002548261047b919061076d565b11156104fd5760405162461bcd60e51b815260206004820152604560248201527f476173546178436f6d6d697373696f6e3a20746865206665652072616973652060448201527f6973206f76657220746865206d6178696d756d20616c6c6f776564206761732060648201526476616c756560d81b608482015260a401610205565b6105277f000000000000000000000000000000000000000000000000000000000000000042610714565b6001555b60028190556001546040805183815260208101929092527fefb1b20d1d12d754c2da7fe3a7f0b7ea7f1d320144c1a2f873d1eeed95e5c54a910160405180910390a150565b6000546001600160a01b0316331461059a5760405162461bcd60e51b8152600401610205906106df565b6001600160a01b0381166105ff5760405162461bcd60e51b815260206004820152602660248201527f4f776e61626c653a206e6577206f776e657220697320746865207a65726f206160448201526564647265737360d01b6064820152608401610205565b6106088161060b565b50565b600080546001600160a01b038381166001600160a01b0319831681178455604051919092169283917f8be0079c531659141344cd1fd0a4f28419497f9722a3daafe3b4186f6b6457e09190a35050565b60006020828403121561066d57600080fd5b81356001600160a01b038116811461068457600080fd5b9392505050565b60006020828403121561069d57600080fd5b5035919050565b6000602082840312156106b657600080fd5b5051919050565b600080604083850312156106d057600080fd5b50508035926020909101359150565b6020808252818101527f4f776e61626c653a2063616c6c6572206973206e6f7420746865206f776e6572604082015260600190565b6000821982111561072757610727610784565b500190565b60008261074957634e487b7160e01b600052601260045260246000fd5b500490565b600081600019048311821515161561076857610768610784565b500290565b60008282101561077f5761077f610784565b500390565b634e487b7160e01b600052601160045260246000fdfea2646970667358221220dad29edbde97756e2c7b5d73572ad4f3765ed73a857e09f3cb05a61ae39428a164736f6c63430008070033a2646970667358221220c739e3f905072cd2e3991aca958efdc835de1da86ac9d1deb74ec51fc8c45c3364736f6c634300080700335374616b696e67506f6f6c466163746f7279496d706c3a20706172616d657465",
  "devdoc": {
    "kind": "dev",
    "methods": {
      "createFlatRateCommission(uint256)": {
        "returns": {
          "_0": "new pool address"
        }
      },
      "createGasTaxCommission(uint256)": {
        "returns": {
          "_0": "new pool address"
        }
      },
      "owner()": {
        "details": "Returns the address of the current owner."
      },
      "paused()": {
        "details": "Returns true if the contract is paused, and false otherwise."
      },
      "renounceOwnership()": {
        "details": "Leaves the contract without owner. It will not be possible to call `onlyOwner` functions anymore. Can only be called by the current owner. NOTE: Renouncing ownership will leave the contract without an owner, thereby removing any functionality that is only available to the owner."
      },
      "transferOwnership(address)": {
        "details": "Transfers ownership of the contract to a new account (`newOwner`). Can only be called by the current owner."
      }
    },
    "version": 1
  },
  "userdoc": {
    "events": {
      "NewFlatRateCommissionStakingPool(address,address)": {
        "notice": "Event emmited when a pool is created"
      },
      "NewGasTaxCommissionStakingPool(address,address)": {
        "notice": "Event emmited when a pool is created"
      }
    },
    "kind": "user",
    "methods": {
      "createFlatRateCommission(uint256)": {
        "notice": "Creates a new staking pool emits NewStakingPool with the parameters of the new pool"
      },
      "createGasTaxCommission(uint256)": {
        "notice": "Creates a new staking pool using a gas tax commission model emits NewGasTaxCommissionStakingPool with the parameters of the new pool"
      },
      "setReferencePool(address)": {
        "notice": "Change the pool reference implementation"
      }
    },
    "version": 1
  },
  "storageLayout": {
    "storage": [
      {
        "astId": 1184,
        "contract": "contracts/StakingPoolFactoryImpl.sol:StakingPoolFactoryImpl",
        "label": "_owner",
        "offset": 0,
        "slot": "0",
        "type": "t_address"
      },
      {
        "astId": 1378,
        "contract": "contracts/StakingPoolFactoryImpl.sol:StakingPoolFactoryImpl",
        "label": "_paused",
        "offset": 20,
        "slot": "0",
        "type": "t_bool"
      },
      {
        "astId": 1956,
        "contract": "contracts/StakingPoolFactoryImpl.sol:StakingPoolFactoryImpl",
        "label": "referencePool",
        "offset": 0,
        "slot": "1",
        "type": "t_address"
      }
    ],
    "types": {
      "t_address": {
        "encoding": "inplace",
        "label": "address",
        "numberOfBytes": "20"
      },
      "t_bool": {
        "encoding": "inplace",
        "label": "bool",
        "numberOfBytes": "1"
      }
    }
  }
}