{
  "address": "0x8E34146ef3b057A9E0869bdd988ffa57c6104A51",
  "abi": [
    {
      "inputs": [
        {
          "internalType": "address",
          "name": "_chainlinkOracle",
          "type": "address"
        },
        {
          "internalType": "address",
          "name": "_uniswapOracle",
          "type": "address"
        }
      ],
      "stateMutability": "nonpayable",
      "type": "constructor"
    },
    {
      "anonymous": false,
      "inputs": [
        {
          "indexed": true,
          "internalType": "address",
          "name": "pool",
          "type": "address"
        },
        {
          "indexed": false,
          "internalType": "address",
          "name": "fee",
          "type": "address"
        }
      ],
      "name": "NewFlatRateCommissionStakingPool",
      "type": "event"
    },
    {
      "anonymous": false,
      "inputs": [
        {
          "indexed": true,
          "internalType": "address",
          "name": "pool",
          "type": "address"
        },
        {
          "indexed": false,
          "internalType": "address",
          "name": "fee",
          "type": "address"
        }
      ],
      "name": "NewGasTaxCommissionStakingPool",
      "type": "event"
    },
    {
      "anonymous": false,
      "inputs": [
        {
          "indexed": true,
          "internalType": "address",
          "name": "previousOwner",
          "type": "address"
        },
        {
          "indexed": true,
          "internalType": "address",
          "name": "newOwner",
          "type": "address"
        }
      ],
      "name": "OwnershipTransferred",
      "type": "event"
    },
    {
      "anonymous": false,
      "inputs": [
        {
          "indexed": false,
          "internalType": "address",
          "name": "account",
          "type": "address"
        }
      ],
      "name": "Paused",
      "type": "event"
    },
    {
      "anonymous": false,
      "inputs": [
        {
          "indexed": true,
          "internalType": "address",
          "name": "pool",
          "type": "address"
        }
      ],
      "name": "ReferencePoolChanged",
      "type": "event"
    },
    {
      "anonymous": false,
      "inputs": [
        {
          "indexed": false,
          "internalType": "address",
          "name": "account",
          "type": "address"
        }
      ],
      "name": "Unpaused",
      "type": "event"
    },
    {
      "inputs": [],
      "name": "chainlinkOracle",
      "outputs": [
        {
          "internalType": "address",
          "name": "",
          "type": "address"
        }
      ],
      "stateMutability": "view",
      "type": "function"
    },
    {
      "inputs": [
        {
          "internalType": "uint256",
          "name": "commission",
          "type": "uint256"
        }
      ],
      "name": "createFlatRateCommission",
      "outputs": [
        {
          "internalType": "address",
          "name": "",
          "type": "address"
        }
      ],
      "stateMutability": "payable",
      "type": "function"
    },
    {
      "inputs": [
        {
          "internalType": "uint256",
          "name": "gas",
          "type": "uint256"
        }
      ],
      "name": "createGasTaxCommission",
      "outputs": [
        {
          "internalType": "address",
          "name": "",
          "type": "address"
        }
      ],
      "stateMutability": "payable",
      "type": "function"
    },
    {
      "inputs": [],
      "name": "owner",
      "outputs": [
        {
          "internalType": "address",
          "name": "",
          "type": "address"
        }
      ],
      "stateMutability": "view",
      "type": "function"
    },
    {
      "inputs": [],
      "name": "pause",
      "outputs": [],
      "stateMutability": "nonpayable",
      "type": "function"
    },
    {
      "inputs": [],
      "name": "paused",
      "outputs": [
        {
          "internalType": "bool",
          "name": "",
          "type": "bool"
        }
      ],
      "stateMutability": "view",
      "type": "function"
    },
    {
      "inputs": [],
      "name": "referencePool",
      "outputs": [
        {
          "internalType": "address",
          "name": "",
          "type": "address"
        }
      ],
      "stateMutability": "view",
      "type": "function"
    },
    {
      "inputs": [],
      "name": "renounceOwnership",
      "outputs": [],
      "stateMutability": "nonpayable",
      "type": "function"
    },
    {
      "inputs": [
        {
          "internalType": "address",
          "name": "_referencePool",
          "type": "address"
        }
      ],
      "name": "setReferencePool",
      "outputs": [],
      "stateMutability": "nonpayable",
      "type": "function"
    },
    {
      "inputs": [
        {
          "internalType": "address",
          "name": "newOwner",
          "type": "address"
        }
      ],
      "name": "transferOwnership",
      "outputs": [],
      "stateMutability": "nonpayable",
      "type": "function"
    },
    {
      "inputs": [],
      "name": "uniswapOracle",
      "outputs": [
        {
          "internalType": "address",
          "name": "",
          "type": "address"
        }
      ],
      "stateMutability": "view",
      "type": "function"
    },
    {
      "inputs": [],
      "name": "unpause",
      "outputs": [],
      "stateMutability": "nonpayable",
      "type": "function"
    }
  ],
  "transactionHash": "0xd5f5fdb84ea5313e6acf47bc21e1f4d052e86f482168fec80a7b691e06957356",
  "args": [
    "0xc6D457842E21D2bC05ddf09FbF5202dAACa7A43b",
    "0x6fc3A7dfAf286B7a3fe87EdB86A87F1902d46588"
  ],
  "solcInputHash": "153c947c8e5539882fc49de5712a043f",
  "bytecode": "0x60c060405234801561001057600080fd5b50604051611c54380380611c5483398101604081905261002f916101a8565b6100383361013c565b6000805460ff60a01b191690556001600160a01b0382166100b45760405162461bcd60e51b815260206004820152603a6024820152600080516020611c3483398151915260448201527f722063616e206e6f74206265207a65726f20616464726573732e00000000000060648201526084015b60405180910390fd5b6001600160a01b03811661011e5760405162461bcd60e51b815260206004820152603a6024820152600080516020611c3483398151915260448201527f722063616e206e6f74206265207a65726f20616464726573732e00000000000060648201526084016100ab565b6001600160601b0319606092831b8116608052911b1660a0526101db565b600080546001600160a01b038381166001600160a01b0319831681178455604051919092169283917f8be0079c531659141344cd1fd0a4f28419497f9722a3daafe3b4186f6b6457e09190a35050565b80516001600160a01b03811681146101a357600080fd5b919050565b600080604083850312156101bb57600080fd5b6101c48361018c565b91506101d26020840161018c565b90509250929050565b60805160601c60a05160601c611a216102136000396000818160be015261069e0152600081816101fe015261067d0152611a216000f3fe6080604052600436106100a75760003560e01c806386f1a7171161006457806386f1a717146101885780638da5cb5b1461019b57806395994ef7146101b9578063964658b6146101d9578063ef06e72c146101ec578063f2fde38b1461022057600080fd5b8063120c6c5b146100ac5780633f4ba83a146100fd578063533135b6146101145780635c975abb14610134578063715018a61461015e5780638456cb5914610173575b600080fd5b3480156100b857600080fd5b506100e07f000000000000000000000000000000000000000000000000000000000000000081565b6040516001600160a01b0390911681526020015b60405180910390f35b34801561010957600080fd5b50610112610240565b005b34801561012057600080fd5b506001546100e0906001600160a01b031681565b34801561014057600080fd5b50600054600160a01b900460ff1660405190151581526020016100f4565b34801561016a57600080fd5b506101126102c9565b34801561017f57600080fd5b506101126102fd565b6100e0610196366004610b9a565b610359565b3480156101a757600080fd5b506000546001600160a01b03166100e0565b3480156101c557600080fd5b506101126101d4366004610b6a565b6105b2565b6100e06101e7366004610b9a565b610626565b3480156101f857600080fd5b506100e07f000000000000000000000000000000000000000000000000000000000000000081565b34801561022c57600080fd5b5061011261023b366004610b6a565b6108cb565b600054600160a01b900460ff166102955760405162461bcd60e51b815260206004820152601460248201527314185d5cd8589b194e881b9bdd081c185d5cd95960621b60448201526064015b60405180910390fd5b6000546001600160a01b031633146102bf5760405162461bcd60e51b815260040161028c90610bdd565b6102c7610966565b565b6000546001600160a01b031633146102f35760405162461bcd60e51b815260040161028c90610bdd565b6102c76000610a03565b600054600160a01b900460ff16156103275760405162461bcd60e51b815260040161028c90610bb3565b6000546001600160a01b031633146103515760405162461bcd60e51b815260040161028c90610bdd565b6102c7610a53565b60008054600160a01b900460ff16156103845760405162461bcd60e51b815260040161028c90610bb3565b6001546001600160a01b03166103ac5760405162461bcd60e51b815260040161028c90610c12565b6000826040516103bb90610b50565b908152602001604051809103906000f0801580156103dd573d6000803e3d6000fd5b506001549091506000906103f9906001600160a01b0316610ab8565b60405163cd6dc68760e01b81526001600160a01b03848116600483015260006024830152919250829182169063cd6dc68790604401600060405180830381600087803b15801561044857600080fd5b505af115801561045c573d6000803e3d6000fd5b505060405163f2fde38b60e01b81523360048201526001600160a01b038416925063f2fde38b9150602401600060405180830381600087803b1580156104a157600080fd5b505af11580156104b5573d6000803e3d6000fd5b505060405163f2fde38b60e01b81523360048201526001600160a01b038616925063f2fde38b9150602401600060405180830381600087803b1580156104fa57600080fd5b505af115801561050e573d6000803e3d6000fd5b50505050806001600160a01b0316636ff46a6c346040518263ffffffff1660e01b81526004016000604051808303818588803b15801561054d57600080fd5b505af1158015610561573d6000803e3d6000fd5b50506040516001600160a01b038781168252851693507fdca0276ad17c3c65434ae45a0754677f87ae465de69763ebe79ceaeff2805bc7925060200190505b60405180910390a2925050505b919050565b6000546001600160a01b031633146105dc5760405162461bcd60e51b815260040161028c90610bdd565b600180546001600160a01b0319166001600160a01b0383169081179091556040517f5e3b1dda0e29fe5d32248c3be6ac8f07890d4bc593a7810238b65d512197042490600090a250565b60008054600160a01b900460ff16156106515760405162461bcd60e51b815260040161028c90610bb3565b6001546001600160a01b03166106795760405162461bcd60e51b815260040161028c90610c12565b60007f00000000000000000000000000000000000000000000000000000000000000007f0000000000000000000000000000000000000000000000000000000000000000846040516106ca90610b5d565b6001600160a01b0393841681529290911660208301526040820152606001604051809103906000f080158015610704573d6000803e3d6000fd5b50600154909150600090610720906001600160a01b0316610ab8565b60405163cd6dc68760e01b81526001600160a01b03848116600483015260006024830152919250829182169063cd6dc68790604401600060405180830381600087803b15801561076f57600080fd5b505af1158015610783573d6000803e3d6000fd5b505060405163f2fde38b60e01b81523360048201526001600160a01b038416925063f2fde38b9150602401600060405180830381600087803b1580156107c857600080fd5b505af11580156107dc573d6000803e3d6000fd5b505060405163f2fde38b60e01b81523360048201526001600160a01b038616925063f2fde38b9150602401600060405180830381600087803b15801561082157600080fd5b505af1158015610835573d6000803e3d6000fd5b50505050806001600160a01b0316636ff46a6c346040518263ffffffff1660e01b81526004016000604051808303818588803b15801561087457600080fd5b505af1158015610888573d6000803e3d6000fd5b50506040516001600160a01b038781168252851693507f93b9326c0865b177ab4a6131c8e6806a0edc9f3585dbaeb773542d3582d04571925060200190506105a0565b6000546001600160a01b031633146108f55760405162461bcd60e51b815260040161028c90610bdd565b6001600160a01b03811661095a5760405162461bcd60e51b815260206004820152602660248201527f4f776e61626c653a206e6577206f776e657220697320746865207a65726f206160448201526564647265737360d01b606482015260840161028c565b61096381610a03565b50565b600054600160a01b900460ff166109b65760405162461bcd60e51b815260206004820152601460248201527314185d5cd8589b194e881b9bdd081c185d5cd95960621b604482015260640161028c565b6000805460ff60a01b191690557f5db9ee0a495bf2e6ff9c91a7834c1ba4fdd244a5e8aa4e537bd38aeae4b073aa335b6040516001600160a01b03909116815260200160405180910390a1565b600080546001600160a01b038381166001600160a01b0319831681178455604051919092169283917f8be0079c531659141344cd1fd0a4f28419497f9722a3daafe3b4186f6b6457e09190a35050565b600054600160a01b900460ff1615610a7d5760405162461bcd60e51b815260040161028c90610bb3565b6000805460ff60a01b1916600160a01b1790557f62e78cea01bee320cd4e420270b5ea74000d11b0c9f74754ebdbfc544b05a2586109e63390565b6000604051733d602d80600a3d3981f3363d3d373d3d3d363d7360601b81528260601b60148201526e5af43d82803e903d91602b57fd5bf360881b60288201526037816000f09150506001600160a01b0381166105ad5760405162461bcd60e51b8152602060048201526016602482015275115490cc4c4d8dce8818dc99585d194819985a5b195960521b604482015260640161028c565b61054180610c6383390190565b610848806111a483390190565b600060208284031215610b7c57600080fd5b81356001600160a01b0381168114610b9357600080fd5b9392505050565b600060208284031215610bac57600080fd5b5035919050565b60208082526010908201526f14185d5cd8589b194e881c185d5cd95960821b604082015260600190565b6020808252818101527f4f776e61626c653a2063616c6c6572206973206e6f7420746865206f776e6572604082015260600190565b60208082526030908201527f5374616b696e67506f6f6c466163746f7279496d706c3a20756e646566696e6560408201526f19081c9959995c995b98d9481c1bdbdb60821b60608201526080019056fe608060405261271060015534801561001657600080fd5b50604051610541380380610541833981016040819052610035916100cc565b61003e3361007c565b60028190556040518181527f7c077544e22d8a88c7724ade64ffb2e31f1dce5369f26a3754b8e04aa87bdb669060200160405180910390a1506100e5565b600080546001600160a01b038381166001600160a01b0319831681178455604051919092169283917f8be0079c531659141344cd1fd0a4f28419497f9722a3daafe3b4186f6b6457e09190a35050565b6000602082840312156100de57600080fd5b5051919050565b61044d806100f46000396000f3fe608060405234801561001057600080fd5b506004361061007d5760003560e01c80638da5cb5b1161005b5780638da5cb5b146100bb578063b1fc8ad4146100d6578063ec342ad0146100e9578063f2fde38b146100f257600080fd5b80632c4e722e1461008257806334fcf4371461009e578063715018a6146100b3575b600080fd5b61008b60025481565b6040519081526020015b60405180910390f35b6100b16100ac366004610358565b610105565b005b6100b16101ea565b6000546040516001600160a01b039091168152602001610095565b61008b6100e4366004610371565b610220565b61008b60015481565b6100b161010036600461032f565b610244565b6000546001600160a01b031633146101385760405162461bcd60e51b815260040161012f90610393565b60405180910390fd5b60025481106101af5760405162461bcd60e51b815260206004820152603760248201527f6e657752617465206e6565647320746f206265207374726963746c7920736d6160448201527f6c6c6572207468616e2063757272656e7420726174652e000000000000000000606482015260840161012f565b60028190556040518181527f7c077544e22d8a88c7724ade64ffb2e31f1dce5369f26a3754b8e04aa87bdb669060200160405180910390a150565b6000546001600160a01b031633146102145760405162461bcd60e51b815260040161012f90610393565b61021e60006102df565b565b60006001546002548361023391906103ea565b61023d91906103c8565b9392505050565b6000546001600160a01b0316331461026e5760405162461bcd60e51b815260040161012f90610393565b6001600160a01b0381166102d35760405162461bcd60e51b815260206004820152602660248201527f4f776e61626c653a206e6577206f776e657220697320746865207a65726f206160448201526564647265737360d01b606482015260840161012f565b6102dc816102df565b50565b600080546001600160a01b038381166001600160a01b0319831681178455604051919092169283917f8be0079c531659141344cd1fd0a4f28419497f9722a3daafe3b4186f6b6457e09190a35050565b60006020828403121561034157600080fd5b81356001600160a01b038116811461023d57600080fd5b60006020828403121561036a57600080fd5b5035919050565b6000806040838503121561038457600080fd5b50508035926020909101359150565b6020808252818101527f4f776e61626c653a2063616c6c6572206973206e6f7420746865206f776e6572604082015260600190565b6000826103e557634e487b7160e01b600052601260045260246000fd5b500490565b600081600019048311821515161561041257634e487b7160e01b600052601160045260246000fd5b50029056fea264697066735822122078c1153af5787f1a3c05ceee0aac2a701a8f86222abc6f0e11138546abe46df364736f6c6343000806003360c060405234801561001057600080fd5b5060405161084838038061084883398101604081905261002f91610105565b61003833610099565b6001600160601b0319606084811b821660805283901b1660a05260018190556040517fd8120d6ff65f04a7663a7fa333122bcf1630c76e6198691647b8b952fd6427f7906100899083815260200190565b60405180910390a1505050610141565b600080546001600160a01b038381166001600160a01b0319831681178455604051919092169283917f8be0079c531659141344cd1fd0a4f28419497f9722a3daafe3b4186f6b6457e09190a35050565b80516001600160a01b038116811461010057600080fd5b919050565b60008060006060848603121561011a57600080fd5b610123846100e9565b9250610131602085016100e9565b9150604084015190509250925092565b60805160601c60a05160601c6106d0610178600039600081816092015261025101526000818160d601526101a701526106d06000f3fe608060405234801561001057600080fd5b50600436106100885760003560e01c80638da5cb5b1161005b5780638da5cb5b14610119578063b1fc8ad41461012a578063dd51faa21461013d578063f2fde38b1461015057600080fd5b80632630c12f1461008d5780635d62a8dd146100d15780636ca7c216146100f8578063715018a61461010f575b600080fd5b6100b47f000000000000000000000000000000000000000000000000000000000000000081565b6040516001600160a01b0390911681526020015b60405180910390f35b6100b47f000000000000000000000000000000000000000000000000000000000000000081565b61010160015481565b6040519081526020016100c8565b610117610163565b005b6000546001600160a01b03166100b4565b6101016101383660046105f4565b6101a2565b61011761014b3660046105db565b610351565b61011761015e366004610542565b61043b565b6000546001600160a01b031633146101965760405162461bcd60e51b815260040161018d90610616565b60405180910390fd5b6101a060006104d6565b565b6000807f00000000000000000000000000000000000000000000000000000000000000006001600160a01b03166350d25bcd6040518163ffffffff1660e01b815260040160206040518083038186803b1580156101fe57600080fd5b505afa158015610212573d6000803e3d6000fd5b505050506040513d601f19601f820116820180604052508101906102369190610572565b9050600060015482610248919061066d565b905060008060007f00000000000000000000000000000000000000000000000000000000000000006001600160a01b0316630902f1ac6040518163ffffffff1660e01b815260040160606040518083038186803b1580156102a857600080fd5b505afa1580156102bc573d6000803e3d6000fd5b505050506040513d601f19601f820116820180604052508101906102e0919061058b565b925092509250816001600160701b0316600014156103065760009550505050505061034b565b6000826001600160701b0316846001600160701b031686610327919061066d565b610331919061064b565b90508781116103405780610342565b875b96505050505050505b92915050565b6000546001600160a01b0316331461037b5760405162461bcd60e51b815260040161018d90610616565b60015481106104005760405162461bcd60e51b815260206004820152604560248201527f6e6577476173436f6d6d697373696f6e206e6565647320746f2062652073747260448201527f6963746c7920736d616c6c6572207468616e207468652063757272656e74207660648201526430b63ab29760d91b608482015260a40161018d565b60018190556040518181527fd8120d6ff65f04a7663a7fa333122bcf1630c76e6198691647b8b952fd6427f79060200160405180910390a150565b6000546001600160a01b031633146104655760405162461bcd60e51b815260040161018d90610616565b6001600160a01b0381166104ca5760405162461bcd60e51b815260206004820152602660248201527f4f776e61626c653a206e6577206f776e657220697320746865207a65726f206160448201526564647265737360d01b606482015260840161018d565b6104d3816104d6565b50565b600080546001600160a01b038381166001600160a01b0319831681178455604051919092169283917f8be0079c531659141344cd1fd0a4f28419497f9722a3daafe3b4186f6b6457e09190a35050565b80516001600160701b038116811461053d57600080fd5b919050565b60006020828403121561055457600080fd5b81356001600160a01b038116811461056b57600080fd5b9392505050565b60006020828403121561058457600080fd5b5051919050565b6000806000606084860312156105a057600080fd5b6105a984610526565b92506105b760208501610526565b9150604084015163ffffffff811681146105d057600080fd5b809150509250925092565b6000602082840312156105ed57600080fd5b5035919050565b6000806040838503121561060757600080fd5b50508035926020909101359150565b6020808252818101527f4f776e61626c653a2063616c6c6572206973206e6f7420746865206f776e6572604082015260600190565b60008261066857634e487b7160e01b600052601260045260246000fd5b500490565b600081600019048311821515161561069557634e487b7160e01b600052601160045260246000fd5b50029056fea26469706673582212202bac8d5cb5b8ecfb6172520e01b29977351d81583ed0ee65e832f1e19010949564736f6c63430008060033a26469706673582212209e4b376df10f8dc27b964335ce80a9dd13cb9f1f0fa396260b4a58f9edf3520864736f6c634300080600335374616b696e67506f6f6c466163746f7279496d706c3a20706172616d657465",
  "devdoc": {
    "kind": "dev",
    "methods": {
      "createFlatRateCommission(uint256)": {
        "returns": {
          "_0": "new pool address"
        }
      },
      "createGasTaxCommission(uint256)": {
        "returns": {
          "_0": "new pool address"
        }
      },
      "owner()": {
        "details": "Returns the address of the current owner."
      },
      "paused()": {
        "details": "Returns true if the contract is paused, and false otherwise."
      },
      "renounceOwnership()": {
        "details": "Leaves the contract without owner. It will not be possible to call `onlyOwner` functions anymore. Can only be called by the current owner. NOTE: Renouncing ownership will leave the contract without an owner, thereby removing any functionality that is only available to the owner."
      },
      "transferOwnership(address)": {
        "details": "Transfers ownership of the contract to a new account (`newOwner`). Can only be called by the current owner."
      }
    },
    "version": 1
  },
  "userdoc": {
    "events": {
      "NewFlatRateCommissionStakingPool(address,address)": {
        "notice": "Event emmited when a pool is created"
      },
      "NewGasTaxCommissionStakingPool(address,address)": {
        "notice": "Event emmited when a pool is created"
      }
    },
    "kind": "user",
    "methods": {
      "createFlatRateCommission(uint256)": {
        "notice": "Creates a new staking pool emits NewStakingPool with the parameters of the new pool"
      },
      "createGasTaxCommission(uint256)": {
        "notice": "Creates a new staking pool using a gas tax commission model emits NewGasTaxCommissionStakingPool with the parameters of the new pool"
      },
      "setReferencePool(address)": {
        "notice": "Change the pool reference implementation"
      }
    },
    "version": 1
  },
  "storageLayout": {
    "storage": [
      {
        "astId": 974,
        "contract": "contracts/StakingPoolFactoryImpl.sol:StakingPoolFactoryImpl",
        "label": "_owner",
        "offset": 0,
        "slot": "0",
        "type": "t_address"
      },
      {
        "astId": 1168,
        "contract": "contracts/StakingPoolFactoryImpl.sol:StakingPoolFactoryImpl",
        "label": "_paused",
        "offset": 20,
        "slot": "0",
        "type": "t_bool"
      },
      {
        "astId": 2465,
        "contract": "contracts/StakingPoolFactoryImpl.sol:StakingPoolFactoryImpl",
        "label": "referencePool",
        "offset": 0,
        "slot": "1",
        "type": "t_address"
      }
    ],
    "types": {
      "t_address": {
        "encoding": "inplace",
        "label": "address",
        "numberOfBytes": "20"
      },
      "t_bool": {
        "encoding": "inplace",
        "label": "bool",
        "numberOfBytes": "1"
      }
    }
  }
}