{
  "address": "0xe291DB054722Cc84CaDCc1FA63Ac16Fb3FA39de7",
  "abi": [
    {
      "inputs": [
        {
          "internalType": "address",
          "name": "_ctsi",
          "type": "address"
        },
        {
          "internalType": "address",
          "name": "_staking",
          "type": "address"
        },
        {
          "internalType": "address",
          "name": "_pos",
          "type": "address"
        },
        {
          "internalType": "address",
          "name": "_workerManager",
          "type": "address"
        },
        {
          "internalType": "address",
          "name": "_ens",
          "type": "address"
        }
      ],
      "stateMutability": "nonpayable",
      "type": "constructor"
    },
    {
      "anonymous": false,
      "inputs": [
        {
          "indexed": false,
          "internalType": "uint256",
          "name": "reward",
          "type": "uint256"
        },
        {
          "indexed": false,
          "internalType": "uint256",
          "name": "commission",
          "type": "uint256"
        }
      ],
      "name": "BlockProduced",
      "type": "event"
    },
    {
      "anonymous": false,
      "inputs": [
        {
          "indexed": true,
          "internalType": "address",
          "name": "previousOwner",
          "type": "address"
        },
        {
          "indexed": true,
          "internalType": "address",
          "name": "newOwner",
          "type": "address"
        }
      ],
      "name": "OwnershipTransferred",
      "type": "event"
    },
    {
      "anonymous": false,
      "inputs": [
        {
          "indexed": false,
          "internalType": "address",
          "name": "account",
          "type": "address"
        }
      ],
      "name": "Paused",
      "type": "event"
    },
    {
      "anonymous": false,
      "inputs": [
        {
          "indexed": true,
          "internalType": "address",
          "name": "user",
          "type": "address"
        },
        {
          "indexed": false,
          "internalType": "uint256",
          "name": "amount",
          "type": "uint256"
        },
        {
          "indexed": false,
          "internalType": "uint256",
          "name": "shares",
          "type": "uint256"
        },
        {
          "indexed": false,
          "internalType": "uint256",
          "name": "unlockTimestamp",
          "type": "uint256"
        }
      ],
      "name": "Stake",
      "type": "event"
    },
    {
      "anonymous": false,
      "inputs": [
        {
          "indexed": false,
          "internalType": "string",
          "name": "name",
          "type": "string"
        }
      ],
      "name": "StakingPoolRenamed",
      "type": "event"
    },
    {
      "anonymous": false,
      "inputs": [
        {
          "indexed": false,
          "internalType": "address",
          "name": "account",
          "type": "address"
        }
      ],
      "name": "Unpaused",
      "type": "event"
    },
    {
      "anonymous": false,
      "inputs": [
        {
          "indexed": true,
          "internalType": "address",
          "name": "user",
          "type": "address"
        },
        {
          "indexed": false,
          "internalType": "uint256",
          "name": "amount",
          "type": "uint256"
        },
        {
          "indexed": false,
          "internalType": "uint256",
          "name": "shares",
          "type": "uint256"
        }
      ],
      "name": "Unstake",
      "type": "event"
    },
    {
      "anonymous": false,
      "inputs": [
        {
          "indexed": true,
          "internalType": "address",
          "name": "user",
          "type": "address"
        },
        {
          "indexed": false,
          "internalType": "uint256",
          "name": "amount",
          "type": "uint256"
        }
      ],
      "name": "Withdraw",
      "type": "event"
    },
    {
      "inputs": [],
      "name": "amount",
      "outputs": [
        {
          "internalType": "uint256",
          "name": "",
          "type": "uint256"
        }
      ],
      "stateMutability": "view",
      "type": "function"
    },
    {
      "inputs": [
        {
          "internalType": "uint256",
          "name": "_amount",
          "type": "uint256"
        }
      ],
      "name": "amountToShares",
      "outputs": [
        {
          "internalType": "uint256",
          "name": "",
          "type": "uint256"
        }
      ],
      "stateMutability": "view",
      "type": "function"
    },
    {
      "inputs": [],
      "name": "amounts",
      "outputs": [
        {
          "internalType": "uint256",
          "name": "stake",
          "type": "uint256"
        },
        {
          "internalType": "uint256",
          "name": "unstake",
          "type": "uint256"
        },
        {
          "internalType": "uint256",
          "name": "withdraw",
          "type": "uint256"
        }
      ],
      "stateMutability": "view",
      "type": "function"
    },
    {
      "inputs": [
        {
          "internalType": "address",
          "name": "workerAddress",
          "type": "address"
        }
      ],
      "name": "cancelHire",
      "outputs": [],
      "stateMutability": "nonpayable",
      "type": "function"
    },
    {
      "inputs": [],
      "name": "ctsi",
      "outputs": [
        {
          "internalType": "contract IERC20",
          "name": "",
          "type": "address"
        }
      ],
      "stateMutability": "view",
      "type": "function"
    },
    {
      "inputs": [],
      "name": "ens",
      "outputs": [
        {
          "internalType": "contract ENS",
          "name": "",
          "type": "address"
        }
      ],
      "stateMutability": "view",
      "type": "function"
    },
    {
      "inputs": [],
      "name": "fee",
      "outputs": [
        {
          "internalType": "contract Fee",
          "name": "",
          "type": "address"
        }
      ],
      "stateMutability": "view",
      "type": "function"
    },
    {
      "inputs": [],
      "name": "getWithdrawBalance",
      "outputs": [
        {
          "internalType": "uint256",
          "name": "",
          "type": "uint256"
        }
      ],
      "stateMutability": "view",
      "type": "function"
    },
    {
      "inputs": [
        {
          "internalType": "address payable",
          "name": "workerAddress",
          "type": "address"
        }
      ],
      "name": "hire",
      "outputs": [],
      "stateMutability": "payable",
      "type": "function"
    },
    {
      "inputs": [
        {
          "internalType": "address",
          "name": "_fee",
          "type": "address"
        },
        {
          "internalType": "uint256",
          "name": "_stakeLock",
          "type": "uint256"
        }
      ],
      "name": "initialize",
      "outputs": [],
      "stateMutability": "nonpayable",
      "type": "function"
    },
    {
      "inputs": [],
      "name": "owner",
      "outputs": [
        {
          "internalType": "address",
          "name": "",
          "type": "address"
        }
      ],
      "stateMutability": "view",
      "type": "function"
    },
    {
      "inputs": [],
      "name": "pause",
      "outputs": [],
      "stateMutability": "nonpayable",
      "type": "function"
    },
    {
      "inputs": [],
      "name": "paused",
      "outputs": [
        {
          "internalType": "bool",
          "name": "",
          "type": "bool"
        }
      ],
      "stateMutability": "view",
      "type": "function"
    },
    {
      "inputs": [],
      "name": "pos",
      "outputs": [
        {
          "internalType": "contract IPoS",
          "name": "",
          "type": "address"
        }
      ],
      "stateMutability": "view",
      "type": "function"
    },
    {
      "inputs": [
        {
          "internalType": "uint256",
          "name": "_index",
          "type": "uint256"
        }
      ],
      "name": "produceBlock",
      "outputs": [
        {
          "internalType": "bool",
          "name": "",
          "type": "bool"
        }
      ],
      "stateMutability": "nonpayable",
      "type": "function"
    },
    {
      "inputs": [],
      "name": "rebalance",
      "outputs": [],
      "stateMutability": "nonpayable",
      "type": "function"
    },
    {
      "inputs": [],
      "name": "renounceOwnership",
      "outputs": [],
      "stateMutability": "nonpayable",
      "type": "function"
    },
    {
      "inputs": [],
      "name": "requiredLiquidity",
      "outputs": [
        {
          "internalType": "uint256",
          "name": "",
          "type": "uint256"
        }
      ],
      "stateMutability": "view",
      "type": "function"
    },
    {
      "inputs": [
        {
          "internalType": "address payable",
          "name": "workerAddress",
          "type": "address"
        }
      ],
      "name": "retire",
      "outputs": [],
      "stateMutability": "nonpayable",
      "type": "function"
    },
    {
      "inputs": [],
      "name": "selfhire",
      "outputs": [],
      "stateMutability": "payable",
      "type": "function"
    },
    {
      "inputs": [
        {
          "internalType": "string",
          "name": "name",
          "type": "string"
        }
      ],
      "name": "setName",
      "outputs": [],
      "stateMutability": "nonpayable",
      "type": "function"
    },
    {
      "inputs": [],
      "name": "shares",
      "outputs": [
        {
          "internalType": "uint256",
          "name": "",
          "type": "uint256"
        }
      ],
      "stateMutability": "view",
      "type": "function"
    },
    {
      "inputs": [
        {
          "internalType": "uint256",
          "name": "_shares",
          "type": "uint256"
        }
      ],
      "name": "sharesToAmount",
      "outputs": [
        {
          "internalType": "uint256",
          "name": "",
          "type": "uint256"
        }
      ],
      "stateMutability": "view",
      "type": "function"
    },
    {
      "inputs": [
        {
          "internalType": "uint256",
          "name": "_amount",
          "type": "uint256"
        }
      ],
      "name": "stake",
      "outputs": [],
      "stateMutability": "nonpayable",
      "type": "function"
    },
    {
      "inputs": [
        {
          "internalType": "address",
          "name": "newOwner",
          "type": "address"
        }
      ],
      "name": "transferOwnership",
      "outputs": [],
      "stateMutability": "nonpayable",
      "type": "function"
    },
    {
      "inputs": [],
      "name": "unpause",
      "outputs": [],
      "stateMutability": "nonpayable",
      "type": "function"
    },
    {
      "inputs": [
        {
          "internalType": "uint256",
          "name": "_shares",
          "type": "uint256"
        }
      ],
      "name": "unstake",
      "outputs": [],
      "stateMutability": "nonpayable",
      "type": "function"
    },
    {
      "inputs": [
        {
          "internalType": "address",
          "name": "",
          "type": "address"
        }
      ],
      "name": "userBalance",
      "outputs": [
        {
          "internalType": "uint256",
          "name": "shares",
          "type": "uint256"
        },
        {
          "internalType": "uint256",
          "name": "released",
          "type": "uint256"
        },
        {
          "internalType": "uint256",
          "name": "unstakeTimestamp",
          "type": "uint256"
        }
      ],
      "stateMutability": "view",
      "type": "function"
    },
    {
      "inputs": [],
      "name": "withdraw",
      "outputs": [],
      "stateMutability": "nonpayable",
      "type": "function"
    },
    {
      "stateMutability": "payable",
      "type": "receive"
    }
  ],
  "transactionHash": "0xbd4aff5c5fc52c8e0e3e3d00dcbceb0dd116b69cf30d4e7a0201443da326ec08",
  "args": [
    "0x9d2133302B0beB040d2E86D1fbC78Da1Dea9Fa3e",
    "0xa5e4CbdF1767f0406ec5dee4aDb8125F4a637C64",
    "0xeEBFA818E5761c6C71467Ef75496f91CC5976E96",
    "0x19A8FB7d7C4D53713327cEb6ba1293d1F364c502",
    "0x00000000000C2E074eC69A0dFb2997BA6C7d2e1e"
  ],
  "solcInputHash": "153c947c8e5539882fc49de5712a043f",
  "bytecode": "0x6101806040523480156200001257600080fd5b506040516200294a3803806200294a833981016040819052620000359162000320565b8183868787898887600060019054906101000a900460ff16806200005c575060005460ff16155b620000c55760405162461bcd60e51b815260206004820152602e60248201527f496e697469616c697a61626c653a20636f6e747261637420697320616c72656160448201526d191e481a5b9a5d1a585b1a5e995960921b60648201526084015b60405180910390fd5b600054610100900460ff16158015620000e8576000805461ffff19166101011790555b6001600160a01b038216620001395760405162461bcd60e51b815260206004820152602160248201526000805160206200292a8339815191526044820152607360f81b6064820152608401620000bc565b6001600160601b0319606083901b166080526200015562000268565b801562000168576000805461ff00191690555b50506001600160601b0319606092831b811660a05290821b811660c05292811b831660e05290811b8216610100529190911b16610120526001600160a01b038216620001f05760405162461bcd60e51b815260206004820152602160248201526000805160206200292a8339815191526044820152607360f81b6064820152608401620000bc565b6001600160a01b038116620002415760405162461bcd60e51b815260206004820152602160248201526000805160206200292a8339815191526044820152607360f81b6064820152608401620000bc565b6001600160601b0319606092831b811661016052911b166101405250620003909350505050565b60335460ff1615620002b05760405162461bcd60e51b815260206004820152601060248201526f14185d5cd8589b194e881c185d5cd95960821b6044820152606401620000bc565b6033805460ff191660011790557f62e78cea01bee320cd4e420270b5ea74000d11b0c9f74754ebdbfc544b05a258620002e63390565b6040516001600160a01b03909116815260200160405180910390a1565b80516001600160a01b03811681146200031b57600080fd5b919050565b600080600080600060a086880312156200033957600080fd5b620003448662000303565b9450620003546020870162000303565b9350620003646040870162000303565b9250620003746060870162000303565b9150620003846080870162000303565b90509295509295909350565b60805160601c60a05160601c60c05160601c60e05160601c6101005160601c6101205160601c6101405160601c6101605160601c6124906200049a60003960008181610bc501528181610c6d01528181610ccf015281816110d10152818161183b01528181611af40152611b96015260008181610c450152611b6e01526000818161081701528181610d78015261164e015260008181610a7301528181610b0d01528181610e7301528181610f1201528181610f95015281816110160152611e2e01526000818161099c0152611e5e0152600081816104d901528181611154015261125c01526000818161034001526113e701526000818161029b01526118ed01526124906000f3fe6080604052600436106101c65760003560e01c80638456cb59116100f7578063b811540e11610095578063d9d6bd8611610064578063d9d6bd861461051b578063ddca3f431461052e578063e366b7bb1461054e578063f2fde38b1461056457600080fd5b8063b811540e14610487578063c47f0027146104a7578063c56551b6146104c7578063cd6dc687146104fb57600080fd5b8063a5a6cd0b116100d1578063a5a6cd0b14610411578063a694fc3a14610431578063aa8c217c14610451578063b64b3bed1461046757600080fd5b80638456cb59146103be5780638da5cb5b146103d35780639e6371ba146103f157600080fd5b80635c975abb116101645780636ff46a6c1161013e5780636ff46a6c14610377578063710fe6f81461037f578063715018a6146103945780637d7c2a1c146103a957600080fd5b80635c975abb1461030a57806364ffc3f41461032e5780636beaeeae1461036257600080fd5b80633ccfd60b116101a05780633ccfd60b146102745780633f15457f146102895780633f4ba83a146102d5578063555d8ebb146102ea57600080fd5b80630103c92b146101d257806303314efa1461022e5780632e17de781461025257600080fd5b366101cd57005b600080fd5b3480156101de57600080fd5b5061020e6101ed366004612111565b609a6020526000908152604090208054600182015460029092015490919083565b604080519384526020840192909252908201526060015b60405180910390f35b34801561023a57600080fd5b5061024460975481565b604051908152602001610225565b34801561025e57600080fd5b5061027261026d36600461226a565b610584565b005b34801561028057600080fd5b50610272610786565b34801561029557600080fd5b506102bd7f000000000000000000000000000000000000000000000000000000000000000081565b6040516001600160a01b039091168152602001610225565b3480156102e157600080fd5b50610272610911565b3480156102f657600080fd5b5061024461030536600461226a565b610945565b34801561031657600080fd5b5060335460ff165b6040519015158152602001610225565b34801561033a57600080fd5b506102bd7f000000000000000000000000000000000000000000000000000000000000000081565b34801561036e57600080fd5b5061020e610976565b610272610bb0565b34801561038b57600080fd5b50610244610d42565b3480156103a057600080fd5b50610272610e0d565b3480156103b557600080fd5b50610272610e41565b3480156103ca57600080fd5b50610272611080565b3480156103df57600080fd5b506065546001600160a01b03166102bd565b3480156103fd57600080fd5b5061027261040c366004612111565b6110b2565b34801561041d57600080fd5b5061031e61042c36600461226a565b611131565b34801561043d57600080fd5b5061027261044c36600461226a565b61157b565b34801561045d57600080fd5b5061024460985481565b34801561047357600080fd5b50610272610482366004612111565b61181c565b34801561049357600080fd5b506102446104a236600461226a565b61186a565b3480156104b357600080fd5b506102726104c23660046121b9565b61188b565b3480156104d357600080fd5b506102bd7f000000000000000000000000000000000000000000000000000000000000000081565b34801561050757600080fd5b50610272610516366004612152565b611a2c565b610272610529366004612111565b611ad5565b34801561053a57600080fd5b50609b546102bd906001600160a01b031681565b34801561055a57600080fd5b5061024460995481565b34801561057057600080fd5b5061027261057f366004612111565b611bc9565b336000908152609a60205260409020816105fb5760405162461bcd60e51b815260206004820152602d60248201527f5374616b696e67506f6f6c55736572496d706c3a20696e76616c696420616d6f60448201526c756e74206f662073686172657360981b60648201526084015b60405180910390fd5b805482111561065d5760405162461bcd60e51b815260206004820152602860248201527f5374616b696e67506f6f6c55736572496d706c3a20696e73756666696369656e604482015267742073686172657360c01b60648201526084016105f2565b806002015442116106ba5760405162461bcd60e51b815260206004820152602160248201527f5374616b696e67506f6f6c55736572496d706c3a207374616b65206c6f636b656044820152601960fa1b60648201526084016105f2565b818160000160008282546106ce9190612402565b90915550600090506106df83610945565b905082609760008282546106f39190612402565b92505081905550806098600082825461070c9190612402565b925050819055508082600101600082825461072791906123a9565b92505081905550806099600082825461074091906123a9565b9091555050604080518281526020810185905233917ff960dbf9e5d0682f7a298ed974e33a28b4464914b7a2bfac12ae419a9afeb28091015b60405180910390a2505050565b336000908152609a602052604090206001810154806107fb5760405162461bcd60e51b815260206004820152602b60248201527f5374616b696e67506f6f6c55736572496d706c3a206e6f2062616c616e63652060448201526a746f20776974686472617760a81b60648201526084016105f2565b60405163a9059cbb60e01b8152336004820152602481018290527f00000000000000000000000000000000000000000000000000000000000000006001600160a01b03169063a9059cbb90604401602060405180830381600087803b15801561086357600080fd5b505af1158015610877573d6000803e3d6000fd5b505050506040513d601f19601f8201168201806040525081019061089b919061217e565b6108b75760405162461bcd60e51b81526004016105f2906122d8565b6000826001018190555080609960008282546108d39190612402565b909155505060405181815233907f884edad9ce6fa2440d8a54cc123490eb96d2768479d49ff9c7366125a94243649060200160405180910390a25050565b6065546001600160a01b0316331461093b5760405162461bcd60e51b81526004016105f290612374565b610943611bd5565b565b600060975460001415610956575090565b60975460985461096690846123e3565b61097091906123c1565b92915050565b6040516370a0823160e01b81523060048201526000908190819081906001600160a01b037f000000000000000000000000000000000000000000000000000000000000000016906370a082319060240160206040518083038186803b1580156109de57600080fd5b505afa1580156109f2573d6000803e3d6000fd5b505050506040513d601f19601f82011682018060405250810190610a1691906121a0565b9050609954811115610a3657609954610a2f9082612402565b9350610baa565b806099541115610baa57600081609954610a509190612402565b604051638e9f04b560e01b81523060048201529091506000906001600160a01b037f00000000000000000000000000000000000000000000000000000000000000001690638e9f04b59060240160206040518083038186803b158015610ab557600080fd5b505afa158015610ac9573d6000803e3d6000fd5b505050506040513d601f19601f82011682018060405250810190610aed91906121a0565b90508015610ba3576040516367ba9b9160e01b81523060048201526000907f00000000000000000000000000000000000000000000000000000000000000006001600160a01b0316906367ba9b919060240160206040518083038186803b158015610b5757600080fd5b505afa158015610b6b573d6000803e3d6000fd5b505050506040513d601f19601f82011682018060405250810190610b8f91906121a0565b905042811015610b9d578194505b50610ba7565b8194505b50505b50909192565b604051636ceb5ec360e11b81523060048201527f00000000000000000000000000000000000000000000000000000000000000006001600160a01b03169063d9d6bd869034906024016000604051808303818588803b158015610c1257600080fd5b505af1158015610c26573d6000803e3d6000fd5b5050604051632bef459560e01b81523060048201526001600160a01b037f0000000000000000000000000000000000000000000000000000000000000000811660248301527f0000000000000000000000000000000000000000000000000000000000000000169350632bef459592506044019050600060405180830381600087803b158015610cb557600080fd5b505af1158015610cc9573d6000803e3d6000fd5b505050507f00000000000000000000000000000000000000000000000000000000000000006001600160a01b0316639b789b7e6040518163ffffffff1660e01b8152600401600060405180830381600087803b158015610d2857600080fd5b505af1158015610d3c573d6000803e3d6000fd5b50505050565b336000908152609a6020526040808220600181015491516370a0823160e01b815230600482015290919083906001600160a01b037f000000000000000000000000000000000000000000000000000000000000000016906370a082319060240160206040518083038186803b158015610dba57600080fd5b505afa158015610dce573d6000803e3d6000fd5b505050506040513d601f19601f82011682018060405250810190610df291906121a0565b905081811015610e03576000610e05565b815b935050505090565b6065546001600160a01b03163314610e375760405162461bcd60e51b81526004016105f290612374565b6109436000611c68565b6000806000610e4e610976565b919450925090508215610f7957604051631066f98960e21b81523060048201526000907f00000000000000000000000000000000000000000000000000000000000000006001600160a01b03169063419be6249060240160206040518083038186803b158015610ebd57600080fd5b505afa158015610ed1573d6000803e3d6000fd5b505050506040513d601f19601f82011682018060405250810190610ef591906121a0565b905080610f775760405163534a7e1d60e11b8152600481018590527f00000000000000000000000000000000000000000000000000000000000000006001600160a01b03169063a694fc3a90602401600060405180830381600087803b158015610f5e57600080fd5b505af1158015610f72573d6000803e3d6000fd5b505050505b505b8115610ffa576040516305c2fbcf60e31b8152600481018390527f00000000000000000000000000000000000000000000000000000000000000006001600160a01b031690632e17de7890602401600060405180830381600087803b158015610fe157600080fd5b505af1158015610ff5573d6000803e3d6000fd5b505050505b801561107b57604051632e1a7d4d60e01b8152600481018290527f00000000000000000000000000000000000000000000000000000000000000006001600160a01b031690632e1a7d4d90602401600060405180830381600087803b15801561106257600080fd5b505af1158015611076573d6000803e3d6000fd5b505050505b505050565b6065546001600160a01b031633146110aa5760405162461bcd60e51b81526004016105f290612374565b610943611cba565b604051634f31b8dd60e11b81526001600160a01b0382811660048301527f00000000000000000000000000000000000000000000000000000000000000001690639e6371ba906024015b600060405180830381600087803b15801561111657600080fd5b505af115801561112a573d6000803e3d6000fd5b5050505050565b6040516385425f4f60e01b81526004810182905260009081906001600160a01b037f000000000000000000000000000000000000000000000000000000000000000016906385425f4f9060240160206040518083038186803b15801561119657600080fd5b505afa1580156111aa573d6000803e3d6000fd5b505050506040513d601f19601f820116820180604052508101906111ce9190612135565b90506000816001600160a01b0316638aec85426040518163ffffffff1660e01b815260040160206040518083038186803b15801561120b57600080fd5b505afa15801561121f573d6000803e3d6000fd5b505050506040513d601f19601f8201168201806040525081019061124391906121a0565b60405163a5a6cd0b60e01b8152600481018690529091507f00000000000000000000000000000000000000000000000000000000000000006001600160a01b03169063a5a6cd0b90602401602060405180830381600087803b1580156112a857600080fd5b505af11580156112bc573d6000803e3d6000fd5b505050506040513d601f19601f820116820180604052508101906112e0919061217e565b50609b54604051632c7f22b560e21b815260048101869052602481018390526000916001600160a01b03169063b1fc8ad49060440160206040518083038186803b15801561132d57600080fd5b505afa158015611341573d6000803e3d6000fd5b505050506040513d601f19601f8201168201806040525081019061136591906121a0565b9050818111156113df576040805162461bcd60e51b81526020600482015260248101919091527f5374616b696e67506f6f6c50726f6475636572496d706c3a20636f6d6d69737360448201527f696f6e2069732067726561746572207468616e20626c6f636b2072657761726460648201526084016105f2565b8015611511577f00000000000000000000000000000000000000000000000000000000000000006001600160a01b031663a9059cbb6114266065546001600160a01b031690565b6040516001600160e01b031960e084901b1681526001600160a01b03909116600482015260248101849052604401602060405180830381600087803b15801561146e57600080fd5b505af1158015611482573d6000803e3d6000fd5b505050506040513d601f19601f820116820180604052508101906114a6919061217e565b6115115760405162461bcd60e51b815260206004820152603660248201527f5374616b696e67506f6f6c50726f6475636572496d706c3a206661696c6564206044820152753a37903a3930b739b332b91031b7b6b6b4b9b9b4b7b760511b60648201526084016105f2565b600061151d8284612402565b9050806098600082825461153191906123a9565b909155505060408051848152602081018490527fbb9ac692e0e3001a628f86a894f03da4ced5df81886fec577036664ed70a59cb910160405180910390a150600195945050505050565b60335460ff16156115c15760405162461bcd60e51b815260206004820152601060248201526f14185d5cd8589b194e881c185d5cd95960821b60448201526064016105f2565b6000811161162c5760405162461bcd60e51b815260206004820152603260248201527f5374616b696e67506f6f6c55736572496d706c3a20616d6f756e74206d75737460448201527102062652067726561746572207468616e20360741b60648201526084016105f2565b6040516323b872dd60e01b8152336004820152306024820152604481018290527f00000000000000000000000000000000000000000000000000000000000000006001600160a01b0316906323b872dd90606401602060405180830381600087803b15801561169a57600080fd5b505af11580156116ae573d6000803e3d6000fd5b505050506040513d601f19601f820116820180604052508101906116d2919061217e565b6116ee5760405162461bcd60e51b81526004016105f2906122d8565b60006116f98261186a565b9050600081116117695760405162461bcd60e51b815260206004820152603560248201527f5374616b696e67506f6f6c55736572496d706c3a207374616b65206e6f7420656044820152746e6f75676820746f20656d6974203120736861726560581b60648201526084016105f2565b336000908152609a6020526040812080549091839183919061178c9084906123a9565b9091555050609c5461179e90426123a9565b816002018190555082609860008282546117b891906123a9565b9250508190555081609760008282546117d191906123a9565b9091555050600281015460408051858152602081018590529081019190915233907ff556991011e831bcfac4f406d547e5e32cdd98267efab83935230d5f8d02c44690606001610779565b60405163b64b3bed60e01b81526001600160a01b0382811660048301527f0000000000000000000000000000000000000000000000000000000000000000169063b64b3bed906024016110fc565b60006098546000141561187b575090565b60985460975461096690846123e3565b6065546001600160a01b031633146118b55760405162461bcd60e51b81526004016105f290612374565b6040516302571be360e01b81527f91d1777781884d03a6757a803996e38de2a42967fb37eeaca72729271025a9e260048201526000907f00000000000000000000000000000000000000000000000000000000000000006001600160a01b0316906302571be39060240160206040518083038186803b15801561193757600080fd5b505afa15801561194b573d6000803e3d6000fd5b505050506040513d601f19601f8201168201806040525081019061196f9190612135565b60405163c47f002760e01b81529091506001600160a01b0382169063c47f00279061199e908590600401612283565b602060405180830381600087803b1580156119b857600080fd5b505af11580156119cc573d6000803e3d6000fd5b505050506040513d601f19601f820116820180604052508101906119f091906121a0565b507f6aaa0865532d48a9a0f63cc91df7ff2ab538c896665c864ae02d0a1e7f81cf6582604051611a209190612283565b60405180910390a15050565b600054610100900460ff1680611a45575060005460ff16155b611a615760405162461bcd60e51b81526004016105f290612326565b600054610100900460ff16158015611a83576000805461ffff19166101011790555b611a8b611d35565b611a93611db0565b609b80546001600160a01b0319166001600160a01b038516179055611ab6611e17565b611abf82609c55565b801561107b576000805461ff0019169055505050565b604051636ceb5ec360e11b81526001600160a01b0382811660048301527f0000000000000000000000000000000000000000000000000000000000000000169063d9d6bd869034906024016000604051808303818588803b158015611b3957600080fd5b505af1158015611b4d573d6000803e3d6000fd5b5050604051632bef459560e01b81526001600160a01b0385811660048301527f0000000000000000000000000000000000000000000000000000000000000000811660248301527f0000000000000000000000000000000000000000000000000000000000000000169350632bef4595925060440190506110fc565b611bd281611f3a565b50565b60335460ff16611c1e5760405162461bcd60e51b815260206004820152601460248201527314185d5cd8589b194e881b9bdd081c185d5cd95960621b60448201526064016105f2565b6033805460ff191690557f5db9ee0a495bf2e6ff9c91a7834c1ba4fdd244a5e8aa4e537bd38aeae4b073aa335b6040516001600160a01b03909116815260200160405180910390a1565b606580546001600160a01b038381166001600160a01b0319831681179093556040519116919082907f8be0079c531659141344cd1fd0a4f28419497f9722a3daafe3b4186f6b6457e090600090a35050565b60335460ff1615611d005760405162461bcd60e51b815260206004820152601060248201526f14185d5cd8589b194e881c185d5cd95960821b60448201526064016105f2565b6033805460ff191660011790557f62e78cea01bee320cd4e420270b5ea74000d11b0c9f74754ebdbfc544b05a258611c4b3390565b600054610100900460ff1680611d4e575060005460ff16155b611d6a5760405162461bcd60e51b81526004016105f290612326565b600054610100900460ff16158015611d8c576000805461ffff19166101011790555b611d94611fd2565b611d9c61203c565b8015611bd2576000805461ff001916905550565b600054610100900460ff1680611dc9575060005460ff16155b611de55760405162461bcd60e51b81526004016105f290612326565b600054610100900460ff16158015611e07576000805461ffff19166101011790555b611e0f611fd2565b611d9c6120b1565b60405163095ea7b360e01b81526001600160a01b037f00000000000000000000000000000000000000000000000000000000000000008116600483015260001960248301527f0000000000000000000000000000000000000000000000000000000000000000169063095ea7b390604401602060405180830381600087803b158015611ea257600080fd5b505af1158015611eb6573d6000803e3d6000fd5b505050506040513d601f19601f82011682018060405250810190611eda919061217e565b6109435760405162461bcd60e51b815260206004820152602b60248201527f4661696c656420746f20617070726f7665204354534920666f72207374616b6960448201526a1b99c818dbdb9d1c9858dd60aa1b60648201526084016105f2565b6065546001600160a01b03163314611f645760405162461bcd60e51b81526004016105f290612374565b6001600160a01b038116611fc95760405162461bcd60e51b815260206004820152602660248201527f4f776e61626c653a206e6577206f776e657220697320746865207a65726f206160448201526564647265737360d01b60648201526084016105f2565b611bd281611c68565b600054610100900460ff1680611feb575060005460ff16155b6120075760405162461bcd60e51b81526004016105f290612326565b600054610100900460ff16158015611d9c576000805461ffff19166101011790558015611bd2576000805461ff001916905550565b600054610100900460ff1680612055575060005460ff16155b6120715760405162461bcd60e51b81526004016105f290612326565b600054610100900460ff16158015612093576000805461ffff19166101011790555b6033805460ff191690558015611bd2576000805461ff001916905550565b600054610100900460ff16806120ca575060005460ff16155b6120e65760405162461bcd60e51b81526004016105f290612326565b600054610100900460ff16158015612108576000805461ffff19166101011790555b611d9c33611c68565b60006020828403121561212357600080fd5b813561212e81612445565b9392505050565b60006020828403121561214757600080fd5b815161212e81612445565b6000806040838503121561216557600080fd5b823561217081612445565b946020939093013593505050565b60006020828403121561219057600080fd5b8151801515811461212e57600080fd5b6000602082840312156121b257600080fd5b5051919050565b6000602082840312156121cb57600080fd5b813567ffffffffffffffff808211156121e357600080fd5b818401915084601f8301126121f757600080fd5b8135818111156122095761220961242f565b604051601f8201601f19908116603f011681019083821181831017156122315761223161242f565b8160405282815287602084870101111561224a57600080fd5b826020860160208301376000928101602001929092525095945050505050565b60006020828403121561227c57600080fd5b5035919050565b600060208083528351808285015260005b818110156122b057858101830151858201604001528201612294565b818111156122c2576000604083870101525b50601f01601f1916929092016040019392505050565b6020808252602e908201527f5374616b696e67506f6f6c55736572496d706c3a206661696c656420746f207460408201526d72616e7366657220746f6b656e7360901b606082015260800190565b6020808252602e908201527f496e697469616c697a61626c653a20636f6e747261637420697320616c72656160408201526d191e481a5b9a5d1a585b1a5e995960921b606082015260800190565b6020808252818101527f4f776e61626c653a2063616c6c6572206973206e6f7420746865206f776e6572604082015260600190565b600082198211156123bc576123bc612419565b500190565b6000826123de57634e487b7160e01b600052601260045260246000fd5b500490565b60008160001904831182151516156123fd576123fd612419565b500290565b60008282101561241457612414612419565b500390565b634e487b7160e01b600052601160045260246000fd5b634e487b7160e01b600052604160045260246000fd5b6001600160a01b0381168114611bd257600080fdfea26469706673582212202475b4a7082038df9f41bf512204a1243bce16a5905b8d061a1c721f41635b5f64736f6c63430008060033706172616d657465722063616e206e6f74206265207a65726f20616464726573",
  "devdoc": {
    "kind": "dev",
    "methods": {
      "amounts()": {
        "returns": {
          "stake": "amount of tokens that can be staked",
          "unstake": "amount of tokens that must be unstaked to add liquidity",
          "withdraw": "amount of tokens that can be withdrawn to add liquidity"
        }
      },
      "cancelHire(address)": {
        "params": {
          "workerAddress": "address of the worker node"
        }
      },
      "getWithdrawBalance()": {
        "details": "there is no way to know the exact time in the future the requested tokens will be available",
        "returns": {
          "_0": "the amount of tokens that can be immediately withdrawn by the calling user"
        }
      },
      "hire(address)": {
        "params": {
          "workerAddress": "address of the worker"
        }
      },
      "owner()": {
        "details": "Returns the address of the current owner."
      },
      "paused()": {
        "details": "Returns true if the contract is paused, and false otherwise."
      },
      "produceBlock(uint256)": {
        "returns": {
          "_0": "true when everything went fine"
        }
      },
      "renounceOwnership()": {
        "details": "Leaves the contract without owner. It will not be possible to call `onlyOwner` functions anymore. Can only be called by the current owner. NOTE: Renouncing ownership will leave the contract without an owner, thereby removing any functionality that is only available to the owner."
      },
      "retire(address)": {
        "details": "this also removes all authorizations in place",
        "params": {
          "workerAddress": "address of the worker to be retired"
        }
      },
      "stake(uint256)": {
        "params": {
          "_amount": "amount of tokens deposited in the pool"
        }
      },
      "withdraw()": {
        "details": "this will transfer all free tokens for the calling user"
      }
    },
    "version": 1
  },
  "userdoc": {
    "events": {
      "BlockProduced(uint256,uint256)": {
        "notice": "this event is emitted at every produceBlock call reward is the block reward commission is how much CTSI is directed to the pool owner"
      },
      "Stake(address,uint256,uint256,uint256)": {
        "notice": "Tokens were deposited, they count as shares immediatly"
      },
      "StakingPoolRenamed(string)": {
        "notice": "Event emmited when a pool is rename"
      },
      "Unstake(address,uint256,uint256)": {
        "notice": "Request to unstake tokens. Additional liquidity requested for the pool"
      },
      "Withdraw(address,uint256)": {
        "notice": "Withdraw performed by a user"
      }
    },
    "kind": "user",
    "methods": {
      "amounts()": {
        "notice": "provide information for offchain about the amount for each staking operation on the main Staking contract"
      },
      "cancelHire(address)": {
        "notice": "Called by the user to cancel a job offer"
      },
      "getWithdrawBalance()": {
        "notice": "Returns the amount of tokens that can be immediately withdrawn by the calling user"
      },
      "hire(address)": {
        "notice": "Asks the worker to work for the sender. Sender needs to pay something."
      },
      "pause()": {
        "notice": "pauses new staking on the pool"
      },
      "produceBlock(uint256)": {
        "notice": "routes produceBlock to POS contract and updates internal states of the pool"
      },
      "rebalance()": {
        "notice": "Move tokens from pool to staking or vice-versa, according to required liquidity. If the pool has more liquidity then necessary, it stakes tokens. If the pool has less liquidity then necessary, and has not started an unstake, it unstakes. If the pool has less liquity than necessary, and has started an unstake, it withdraws if possible."
      },
      "retire(address)": {
        "notice": "Called by the user to retire his worker."
      },
      "selfhire()": {
        "notice": "allows for the pool to act on its own behalf when producing blocks."
      },
      "setName(string)": {
        "notice": "sets a name for the pool using ENS service"
      },
      "stake(uint256)": {
        "notice": "Stake an amount of tokens, immediately earning pool shares in returns"
      },
      "unpause()": {
        "notice": "unpauses new staking on the pool"
      },
      "unstake(uint256)": {
        "notice": "allow for users to defined exactly how many shares they want to unstake. Estimated value is then emitted on Unstake event"
      },
      "withdraw()": {
        "notice": "Transfer tokens back to calling user wallet"
      }
    },
    "version": 1
  },
  "storageLayout": {
    "storage": [
      {
        "astId": 770,
        "contract": "contracts/StakingPoolImpl.sol:StakingPoolImpl",
        "label": "_initialized",
        "offset": 0,
        "slot": "0",
        "type": "t_bool"
      },
      {
        "astId": 773,
        "contract": "contracts/StakingPoolImpl.sol:StakingPoolImpl",
        "label": "_initializing",
        "offset": 1,
        "slot": "0",
        "type": "t_bool"
      },
      {
        "astId": 965,
        "contract": "contracts/StakingPoolImpl.sol:StakingPoolImpl",
        "label": "__gap",
        "offset": 0,
        "slot": "1",
        "type": "t_array(t_uint256)50_storage"
      },
      {
        "astId": 831,
        "contract": "contracts/StakingPoolImpl.sol:StakingPoolImpl",
        "label": "_paused",
        "offset": 0,
        "slot": "51",
        "type": "t_bool"
      },
      {
        "astId": 922,
        "contract": "contracts/StakingPoolImpl.sol:StakingPoolImpl",
        "label": "__gap",
        "offset": 0,
        "slot": "52",
        "type": "t_array(t_uint256)49_storage"
      },
      {
        "astId": 650,
        "contract": "contracts/StakingPoolImpl.sol:StakingPoolImpl",
        "label": "_owner",
        "offset": 0,
        "slot": "101",
        "type": "t_address"
      },
      {
        "astId": 763,
        "contract": "contracts/StakingPoolImpl.sol:StakingPoolImpl",
        "label": "__gap",
        "offset": 0,
        "slot": "102",
        "type": "t_array(t_uint256)49_storage"
      },
      {
        "astId": 2387,
        "contract": "contracts/StakingPoolImpl.sol:StakingPoolImpl",
        "label": "shares",
        "offset": 0,
        "slot": "151",
        "type": "t_uint256"
      },
      {
        "astId": 2389,
        "contract": "contracts/StakingPoolImpl.sol:StakingPoolImpl",
        "label": "amount",
        "offset": 0,
        "slot": "152",
        "type": "t_uint256"
      },
      {
        "astId": 2391,
        "contract": "contracts/StakingPoolImpl.sol:StakingPoolImpl",
        "label": "requiredLiquidity",
        "offset": 0,
        "slot": "153",
        "type": "t_uint256"
      },
      {
        "astId": 2403,
        "contract": "contracts/StakingPoolImpl.sol:StakingPoolImpl",
        "label": "userBalance",
        "offset": 0,
        "slot": "154",
        "type": "t_mapping(t_address,t_struct(UserBalance)2398_storage)"
      },
      {
        "astId": 2958,
        "contract": "contracts/StakingPoolImpl.sol:StakingPoolImpl",
        "label": "fee",
        "offset": 0,
        "slot": "155",
        "type": "t_contract(Fee)3722"
      },
      {
        "astId": 3288,
        "contract": "contracts/StakingPoolImpl.sol:StakingPoolImpl",
        "label": "lockTime",
        "offset": 0,
        "slot": "156",
        "type": "t_uint256"
      }
    ],
    "types": {
      "t_address": {
        "encoding": "inplace",
        "label": "address",
        "numberOfBytes": "20"
      },
      "t_array(t_uint256)49_storage": {
        "base": "t_uint256",
        "encoding": "inplace",
        "label": "uint256[49]",
        "numberOfBytes": "1568"
      },
      "t_array(t_uint256)50_storage": {
        "base": "t_uint256",
        "encoding": "inplace",
        "label": "uint256[50]",
        "numberOfBytes": "1600"
      },
      "t_bool": {
        "encoding": "inplace",
        "label": "bool",
        "numberOfBytes": "1"
      },
      "t_contract(Fee)3722": {
        "encoding": "inplace",
        "label": "contract Fee",
        "numberOfBytes": "20"
      },
      "t_mapping(t_address,t_struct(UserBalance)2398_storage)": {
        "encoding": "mapping",
        "key": "t_address",
        "label": "mapping(address => struct StakingPoolData.UserBalance)",
        "numberOfBytes": "32",
        "value": "t_struct(UserBalance)2398_storage"
      },
      "t_struct(UserBalance)2398_storage": {
        "encoding": "inplace",
        "label": "struct StakingPoolData.UserBalance",
        "members": [
          {
            "astId": 2393,
            "contract": "contracts/StakingPoolImpl.sol:StakingPoolImpl",
            "label": "shares",
            "offset": 0,
            "slot": "0",
            "type": "t_uint256"
          },
          {
            "astId": 2395,
            "contract": "contracts/StakingPoolImpl.sol:StakingPoolImpl",
            "label": "released",
            "offset": 0,
            "slot": "1",
            "type": "t_uint256"
          },
          {
            "astId": 2397,
            "contract": "contracts/StakingPoolImpl.sol:StakingPoolImpl",
            "label": "unstakeTimestamp",
            "offset": 0,
            "slot": "2",
            "type": "t_uint256"
          }
        ],
        "numberOfBytes": "96"
      },
      "t_uint256": {
        "encoding": "inplace",
        "label": "uint256",
        "numberOfBytes": "32"
      }
    }
  }
}