{
  "address": "0x6535ef5545b4fDa71097E336b2791f94e41388dc",
  "abi": [
    {
      "inputs": [
        {
          "internalType": "address",
          "name": "_gasOracle",
          "type": "address"
        },
        {
          "internalType": "address",
          "name": "_uniswapOracle",
          "type": "address"
        }
      ],
      "stateMutability": "nonpayable",
      "type": "constructor"
    },
    {
      "anonymous": false,
      "inputs": [
        {
          "indexed": true,
          "internalType": "address",
          "name": "pool",
          "type": "address"
        },
        {
          "indexed": false,
          "internalType": "address",
          "name": "fee",
          "type": "address"
        }
      ],
      "name": "NewFlatRateCommissionStakingPool",
      "type": "event"
    },
    {
      "anonymous": false,
      "inputs": [
        {
          "indexed": true,
          "internalType": "address",
          "name": "pool",
          "type": "address"
        },
        {
          "indexed": false,
          "internalType": "address",
          "name": "fee",
          "type": "address"
        }
      ],
      "name": "NewGasTaxCommissionStakingPool",
      "type": "event"
    },
    {
      "anonymous": false,
      "inputs": [
        {
          "indexed": true,
          "internalType": "address",
          "name": "previousOwner",
          "type": "address"
        },
        {
          "indexed": true,
          "internalType": "address",
          "name": "newOwner",
          "type": "address"
        }
      ],
      "name": "OwnershipTransferred",
      "type": "event"
    },
    {
      "anonymous": false,
      "inputs": [
        {
          "indexed": false,
          "internalType": "address",
          "name": "account",
          "type": "address"
        }
      ],
      "name": "Paused",
      "type": "event"
    },
    {
      "anonymous": false,
      "inputs": [
        {
          "indexed": true,
          "internalType": "address",
          "name": "pool",
          "type": "address"
        }
      ],
      "name": "ReferencePoolChanged",
      "type": "event"
    },
    {
      "anonymous": false,
      "inputs": [
        {
          "indexed": false,
          "internalType": "address",
          "name": "account",
          "type": "address"
        }
      ],
      "name": "Unpaused",
      "type": "event"
    },
    {
      "inputs": [
        {
          "internalType": "uint256",
          "name": "commission",
          "type": "uint256"
        }
      ],
      "name": "createFlatRateCommission",
      "outputs": [
        {
          "internalType": "address",
          "name": "",
          "type": "address"
        }
      ],
      "stateMutability": "payable",
      "type": "function"
    },
    {
      "inputs": [
        {
          "internalType": "uint256",
          "name": "gas",
          "type": "uint256"
        }
      ],
      "name": "createGasTaxCommission",
      "outputs": [
        {
          "internalType": "address",
          "name": "",
          "type": "address"
        }
      ],
      "stateMutability": "payable",
      "type": "function"
    },
    {
      "inputs": [],
      "name": "gasOracle",
      "outputs": [
        {
          "internalType": "address",
          "name": "",
          "type": "address"
        }
      ],
      "stateMutability": "view",
      "type": "function"
    },
    {
      "inputs": [],
      "name": "owner",
      "outputs": [
        {
          "internalType": "address",
          "name": "",
          "type": "address"
        }
      ],
      "stateMutability": "view",
      "type": "function"
    },
    {
      "inputs": [],
      "name": "pause",
      "outputs": [],
      "stateMutability": "nonpayable",
      "type": "function"
    },
    {
      "inputs": [],
      "name": "paused",
      "outputs": [
        {
          "internalType": "bool",
          "name": "",
          "type": "bool"
        }
      ],
      "stateMutability": "view",
      "type": "function"
    },
    {
      "inputs": [],
      "name": "referencePool",
      "outputs": [
        {
          "internalType": "address",
          "name": "",
          "type": "address"
        }
      ],
      "stateMutability": "view",
      "type": "function"
    },
    {
      "inputs": [],
      "name": "renounceOwnership",
      "outputs": [],
      "stateMutability": "nonpayable",
      "type": "function"
    },
    {
      "inputs": [
        {
          "internalType": "address",
          "name": "_referencePool",
          "type": "address"
        }
      ],
      "name": "setReferencePool",
      "outputs": [],
      "stateMutability": "nonpayable",
      "type": "function"
    },
    {
      "inputs": [
        {
          "internalType": "address",
          "name": "newOwner",
          "type": "address"
        }
      ],
      "name": "transferOwnership",
      "outputs": [],
      "stateMutability": "nonpayable",
      "type": "function"
    },
    {
      "inputs": [],
      "name": "uniswapOracle",
      "outputs": [
        {
          "internalType": "address",
          "name": "",
          "type": "address"
        }
      ],
      "stateMutability": "view",
      "type": "function"
    },
    {
      "inputs": [],
      "name": "unpause",
      "outputs": [],
      "stateMutability": "nonpayable",
      "type": "function"
    },
    {
      "stateMutability": "payable",
      "type": "receive"
    }
  ],
  "transactionHash": "0x7b8d70767813dc73fa3d4071707a3cac5a70601eb8d0df0dc21a6666a6fec5eb",
  "args": [
    "0x6d06fb344cf6bb49cf867F0ffF599e44b9BEAdC8",
    "0x20BdB484Ee516946e37E6555385919532E36CB18"
  ],
  "solcInputHash": "5a6bf7d4bcc78a051ef8b721edd8b749",
  "bytecode": "0x60c060405234801561001057600080fd5b50604051611bd3380380611bd383398101604081905261002f916101a8565b6100383361013c565b6000805460ff60a01b191690556001600160a01b0382166100b45760405162461bcd60e51b815260206004820152603a6024820152600080516020611bb383398151915260448201527f722063616e206e6f74206265207a65726f20616464726573732e00000000000060648201526084015b60405180910390fd5b6001600160a01b03811661011e5760405162461bcd60e51b815260206004820152603a6024820152600080516020611bb383398151915260448201527f722063616e206e6f74206265207a65726f20616464726573732e00000000000060648201526084016100ab565b6001600160601b0319606092831b8116608052911b1660a0526101db565b600080546001600160a01b038381166001600160a01b0319831681178455604051919092169283917f8be0079c531659141344cd1fd0a4f28419497f9722a3daafe3b4186f6b6457e09190a35050565b80516001600160a01b03811681146101a357600080fd5b919050565b600080604083850312156101bb57600080fd5b6101c48361018c565b91506101d26020840161018c565b90509250929050565b60805160601c60a05160601c6119a06102136000396000818160c901526106cf01526000818161017b01526106ae01526119a06000f3fe6080604052600436106100ab5760003560e01c80638456cb59116100645780638456cb59146101b257806386f1a717146101c75780638da5cb5b146101da57806395994ef7146101f8578063964658b614610218578063f2fde38b1461022b57600080fd5b8063120c6c5b146100b75780633f4ba83a14610108578063533135b61461011f5780635c975abb1461013f5780635d62a8dd14610169578063715018a61461019d57600080fd5b366100b257005b600080fd5b3480156100c357600080fd5b506100eb7f000000000000000000000000000000000000000000000000000000000000000081565b6040516001600160a01b0390911681526020015b60405180910390f35b34801561011457600080fd5b5061011d61024b565b005b34801561012b57600080fd5b506001546100eb906001600160a01b031681565b34801561014b57600080fd5b50600054600160a01b900460ff1660405190151581526020016100ff565b34801561017557600080fd5b506100eb7f000000000000000000000000000000000000000000000000000000000000000081565b3480156101a957600080fd5b5061011d6102d4565b3480156101be57600080fd5b5061011d610308565b6100eb6101d5366004610bf1565b610364565b3480156101e657600080fd5b506000546001600160a01b03166100eb565b34801561020457600080fd5b5061011d610213366004610bc1565b6105e3565b6100eb610226366004610bf1565b610657565b34801561023757600080fd5b5061011d610246366004610bc1565b610922565b600054600160a01b900460ff166102a05760405162461bcd60e51b815260206004820152601460248201527314185d5cd8589b194e881b9bdd081c185d5cd95960621b60448201526064015b60405180910390fd5b6000546001600160a01b031633146102ca5760405162461bcd60e51b815260040161029790610c34565b6102d26109bd565b565b6000546001600160a01b031633146102fe5760405162461bcd60e51b815260040161029790610c34565b6102d26000610a5a565b600054600160a01b900460ff16156103325760405162461bcd60e51b815260040161029790610c0a565b6000546001600160a01b0316331461035c5760405162461bcd60e51b815260040161029790610c34565b6102d2610aaa565b60008054600160a01b900460ff161561038f5760405162461bcd60e51b815260040161029790610c0a565b6001546001600160a01b03166103b75760405162461bcd60e51b815260040161029790610c69565b6000826040516103c690610ba7565b908152602001604051809103906000f0801580156103e8573d6000803e3d6000fd5b50600154909150600090610404906001600160a01b0316610b0f565b60405163189acdbd60e31b81526001600160a01b038481166004830152919250829182169063c4d66de890602401600060405180830381600087803b15801561044c57600080fd5b505af1158015610460573d6000803e3d6000fd5b505060405163f2fde38b60e01b81523360048201526001600160a01b038416925063f2fde38b9150602401600060405180830381600087803b1580156104a557600080fd5b505af11580156104b9573d6000803e3d6000fd5b505060405163f2fde38b60e01b81523360048201526001600160a01b038616925063f2fde38b9150602401600060405180830381600087803b1580156104fe57600080fd5b505af1158015610512573d6000803e3d6000fd5b50505050806001600160a01b0316636ff46a6c346040518263ffffffff1660e01b81526004016000604051808303818588803b15801561055157600080fd5b505af1158015610565573d6000803e3d6000fd5b50506040513393503480156108fc02935091506000818181858888f19350505050158015610597573d6000803e3d6000fd5b506040516001600160a01b0384811682528216907fdca0276ad17c3c65434ae45a0754677f87ae465de69763ebe79ceaeff2805bc7906020015b60405180910390a2925050505b919050565b6000546001600160a01b0316331461060d5760405162461bcd60e51b815260040161029790610c34565b600180546001600160a01b0319166001600160a01b0383169081179091556040517f5e3b1dda0e29fe5d32248c3be6ac8f07890d4bc593a7810238b65d512197042490600090a250565b60008054600160a01b900460ff16156106825760405162461bcd60e51b815260040161029790610c0a565b6001546001600160a01b03166106aa5760405162461bcd60e51b815260040161029790610c69565b60007f00000000000000000000000000000000000000000000000000000000000000007f0000000000000000000000000000000000000000000000000000000000000000846040516106fb90610bb4565b6001600160a01b0393841681529290911660208301526040820152606001604051809103906000f080158015610735573d6000803e3d6000fd5b50600154909150600090610751906001600160a01b0316610b0f565b60405163189acdbd60e31b81526001600160a01b038481166004830152919250829182169063c4d66de890602401600060405180830381600087803b15801561079957600080fd5b505af11580156107ad573d6000803e3d6000fd5b505060405163f2fde38b60e01b81523360048201526001600160a01b038416925063f2fde38b9150602401600060405180830381600087803b1580156107f257600080fd5b505af1158015610806573d6000803e3d6000fd5b505060405163f2fde38b60e01b81523360048201526001600160a01b038616925063f2fde38b9150602401600060405180830381600087803b15801561084b57600080fd5b505af115801561085f573d6000803e3d6000fd5b50505050806001600160a01b0316636ff46a6c346040518263ffffffff1660e01b81526004016000604051808303818588803b15801561089e57600080fd5b505af11580156108b2573d6000803e3d6000fd5b50506040513393503480156108fc02935091506000818181858888f193505050501580156108e4573d6000803e3d6000fd5b506040516001600160a01b0384811682528216907f93b9326c0865b177ab4a6131c8e6806a0edc9f3585dbaeb773542d3582d04571906020016105d1565b6000546001600160a01b0316331461094c5760405162461bcd60e51b815260040161029790610c34565b6001600160a01b0381166109b15760405162461bcd60e51b815260206004820152602660248201527f4f776e61626c653a206e6577206f776e657220697320746865207a65726f206160448201526564647265737360d01b6064820152608401610297565b6109ba81610a5a565b50565b600054600160a01b900460ff16610a0d5760405162461bcd60e51b815260206004820152601460248201527314185d5cd8589b194e881b9bdd081c185d5cd95960621b6044820152606401610297565b6000805460ff60a01b191690557f5db9ee0a495bf2e6ff9c91a7834c1ba4fdd244a5e8aa4e537bd38aeae4b073aa335b6040516001600160a01b03909116815260200160405180910390a1565b600080546001600160a01b038381166001600160a01b0319831681178455604051919092169283917f8be0079c531659141344cd1fd0a4f28419497f9722a3daafe3b4186f6b6457e09190a35050565b600054600160a01b900460ff1615610ad45760405162461bcd60e51b815260040161029790610c0a565b6000805460ff60a01b1916600160a01b1790557f62e78cea01bee320cd4e420270b5ea74000d11b0c9f74754ebdbfc544b05a258610a3d3390565b6000604051733d602d80600a3d3981f3363d3d373d3d3d363d7360601b81528260601b60148201526e5af43d82803e903d91602b57fd5bf360881b60288201526037816000f09150506001600160a01b0381166105de5760405162461bcd60e51b8152602060048201526016602482015275115490cc4c4d8dce8818dc99585d194819985a5b195960521b6044820152606401610297565b61054180610cba83390190565b610770806111fb83390190565b600060208284031215610bd357600080fd5b81356001600160a01b0381168114610bea57600080fd5b9392505050565b600060208284031215610c0357600080fd5b5035919050565b60208082526010908201526f14185d5cd8589b194e881c185d5cd95960821b604082015260600190565b6020808252818101527f4f776e61626c653a2063616c6c6572206973206e6f7420746865206f776e6572604082015260600190565b60208082526030908201527f5374616b696e67506f6f6c466163746f7279496d706c3a20756e646566696e6560408201526f19081c9959995c995b98d9481c1bdbdb60821b60608201526080019056fe608060405261271060015534801561001657600080fd5b50604051610541380380610541833981016040819052610035916100cc565b61003e3361007c565b60028190556040518181527f7c077544e22d8a88c7724ade64ffb2e31f1dce5369f26a3754b8e04aa87bdb669060200160405180910390a1506100e5565b600080546001600160a01b038381166001600160a01b0319831681178455604051919092169283917f8be0079c531659141344cd1fd0a4f28419497f9722a3daafe3b4186f6b6457e09190a35050565b6000602082840312156100de57600080fd5b5051919050565b61044d806100f46000396000f3fe608060405234801561001057600080fd5b506004361061007d5760003560e01c80638da5cb5b1161005b5780638da5cb5b146100bb578063b1fc8ad4146100d6578063ec342ad0146100e9578063f2fde38b146100f257600080fd5b80632c4e722e1461008257806334fcf4371461009e578063715018a6146100b3575b600080fd5b61008b60025481565b6040519081526020015b60405180910390f35b6100b16100ac366004610358565b610105565b005b6100b16101ea565b6000546040516001600160a01b039091168152602001610095565b61008b6100e4366004610371565b610220565b61008b60015481565b6100b161010036600461032f565b610244565b6000546001600160a01b031633146101385760405162461bcd60e51b815260040161012f90610393565b60405180910390fd5b60025481106101af5760405162461bcd60e51b815260206004820152603760248201527f6e657752617465206e6565647320746f206265207374726963746c7920736d6160448201527f6c6c6572207468616e2063757272656e7420726174652e000000000000000000606482015260840161012f565b60028190556040518181527f7c077544e22d8a88c7724ade64ffb2e31f1dce5369f26a3754b8e04aa87bdb669060200160405180910390a150565b6000546001600160a01b031633146102145760405162461bcd60e51b815260040161012f90610393565b61021e60006102df565b565b60006001546002548361023391906103ea565b61023d91906103c8565b9392505050565b6000546001600160a01b0316331461026e5760405162461bcd60e51b815260040161012f90610393565b6001600160a01b0381166102d35760405162461bcd60e51b815260206004820152602660248201527f4f776e61626c653a206e6577206f776e657220697320746865207a65726f206160448201526564647265737360d01b606482015260840161012f565b6102dc816102df565b50565b600080546001600160a01b038381166001600160a01b0319831681178455604051919092169283917f8be0079c531659141344cd1fd0a4f28419497f9722a3daafe3b4186f6b6457e09190a35050565b60006020828403121561034157600080fd5b81356001600160a01b038116811461023d57600080fd5b60006020828403121561036a57600080fd5b5035919050565b6000806040838503121561038457600080fd5b50508035926020909101359150565b6020808252818101527f4f776e61626c653a2063616c6c6572206973206e6f7420746865206f776e6572604082015260600190565b6000826103e557634e487b7160e01b600052601260045260246000fd5b500490565b600081600019048311821515161561041257634e487b7160e01b600052601160045260246000fd5b50029056fea264697066735822122078c1153af5787f1a3c05ceee0aac2a701a8f86222abc6f0e11138546abe46df364736f6c6343000806003360c060405234801561001057600080fd5b5060405161077038038061077083398101604081905261002f91610105565b61003833610099565b6001600160601b0319606084811b821660805283901b1660a05260018190556040517fd8120d6ff65f04a7663a7fa333122bcf1630c76e6198691647b8b952fd6427f7906100899083815260200190565b60405180910390a1505050610141565b600080546001600160a01b038381166001600160a01b0319831681178455604051919092169283917f8be0079c531659141344cd1fd0a4f28419497f9722a3daafe3b4186f6b6457e09190a35050565b80516001600160a01b038116811461010057600080fd5b919050565b60008060006060848603121561011a57600080fd5b610123846100e9565b9250610131602085016100e9565b9150604084015190509250925092565b60805160601c60a05160601c6105f8610178600039600081816092015261024e01526000818160d601526101a701526105f86000f3fe608060405234801561001057600080fd5b50600436106100885760003560e01c80638da5cb5b1161005b5780638da5cb5b14610119578063b1fc8ad41461012a578063dd51faa21461013d578063f2fde38b1461015057600080fd5b80632630c12f1461008d5780635d62a8dd146100d15780636ca7c216146100f8578063715018a61461010f575b600080fd5b6100b47f000000000000000000000000000000000000000000000000000000000000000081565b6040516001600160a01b0390911681526020015b60405180910390f35b6100b47f000000000000000000000000000000000000000000000000000000000000000081565b61010160015481565b6040519081526020016100c8565b610117610163565b005b6000546001600160a01b03166100b4565b61010161013836600461053e565b6101a2565b61011761014b36600461050c565b610307565b61011761015e3660046104dc565b6103f1565b6000546001600160a01b031633146101965760405162461bcd60e51b815260040161018d90610560565b60405180910390fd5b6101a0600061048c565b565b6000807f00000000000000000000000000000000000000000000000000000000000000006001600160a01b031663455259cb6040518163ffffffff1660e01b815260040160206040518083038186803b1580156101fe57600080fd5b505afa158015610212573d6000803e3d6000fd5b505050506040513d601f19601f820116820180604052508101906102369190610525565b90506000600154826102489190610595565b905060007f00000000000000000000000000000000000000000000000000000000000000006001600160a01b03166398d5fdca6040518163ffffffff1660e01b815260040160206040518083038186803b1580156102a557600080fd5b505afa1580156102b9573d6000803e3d6000fd5b505050506040513d601f19601f820116820180604052508101906102dd9190610525565b905060006102eb8284610595565b90508581116102fa57806102fc565b855b979650505050505050565b6000546001600160a01b031633146103315760405162461bcd60e51b815260040161018d90610560565b60015481106103b65760405162461bcd60e51b815260206004820152604560248201527f6e6577476173436f6d6d697373696f6e206e6565647320746f2062652073747260448201527f6963746c7920736d616c6c6572207468616e207468652063757272656e74207660648201526430b63ab29760d91b608482015260a40161018d565b60018190556040518181527fd8120d6ff65f04a7663a7fa333122bcf1630c76e6198691647b8b952fd6427f79060200160405180910390a150565b6000546001600160a01b0316331461041b5760405162461bcd60e51b815260040161018d90610560565b6001600160a01b0381166104805760405162461bcd60e51b815260206004820152602660248201527f4f776e61626c653a206e6577206f776e657220697320746865207a65726f206160448201526564647265737360d01b606482015260840161018d565b6104898161048c565b50565b600080546001600160a01b038381166001600160a01b0319831681178455604051919092169283917f8be0079c531659141344cd1fd0a4f28419497f9722a3daafe3b4186f6b6457e09190a35050565b6000602082840312156104ee57600080fd5b81356001600160a01b038116811461050557600080fd5b9392505050565b60006020828403121561051e57600080fd5b5035919050565b60006020828403121561053757600080fd5b5051919050565b6000806040838503121561055157600080fd5b50508035926020909101359150565b6020808252818101527f4f776e61626c653a2063616c6c6572206973206e6f7420746865206f776e6572604082015260600190565b60008160001904831182151516156105bd57634e487b7160e01b600052601160045260246000fd5b50029056fea26469706673582212204e2c2aeccdccd44b547b81ffb4372d8b85d6cd54aae998bde2042139f690c0f164736f6c63430008060033a2646970667358221220ca2c1bfcadf710847afd5eed42730d33e1c29e9db5d08ebfbc2d686332ccd48664736f6c634300080600335374616b696e67506f6f6c466163746f7279496d706c3a20706172616d657465",
  "devdoc": {
    "kind": "dev",
    "methods": {
      "createFlatRateCommission(uint256)": {
        "returns": {
          "_0": "new pool address"
        }
      },
      "createGasTaxCommission(uint256)": {
        "returns": {
          "_0": "new pool address"
        }
      },
      "owner()": {
        "details": "Returns the address of the current owner."
      },
      "paused()": {
        "details": "Returns true if the contract is paused, and false otherwise."
      },
      "renounceOwnership()": {
        "details": "Leaves the contract without owner. It will not be possible to call `onlyOwner` functions anymore. Can only be called by the current owner. NOTE: Renouncing ownership will leave the contract without an owner, thereby removing any functionality that is only available to the owner."
      },
      "transferOwnership(address)": {
        "details": "Transfers ownership of the contract to a new account (`newOwner`). Can only be called by the current owner."
      }
    },
    "version": 1
  },
  "userdoc": {
    "events": {
      "NewFlatRateCommissionStakingPool(address,address)": {
        "notice": "Event emmited when a pool is created"
      },
      "NewGasTaxCommissionStakingPool(address,address)": {
        "notice": "Event emmited when a pool is created"
      }
    },
    "kind": "user",
    "methods": {
      "createFlatRateCommission(uint256)": {
        "notice": "Creates a new staking pool emits NewStakingPool with the parameters of the new pool"
      },
      "createGasTaxCommission(uint256)": {
        "notice": "Creates a new staking pool using a gas tax commission model emits NewGasTaxCommissionStakingPool with the parameters of the new pool"
      },
      "setReferencePool(address)": {
        "notice": "Change the pool reference implementation"
      }
    },
    "version": 1
  },
  "storageLayout": {
    "storage": [
      {
        "astId": 1183,
        "contract": "contracts/StakingPoolFactoryImpl.sol:StakingPoolFactoryImpl",
        "label": "_owner",
        "offset": 0,
        "slot": "0",
        "type": "t_address"
      },
      {
        "astId": 1377,
        "contract": "contracts/StakingPoolFactoryImpl.sol:StakingPoolFactoryImpl",
        "label": "_paused",
        "offset": 20,
        "slot": "0",
        "type": "t_bool"
      },
      {
        "astId": 2499,
        "contract": "contracts/StakingPoolFactoryImpl.sol:StakingPoolFactoryImpl",
        "label": "referencePool",
        "offset": 0,
        "slot": "1",
        "type": "t_address"
      }
    ],
    "types": {
      "t_address": {
        "encoding": "inplace",
        "label": "address",
        "numberOfBytes": "20"
      },
      "t_bool": {
        "encoding": "inplace",
        "label": "bool",
        "numberOfBytes": "1"
      }
    }
  }
}