{
  "address": "0x5ff5Dc16b31fc339FC3a0BeBcf00370B4B485be7",
  "abi": [
    {
      "anonymous": false,
      "inputs": [
        {
          "indexed": true,
          "internalType": "int256",
          "name": "current",
          "type": "int256"
        },
        {
          "indexed": true,
          "internalType": "uint256",
          "name": "roundId",
          "type": "uint256"
        },
        {
          "indexed": false,
          "internalType": "uint256",
          "name": "updatedAt",
          "type": "uint256"
        }
      ],
      "name": "AnswerUpdated",
      "type": "event"
    },
    {
      "anonymous": false,
      "inputs": [
        {
          "indexed": true,
          "internalType": "uint256",
          "name": "roundId",
          "type": "uint256"
        },
        {
          "indexed": true,
          "internalType": "address",
          "name": "startedBy",
          "type": "address"
        },
        {
          "indexed": false,
          "internalType": "uint256",
          "name": "startedAt",
          "type": "uint256"
        }
      ],
      "name": "NewRound",
      "type": "event"
    },
    {
      "inputs": [
        {
          "internalType": "uint256",
          "name": "roundId",
          "type": "uint256"
        }
      ],
      "name": "getAnswer",
      "outputs": [
        {
          "internalType": "int256",
          "name": "",
          "type": "int256"
        }
      ],
      "stateMutability": "view",
      "type": "function"
    },
    {
      "inputs": [
        {
          "internalType": "uint256",
          "name": "roundId",
          "type": "uint256"
        }
      ],
      "name": "getTimestamp",
      "outputs": [
        {
          "internalType": "uint256",
          "name": "",
          "type": "uint256"
        }
      ],
      "stateMutability": "view",
      "type": "function"
    },
    {
      "inputs": [],
      "name": "latestAnswer",
      "outputs": [
        {
          "internalType": "int256",
          "name": "",
          "type": "int256"
        }
      ],
      "stateMutability": "view",
      "type": "function"
    },
    {
      "inputs": [],
      "name": "latestRound",
      "outputs": [
        {
          "internalType": "uint256",
          "name": "",
          "type": "uint256"
        }
      ],
      "stateMutability": "view",
      "type": "function"
    },
    {
      "inputs": [],
      "name": "latestTimestamp",
      "outputs": [
        {
          "internalType": "uint256",
          "name": "",
          "type": "uint256"
        }
      ],
      "stateMutability": "view",
      "type": "function"
    },
    {
      "inputs": [
        {
          "internalType": "int256",
          "name": "answer",
          "type": "int256"
        }
      ],
      "name": "setAnswer",
      "outputs": [],
      "stateMutability": "nonpayable",
      "type": "function"
    }
  ],
  "transactionHash": "0xc7e9ff415c683a23e2a9f494ec80ea4ac258e0f8723f6cd9bacc7983a5ca1369",
  "args": [],
  "solcInputHash": "85dbea9097cd8afef05a23bb24c383ad",
  "bytecode": "0x608060405234801561001057600080fd5b50610223806100206000396000f3fe608060405234801561001057600080fd5b50600436106100625760003560e01c806350d25bcd14610067578063668a0f021461008a5780638205bf6a1461009257806399213cd8146100a7578063b5ab58dc146100bc578063b633620c146100dc575b600080fd5b600080548152600160205260409020545b60405190815260200160405180910390f35b600054610078565b60008054815260026020526040902054610078565b6100ba6100b53660046101ab565b6100fc565b005b6100786100ca3660046101ab565b60009081526001602052604090205490565b6100786100ea3660046101ab565b60009081526002602052604090205490565b60008054908061010b836101c4565b90915550506000805481526001602090815260408083208490558254835260028252808320429081905592549051928352339290917f0109fc6f55cf40689f02fbaad7af7fe7bbac8a3d2186600afc7d3e10cac60271910160405180910390a3600054817f0559884fd3a460db3073b7fc896cc77986f16e378210ded43186175bf646fc5f426040516101a091815260200190565b60405180910390a350565b6000602082840312156101bd57600080fd5b5035919050565b60006000198214156101e657634e487b7160e01b600052601160045260246000fd5b506001019056fea2646970667358221220e7f9bbdd4b0c4db22bbe08e9221eb304ad48088ad719dee0357114ecf86b4f5264736f6c63430008070033",
  "devdoc": {
    "kind": "dev",
    "methods": {},
    "version": 1
  },
  "userdoc": {
    "kind": "user",
    "methods": {},
    "version": 1
  },
  "storageLayout": {
    "storage": [
      {
        "astId": 3661,
        "contract": "contracts/test/MockAggregator.sol:MockAggregator",
        "label": "_round",
        "offset": 0,
        "slot": "0",
        "type": "t_uint256"
      },
      {
        "astId": 3665,
        "contract": "contracts/test/MockAggregator.sol:MockAggregator",
        "label": "_answers",
        "offset": 0,
        "slot": "1",
        "type": "t_mapping(t_uint256,t_int256)"
      },
      {
        "astId": 3669,
        "contract": "contracts/test/MockAggregator.sol:MockAggregator",
        "label": "_timestamps",
        "offset": 0,
        "slot": "2",
        "type": "t_mapping(t_uint256,t_uint256)"
      }
    ],
    "types": {
      "t_int256": {
        "encoding": "inplace",
        "label": "int256",
        "numberOfBytes": "32"
      },
      "t_mapping(t_uint256,t_int256)": {
        "encoding": "mapping",
        "key": "t_uint256",
        "label": "mapping(uint256 => int256)",
        "numberOfBytes": "32",
        "value": "t_int256"
      },
      "t_mapping(t_uint256,t_uint256)": {
        "encoding": "mapping",
        "key": "t_uint256",
        "label": "mapping(uint256 => uint256)",
        "numberOfBytes": "32",
        "value": "t_uint256"
      },
      "t_uint256": {
        "encoding": "inplace",
        "label": "uint256",
        "numberOfBytes": "32"
      }
    }
  }
}